{
  "contracts/CSUMarketplace.sol": {
    "CSUMarketplace": {
      "abi": [
        {
          "inputs": [],
          "stateMutability": "nonpayable",
          "type": "constructor"
        },
        {
          "inputs": [],
          "name": "DuplicateTransaction",
          "type": "error"
        },
        {
          "inputs": [],
          "name": "InvalidAddress",
          "type": "error"
        },
        {
          "inputs": [],
          "name": "InvalidPrice",
          "type": "error"
        },
        {
          "inputs": [],
          "name": "InvalidQuantity",
          "type": "error"
        },
        {
          "inputs": [],
          "name": "InvalidStatusTransition",
          "type": "error"
        },
        {
          "inputs": [],
          "name": "OnlyBuyerCanCancel",
          "type": "error"
        },
        {
          "inputs": [],
          "name": "OnlySellerCanAcceptReject",
          "type": "error"
        },
        {
          "inputs": [],
          "name": "OnlySellerOrBuyerCanComplete",
          "type": "error"
        },
        {
          "inputs": [],
          "name": "StringTooLong",
          "type": "error"
        },
        {
          "inputs": [],
          "name": "TransactionNotFound",
          "type": "error"
        },
        {
          "inputs": [],
          "name": "Unauthorized",
          "type": "error"
        },
        {
          "anonymous": false,
          "inputs": [
            {
              "indexed": true,
              "internalType": "uint256",
              "name": "blockchainId",
              "type": "uint256"
            },
            {
              "indexed": false,
              "internalType": "string",
              "name": "supabaseId",
              "type": "string"
            },
            {
              "indexed": false,
              "internalType": "string",
              "name": "orderId",
              "type": "string"
            },
            {
              "indexed": true,
              "internalType": "address",
              "name": "buyerWallet",
              "type": "address"
            },
            {
              "indexed": true,
              "internalType": "address",
              "name": "sellerWallet",
              "type": "address"
            },
            {
              "indexed": false,
              "internalType": "string",
              "name": "sellerName",
              "type": "string"
            },
            {
              "indexed": false,
              "internalType": "string",
              "name": "itemName",
              "type": "string"
            },
            {
              "indexed": false,
              "internalType": "uint256",
              "name": "itemPrice",
              "type": "uint256"
            },
            {
              "indexed": false,
              "internalType": "uint256",
              "name": "quantity",
              "type": "uint256"
            },
            {
              "indexed": false,
              "internalType": "string",
              "name": "listingType",
              "type": "string"
            },
            {
              "indexed": false,
              "internalType": "string",
              "name": "finalPickupLocation",
              "type": "string"
            },
            {
              "indexed": false,
              "internalType": "string",
              "name": "finalMeetupLocation",
              "type": "string"
            },
            {
              "indexed": false,
              "internalType": "uint256",
              "name": "acceptedAt",
              "type": "uint256"
            }
          ],
          "name": "TransactionAccepted",
          "type": "event"
        },
        {
          "anonymous": false,
          "inputs": [
            {
              "indexed": true,
              "internalType": "uint256",
              "name": "blockchainId",
              "type": "uint256"
            },
            {
              "indexed": false,
              "internalType": "string",
              "name": "supabaseId",
              "type": "string"
            },
            {
              "indexed": false,
              "internalType": "string",
              "name": "orderId",
              "type": "string"
            },
            {
              "indexed": true,
              "internalType": "address",
              "name": "buyerWallet",
              "type": "address"
            },
            {
              "indexed": true,
              "internalType": "address",
              "name": "sellerWallet",
              "type": "address"
            },
            {
              "indexed": false,
              "internalType": "string",
              "name": "buyerName",
              "type": "string"
            },
            {
              "indexed": false,
              "internalType": "string",
              "name": "itemName",
              "type": "string"
            },
            {
              "indexed": false,
              "internalType": "uint256",
              "name": "itemPrice",
              "type": "uint256"
            },
            {
              "indexed": false,
              "internalType": "uint256",
              "name": "quantity",
              "type": "uint256"
            },
            {
              "indexed": false,
              "internalType": "string",
              "name": "listingType",
              "type": "string"
            },
            {
              "indexed": false,
              "internalType": "string",
              "name": "cancellationReason",
              "type": "string"
            },
            {
              "indexed": false,
              "internalType": "uint256",
              "name": "cancelledAt",
              "type": "uint256"
            }
          ],
          "name": "TransactionCancelled",
          "type": "event"
        },
        {
          "anonymous": false,
          "inputs": [
            {
              "indexed": true,
              "internalType": "uint256",
              "name": "blockchainId",
              "type": "uint256"
            },
            {
              "indexed": false,
              "internalType": "string",
              "name": "supabaseId",
              "type": "string"
            },
            {
              "indexed": false,
              "internalType": "string",
              "name": "orderId",
              "type": "string"
            },
            {
              "indexed": true,
              "internalType": "address",
              "name": "buyerWallet",
              "type": "address"
            },
            {
              "indexed": true,
              "internalType": "address",
              "name": "sellerWallet",
              "type": "address"
            },
            {
              "indexed": false,
              "internalType": "address",
              "name": "completedBy",
              "type": "address"
            },
            {
              "indexed": false,
              "internalType": "string",
              "name": "itemName",
              "type": "string"
            },
            {
              "indexed": false,
              "internalType": "uint256",
              "name": "itemPrice",
              "type": "uint256"
            },
            {
              "indexed": false,
              "internalType": "uint256",
              "name": "quantity",
              "type": "uint256"
            },
            {
              "indexed": false,
              "internalType": "string",
              "name": "listingType",
              "type": "string"
            },
            {
              "indexed": false,
              "internalType": "string",
              "name": "finalPickupLocation",
              "type": "string"
            },
            {
              "indexed": false,
              "internalType": "string",
              "name": "finalMeetupLocation",
              "type": "string"
            },
            {
              "indexed": false,
              "internalType": "uint256",
              "name": "completedAt",
              "type": "uint256"
            }
          ],
          "name": "TransactionCompleted",
          "type": "event"
        },
        {
          "anonymous": false,
          "inputs": [
            {
              "indexed": true,
              "internalType": "uint256",
              "name": "blockchainId",
              "type": "uint256"
            },
            {
              "indexed": false,
              "internalType": "string",
              "name": "supabaseId",
              "type": "string"
            },
            {
              "indexed": false,
              "internalType": "string",
              "name": "orderId",
              "type": "string"
            },
            {
              "indexed": true,
              "internalType": "address",
              "name": "buyerWallet",
              "type": "address"
            },
            {
              "indexed": true,
              "internalType": "address",
              "name": "sellerWallet",
              "type": "address"
            },
            {
              "indexed": false,
              "internalType": "string",
              "name": "buyerName",
              "type": "string"
            },
            {
              "indexed": false,
              "internalType": "string",
              "name": "sellerName",
              "type": "string"
            },
            {
              "indexed": false,
              "internalType": "string",
              "name": "category",
              "type": "string"
            },
            {
              "indexed": false,
              "internalType": "string",
              "name": "listingType",
              "type": "string"
            },
            {
              "indexed": false,
              "internalType": "string",
              "name": "itemName",
              "type": "string"
            },
            {
              "indexed": false,
              "internalType": "string",
              "name": "itemDescription",
              "type": "string"
            },
            {
              "indexed": false,
              "internalType": "uint256",
              "name": "itemPrice",
              "type": "uint256"
            },
            {
              "indexed": false,
              "internalType": "uint256",
              "name": "quantity",
              "type": "uint256"
            },
            {
              "indexed": false,
              "internalType": "string",
              "name": "pickupLocation",
              "type": "string"
            },
            {
              "indexed": false,
              "internalType": "string",
              "name": "meetupLocation",
              "type": "string"
            },
            {
              "indexed": false,
              "internalType": "string",
              "name": "messageToSeller",
              "type": "string"
            },
            {
              "indexed": false,
              "internalType": "uint256",
              "name": "createdAt",
              "type": "uint256"
            }
          ],
          "name": "TransactionCreated",
          "type": "event"
        },
        {
          "anonymous": false,
          "inputs": [
            {
              "indexed": true,
              "internalType": "uint256",
              "name": "blockchainId",
              "type": "uint256"
            },
            {
              "indexed": false,
              "internalType": "string",
              "name": "supabaseId",
              "type": "string"
            },
            {
              "indexed": false,
              "internalType": "string",
              "name": "orderId",
              "type": "string"
            },
            {
              "indexed": true,
              "internalType": "address",
              "name": "buyerWallet",
              "type": "address"
            },
            {
              "indexed": true,
              "internalType": "address",
              "name": "sellerWallet",
              "type": "address"
            },
            {
              "indexed": false,
              "internalType": "string",
              "name": "sellerName",
              "type": "string"
            },
            {
              "indexed": false,
              "internalType": "string",
              "name": "itemName",
              "type": "string"
            },
            {
              "indexed": false,
              "internalType": "uint256",
              "name": "itemPrice",
              "type": "uint256"
            },
            {
              "indexed": false,
              "internalType": "uint256",
              "name": "quantity",
              "type": "uint256"
            },
            {
              "indexed": false,
              "internalType": "string",
              "name": "listingType",
              "type": "string"
            },
            {
              "indexed": false,
              "internalType": "string",
              "name": "rejectionReason",
              "type": "string"
            },
            {
              "indexed": false,
              "internalType": "uint256",
              "name": "rejectedAt",
              "type": "uint256"
            }
          ],
          "name": "TransactionRejected",
          "type": "event"
        },
        {
          "anonymous": false,
          "inputs": [
            {
              "indexed": true,
              "internalType": "uint256",
              "name": "blockchainId",
              "type": "uint256"
            },
            {
              "indexed": false,
              "internalType": "string",
              "name": "supabaseId",
              "type": "string"
            },
            {
              "indexed": false,
              "internalType": "string",
              "name": "orderId",
              "type": "string"
            },
            {
              "indexed": true,
              "internalType": "address",
              "name": "updatedBy",
              "type": "address"
            },
            {
              "indexed": false,
              "internalType": "string",
              "name": "oldStatus",
              "type": "string"
            },
            {
              "indexed": false,
              "internalType": "string",
              "name": "newStatus",
              "type": "string"
            },
            {
              "indexed": false,
              "internalType": "uint256",
              "name": "updatedAt",
              "type": "uint256"
            }
          ],
          "name": "TransactionStatusUpdated",
          "type": "event"
        },
        {
          "inputs": [],
          "name": "MAX_DESCRIPTION_LENGTH",
          "outputs": [
            {
              "internalType": "uint256",
              "name": "",
              "type": "uint256"
            }
          ],
          "stateMutability": "view",
          "type": "function"
        },
        {
          "inputs": [],
          "name": "MAX_STRING_LENGTH",
          "outputs": [
            {
              "internalType": "uint256",
              "name": "",
              "type": "uint256"
            }
          ],
          "stateMutability": "view",
          "type": "function"
        },
        {
          "inputs": [
            {
              "internalType": "string",
              "name": "supabaseId",
              "type": "string"
            },
            {
              "internalType": "string",
              "name": "newSupabaseId",
              "type": "string"
            },
            {
              "internalType": "string",
              "name": "finalPickupLocation",
              "type": "string"
            },
            {
              "internalType": "string",
              "name": "finalMeetupLocation",
              "type": "string"
            }
          ],
          "name": "acceptTransaction",
          "outputs": [],
          "stateMutability": "nonpayable",
          "type": "function"
        },
        {
          "inputs": [
            {
              "internalType": "string",
              "name": "supabaseId",
              "type": "string"
            },
            {
              "internalType": "string",
              "name": "newSupabaseId",
              "type": "string"
            },
            {
              "internalType": "string",
              "name": "cancellationReason",
              "type": "string"
            }
          ],
          "name": "cancelTransaction",
          "outputs": [],
          "stateMutability": "nonpayable",
          "type": "function"
        },
        {
          "inputs": [
            {
              "internalType": "string",
              "name": "supabaseId",
              "type": "string"
            },
            {
              "internalType": "string",
              "name": "newSupabaseId",
              "type": "string"
            }
          ],
          "name": "completeTransaction",
          "outputs": [],
          "stateMutability": "nonpayable",
          "type": "function"
        },
        {
          "inputs": [
            {
              "components": [
                {
                  "internalType": "string",
                  "name": "supabaseId",
                  "type": "string"
                },
                {
                  "internalType": "string",
                  "name": "orderId",
                  "type": "string"
                },
                {
                  "internalType": "address",
                  "name": "buyerWallet",
                  "type": "address"
                },
                {
                  "internalType": "address",
                  "name": "sellerWallet",
                  "type": "address"
                },
                {
                  "internalType": "string",
                  "name": "buyerName",
                  "type": "string"
                },
                {
                  "internalType": "string",
                  "name": "sellerName",
                  "type": "string"
                },
                {
                  "internalType": "string",
                  "name": "sellerPhone",
                  "type": "string"
                },
                {
                  "internalType": "string",
                  "name": "category",
                  "type": "string"
                },
                {
                  "internalType": "string",
                  "name": "listingType",
                  "type": "string"
                },
                {
                  "internalType": "string",
                  "name": "itemName",
                  "type": "string"
                },
                {
                  "internalType": "string",
                  "name": "itemDescription",
                  "type": "string"
                },
                {
                  "internalType": "uint256",
                  "name": "itemPrice",
                  "type": "uint256"
                },
                {
                  "internalType": "uint256",
                  "name": "quantity",
                  "type": "uint256"
                },
                {
                  "internalType": "string",
                  "name": "pickupLocation",
                  "type": "string"
                },
                {
                  "internalType": "string",
                  "name": "meetupLocation",
                  "type": "string"
                },
                {
                  "internalType": "string",
                  "name": "requirements",
                  "type": "string"
                },
                {
                  "internalType": "string",
                  "name": "contactInfo",
                  "type": "string"
                },
                {
                  "internalType": "string",
                  "name": "returnCondition",
                  "type": "string"
                },
                {
                  "internalType": "string",
                  "name": "rentalDuration",
                  "type": "string"
                },
                {
                  "internalType": "string",
                  "name": "startDate",
                  "type": "string"
                },
                {
                  "internalType": "string",
                  "name": "endDate",
                  "type": "string"
                },
                {
                  "internalType": "string",
                  "name": "serviceSchedule",
                  "type": "string"
                },
                {
                  "internalType": "string",
                  "name": "serviceDuration",
                  "type": "string"
                },
                {
                  "internalType": "string",
                  "name": "messageToSeller",
                  "type": "string"
                },
                {
                  "internalType": "string",
                  "name": "transactionStatus",
                  "type": "string"
                }
              ],
              "internalType": "struct CSUMarketplace.CreateTransactionParams",
              "name": "params",
              "type": "tuple"
            }
          ],
          "name": "createTransaction",
          "outputs": [
            {
              "internalType": "uint256",
              "name": "",
              "type": "uint256"
            }
          ],
          "stateMutability": "nonpayable",
          "type": "function"
        },
        {
          "inputs": [
            {
              "internalType": "string",
              "name": "supabaseId",
              "type": "string"
            }
          ],
          "name": "getBlockchainId",
          "outputs": [
            {
              "internalType": "uint256",
              "name": "",
              "type": "uint256"
            }
          ],
          "stateMutability": "view",
          "type": "function"
        },
        {
          "inputs": [
            {
              "internalType": "string",
              "name": "orderId",
              "type": "string"
            }
          ],
          "name": "getOrderFullHistory",
          "outputs": [
            {
              "components": [
                {
                  "internalType": "uint256",
                  "name": "blockchainId",
                  "type": "uint256"
                },
                {
                  "internalType": "string",
                  "name": "supabaseId",
                  "type": "string"
                },
                {
                  "internalType": "string",
                  "name": "orderId",
                  "type": "string"
                },
                {
                  "internalType": "address",
                  "name": "buyerWallet",
                  "type": "address"
                },
                {
                  "internalType": "address",
                  "name": "sellerWallet",
                  "type": "address"
                },
                {
                  "internalType": "string",
                  "name": "buyerName",
                  "type": "string"
                },
                {
                  "internalType": "string",
                  "name": "sellerName",
                  "type": "string"
                },
                {
                  "internalType": "string",
                  "name": "sellerPhone",
                  "type": "string"
                },
                {
                  "internalType": "string",
                  "name": "category",
                  "type": "string"
                },
                {
                  "internalType": "string",
                  "name": "listingType",
                  "type": "string"
                },
                {
                  "internalType": "string",
                  "name": "itemName",
                  "type": "string"
                },
                {
                  "internalType": "string",
                  "name": "itemDescription",
                  "type": "string"
                },
                {
                  "internalType": "uint256",
                  "name": "itemPrice",
                  "type": "uint256"
                },
                {
                  "internalType": "uint256",
                  "name": "quantity",
                  "type": "uint256"
                },
                {
                  "internalType": "string",
                  "name": "pickupLocation",
                  "type": "string"
                },
                {
                  "internalType": "string",
                  "name": "meetupLocation",
                  "type": "string"
                },
                {
                  "internalType": "string",
                  "name": "finalPickupLocation",
                  "type": "string"
                },
                {
                  "internalType": "string",
                  "name": "finalMeetupLocation",
                  "type": "string"
                },
                {
                  "internalType": "string",
                  "name": "requirements",
                  "type": "string"
                },
                {
                  "internalType": "string",
                  "name": "contactInfo",
                  "type": "string"
                },
                {
                  "internalType": "string",
                  "name": "returnCondition",
                  "type": "string"
                },
                {
                  "internalType": "string",
                  "name": "rentalDuration",
                  "type": "string"
                },
                {
                  "internalType": "string",
                  "name": "startDate",
                  "type": "string"
                },
                {
                  "internalType": "string",
                  "name": "endDate",
                  "type": "string"
                },
                {
                  "internalType": "string",
                  "name": "serviceSchedule",
                  "type": "string"
                },
                {
                  "internalType": "string",
                  "name": "serviceDuration",
                  "type": "string"
                },
                {
                  "internalType": "string",
                  "name": "messageToSeller",
                  "type": "string"
                },
                {
                  "internalType": "string",
                  "name": "rejectionReason",
                  "type": "string"
                },
                {
                  "internalType": "string",
                  "name": "transactionStatus",
                  "type": "string"
                },
                {
                  "internalType": "uint256",
                  "name": "createdAt",
                  "type": "uint256"
                },
                {
                  "internalType": "uint256",
                  "name": "updatedAt",
                  "type": "uint256"
                },
                {
                  "internalType": "uint256",
                  "name": "acceptedAt",
                  "type": "uint256"
                },
                {
                  "internalType": "uint256",
                  "name": "rejectedAt",
                  "type": "uint256"
                },
                {
                  "internalType": "uint256",
                  "name": "completedAt",
                  "type": "uint256"
                },
                {
                  "internalType": "uint256",
                  "name": "cancelledAt",
                  "type": "uint256"
                },
                {
                  "internalType": "address",
                  "name": "lastUpdatedBy",
                  "type": "address"
                }
              ],
              "internalType": "struct CSUMarketplace.Transaction[]",
              "name": "",
              "type": "tuple[]"
            }
          ],
          "stateMutability": "view",
          "type": "function"
        },
        {
          "inputs": [
            {
              "internalType": "string",
              "name": "orderId",
              "type": "string"
            }
          ],
          "name": "getOrderTransactionHistory",
          "outputs": [
            {
              "internalType": "uint256[]",
              "name": "",
              "type": "uint256[]"
            }
          ],
          "stateMutability": "view",
          "type": "function"
        },
        {
          "inputs": [
            {
              "internalType": "uint256",
              "name": "blockchainId",
              "type": "uint256"
            }
          ],
          "name": "getTransaction",
          "outputs": [
            {
              "components": [
                {
                  "internalType": "uint256",
                  "name": "blockchainId",
                  "type": "uint256"
                },
                {
                  "internalType": "string",
                  "name": "supabaseId",
                  "type": "string"
                },
                {
                  "internalType": "string",
                  "name": "orderId",
                  "type": "string"
                },
                {
                  "internalType": "address",
                  "name": "buyerWallet",
                  "type": "address"
                },
                {
                  "internalType": "address",
                  "name": "sellerWallet",
                  "type": "address"
                },
                {
                  "internalType": "string",
                  "name": "buyerName",
                  "type": "string"
                },
                {
                  "internalType": "string",
                  "name": "sellerName",
                  "type": "string"
                },
                {
                  "internalType": "string",
                  "name": "sellerPhone",
                  "type": "string"
                },
                {
                  "internalType": "string",
                  "name": "category",
                  "type": "string"
                },
                {
                  "internalType": "string",
                  "name": "listingType",
                  "type": "string"
                },
                {
                  "internalType": "string",
                  "name": "itemName",
                  "type": "string"
                },
                {
                  "internalType": "string",
                  "name": "itemDescription",
                  "type": "string"
                },
                {
                  "internalType": "uint256",
                  "name": "itemPrice",
                  "type": "uint256"
                },
                {
                  "internalType": "uint256",
                  "name": "quantity",
                  "type": "uint256"
                },
                {
                  "internalType": "string",
                  "name": "pickupLocation",
                  "type": "string"
                },
                {
                  "internalType": "string",
                  "name": "meetupLocation",
                  "type": "string"
                },
                {
                  "internalType": "string",
                  "name": "finalPickupLocation",
                  "type": "string"
                },
                {
                  "internalType": "string",
                  "name": "finalMeetupLocation",
                  "type": "string"
                },
                {
                  "internalType": "string",
                  "name": "requirements",
                  "type": "string"
                },
                {
                  "internalType": "string",
                  "name": "contactInfo",
                  "type": "string"
                },
                {
                  "internalType": "string",
                  "name": "returnCondition",
                  "type": "string"
                },
                {
                  "internalType": "string",
                  "name": "rentalDuration",
                  "type": "string"
                },
                {
                  "internalType": "string",
                  "name": "startDate",
                  "type": "string"
                },
                {
                  "internalType": "string",
                  "name": "endDate",
                  "type": "string"
                },
                {
                  "internalType": "string",
                  "name": "serviceSchedule",
                  "type": "string"
                },
                {
                  "internalType": "string",
                  "name": "serviceDuration",
                  "type": "string"
                },
                {
                  "internalType": "string",
                  "name": "messageToSeller",
                  "type": "string"
                },
                {
                  "internalType": "string",
                  "name": "rejectionReason",
                  "type": "string"
                },
                {
                  "internalType": "string",
                  "name": "transactionStatus",
                  "type": "string"
                },
                {
                  "internalType": "uint256",
                  "name": "createdAt",
                  "type": "uint256"
                },
                {
                  "internalType": "uint256",
                  "name": "updatedAt",
                  "type": "uint256"
                },
                {
                  "internalType": "uint256",
                  "name": "acceptedAt",
                  "type": "uint256"
                },
                {
                  "internalType": "uint256",
                  "name": "rejectedAt",
                  "type": "uint256"
                },
                {
                  "internalType": "uint256",
                  "name": "completedAt",
                  "type": "uint256"
                },
                {
                  "internalType": "uint256",
                  "name": "cancelledAt",
                  "type": "uint256"
                },
                {
                  "internalType": "address",
                  "name": "lastUpdatedBy",
                  "type": "address"
                }
              ],
              "internalType": "struct CSUMarketplace.Transaction",
              "name": "",
              "type": "tuple"
            }
          ],
          "stateMutability": "view",
          "type": "function"
        },
        {
          "inputs": [
            {
              "internalType": "string",
              "name": "orderId",
              "type": "string"
            }
          ],
          "name": "getTransactionByOrderId",
          "outputs": [
            {
              "components": [
                {
                  "internalType": "uint256",
                  "name": "blockchainId",
                  "type": "uint256"
                },
                {
                  "internalType": "string",
                  "name": "supabaseId",
                  "type": "string"
                },
                {
                  "internalType": "string",
                  "name": "orderId",
                  "type": "string"
                },
                {
                  "internalType": "address",
                  "name": "buyerWallet",
                  "type": "address"
                },
                {
                  "internalType": "address",
                  "name": "sellerWallet",
                  "type": "address"
                },
                {
                  "internalType": "string",
                  "name": "buyerName",
                  "type": "string"
                },
                {
                  "internalType": "string",
                  "name": "sellerName",
                  "type": "string"
                },
                {
                  "internalType": "string",
                  "name": "sellerPhone",
                  "type": "string"
                },
                {
                  "internalType": "string",
                  "name": "category",
                  "type": "string"
                },
                {
                  "internalType": "string",
                  "name": "listingType",
                  "type": "string"
                },
                {
                  "internalType": "string",
                  "name": "itemName",
                  "type": "string"
                },
                {
                  "internalType": "string",
                  "name": "itemDescription",
                  "type": "string"
                },
                {
                  "internalType": "uint256",
                  "name": "itemPrice",
                  "type": "uint256"
                },
                {
                  "internalType": "uint256",
                  "name": "quantity",
                  "type": "uint256"
                },
                {
                  "internalType": "string",
                  "name": "pickupLocation",
                  "type": "string"
                },
                {
                  "internalType": "string",
                  "name": "meetupLocation",
                  "type": "string"
                },
                {
                  "internalType": "string",
                  "name": "finalPickupLocation",
                  "type": "string"
                },
                {
                  "internalType": "string",
                  "name": "finalMeetupLocation",
                  "type": "string"
                },
                {
                  "internalType": "string",
                  "name": "requirements",
                  "type": "string"
                },
                {
                  "internalType": "string",
                  "name": "contactInfo",
                  "type": "string"
                },
                {
                  "internalType": "string",
                  "name": "returnCondition",
                  "type": "string"
                },
                {
                  "internalType": "string",
                  "name": "rentalDuration",
                  "type": "string"
                },
                {
                  "internalType": "string",
                  "name": "startDate",
                  "type": "string"
                },
                {
                  "internalType": "string",
                  "name": "endDate",
                  "type": "string"
                },
                {
                  "internalType": "string",
                  "name": "serviceSchedule",
                  "type": "string"
                },
                {
                  "internalType": "string",
                  "name": "serviceDuration",
                  "type": "string"
                },
                {
                  "internalType": "string",
                  "name": "messageToSeller",
                  "type": "string"
                },
                {
                  "internalType": "string",
                  "name": "rejectionReason",
                  "type": "string"
                },
                {
                  "internalType": "string",
                  "name": "transactionStatus",
                  "type": "string"
                },
                {
                  "internalType": "uint256",
                  "name": "createdAt",
                  "type": "uint256"
                },
                {
                  "internalType": "uint256",
                  "name": "updatedAt",
                  "type": "uint256"
                },
                {
                  "internalType": "uint256",
                  "name": "acceptedAt",
                  "type": "uint256"
                },
                {
                  "internalType": "uint256",
                  "name": "rejectedAt",
                  "type": "uint256"
                },
                {
                  "internalType": "uint256",
                  "name": "completedAt",
                  "type": "uint256"
                },
                {
                  "internalType": "uint256",
                  "name": "cancelledAt",
                  "type": "uint256"
                },
                {
                  "internalType": "address",
                  "name": "lastUpdatedBy",
                  "type": "address"
                }
              ],
              "internalType": "struct CSUMarketplace.Transaction",
              "name": "",
              "type": "tuple"
            }
          ],
          "stateMutability": "view",
          "type": "function"
        },
        {
          "inputs": [
            {
              "internalType": "string",
              "name": "supabaseId",
              "type": "string"
            }
          ],
          "name": "getTransactionBySupabaseId",
          "outputs": [
            {
              "components": [
                {
                  "internalType": "uint256",
                  "name": "blockchainId",
                  "type": "uint256"
                },
                {
                  "internalType": "string",
                  "name": "supabaseId",
                  "type": "string"
                },
                {
                  "internalType": "string",
                  "name": "orderId",
                  "type": "string"
                },
                {
                  "internalType": "address",
                  "name": "buyerWallet",
                  "type": "address"
                },
                {
                  "internalType": "address",
                  "name": "sellerWallet",
                  "type": "address"
                },
                {
                  "internalType": "string",
                  "name": "buyerName",
                  "type": "string"
                },
                {
                  "internalType": "string",
                  "name": "sellerName",
                  "type": "string"
                },
                {
                  "internalType": "string",
                  "name": "sellerPhone",
                  "type": "string"
                },
                {
                  "internalType": "string",
                  "name": "category",
                  "type": "string"
                },
                {
                  "internalType": "string",
                  "name": "listingType",
                  "type": "string"
                },
                {
                  "internalType": "string",
                  "name": "itemName",
                  "type": "string"
                },
                {
                  "internalType": "string",
                  "name": "itemDescription",
                  "type": "string"
                },
                {
                  "internalType": "uint256",
                  "name": "itemPrice",
                  "type": "uint256"
                },
                {
                  "internalType": "uint256",
                  "name": "quantity",
                  "type": "uint256"
                },
                {
                  "internalType": "string",
                  "name": "pickupLocation",
                  "type": "string"
                },
                {
                  "internalType": "string",
                  "name": "meetupLocation",
                  "type": "string"
                },
                {
                  "internalType": "string",
                  "name": "finalPickupLocation",
                  "type": "string"
                },
                {
                  "internalType": "string",
                  "name": "finalMeetupLocation",
                  "type": "string"
                },
                {
                  "internalType": "string",
                  "name": "requirements",
                  "type": "string"
                },
                {
                  "internalType": "string",
                  "name": "contactInfo",
                  "type": "string"
                },
                {
                  "internalType": "string",
                  "name": "returnCondition",
                  "type": "string"
                },
                {
                  "internalType": "string",
                  "name": "rentalDuration",
                  "type": "string"
                },
                {
                  "internalType": "string",
                  "name": "startDate",
                  "type": "string"
                },
                {
                  "internalType": "string",
                  "name": "endDate",
                  "type": "string"
                },
                {
                  "internalType": "string",
                  "name": "serviceSchedule",
                  "type": "string"
                },
                {
                  "internalType": "string",
                  "name": "serviceDuration",
                  "type": "string"
                },
                {
                  "internalType": "string",
                  "name": "messageToSeller",
                  "type": "string"
                },
                {
                  "internalType": "string",
                  "name": "rejectionReason",
                  "type": "string"
                },
                {
                  "internalType": "string",
                  "name": "transactionStatus",
                  "type": "string"
                },
                {
                  "internalType": "uint256",
                  "name": "createdAt",
                  "type": "uint256"
                },
                {
                  "internalType": "uint256",
                  "name": "updatedAt",
                  "type": "uint256"
                },
                {
                  "internalType": "uint256",
                  "name": "acceptedAt",
                  "type": "uint256"
                },
                {
                  "internalType": "uint256",
                  "name": "rejectedAt",
                  "type": "uint256"
                },
                {
                  "internalType": "uint256",
                  "name": "completedAt",
                  "type": "uint256"
                },
                {
                  "internalType": "uint256",
                  "name": "cancelledAt",
                  "type": "uint256"
                },
                {
                  "internalType": "address",
                  "name": "lastUpdatedBy",
                  "type": "address"
                }
              ],
              "internalType": "struct CSUMarketplace.Transaction",
              "name": "",
              "type": "tuple"
            }
          ],
          "stateMutability": "view",
          "type": "function"
        },
        {
          "inputs": [],
          "name": "getTransactionCount",
          "outputs": [
            {
              "internalType": "uint256",
              "name": "",
              "type": "uint256"
            }
          ],
          "stateMutability": "view",
          "type": "function"
        },
        {
          "inputs": [
            {
              "internalType": "string",
              "name": "supabaseId",
              "type": "string"
            }
          ],
          "name": "getTransactionStatus",
          "outputs": [
            {
              "internalType": "string",
              "name": "",
              "type": "string"
            }
          ],
          "stateMutability": "view",
          "type": "function"
        },
        {
          "inputs": [],
          "name": "owner",
          "outputs": [
            {
              "internalType": "address",
              "name": "",
              "type": "address"
            }
          ],
          "stateMutability": "view",
          "type": "function"
        },
        {
          "inputs": [
            {
              "internalType": "string",
              "name": "supabaseId",
              "type": "string"
            },
            {
              "internalType": "string",
              "name": "newSupabaseId",
              "type": "string"
            },
            {
              "internalType": "string",
              "name": "rejectionReason",
              "type": "string"
            }
          ],
          "name": "rejectTransaction",
          "outputs": [],
          "stateMutability": "nonpayable",
          "type": "function"
        },
        {
          "inputs": [
            {
              "internalType": "string",
              "name": "supabaseId",
              "type": "string"
            }
          ],
          "name": "transactionExists",
          "outputs": [
            {
              "internalType": "bool",
              "name": "",
              "type": "bool"
            }
          ],
          "stateMutability": "view",
          "type": "function"
        }
      ],
      "evm": {
        "bytecode": {
          "linkReferences": {},
          "object": "6080806040523461002c57600180546001600160a01b031916331790556000805561493f90816100328239f35b600080fdfe6101e080604052600436101561001457600080fd5b60003560e01c908163193bbd8814613eb1575080631a0e016614613de55780632e7700f014613dc757806333ea3dc814613d8f57806334ccc5ea14613d7257806341a8bc32146138f35780637725e119146138505780637831d75d1461325f5780638da5cb5b146132365780639201ea0a14613219578063aa6ed51814612a92578063aeddd8cc146111bf578063d867d92f14610b7d578063ecb497d214610b0c578063f1bb29ff14610abb578063fa7b9cc41461072b5763fdee1a67146100db57600080fd5b34610726576100e93661424e565b939092919460ff60405183838237602081858101600481520301902054161561071457602090826040519384928337810160038152030190205460005260026020526040600020917f4be840e351422c3b302abb79aa7db05560ead7e387e413320822a342fca3f54e60405161016d8161016681601c8901614443565b0382614510565b602081519101206650656e64696e6760c81b602060405161018d816144f5565b600781520152036107025760ff60405186848237602081888101600481520301902054166106f0576101c06000546142f9565b938460005584600052600260205260406000208581556001600160401b03871161066a57600181016101fc886101f6835461431e565b83614399565b876000601f821160011461068b57600091610680575b508860011b906000198a60031b1c19161790555b6102366002860160028301614531565b60038581015490820180546001600160a01b039283166001600160a01b03199182161790915560048088015490840180549190931691161790556102806005808701908301614531565b6102906006860160068301614531565b6102a06007860160078301614531565b6102b06008860160088301614531565b6102c06009860160098301614531565b6102d0600a8601600a8301614531565b6102e0600b8601600b8301614531565b600c850154600c820155600d850154600d820155610304600e8601600e8301614531565b610314600f8601600f8301614531565b6103246012860160128301614531565b6103346013860160138301614531565b6103446014860160148301614531565b6103546015860160158301614531565b6103646016860160168301614531565b6103746017860160178301614531565b6103846018860160188301614531565b6103946019860160198301614531565b6103a4601a8601601a8301614531565b6103bd6103b4601c83015461431e565b601c830161436f565b60106714995a9958dd195960c21b01601c8201556001600160401b03821161066a578692816103fd846103f4601b8b96015461431e565b601b8401614399565b6000601f85116001146105b25794846002947f969ea5fc807308a4f63891bd07c02ec25adfb0f71f721c0ae5fab88debf7f5486105479560236105799b966000805160206148ea8339815191529d9a6105569c6000916105a7575b508660011b906000198860031b1c191617601b8201555b601d8b0154601d82015542602082015542601e82015501336001600160601b0360a01b8254161790558260405186888237602081888101600381520301902055604051858782376020818781016004815203019020600160ff19825416179055826104db898b0161460f565b556104f0836104eb8a8c016146a2565b6143de565b60018060a01b0360038a015416936105328a600c81015492600d820154948a604051968796339c42966009810194600a8201926002600684019301918c614735565b0390a46040519860a08a5260a08a0191614422565b91878303602089015201614443565b8481036040860152604090600781526650656e64696e6760c81b60208201520190565b926714995a9958dd195960c21b602082860395866060850152600881520152426080820152604033940190a3005b905083013538610458565b601b820160005260206000209060005b601f198716811061064c5750946002947f969ea5fc807308a4f63891bd07c02ec25adfb0f71f721c0ae5fab88debf7f5486105479560236105799b966105569b966000805160206148ea8339815191529e9b87601f19811610610632575b5050600186811b01601b82015561046f565b840135600019600389901b60f8161c191690553880610620565b8185013583558b97508a9550600190920191602091820191016105c2565b634e487b7160e01b600052604160045260246000fd5b905085013538610212565b60008381526020812092505b601f198b1681106106d8575089601f198116106106be575b5050600188811b019055610226565b86013560001960038b901b60f8161c1916905538806106af565b9091602060018192858b013581550193019101610697565b604051632928418b60e01b8152600490fd5b60405163088bd32360e11b8152600490fd5b6040516331fb878f60e01b8152600490fd5b600080fd5b3461072657602080600319360112610726576004356001600160401b0381116107265761075c903690600401613f02565b906107656147bc565b5060ff6040518383823784818581016004815203019020541615610714578290826040519384928337810160038152030190205460005260028152604060002090604051916107b3836144d9565b805483526040516107cb816101668160018601614443565b828401526040516107e3816101668160028601614443565b6040840152602360018060a01b039182600382015416606086015282600482015416608086015260405161081e816101668160058601614443565b60a0860152604051610837816101668160068601614443565b60c0860152604051610850816101668160078601614443565b60e0860152604051610869816101668160088601614443565b610100860152604051610883816101668160098601614443565b61012086015260405161089d8161016681600a8601614443565b6101408601526040516108b78161016681600b8601614443565b610160860152600c810154610180860152600d8101546101a08601526040516108e78161016681600e8601614443565b6101c08601526040516109018161016681600f8601614443565b6101e086015260405161091b816101668160108601614443565b610200860152604051610935816101668160118601614443565b61022086015260405161094f816101668160128601614443565b610240860152604051610969816101668160138601614443565b610260860152604051610983816101668160148601614443565b61028086015260405161099d816101668160158601614443565b6102a08601526040516109b7816101668160168601614443565b6102c08601526040516109d1816101668160178601614443565b6102e08601526040516109eb816101668160188601614443565b610300860152604051610a05816101668160198601614443565b610320860152604051610a1f8161016681601a8601614443565b610340860152604051610a398161016681601b8601614443565b610360860152604051610a538161016681601c8601614443565b610380860152601d8101546103a0860152601e8101546103c0860152601f8101546103e08601528381015461040086015260218101546104208601526022810154610440860152015416610460830152610ab7604051928284938452830190613f6f565b0390f35b34610726576020366003190112610726576004356001600160401b038111610726576020610aee81923690600401613f02565b91908260405193849283378101600381520301902054604051908152f35b3461072657602080600319360112610726576004356001600160401b03811161072657610b3e82913690600401613f02565b9190610b486147bc565b50826040519384928337810160058152030190205480156107145760005260028152604060002090604051916107b3836144d9565b3461072657610b8b3661424e565b92919460ff6040959295518383823760208185810160048152030190205416156107145760209082604051938492833781016003815203019020546000526002602052604060002091604051610be88161016681601c8801614443565b602081519101206650656e64696e6760c81b6020604051610c08816144f5565b6007815201527f4be840e351422c3b302abb79aa7db05560ead7e387e413320822a342fca3f54e8114159081611174575b506107025760ff60405186848237602081888101600481520301902054166106f057610c666000546142f9565b938460005584600052600260205260406000208581556001600160401b03871161066a57610ca487610c9b600184015461431e565b60018401614399565b866000601f8211600114611106576000916110fb575b508760011b906000198960031b1c19161760018201555b610ce16002860160028301614531565b60038581015490820180546001600160a01b039283166001600160a01b0319918216179091556004808801549084018054919093169116179055610d2b6005808701908301614531565b610d3b6006860160068301614531565b610d4b6007860160078301614531565b610d5b6008860160088301614531565b610d6b6009860160098301614531565b610d7b600a8601600a8301614531565b610d8b600b8601600b8301614531565b600c850154600c820155600d850154600d820155610daf600e8601600e8301614531565b610dbf600f8601600f8301614531565b610dcf6010860160108301614531565b610ddf6011860160118301614531565b610def6012860160128301614531565b610dff6013860160138301614531565b610e0f6014860160148301614531565b610e1f6015860160158301614531565b610e2f6016860160168301614531565b610e3f6017860160178301614531565b610e4f6018860160188301614531565b610e5f6019860160198301614531565b610e6f601a8601601a8301614531565b610e7f6103b4601c83015461431e565b60126810d85b98d95b1b195960ba1b01601c8201556001600160401b03831161066a57869181610eb7856103f4601b8b96015461431e565b6000601f86116001146110435794601c94610ffa947fd16082890981e130ba7d013182f9e32f7b379f8ee11963f9eedb2610d0d5de67610fe99560236110099b96866000805160206148ea8339815191529e9c600091611038575b508760011b906000198960031b1c191617601b8201555b601d8c0154601d82015542602282015542601e82015501336001600160601b0360a01b8254161790558260405185888237602081878101600381520301902055604051848782376020818681016004815203019020600160ff1982541617905582610f9660028c0161460f565b55610fa7836104eb60028d016146a2565b60018060a01b0360048b015416946105328b600c81015492600d820154948a604051968796339b42966009810194600a8201926002600584019301918c614735565b878103602089015260028401614443565b91868303604088015201614443565b926810d85b98d95b1b195960ba1b602082860395866060850152600981520152426080820152604033940190a3005b905083013538610f12565b601b820160005260206000209060005b601f19881681106110dd575094610ffa947fd16082890981e130ba7d013182f9e32f7b379f8ee11963f9eedb2610d0d5de67610fe99560236110099b968b96601c9b6000805160206148ea8339815191529f9d601f198116106110c3575b5050600187811b01601b820155610f29565b84013560001960038a901b60f8161c1916905538806110b1565b8185013583558b96508a955060019092019160209182019101611053565b905084013588610cba565b90506001820160005260206000209060005b601f198a16811061115c575088601f19811610611142575b5050600187811b016001820155610cd1565b85013560001960038a901b60f8161c191690558780611130565b9091602060018192858a013581550193019101611118565b7f71fb55c0cb0fd74783d23c772b2f895cb0c286e8e0fab4f642555d8b1ffce2529150671058d8d95c1d195960c21b60206040516111b1816144f5565b600881520152141586610c39565b3461072657600319602036820112610726576001600160401b0360043511610726576103209060043536030112610726576001600160a01b036112066004356044016142b3565b16158015612a74575b612a62576112216044600435016142b3565b6001600160a01b036112376004356064016142b3565b6001600160a01b03909216911614612a625760ff602061125b6004803501806142c7565b91908260405193849283378101600481520301902054166106f057610164600435013515612a5157610184600435013515612a3f576101f46112a8610124600435016004356004016142c7565b905011612a2d576107d06112c7610144600435016004356004016142c7565b905011612a2d576112d96000546142f9565b60008181558181526002602052604090208181556112fb6004803501806142c7565b906001600160401b03821161066a5781906113268261131d600187015461431e565b60018701614399565b600090601f83116001146129bc576000926129b1575b50508160011b916000199060031b1c19161760018201555b6113686024600435016004356004016142c7565b906001600160401b03821161066a5781906113938261138a600287015461431e565b60028701614399565b600090601f831160011461294057600092612935575b50508160011b916000199060031b1c19161760028201555b6113cf6044600435016142b3565b6003820180546001600160a01b0319166001600160a01b039092169190911790556113fe6004356064016142b3565b600482019060018060a01b03166001600160601b0360a01b8254161790556114306084600435016004356004016142c7565b906001600160401b03821161066a57819061145b82611452600587015461431e565b60058701614399565b600090601f83116001146128c4576000926128b9575b50508160011b916000199060031b1c19161760058201555b61149d60a4600435016004356004016142c7565b906001600160401b03821161066a5781906114c8826114bf600687015461431e565b60068701614399565b600090601f83116001146128485760009261283d575b50508160011b916000199060031b1c19161760068201555b61150a60c4600435016004356004016142c7565b906001600160401b03821161066a5781906115358261152c600787015461431e565b60078701614399565b600090601f83116001146127cc576000926127c1575b50508160011b916000199060031b1c19161760078201555b61157760e4600435016004356004016142c7565b906001600160401b03821161066a5781906115a282611599600887015461431e565b60088701614399565b600090601f831160011461275057600092612745575b50508160011b916000199060031b1c19161760088201555b6115e5610104600435016004356004016142c7565b906001600160401b03821161066a57819061161082611607600987015461431e565b60098701614399565b600090601f83116001146126d4576000926126c9575b50508160011b916000199060031b1c19161760098201555b611653610124600435016004356004016142c7565b906001600160401b03821161066a57819061167e82611675600a87015461431e565b600a8701614399565b600090601f83116001146126585760009261264d575b50508160011b916000199060031b1c191617600a8201555b6116c1610144600435016004356004016142c7565b906001600160401b03821161066a5781906116ec826116e3600b87015461431e565b600b8701614399565b600090601f83116001146125dc576000926125d1575b50508160011b916000199060031b1c191617600b8201555b60048035610164810135600c840155610184810135600d840155611744916101a4820191016142c7565b906001600160401b03821161066a57819061176f82611766600e87015461431e565b600e8701614399565b600090601f831160011461256057600092612555575b50508160011b916000199060031b1c191617600e8201555b6117b26101c4600435016004356004016142c7565b906001600160401b03821161066a5781906117dd826117d4600f87015461431e565b600f8701614399565b600090601f83116001146124e4576000926124d9575b50508160011b916000199060031b1c191617600f8201555b6118206101e4600435016004356004016142c7565b906001600160401b03821161066a57819061184b82611842601287015461431e565b60128701614399565b600090601f83116001146124685760009261245d575b50508160011b916000199060031b1c19161760128201555b61188e610204600435016004356004016142c7565b906001600160401b03821161066a5781906118b9826118b0601387015461431e565b60138701614399565b600090601f83116001146123ec576000926123e1575b50508160011b916000199060031b1c19161760138201555b6118fc610224600435016004356004016142c7565b906001600160401b03821161066a5781906119278261191e601487015461431e565b60148701614399565b600090601f831160011461237057600092612365575b50508160011b916000199060031b1c19161760148201555b61196a610244600435016004356004016142c7565b906001600160401b03821161066a5781906119958261198c601587015461431e565b60158701614399565b600090601f83116001146122f4576000926122e9575b50508160011b916000199060031b1c19161760158201555b6119d8610264600435016004356004016142c7565b906001600160401b03821161066a578190611a03826119fa601687015461431e565b60168701614399565b600090601f83116001146122785760009261226d575b50508160011b916000199060031b1c19161760168201555b611a46610284600435016004356004016142c7565b906001600160401b03821161066a578190611a7182611a68601787015461431e565b60178701614399565b600090601f83116001146121fc576000926121f1575b50508160011b916000199060031b1c19161760178201555b611ab46102a4600435016004356004016142c7565b906001600160401b03821161066a578190611adf82611ad6601887015461431e565b60188701614399565b600090601f831160011461218057600092612175575b50508160011b916000199060031b1c19161760188201555b611b226102c4600435016004356004016142c7565b906001600160401b03821161066a578190611b4d82611b44601987015461431e565b60198701614399565b600090601f8311600114612104576000926120f9575b50508160011b916000199060031b1c19161760198201555b611b906102e4600435016004356004016142c7565b906001600160401b03821161066a578190611bbb82611bb2601a87015461431e565b601a8701614399565b600090601f83116001146120885760009261207d575b50508160011b916000199060031b1c191617601a8201555b611bfe610304600435016004356004016142c7565b906001600160401b03821161066a578190611c2982611c20601c87015461431e565b601c8701614399565b600090601f831160011461200c57600092612001575b50508160011b916000199060031b1c191617601c8201555b42601d82015542601e820155600435604401611c72906142b3565b602390910180546001600160a01b0319166001600160a01b0390921691909117905580611ca36004803501806142c7565b90816040519283928337600390820190815203602001902055611cca6004803501806142c7565b9081604051928392833781016004815203602001902060ff1981541660011790558060043560240160043560040190611d02916142c7565b90816040519283928337810160058152036020019020558060043560240160043560040190611d30916142c7565b9081604051928392833781016006815203602001902090611d50916143de565b611d5e6004803501806142c7565b906101005260043560240160043560040190611d79916142c7565b6101c05261012052611d8f6044600435016142b3565b9082611d9f6064600435016142b3565b91611db2600480356084810191016142c7565b61016052611dc86004803560a4810191016142c7565b90611ddb6004803560e4810191016142c7565b90611def60048035610104810191016142c7565b9190926004356101240160043560040190611e09916142c7565b9590966004356101440160043560040190611e23916142c7565b99909a6004356101a40160043560040190611e3d916142c7565b6101a05261018052611e58600480356101c4810191016142c7565b60a05261014052611e72600480356102e4810191016142c7565b60c05260e052604051806080526101c090526080516101c0016101005191611e9992614422565b60805180820390602001526101c051906101205191611eb792614422565b608051808203906040015261016051611ecf92614422565b906080518083039060600152611ee492614422565b906080518083039060800152611ef992614422565b906080518083039060a00152611f0e92614422565b906080518083039060c00152611f2392614422565b906080518083039060e00152611f3892614422565b60043561016401356080516101000152600435610184013560805161012001526080518082039061014001526101a051906101805191611f7792614422565b60805180820390610160015260a051906101405191611f9592614422565b60805180820390610180015260c0519060e05191611fb292614422565b60808051426101a090910152516001600160a01b0393841694909316927f47c45480a144ee00e48b3f2fb883dbf12a937e843e600907e57cd76b3a782b879181900390a4604051908152602090f35b013590508480611c3f565b909250601c84016000526020600020906000935b601f1984168510612065576001945083601f1981161061204b575b505050811b01601c820155611c57565b0135600019600384901b60f8161c1916905584808061203b565b81810135835560209485019460019093019201612020565b013590508480611bd1565b909250601a84016000526020600020906000935b601f19841685106120e1576001945083601f198116106120c7575b505050811b01601a820155611be9565b0135600019600384901b60f8161c191690558480806120b7565b8181013583556020948501946001909301920161209c565b013590508480611b63565b909250601984016000526020600020906000935b601f198416851061215d576001945083601f19811610612143575b505050811b016019820155611b7b565b0135600019600384901b60f8161c19169055848080612133565b81810135835560209485019460019093019201612118565b013590508480611af5565b909250601884016000526020600020906000935b601f19841685106121d9576001945083601f198116106121bf575b505050811b016018820155611b0d565b0135600019600384901b60f8161c191690558480806121af565b81810135835560209485019460019093019201612194565b013590508480611a87565b909250601784016000526020600020906000935b601f1984168510612255576001945083601f1981161061223b575b505050811b016017820155611a9f565b0135600019600384901b60f8161c1916905584808061222b565b81810135835560209485019460019093019201612210565b013590508480611a19565b909250601684016000526020600020906000935b601f19841685106122d1576001945083601f198116106122b7575b505050811b016016820155611a31565b0135600019600384901b60f8161c191690558480806122a7565b8181013583556020948501946001909301920161228c565b0135905084806119ab565b909250601584016000526020600020906000935b601f198416851061234d576001945083601f19811610612333575b505050811b0160158201556119c3565b0135600019600384901b60f8161c19169055848080612323565b81810135835560209485019460019093019201612308565b01359050848061193d565b909250601484016000526020600020906000935b601f19841685106123c9576001945083601f198116106123af575b505050811b016014820155611955565b0135600019600384901b60f8161c1916905584808061239f565b81810135835560209485019460019093019201612384565b0135905084806118cf565b909250601384016000526020600020906000935b601f1984168510612445576001945083601f1981161061242b575b505050811b0160138201556118e7565b0135600019600384901b60f8161c1916905584808061241b565b81810135835560209485019460019093019201612400565b013590508480611861565b909250601284016000526020600020906000935b601f19841685106124c1576001945083601f198116106124a7575b505050811b016012820155611879565b0135600019600384901b60f8161c19169055848080612497565b8181013583556020948501946001909301920161247c565b0135905084806117f3565b909250600f84016000526020600020906000935b601f198416851061253d576001945083601f19811610612523575b505050811b01600f82015561180b565b0135600019600384901b60f8161c19169055848080612513565b818101358355602094850194600190930192016124f8565b013590508480611785565b909250600e84016000526020600020906000935b601f19841685106125b9576001945083601f1981161061259f575b505050811b01600e82015561179d565b0135600019600384901b60f8161c1916905584808061258f565b81810135835560209485019460019093019201612574565b013590508480611702565b909250600b84016000526020600020906000935b601f1984168510612635576001945083601f1981161061261b575b505050811b01600b82015561171a565b0135600019600384901b60f8161c1916905584808061260b565b818101358355602094850194600190930192016125f0565b013590508480611694565b909250600a84016000526020600020906000935b601f19841685106126b1576001945083601f19811610612697575b505050811b01600a8201556116ac565b0135600019600384901b60f8161c19169055848080612687565b8181013583556020948501946001909301920161266c565b013590508480611626565b909250600984016000526020600020906000935b601f198416851061272d576001945083601f19811610612713575b505050811b01600982015561163e565b0135600019600384901b60f8161c19169055848080612703565b818101358355602094850194600190930192016126e8565b0135905084806115b8565b909250600884016000526020600020906000935b601f19841685106127a9576001945083601f1981161061278f575b505050811b0160088201556115d0565b0135600019600384901b60f8161c1916905584808061277f565b81810135835560209485019460019093019201612764565b01359050848061154b565b909250600784016000526020600020906000935b601f1984168510612825576001945083601f1981161061280b575b505050811b016007820155611563565b0135600019600384901b60f8161c191690558480806127fb565b818101358355602094850194600190930192016127e0565b0135905084806114de565b909250600684016000526020600020906000935b601f19841685106128a1576001945083601f19811610612887575b505050811b0160068201556114f6565b0135600019600384901b60f8161c19169055848080612877565b8181013583556020948501946001909301920161285c565b013590508480611471565b909250600584016000526020600020906000935b601f198416851061291d576001945083601f19811610612903575b505050811b016005820155611489565b0135600019600384901b60f8161c191690558480806128f3565b818101358355602094850194600190930192016128d8565b0135905084806113a9565b909250600284016000526020600020906000935b601f1984168510612999576001945083601f1981161061297f575b505050811b0160028201556113c1565b0135600019600384901b60f8161c1916905584808061296f565b81810135835560209485019460019093019201612954565b01359050848061133c565b909250600184016000526020600020906000935b601f1984168510612a15576001945083601f198116106129fb575b505050811b016001820155611354565b0135600019600384901b60f8161c191690558480806129eb565b818101358355602094850194600190930192016129d0565b604051631623655b60e31b8152600490fd5b60405163524f409b60e01b8152600490fd5b60405162bfc92160e01b8152600490fd5b60405163e6c4247b60e01b8152600490fd5b506001600160a01b03612a8b6004356064016142b3565b161561120f565b34610726576080366003190112610726576004356001600160401b03811161072657612ac2903690600401613f02565b906024356001600160401b03811161072657612ae2903690600401613f02565b92906044356001600160401b03811161072657612b03903690600401613f02565b906064356001600160401b03811161072657612b23903690600401613f02565b94909560ff60405183838237602081858101600481520301902054161561071457602090826040519384928337810160038152030190205460005260026020526040600020937f4be840e351422c3b302abb79aa7db05560ead7e387e413320822a342fca3f54e604051612b9e8161016681601c8b01614443565b602081519101206650656e64696e6760c81b6020604051612bbe816144f5565b600781520152036107025760ff604051888682376020818a8101600481520301902054166106f057612bf16000546142f9565b95866000558660005260026020526040600020918783556001600160401b03891161066a57612c3089612c27600186015461431e565b60018601614399565b886000601f82116001146131ab576000916131a0575b508960011b906000198b60031b1c19161760018401555b612c6d6002880160028501614531565b60038781015490840180546001600160a01b039283166001600160a01b0319918216179091556004808a01549086018054919093169116179055612cb76005808901908501614531565b612cc76006880160068501614531565b612cd76007880160078501614531565b612ce76008880160088501614531565b612cf76009880160098501614531565b612d07600a8801600a8501614531565b612d17600b8801600b8501614531565b600c870154600c840155600d870154600d840155612d3b600e8801600e8501614531565b612d4b600f8801600f8501614531565b612d5b6012880160128501614531565b612d6b6013880160138501614531565b612d7b6014880160148501614531565b612d8b6015880160158501614531565b612d9b6016880160168501614531565b612dab6017880160178501614531565b612dbb6018880160188501614531565b612dcb6019880160198501614531565b612ddb601a8801601a8501614531565b601c8301612df2612dec825461431e565b8261436f565b6010671058d8d95c1d195960c21b0190556001600160401b03851161066a57612e2b85612e22601086015461431e565b60108601614399565b846000601f821160011461313257600091613127575b508560011b906000198760031b1c19161760108401555b6001600160401b03811161066a5782612e8282612e7960118c97015461431e565b60118401614399565b6000601f83116001146130b857600090836130ad575b508260011b906000198460031b1c19161760118201555b601d880154601d82015542601f82015542601e820155602301336001600160601b0360a01b825416179055826040518a888237808b8101600381520360200190205560405189878237808a81016004815203602001902060ff1981541660011790558260028801612f1f9061460f565b5582612f2d600289016146a2565b90612f37916143de565b600160a01b6001900360038801541693600c88015495600d89015496604051978c610140808b528a01612f6a918c614422565b89810360208b0152612f7f9060028d01614443565b89810360408b0152612f949060068d01614443565b89810360608b0152612fa990600a8d01614443565b9160808a015260a089015287810360c089015260098a0190612fca91614443565b9087820360e0890152612fdc92614422565b90858203610100870152612fef92614422565b9242610120820152803394037f9f05ce70672573fc1d86730ee0a71865ada0a93208389d4e76b5698b5108b43491a46040519360a0855260a085019061303492614422565b838103602085015261304891600201614443565b828103604084015261306f90604090600781526650656e64696e6760c81b60208201520190565b828103606084015260088152671058d8d95c1d195960c21b602082015260400191426080820152803393036000805160206148ea83398151915291a3005b90508301358b612e98565b6011820160005260206000209060005b601f198516811061310c575083601f198116106130f2575b5050600182811b016011820155612eaf565b840135600019600385901b60f8161c191690558a806130e0565b8186013583558b9650600190920191602091820191016130c8565b90508401358a612e41565b90506010840160005260206000209060005b601f1988168110613188575086601f1981161061316e575b5050600185811b016010840155612e58565b850135600019600388901b60f8161c19169055898061315c565b9091602060018192858a013581550193019101613144565b90508601358a612c46565b90506001840160005260206000209060005b601f198c16811061320157508a601f198116106131e7575b5050600189811b016001840155612c5d565b87013560001960038c901b60f8161c1916905589806131d5565b9091602060018192858c0135815501930191016131bd565b346107265760003660031901126107265760206040516107d08152f35b34610726576000366003190112610726576001546040516001600160a01b039091168152602090f35b34610726576040366003190112610726576001600160401b0360043581811161072657613290903690600401613f02565b9190602435828111610726576132aa903690600401613f02565b93909160ff604051838382376020818581016004815203019020541615610714576020908260405193849283378101600381520301902054918260005260026020527f71fb55c0cb0fd74783d23c772b2f895cb0c286e8e0fab4f642555d8b1ffce252610166613327601c60406000200160405192838092614443565b60208151910120671058d8d95c1d195960c21b6020604051613348816144f5565b600881520152036107025760ff60405185848237602081878101600481520301902054166106f05761337b6000546142f9565b92836000556000526002602052604060002083600052604060002091848355851161066a576133ba856133b1600185015461431e565b60018501614399565b846000601f82116001146137c65792601f80613768946000805160206148ea833981519152979461378c976000916137bb575b508a60011b906000198c60031b1c19161760018501555b6134146002820160028601614531565b60038181015490850180546001600160a01b039283166001600160a01b031991821617909155600480840154908701805491909316911617905561345e6005808301908601614531565b61346e6006820160068601614531565b61347e6007820160078601614531565b61348e6008820160088601614531565b61349e6009820160098601614531565b6134ae600a8201600a8601614531565b6134be600b8201600b8601614531565b600c810154600c850155600d810154600d8501556134e2600e8201600e8601614531565b6134f2600f8201600f8601614531565b6135026010820160108601614531565b6135126011820160118601614531565b6135226012820160128601614531565b6135326013820160138601614531565b6135426014820160148601614531565b6135526015820160158601614531565b6135626016820160168601614531565b6135726017820160178601614531565b6135826018820160188601614531565b6135926019820160198601614531565b6135a2601a8201601a8601614531565b601d810154601d850155015491015584600052600260205261375a6040600020916135dc6135d3601c85015461431e565b601c850161436f565b60126810dbdb5c1b195d195960ba1b01601c8401554260218401819055601e8401556023830180546001600160a01b031916331790556040518790898382376020818b8101600381520301902055604051888282376020818a81016004815203019020600160ff198254161790556002830192876136598561460f565b55613667886104eb866146a2565b60018060a01b03600382015416887f7eb090b0d076732e0e2c62254d3e200f4cebcb162b68ab76d295f9dc10b543d7848c61373e60018060a01b0360048801541696601161372e61371d8d600c850154906137016136ea600d880154926136dc6040519c8d9c8d610140908181520191614422565b908b820360208d0152614443565b3360408b015289810360608b0152600a8801614443565b91608089015260a088015286810360c088015260098501614443565b85810360e087015260108401614443565b9184830361010086015201614443565b426101208301520390a46040519760a0895260a0890191614422565b908682036020880152614443565b848103604086015260409060088152671058d8d95c1d195960c21b60208201520190565b926810dbdb5c1b195d195960ba1b602082860395866060850152600981520152426080820152604033940190a3005b90508501358b6133ed565b90506001830160005260206000209060005b601f1988168110613838575092601f80613768946000805160206148ea833981519152979461378c978b841981161061381e575b505060018a811b016001850155613404565b86013560001960038d901b60f8161c191690558a8061380c565b909160206001819285890135815501930191016137d8565b3461072657602080600319360112610726576004356001600160401b03811161072657613881903690600401613f02565b60ff604093929351828582378381848101600481520301902054161561071457816138d8938260405193849283378101600381520301902054600052600281526138df601c60406000200160405193848092614443565b0383614510565b610ab7604051928284938452830190613f2f565b3461072657602080600319360112610726576004356001600160401b03811161072657613924903690600401613f02565b8060405192833781019082816006938481520301902090604051808385829554938481520190600052856000209260005b87828210613d5c5750505061396c92500383614510565b815190613978826148be565b916139866040519384614510565b808352613995601f19916148be565b018460005b828110613d465750505060005b8351811015613ce857806139be613ce392866148d5565b5160005260028087526040600020610166613a09604051936139df856144d9565b835485526040516139f7816101668160018901614443565b8b860152604051928380928601614443565b6040830152602360018060a01b0391826003820154166060850152826004820154166080850152604051613a44816101668160058601614443565b60a0850152604051613a5c81610166818b8601614443565b60c0850152604051613a75816101668160078601614443565b60e0850152604051613a8e816101668160088601614443565b610100850152604051613aa8816101668160098601614443565b610120850152604051613ac28161016681600a8601614443565b610140850152604051613adc8161016681600b8601614443565b610160850152600c810154610180850152600d8101546101a0850152604051613b0c8161016681600e8601614443565b6101c0850152604051613b268161016681600f8601614443565b6101e0850152604051613b40816101668160108601614443565b610200850152604051613b5a816101668160118601614443565b610220850152604051613b74816101668160128601614443565b610240850152604051613b8e816101668160138601614443565b610260850152604051613ba8816101668160148601614443565b610280850152604051613bc2816101668160158601614443565b6102a0850152604051613bdc816101668160168601614443565b6102c0850152604051613bf6816101668160178601614443565b6102e0850152604051613c10816101668160188601614443565b610300850152604051613c2a816101668160198601614443565b610320850152604051613c448161016681601a8601614443565b610340850152604051613c5e8161016681601b8601614443565b610360850152604051613c788161016681601c8601614443565b610380850152601d8101546103a0850152601e8101546103c0850152601f8101546103e08501528981015461040085015260218101546104208501526022810154610440850152015416610460820152613cd282866148d5565b52613cdd81856148d5565b506142f9565b6139a7565b604080518681528451818801819052600092600582901b8301810191878a01918a9085015b828710613d1a5785850386f35b909192938280613d36600193603f198a82030186528851613f6f565b9601920196019592919092613d0d565b613d4e6147bc565b82828701015201859061399a565b8554845260019586019588955093019201613955565b346107265760003660031901126107265760206040516101f48152f35b346107265760208060031936011261072657613da96147bc565b5060043560005260028152604060002090604051916107b3836144d9565b34610726576000366003190112610726576020600054604051908152f35b3461072657602080600319360112610726576004356001600160401b03811161072657613e1782913690600401613f02565b91908260405193849283378101600681520301902060405190818382549182815201908192600052846000209060005b86828210613e9d578686613e5d82880383614510565b604051928392818401908285525180915260408401929160005b828110613e8657505050500390f35b835185528695509381019392810192600101613e77565b835485529093019260019283019201613e47565b34610726576020366003190112610726576004356001600160401b038111610726578160208093613ee860ff943690600401613f02565b809183378101600481520301902054166040519015158152f35b9181601f84011215610726578235916001600160401b038311610726576020838186019501011161072657565b919082519283825260005b848110613f5b575050826000602080949584010152601f8019910116010190565b602081830181015184830182015201613f3a565b908151815260208201516104808060208401528201613f8d91613f2f565b6040830151908281036040840152613fa491613f2f565b91600160a01b600190039283606083015116606084015283608083015116608084015260a08201519083810360a0850152613fde91613f2f565b60c08201519083810360c0850152613ff591613f2f565b60e08201519083810360e085015261400c91613f2f565b6101009081830151918482039085015261402591613f2f565b6101209081830151918482039085015261403e91613f2f565b6101409081830151918482039085015261405791613f2f565b6101609081830151918482039085015261407091613f2f565b61018080830151908401526101a080830151908401526101c09081830151918482039085015261409f91613f2f565b6101e0908183015191848203908501526140b891613f2f565b610200908183015191848203908501526140d191613f2f565b610220908183015191848203908501526140ea91613f2f565b6102409081830151918482039085015261410391613f2f565b6102609081830151918482039085015261411c91613f2f565b6102809081830151918482039085015261413591613f2f565b6102a09081830151918482039085015261414e91613f2f565b6102c09081830151918482039085015261416791613f2f565b6102e09081830151918482039085015261418091613f2f565b6103009081830151918482039085015261419991613f2f565b610320908183015191848203908501526141b291613f2f565b610340908183015191848203908501526141cb91613f2f565b610360908183015191848203908501526141e491613f2f565b610380908183015191848203908501526141fd91613f2f565b926103a080830151908401526103c080830151908401526103e08083015190840152610400808301519084015261042080830151908401526104408083015190840152610460809201511691015290565b906060600319830112610726576001600160401b03600435818111610726578361427a91600401613f02565b93909392602435838111610726578261429591600401613f02565b93909392604435918211610726576142af91600401613f02565b9091565b356001600160a01b03811681036107265790565b903590601e198136030182121561072657018035906001600160401b0382116107265760200191813603831361072657565b60001981146143085760010190565b634e487b7160e01b600052601160045260246000fd5b90600182811c9216801561434e575b602083101461433857565b634e487b7160e01b600052602260045260246000fd5b91607f169161432d565b818110614363575050565b60008155600101614358565b90601f811161437c575050565b61439791600052601f6020600020910160051c810190614358565b565b9190601f81116143a857505050565b614397926000526020600020906020601f840160051c830193106143d4575b601f0160051c0190614358565b90915081906143c7565b8054906801000000000000000082101561066a576001820180825582101561440c5760005260206000200155565b634e487b7160e01b600052603260045260246000fd5b908060209392818452848401376000828201840152601f01601f1916010190565b90600092918054916144548361431e565b9182825260019384811690816000146144b65750600114614476575b50505050565b90919394506000526020928360002092846000945b8386106144a2575050505001019038808080614470565b80548587018301529401938590820161448b565b9294505050602093945060ff191683830152151560051b01019038808080614470565b61048081019081106001600160401b0382111761066a57604052565b604081019081106001600160401b0382111761066a57604052565b90601f801991011681019081106001600160401b0382111761066a57604052565b9080821461460b57614543815461431e565b906001600160401b03821161066a57819061456882614562865461431e565b86614399565b600090601f831160011461459f57600092614594575b50508160011b916000199060031b1c1916179055565b01549050388061457e565b81526020808220858352818320935090601f1985169083905b8282106145f25750509084600195949392106145d9575b505050811b019055565b015460001960f88460031b161c191690553880806145cf565b84958192958501548155600180910196019401906145b8565b5050565b6040519081600082546146218161431e565b936001918083169081156146865750600114614649575b505060209250600581520301902090565b90915060005260209081600020906000915b858310614672575050505060209181013880614638565b80548784015286945091830191810161465b565b92505050602093915060ff191682528015150281013880614638565b6040519081600082546146b48161431e565b9360019180831690811561471957506001146146dc575b505060209250600681520301902090565b90915060005260209081600020906000915b8583106147055750505050602091810138806146cb565b8054878401528694509183019181016146ee565b92505050602093915060ff1916825280151502810138806146cb565b9b9a999593946147838d6147a9976147756147b79c976147676101009f9d989761479198610120808852870191614422565b908482036020860152614443565b916040818403910152614443565b8d810360608f015290614443565b9260808c015260a08b015289820360c08b0152614443565b9187830360e0890152614422565b930152565b604051906147c9826144d9565b81610460600091828152606080602083015280604083015283818301528360808301528060a08301528060c08301528060e08301528061010083015280610120830152806101408301528061016083015283610180830152836101a0830152806101c0830152806101e08301528061020083015280610220830152806102408301528061026083015280610280830152806102a0830152806102c0830152806102e083015280610300830152806103208301528061034083015280610360830152610380820152826103a0820152826103c0820152826103e08201528261040082015282610420820152826104408201520152565b6001600160401b03811161066a5760051b60200190565b805182101561440c5760209160051b01019056fee77c2630304c8d9f0dde30bcbd7f5f47449a9b20540195e95682659297800ad0a264697066735822122058b197d39ce3dce39a1b6fcb5a8e46df410c6b9f0d8382140dbb49a619ff232c64736f6c63430008140033",
          "opcodes": "PUSH1 0x80 DUP1 PUSH1 0x40 MSTORE CALLVALUE PUSH2 0x2C JUMPI PUSH1 0x1 DUP1 SLOAD PUSH1 0x1 PUSH1 0x1 PUSH1 0xA0 SHL SUB NOT AND CALLER OR SWAP1 SSTORE PUSH1 0x0 DUP1 SSTORE PUSH2 0x493F SWAP1 DUP2 PUSH2 0x32 DUP3 CODECOPY RETURN JUMPDEST PUSH1 0x0 DUP1 REVERT INVALID PUSH2 0x1E0 DUP1 PUSH1 0x40 MSTORE PUSH1 0x4 CALLDATASIZE LT ISZERO PUSH2 0x14 JUMPI PUSH1 0x0 DUP1 REVERT JUMPDEST PUSH1 0x0 CALLDATALOAD PUSH1 0xE0 SHR SWAP1 DUP2 PUSH4 0x193BBD88 EQ PUSH2 0x3EB1 JUMPI POP DUP1 PUSH4 0x1A0E0166 EQ PUSH2 0x3DE5 JUMPI DUP1 PUSH4 0x2E7700F0 EQ PUSH2 0x3DC7 JUMPI DUP1 PUSH4 0x33EA3DC8 EQ PUSH2 0x3D8F JUMPI DUP1 PUSH4 0x34CCC5EA EQ PUSH2 0x3D72 JUMPI DUP1 PUSH4 0x41A8BC32 EQ PUSH2 0x38F3 JUMPI DUP1 PUSH4 0x7725E119 EQ PUSH2 0x3850 JUMPI DUP1 PUSH4 0x7831D75D EQ PUSH2 0x325F JUMPI DUP1 PUSH4 0x8DA5CB5B EQ PUSH2 0x3236 JUMPI DUP1 PUSH4 0x9201EA0A EQ PUSH2 0x3219 JUMPI DUP1 PUSH4 0xAA6ED518 EQ PUSH2 0x2A92 JUMPI DUP1 PUSH4 0xAEDDD8CC EQ PUSH2 0x11BF JUMPI DUP1 PUSH4 0xD867D92F EQ PUSH2 0xB7D JUMPI DUP1 PUSH4 0xECB497D2 EQ PUSH2 0xB0C JUMPI DUP1 PUSH4 0xF1BB29FF EQ PUSH2 0xABB JUMPI DUP1 PUSH4 0xFA7B9CC4 EQ PUSH2 0x72B JUMPI PUSH4 0xFDEE1A67 EQ PUSH2 0xDB JUMPI PUSH1 0x0 DUP1 REVERT JUMPDEST CALLVALUE PUSH2 0x726 JUMPI PUSH2 0xE9 CALLDATASIZE PUSH2 0x424E JUMP JUMPDEST SWAP4 SWAP1 SWAP3 SWAP2 SWAP5 PUSH1 0xFF PUSH1 0x40 MLOAD DUP4 DUP4 DUP3 CALLDATACOPY PUSH1 0x20 DUP2 DUP6 DUP2 ADD PUSH1 0x4 DUP2 MSTORE SUB ADD SWAP1 KECCAK256 SLOAD AND ISZERO PUSH2 0x714 JUMPI PUSH1 0x20 SWAP1 DUP3 PUSH1 0x40 MLOAD SWAP4 DUP5 SWAP3 DUP4 CALLDATACOPY DUP2 ADD PUSH1 0x3 DUP2 MSTORE SUB ADD SWAP1 KECCAK256 SLOAD PUSH1 0x0 MSTORE PUSH1 0x2 PUSH1 0x20 MSTORE PUSH1 0x40 PUSH1 0x0 KECCAK256 SWAP2 PUSH32 0x4BE840E351422C3B302ABB79AA7DB05560EAD7E387E413320822A342FCA3F54E PUSH1 0x40 MLOAD PUSH2 0x16D DUP2 PUSH2 0x166 DUP2 PUSH1 0x1C DUP10 ADD PUSH2 0x4443 JUMP JUMPDEST SUB DUP3 PUSH2 0x4510 JUMP JUMPDEST PUSH1 0x20 DUP2 MLOAD SWAP2 ADD KECCAK256 PUSH7 0x50656E64696E67 PUSH1 0xC8 SHL PUSH1 0x20 PUSH1 0x40 MLOAD PUSH2 0x18D DUP2 PUSH2 0x44F5 JUMP JUMPDEST PUSH1 0x7 DUP2 MSTORE ADD MSTORE SUB PUSH2 0x702 JUMPI PUSH1 0xFF PUSH1 0x40 MLOAD DUP7 DUP5 DUP3 CALLDATACOPY PUSH1 0x20 DUP2 DUP9 DUP2 ADD PUSH1 0x4 DUP2 MSTORE SUB ADD SWAP1 KECCAK256 SLOAD AND PUSH2 0x6F0 JUMPI PUSH2 0x1C0 PUSH1 0x0 SLOAD PUSH2 0x42F9 JUMP JUMPDEST SWAP4 DUP5 PUSH1 0x0 SSTORE DUP5 PUSH1 0x0 MSTORE PUSH1 0x2 PUSH1 0x20 MSTORE PUSH1 0x40 PUSH1 0x0 KECCAK256 DUP6 DUP2 SSTORE PUSH1 0x1 PUSH1 0x1 PUSH1 0x40 SHL SUB DUP8 GT PUSH2 0x66A JUMPI PUSH1 0x1 DUP2 ADD PUSH2 0x1FC DUP9 PUSH2 0x1F6 DUP4 SLOAD PUSH2 0x431E JUMP JUMPDEST DUP4 PUSH2 0x4399 JUMP JUMPDEST DUP8 PUSH1 0x0 PUSH1 0x1F DUP3 GT PUSH1 0x1 EQ PUSH2 0x68B JUMPI PUSH1 0x0 SWAP2 PUSH2 0x680 JUMPI JUMPDEST POP DUP9 PUSH1 0x1 SHL SWAP1 PUSH1 0x0 NOT DUP11 PUSH1 0x3 SHL SHR NOT AND OR SWAP1 SSTORE JUMPDEST PUSH2 0x236 PUSH1 0x2 DUP7 ADD PUSH1 0x2 DUP4 ADD PUSH2 0x4531 JUMP JUMPDEST PUSH1 0x3 DUP6 DUP2 ADD SLOAD SWAP1 DUP3 ADD DUP1 SLOAD PUSH1 0x1 PUSH1 0x1 PUSH1 0xA0 SHL SUB SWAP3 DUP4 AND PUSH1 0x1 PUSH1 0x1 PUSH1 0xA0 SHL SUB NOT SWAP2 DUP3 AND OR SWAP1 SWAP2 SSTORE PUSH1 0x4 DUP1 DUP9 ADD SLOAD SWAP1 DUP5 ADD DUP1 SLOAD SWAP2 SWAP1 SWAP4 AND SWAP2 AND OR SWAP1 SSTORE PUSH2 0x280 PUSH1 0x5 DUP1 DUP8 ADD SWAP1 DUP4 ADD PUSH2 0x4531 JUMP JUMPDEST PUSH2 0x290 PUSH1 0x6 DUP7 ADD PUSH1 0x6 DUP4 ADD PUSH2 0x4531 JUMP JUMPDEST PUSH2 0x2A0 PUSH1 0x7 DUP7 ADD PUSH1 0x7 DUP4 ADD PUSH2 0x4531 JUMP JUMPDEST PUSH2 0x2B0 PUSH1 0x8 DUP7 ADD PUSH1 0x8 DUP4 ADD PUSH2 0x4531 JUMP JUMPDEST PUSH2 0x2C0 PUSH1 0x9 DUP7 ADD PUSH1 0x9 DUP4 ADD PUSH2 0x4531 JUMP JUMPDEST PUSH2 0x2D0 PUSH1 0xA DUP7 ADD PUSH1 0xA DUP4 ADD PUSH2 0x4531 JUMP JUMPDEST PUSH2 0x2E0 PUSH1 0xB DUP7 ADD PUSH1 0xB DUP4 ADD PUSH2 0x4531 JUMP JUMPDEST PUSH1 0xC DUP6 ADD SLOAD PUSH1 0xC DUP3 ADD SSTORE PUSH1 0xD DUP6 ADD SLOAD PUSH1 0xD DUP3 ADD SSTORE PUSH2 0x304 PUSH1 0xE DUP7 ADD PUSH1 0xE DUP4 ADD PUSH2 0x4531 JUMP JUMPDEST PUSH2 0x314 PUSH1 0xF DUP7 ADD PUSH1 0xF DUP4 ADD PUSH2 0x4531 JUMP JUMPDEST PUSH2 0x324 PUSH1 0x12 DUP7 ADD PUSH1 0x12 DUP4 ADD PUSH2 0x4531 JUMP JUMPDEST PUSH2 0x334 PUSH1 0x13 DUP7 ADD PUSH1 0x13 DUP4 ADD PUSH2 0x4531 JUMP JUMPDEST PUSH2 0x344 PUSH1 0x14 DUP7 ADD PUSH1 0x14 DUP4 ADD PUSH2 0x4531 JUMP JUMPDEST PUSH2 0x354 PUSH1 0x15 DUP7 ADD PUSH1 0x15 DUP4 ADD PUSH2 0x4531 JUMP JUMPDEST PUSH2 0x364 PUSH1 0x16 DUP7 ADD PUSH1 0x16 DUP4 ADD PUSH2 0x4531 JUMP JUMPDEST PUSH2 0x374 PUSH1 0x17 DUP7 ADD PUSH1 0x17 DUP4 ADD PUSH2 0x4531 JUMP JUMPDEST PUSH2 0x384 PUSH1 0x18 DUP7 ADD PUSH1 0x18 DUP4 ADD PUSH2 0x4531 JUMP JUMPDEST PUSH2 0x394 PUSH1 0x19 DUP7 ADD PUSH1 0x19 DUP4 ADD PUSH2 0x4531 JUMP JUMPDEST PUSH2 0x3A4 PUSH1 0x1A DUP7 ADD PUSH1 0x1A DUP4 ADD PUSH2 0x4531 JUMP JUMPDEST PUSH2 0x3BD PUSH2 0x3B4 PUSH1 0x1C DUP4 ADD SLOAD PUSH2 0x431E JUMP JUMPDEST PUSH1 0x1C DUP4 ADD PUSH2 0x436F JUMP JUMPDEST PUSH1 0x10 PUSH8 0x14995A9958DD1959 PUSH1 0xC2 SHL ADD PUSH1 0x1C DUP3 ADD SSTORE PUSH1 0x1 PUSH1 0x1 PUSH1 0x40 SHL SUB DUP3 GT PUSH2 0x66A JUMPI DUP7 SWAP3 DUP2 PUSH2 0x3FD DUP5 PUSH2 0x3F4 PUSH1 0x1B DUP12 SWAP7 ADD SLOAD PUSH2 0x431E JUMP JUMPDEST PUSH1 0x1B DUP5 ADD PUSH2 0x4399 JUMP JUMPDEST PUSH1 0x0 PUSH1 0x1F DUP6 GT PUSH1 0x1 EQ PUSH2 0x5B2 JUMPI SWAP5 DUP5 PUSH1 0x2 SWAP5 PUSH32 0x969EA5FC807308A4F63891BD07C02EC25ADFB0F71F721C0AE5FAB88DEBF7F548 PUSH2 0x547 SWAP6 PUSH1 0x23 PUSH2 0x579 SWAP12 SWAP7 PUSH1 0x0 DUP1 MLOAD PUSH1 0x20 PUSH2 0x48EA DUP4 CODECOPY DUP2 MLOAD SWAP2 MSTORE SWAP14 SWAP11 PUSH2 0x556 SWAP13 PUSH1 0x0 SWAP2 PUSH2 0x5A7 JUMPI JUMPDEST POP DUP7 PUSH1 0x1 SHL SWAP1 PUSH1 0x0 NOT DUP9 PUSH1 0x3 SHL SHR NOT AND OR PUSH1 0x1B DUP3 ADD SSTORE JUMPDEST PUSH1 0x1D DUP12 ADD SLOAD PUSH1 0x1D DUP3 ADD SSTORE TIMESTAMP PUSH1 0x20 DUP3 ADD SSTORE TIMESTAMP PUSH1 0x1E DUP3 ADD SSTORE ADD CALLER PUSH1 0x1 PUSH1 0x1 PUSH1 0x60 SHL SUB PUSH1 0xA0 SHL DUP3 SLOAD AND OR SWAP1 SSTORE DUP3 PUSH1 0x40 MLOAD DUP7 DUP9 DUP3 CALLDATACOPY PUSH1 0x20 DUP2 DUP9 DUP2 ADD PUSH1 0x3 DUP2 MSTORE SUB ADD SWAP1 KECCAK256 SSTORE PUSH1 0x40 MLOAD DUP6 DUP8 DUP3 CALLDATACOPY PUSH1 0x20 DUP2 DUP8 DUP2 ADD PUSH1 0x4 DUP2 MSTORE SUB ADD SWAP1 KECCAK256 PUSH1 0x1 PUSH1 0xFF NOT DUP3 SLOAD AND OR SWAP1 SSTORE DUP3 PUSH2 0x4DB DUP10 DUP12 ADD PUSH2 0x460F JUMP JUMPDEST SSTORE PUSH2 0x4F0 DUP4 PUSH2 0x4EB DUP11 DUP13 ADD PUSH2 0x46A2 JUMP JUMPDEST PUSH2 0x43DE JUMP JUMPDEST PUSH1 0x1 DUP1 PUSH1 0xA0 SHL SUB PUSH1 0x3 DUP11 ADD SLOAD AND SWAP4 PUSH2 0x532 DUP11 PUSH1 0xC DUP2 ADD SLOAD SWAP3 PUSH1 0xD DUP3 ADD SLOAD SWAP5 DUP11 PUSH1 0x40 MLOAD SWAP7 DUP8 SWAP7 CALLER SWAP13 TIMESTAMP SWAP7 PUSH1 0x9 DUP2 ADD SWAP5 PUSH1 0xA DUP3 ADD SWAP3 PUSH1 0x2 PUSH1 0x6 DUP5 ADD SWAP4 ADD SWAP2 DUP13 PUSH2 0x4735 JUMP JUMPDEST SUB SWAP1 LOG4 PUSH1 0x40 MLOAD SWAP9 PUSH1 0xA0 DUP11 MSTORE PUSH1 0xA0 DUP11 ADD SWAP2 PUSH2 0x4422 JUMP JUMPDEST SWAP2 DUP8 DUP4 SUB PUSH1 0x20 DUP10 ADD MSTORE ADD PUSH2 0x4443 JUMP JUMPDEST DUP5 DUP2 SUB PUSH1 0x40 DUP7 ADD MSTORE PUSH1 0x40 SWAP1 PUSH1 0x7 DUP2 MSTORE PUSH7 0x50656E64696E67 PUSH1 0xC8 SHL PUSH1 0x20 DUP3 ADD MSTORE ADD SWAP1 JUMP JUMPDEST SWAP3 PUSH8 0x14995A9958DD1959 PUSH1 0xC2 SHL PUSH1 0x20 DUP3 DUP7 SUB SWAP6 DUP7 PUSH1 0x60 DUP6 ADD MSTORE PUSH1 0x8 DUP2 MSTORE ADD MSTORE TIMESTAMP PUSH1 0x80 DUP3 ADD MSTORE PUSH1 0x40 CALLER SWAP5 ADD SWAP1 LOG3 STOP JUMPDEST SWAP1 POP DUP4 ADD CALLDATALOAD CODESIZE PUSH2 0x458 JUMP JUMPDEST PUSH1 0x1B DUP3 ADD PUSH1 0x0 MSTORE PUSH1 0x20 PUSH1 0x0 KECCAK256 SWAP1 PUSH1 0x0 JUMPDEST PUSH1 0x1F NOT DUP8 AND DUP2 LT PUSH2 0x64C JUMPI POP SWAP5 PUSH1 0x2 SWAP5 PUSH32 0x969EA5FC807308A4F63891BD07C02EC25ADFB0F71F721C0AE5FAB88DEBF7F548 PUSH2 0x547 SWAP6 PUSH1 0x23 PUSH2 0x579 SWAP12 SWAP7 PUSH2 0x556 SWAP12 SWAP7 PUSH1 0x0 DUP1 MLOAD PUSH1 0x20 PUSH2 0x48EA DUP4 CODECOPY DUP2 MLOAD SWAP2 MSTORE SWAP15 SWAP12 DUP8 PUSH1 0x1F NOT DUP2 AND LT PUSH2 0x632 JUMPI JUMPDEST POP POP PUSH1 0x1 DUP7 DUP2 SHL ADD PUSH1 0x1B DUP3 ADD SSTORE PUSH2 0x46F JUMP JUMPDEST DUP5 ADD CALLDATALOAD PUSH1 0x0 NOT PUSH1 0x3 DUP10 SWAP1 SHL PUSH1 0xF8 AND SHR NOT AND SWAP1 SSTORE CODESIZE DUP1 PUSH2 0x620 JUMP JUMPDEST DUP2 DUP6 ADD CALLDATALOAD DUP4 SSTORE DUP12 SWAP8 POP DUP11 SWAP6 POP PUSH1 0x1 SWAP1 SWAP3 ADD SWAP2 PUSH1 0x20 SWAP2 DUP3 ADD SWAP2 ADD PUSH2 0x5C2 JUMP JUMPDEST PUSH4 0x4E487B71 PUSH1 0xE0 SHL PUSH1 0x0 MSTORE PUSH1 0x41 PUSH1 0x4 MSTORE PUSH1 0x24 PUSH1 0x0 REVERT JUMPDEST SWAP1 POP DUP6 ADD CALLDATALOAD CODESIZE PUSH2 0x212 JUMP JUMPDEST PUSH1 0x0 DUP4 DUP2 MSTORE PUSH1 0x20 DUP2 KECCAK256 SWAP3 POP JUMPDEST PUSH1 0x1F NOT DUP12 AND DUP2 LT PUSH2 0x6D8 JUMPI POP DUP10 PUSH1 0x1F NOT DUP2 AND LT PUSH2 0x6BE JUMPI JUMPDEST POP POP PUSH1 0x1 DUP9 DUP2 SHL ADD SWAP1 SSTORE PUSH2 0x226 JUMP JUMPDEST DUP7 ADD CALLDATALOAD PUSH1 0x0 NOT PUSH1 0x3 DUP12 SWAP1 SHL PUSH1 0xF8 AND SHR NOT AND SWAP1 SSTORE CODESIZE DUP1 PUSH2 0x6AF JUMP JUMPDEST SWAP1 SWAP2 PUSH1 0x20 PUSH1 0x1 DUP2 SWAP3 DUP6 DUP12 ADD CALLDATALOAD DUP2 SSTORE ADD SWAP4 ADD SWAP2 ADD PUSH2 0x697 JUMP JUMPDEST PUSH1 0x40 MLOAD PUSH4 0x2928418B PUSH1 0xE0 SHL DUP2 MSTORE PUSH1 0x4 SWAP1 REVERT JUMPDEST PUSH1 0x40 MLOAD PUSH4 0x88BD323 PUSH1 0xE1 SHL DUP2 MSTORE PUSH1 0x4 SWAP1 REVERT JUMPDEST PUSH1 0x40 MLOAD PUSH4 0x31FB878F PUSH1 0xE0 SHL DUP2 MSTORE PUSH1 0x4 SWAP1 REVERT JUMPDEST PUSH1 0x0 DUP1 REVERT JUMPDEST CALLVALUE PUSH2 0x726 JUMPI PUSH1 0x20 DUP1 PUSH1 0x3 NOT CALLDATASIZE ADD SLT PUSH2 0x726 JUMPI PUSH1 0x4 CALLDATALOAD PUSH1 0x1 PUSH1 0x1 PUSH1 0x40 SHL SUB DUP2 GT PUSH2 0x726 JUMPI PUSH2 0x75C SWAP1 CALLDATASIZE SWAP1 PUSH1 0x4 ADD PUSH2 0x3F02 JUMP JUMPDEST SWAP1 PUSH2 0x765 PUSH2 0x47BC JUMP JUMPDEST POP PUSH1 0xFF PUSH1 0x40 MLOAD DUP4 DUP4 DUP3 CALLDATACOPY DUP5 DUP2 DUP6 DUP2 ADD PUSH1 0x4 DUP2 MSTORE SUB ADD SWAP1 KECCAK256 SLOAD AND ISZERO PUSH2 0x714 JUMPI DUP3 SWAP1 DUP3 PUSH1 0x40 MLOAD SWAP4 DUP5 SWAP3 DUP4 CALLDATACOPY DUP2 ADD PUSH1 0x3 DUP2 MSTORE SUB ADD SWAP1 KECCAK256 SLOAD PUSH1 0x0 MSTORE PUSH1 0x2 DUP2 MSTORE PUSH1 0x40 PUSH1 0x0 KECCAK256 SWAP1 PUSH1 0x40 MLOAD SWAP2 PUSH2 0x7B3 DUP4 PUSH2 0x44D9 JUMP JUMPDEST DUP1 SLOAD DUP4 MSTORE PUSH1 0x40 MLOAD PUSH2 0x7CB DUP2 PUSH2 0x166 DUP2 PUSH1 0x1 DUP7 ADD PUSH2 0x4443 JUMP JUMPDEST DUP3 DUP5 ADD MSTORE PUSH1 0x40 MLOAD PUSH2 0x7E3 DUP2 PUSH2 0x166 DUP2 PUSH1 0x2 DUP7 ADD PUSH2 0x4443 JUMP JUMPDEST PUSH1 0x40 DUP5 ADD MSTORE PUSH1 0x23 PUSH1 0x1 DUP1 PUSH1 0xA0 SHL SUB SWAP2 DUP3 PUSH1 0x3 DUP3 ADD SLOAD AND PUSH1 0x60 DUP7 ADD MSTORE DUP3 PUSH1 0x4 DUP3 ADD SLOAD AND PUSH1 0x80 DUP7 ADD MSTORE PUSH1 0x40 MLOAD PUSH2 0x81E DUP2 PUSH2 0x166 DUP2 PUSH1 0x5 DUP7 ADD PUSH2 0x4443 JUMP JUMPDEST PUSH1 0xA0 DUP7 ADD MSTORE PUSH1 0x40 MLOAD PUSH2 0x837 DUP2 PUSH2 0x166 DUP2 PUSH1 0x6 DUP7 ADD PUSH2 0x4443 JUMP JUMPDEST PUSH1 0xC0 DUP7 ADD MSTORE PUSH1 0x40 MLOAD PUSH2 0x850 DUP2 PUSH2 0x166 DUP2 PUSH1 0x7 DUP7 ADD PUSH2 0x4443 JUMP JUMPDEST PUSH1 0xE0 DUP7 ADD MSTORE PUSH1 0x40 MLOAD PUSH2 0x869 DUP2 PUSH2 0x166 DUP2 PUSH1 0x8 DUP7 ADD PUSH2 0x4443 JUMP JUMPDEST PUSH2 0x100 DUP7 ADD MSTORE PUSH1 0x40 MLOAD PUSH2 0x883 DUP2 PUSH2 0x166 DUP2 PUSH1 0x9 DUP7 ADD PUSH2 0x4443 JUMP JUMPDEST PUSH2 0x120 DUP7 ADD MSTORE PUSH1 0x40 MLOAD PUSH2 0x89D DUP2 PUSH2 0x166 DUP2 PUSH1 0xA DUP7 ADD PUSH2 0x4443 JUMP JUMPDEST PUSH2 0x140 DUP7 ADD MSTORE PUSH1 0x40 MLOAD PUSH2 0x8B7 DUP2 PUSH2 0x166 DUP2 PUSH1 0xB DUP7 ADD PUSH2 0x4443 JUMP JUMPDEST PUSH2 0x160 DUP7 ADD MSTORE PUSH1 0xC DUP2 ADD SLOAD PUSH2 0x180 DUP7 ADD MSTORE PUSH1 0xD DUP2 ADD SLOAD PUSH2 0x1A0 DUP7 ADD MSTORE PUSH1 0x40 MLOAD PUSH2 0x8E7 DUP2 PUSH2 0x166 DUP2 PUSH1 0xE DUP7 ADD PUSH2 0x4443 JUMP JUMPDEST PUSH2 0x1C0 DUP7 ADD MSTORE PUSH1 0x40 MLOAD PUSH2 0x901 DUP2 PUSH2 0x166 DUP2 PUSH1 0xF DUP7 ADD PUSH2 0x4443 JUMP JUMPDEST PUSH2 0x1E0 DUP7 ADD MSTORE PUSH1 0x40 MLOAD PUSH2 0x91B DUP2 PUSH2 0x166 DUP2 PUSH1 0x10 DUP7 ADD PUSH2 0x4443 JUMP JUMPDEST PUSH2 0x200 DUP7 ADD MSTORE PUSH1 0x40 MLOAD PUSH2 0x935 DUP2 PUSH2 0x166 DUP2 PUSH1 0x11 DUP7 ADD PUSH2 0x4443 JUMP JUMPDEST PUSH2 0x220 DUP7 ADD MSTORE PUSH1 0x40 MLOAD PUSH2 0x94F DUP2 PUSH2 0x166 DUP2 PUSH1 0x12 DUP7 ADD PUSH2 0x4443 JUMP JUMPDEST PUSH2 0x240 DUP7 ADD MSTORE PUSH1 0x40 MLOAD PUSH2 0x969 DUP2 PUSH2 0x166 DUP2 PUSH1 0x13 DUP7 ADD PUSH2 0x4443 JUMP JUMPDEST PUSH2 0x260 DUP7 ADD MSTORE PUSH1 0x40 MLOAD PUSH2 0x983 DUP2 PUSH2 0x166 DUP2 PUSH1 0x14 DUP7 ADD PUSH2 0x4443 JUMP JUMPDEST PUSH2 0x280 DUP7 ADD MSTORE PUSH1 0x40 MLOAD PUSH2 0x99D DUP2 PUSH2 0x166 DUP2 PUSH1 0x15 DUP7 ADD PUSH2 0x4443 JUMP JUMPDEST PUSH2 0x2A0 DUP7 ADD MSTORE PUSH1 0x40 MLOAD PUSH2 0x9B7 DUP2 PUSH2 0x166 DUP2 PUSH1 0x16 DUP7 ADD PUSH2 0x4443 JUMP JUMPDEST PUSH2 0x2C0 DUP7 ADD MSTORE PUSH1 0x40 MLOAD PUSH2 0x9D1 DUP2 PUSH2 0x166 DUP2 PUSH1 0x17 DUP7 ADD PUSH2 0x4443 JUMP JUMPDEST PUSH2 0x2E0 DUP7 ADD MSTORE PUSH1 0x40 MLOAD PUSH2 0x9EB DUP2 PUSH2 0x166 DUP2 PUSH1 0x18 DUP7 ADD PUSH2 0x4443 JUMP JUMPDEST PUSH2 0x300 DUP7 ADD MSTORE PUSH1 0x40 MLOAD PUSH2 0xA05 DUP2 PUSH2 0x166 DUP2 PUSH1 0x19 DUP7 ADD PUSH2 0x4443 JUMP JUMPDEST PUSH2 0x320 DUP7 ADD MSTORE PUSH1 0x40 MLOAD PUSH2 0xA1F DUP2 PUSH2 0x166 DUP2 PUSH1 0x1A DUP7 ADD PUSH2 0x4443 JUMP JUMPDEST PUSH2 0x340 DUP7 ADD MSTORE PUSH1 0x40 MLOAD PUSH2 0xA39 DUP2 PUSH2 0x166 DUP2 PUSH1 0x1B DUP7 ADD PUSH2 0x4443 JUMP JUMPDEST PUSH2 0x360 DUP7 ADD MSTORE PUSH1 0x40 MLOAD PUSH2 0xA53 DUP2 PUSH2 0x166 DUP2 PUSH1 0x1C DUP7 ADD PUSH2 0x4443 JUMP JUMPDEST PUSH2 0x380 DUP7 ADD MSTORE PUSH1 0x1D DUP2 ADD SLOAD PUSH2 0x3A0 DUP7 ADD MSTORE PUSH1 0x1E DUP2 ADD SLOAD PUSH2 0x3C0 DUP7 ADD MSTORE PUSH1 0x1F DUP2 ADD SLOAD PUSH2 0x3E0 DUP7 ADD MSTORE DUP4 DUP2 ADD SLOAD PUSH2 0x400 DUP7 ADD MSTORE PUSH1 0x21 DUP2 ADD SLOAD PUSH2 0x420 DUP7 ADD MSTORE PUSH1 0x22 DUP2 ADD SLOAD PUSH2 0x440 DUP7 ADD MSTORE ADD SLOAD AND PUSH2 0x460 DUP4 ADD MSTORE PUSH2 0xAB7 PUSH1 0x40 MLOAD SWAP3 DUP3 DUP5 SWAP4 DUP5 MSTORE DUP4 ADD SWAP1 PUSH2 0x3F6F JUMP JUMPDEST SUB SWAP1 RETURN JUMPDEST CALLVALUE PUSH2 0x726 JUMPI PUSH1 0x20 CALLDATASIZE PUSH1 0x3 NOT ADD SLT PUSH2 0x726 JUMPI PUSH1 0x4 CALLDATALOAD PUSH1 0x1 PUSH1 0x1 PUSH1 0x40 SHL SUB DUP2 GT PUSH2 0x726 JUMPI PUSH1 0x20 PUSH2 0xAEE DUP2 SWAP3 CALLDATASIZE SWAP1 PUSH1 0x4 ADD PUSH2 0x3F02 JUMP JUMPDEST SWAP2 SWAP1 DUP3 PUSH1 0x40 MLOAD SWAP4 DUP5 SWAP3 DUP4 CALLDATACOPY DUP2 ADD PUSH1 0x3 DUP2 MSTORE SUB ADD SWAP1 KECCAK256 SLOAD PUSH1 0x40 MLOAD SWAP1 DUP2 MSTORE RETURN JUMPDEST CALLVALUE PUSH2 0x726 JUMPI PUSH1 0x20 DUP1 PUSH1 0x3 NOT CALLDATASIZE ADD SLT PUSH2 0x726 JUMPI PUSH1 0x4 CALLDATALOAD PUSH1 0x1 PUSH1 0x1 PUSH1 0x40 SHL SUB DUP2 GT PUSH2 0x726 JUMPI PUSH2 0xB3E DUP3 SWAP2 CALLDATASIZE SWAP1 PUSH1 0x4 ADD PUSH2 0x3F02 JUMP JUMPDEST SWAP2 SWAP1 PUSH2 0xB48 PUSH2 0x47BC JUMP JUMPDEST POP DUP3 PUSH1 0x40 MLOAD SWAP4 DUP5 SWAP3 DUP4 CALLDATACOPY DUP2 ADD PUSH1 0x5 DUP2 MSTORE SUB ADD SWAP1 KECCAK256 SLOAD DUP1 ISZERO PUSH2 0x714 JUMPI PUSH1 0x0 MSTORE PUSH1 0x2 DUP2 MSTORE PUSH1 0x40 PUSH1 0x0 KECCAK256 SWAP1 PUSH1 0x40 MLOAD SWAP2 PUSH2 0x7B3 DUP4 PUSH2 0x44D9 JUMP JUMPDEST CALLVALUE PUSH2 0x726 JUMPI PUSH2 0xB8B CALLDATASIZE PUSH2 0x424E JUMP JUMPDEST SWAP3 SWAP2 SWAP5 PUSH1 0xFF PUSH1 0x40 SWAP6 SWAP3 SWAP6 MLOAD DUP4 DUP4 DUP3 CALLDATACOPY PUSH1 0x20 DUP2 DUP6 DUP2 ADD PUSH1 0x4 DUP2 MSTORE SUB ADD SWAP1 KECCAK256 SLOAD AND ISZERO PUSH2 0x714 JUMPI PUSH1 0x20 SWAP1 DUP3 PUSH1 0x40 MLOAD SWAP4 DUP5 SWAP3 DUP4 CALLDATACOPY DUP2 ADD PUSH1 0x3 DUP2 MSTORE SUB ADD SWAP1 KECCAK256 SLOAD PUSH1 0x0 MSTORE PUSH1 0x2 PUSH1 0x20 MSTORE PUSH1 0x40 PUSH1 0x0 KECCAK256 SWAP2 PUSH1 0x40 MLOAD PUSH2 0xBE8 DUP2 PUSH2 0x166 DUP2 PUSH1 0x1C DUP9 ADD PUSH2 0x4443 JUMP JUMPDEST PUSH1 0x20 DUP2 MLOAD SWAP2 ADD KECCAK256 PUSH7 0x50656E64696E67 PUSH1 0xC8 SHL PUSH1 0x20 PUSH1 0x40 MLOAD PUSH2 0xC08 DUP2 PUSH2 0x44F5 JUMP JUMPDEST PUSH1 0x7 DUP2 MSTORE ADD MSTORE PUSH32 0x4BE840E351422C3B302ABB79AA7DB05560EAD7E387E413320822A342FCA3F54E DUP2 EQ ISZERO SWAP1 DUP2 PUSH2 0x1174 JUMPI JUMPDEST POP PUSH2 0x702 JUMPI PUSH1 0xFF PUSH1 0x40 MLOAD DUP7 DUP5 DUP3 CALLDATACOPY PUSH1 0x20 DUP2 DUP9 DUP2 ADD PUSH1 0x4 DUP2 MSTORE SUB ADD SWAP1 KECCAK256 SLOAD AND PUSH2 0x6F0 JUMPI PUSH2 0xC66 PUSH1 0x0 SLOAD PUSH2 0x42F9 JUMP JUMPDEST SWAP4 DUP5 PUSH1 0x0 SSTORE DUP5 PUSH1 0x0 MSTORE PUSH1 0x2 PUSH1 0x20 MSTORE PUSH1 0x40 PUSH1 0x0 KECCAK256 DUP6 DUP2 SSTORE PUSH1 0x1 PUSH1 0x1 PUSH1 0x40 SHL SUB DUP8 GT PUSH2 0x66A JUMPI PUSH2 0xCA4 DUP8 PUSH2 0xC9B PUSH1 0x1 DUP5 ADD SLOAD PUSH2 0x431E JUMP JUMPDEST PUSH1 0x1 DUP5 ADD PUSH2 0x4399 JUMP JUMPDEST DUP7 PUSH1 0x0 PUSH1 0x1F DUP3 GT PUSH1 0x1 EQ PUSH2 0x1106 JUMPI PUSH1 0x0 SWAP2 PUSH2 0x10FB JUMPI JUMPDEST POP DUP8 PUSH1 0x1 SHL SWAP1 PUSH1 0x0 NOT DUP10 PUSH1 0x3 SHL SHR NOT AND OR PUSH1 0x1 DUP3 ADD SSTORE JUMPDEST PUSH2 0xCE1 PUSH1 0x2 DUP7 ADD PUSH1 0x2 DUP4 ADD PUSH2 0x4531 JUMP JUMPDEST PUSH1 0x3 DUP6 DUP2 ADD SLOAD SWAP1 DUP3 ADD DUP1 SLOAD PUSH1 0x1 PUSH1 0x1 PUSH1 0xA0 SHL SUB SWAP3 DUP4 AND PUSH1 0x1 PUSH1 0x1 PUSH1 0xA0 SHL SUB NOT SWAP2 DUP3 AND OR SWAP1 SWAP2 SSTORE PUSH1 0x4 DUP1 DUP9 ADD SLOAD SWAP1 DUP5 ADD DUP1 SLOAD SWAP2 SWAP1 SWAP4 AND SWAP2 AND OR SWAP1 SSTORE PUSH2 0xD2B PUSH1 0x5 DUP1 DUP8 ADD SWAP1 DUP4 ADD PUSH2 0x4531 JUMP JUMPDEST PUSH2 0xD3B PUSH1 0x6 DUP7 ADD PUSH1 0x6 DUP4 ADD PUSH2 0x4531 JUMP JUMPDEST PUSH2 0xD4B PUSH1 0x7 DUP7 ADD PUSH1 0x7 DUP4 ADD PUSH2 0x4531 JUMP JUMPDEST PUSH2 0xD5B PUSH1 0x8 DUP7 ADD PUSH1 0x8 DUP4 ADD PUSH2 0x4531 JUMP JUMPDEST PUSH2 0xD6B PUSH1 0x9 DUP7 ADD PUSH1 0x9 DUP4 ADD PUSH2 0x4531 JUMP JUMPDEST PUSH2 0xD7B PUSH1 0xA DUP7 ADD PUSH1 0xA DUP4 ADD PUSH2 0x4531 JUMP JUMPDEST PUSH2 0xD8B PUSH1 0xB DUP7 ADD PUSH1 0xB DUP4 ADD PUSH2 0x4531 JUMP JUMPDEST PUSH1 0xC DUP6 ADD SLOAD PUSH1 0xC DUP3 ADD SSTORE PUSH1 0xD DUP6 ADD SLOAD PUSH1 0xD DUP3 ADD SSTORE PUSH2 0xDAF PUSH1 0xE DUP7 ADD PUSH1 0xE DUP4 ADD PUSH2 0x4531 JUMP JUMPDEST PUSH2 0xDBF PUSH1 0xF DUP7 ADD PUSH1 0xF DUP4 ADD PUSH2 0x4531 JUMP JUMPDEST PUSH2 0xDCF PUSH1 0x10 DUP7 ADD PUSH1 0x10 DUP4 ADD PUSH2 0x4531 JUMP JUMPDEST PUSH2 0xDDF PUSH1 0x11 DUP7 ADD PUSH1 0x11 DUP4 ADD PUSH2 0x4531 JUMP JUMPDEST PUSH2 0xDEF PUSH1 0x12 DUP7 ADD PUSH1 0x12 DUP4 ADD PUSH2 0x4531 JUMP JUMPDEST PUSH2 0xDFF PUSH1 0x13 DUP7 ADD PUSH1 0x13 DUP4 ADD PUSH2 0x4531 JUMP JUMPDEST PUSH2 0xE0F PUSH1 0x14 DUP7 ADD PUSH1 0x14 DUP4 ADD PUSH2 0x4531 JUMP JUMPDEST PUSH2 0xE1F PUSH1 0x15 DUP7 ADD PUSH1 0x15 DUP4 ADD PUSH2 0x4531 JUMP JUMPDEST PUSH2 0xE2F PUSH1 0x16 DUP7 ADD PUSH1 0x16 DUP4 ADD PUSH2 0x4531 JUMP JUMPDEST PUSH2 0xE3F PUSH1 0x17 DUP7 ADD PUSH1 0x17 DUP4 ADD PUSH2 0x4531 JUMP JUMPDEST PUSH2 0xE4F PUSH1 0x18 DUP7 ADD PUSH1 0x18 DUP4 ADD PUSH2 0x4531 JUMP JUMPDEST PUSH2 0xE5F PUSH1 0x19 DUP7 ADD PUSH1 0x19 DUP4 ADD PUSH2 0x4531 JUMP JUMPDEST PUSH2 0xE6F PUSH1 0x1A DUP7 ADD PUSH1 0x1A DUP4 ADD PUSH2 0x4531 JUMP JUMPDEST PUSH2 0xE7F PUSH2 0x3B4 PUSH1 0x1C DUP4 ADD SLOAD PUSH2 0x431E JUMP JUMPDEST PUSH1 0x12 PUSH9 0x10D85B98D95B1B1959 PUSH1 0xBA SHL ADD PUSH1 0x1C DUP3 ADD SSTORE PUSH1 0x1 PUSH1 0x1 PUSH1 0x40 SHL SUB DUP4 GT PUSH2 0x66A JUMPI DUP7 SWAP2 DUP2 PUSH2 0xEB7 DUP6 PUSH2 0x3F4 PUSH1 0x1B DUP12 SWAP7 ADD SLOAD PUSH2 0x431E JUMP JUMPDEST PUSH1 0x0 PUSH1 0x1F DUP7 GT PUSH1 0x1 EQ PUSH2 0x1043 JUMPI SWAP5 PUSH1 0x1C SWAP5 PUSH2 0xFFA SWAP5 PUSH32 0xD16082890981E130BA7D013182F9E32F7B379F8EE11963F9EEDB2610D0D5DE67 PUSH2 0xFE9 SWAP6 PUSH1 0x23 PUSH2 0x1009 SWAP12 SWAP7 DUP7 PUSH1 0x0 DUP1 MLOAD PUSH1 0x20 PUSH2 0x48EA DUP4 CODECOPY DUP2 MLOAD SWAP2 MSTORE SWAP15 SWAP13 PUSH1 0x0 SWAP2 PUSH2 0x1038 JUMPI JUMPDEST POP DUP8 PUSH1 0x1 SHL SWAP1 PUSH1 0x0 NOT DUP10 PUSH1 0x3 SHL SHR NOT AND OR PUSH1 0x1B DUP3 ADD SSTORE JUMPDEST PUSH1 0x1D DUP13 ADD SLOAD PUSH1 0x1D DUP3 ADD SSTORE TIMESTAMP PUSH1 0x22 DUP3 ADD SSTORE TIMESTAMP PUSH1 0x1E DUP3 ADD SSTORE ADD CALLER PUSH1 0x1 PUSH1 0x1 PUSH1 0x60 SHL SUB PUSH1 0xA0 SHL DUP3 SLOAD AND OR SWAP1 SSTORE DUP3 PUSH1 0x40 MLOAD DUP6 DUP9 DUP3 CALLDATACOPY PUSH1 0x20 DUP2 DUP8 DUP2 ADD PUSH1 0x3 DUP2 MSTORE SUB ADD SWAP1 KECCAK256 SSTORE PUSH1 0x40 MLOAD DUP5 DUP8 DUP3 CALLDATACOPY PUSH1 0x20 DUP2 DUP7 DUP2 ADD PUSH1 0x4 DUP2 MSTORE SUB ADD SWAP1 KECCAK256 PUSH1 0x1 PUSH1 0xFF NOT DUP3 SLOAD AND OR SWAP1 SSTORE DUP3 PUSH2 0xF96 PUSH1 0x2 DUP13 ADD PUSH2 0x460F JUMP JUMPDEST SSTORE PUSH2 0xFA7 DUP4 PUSH2 0x4EB PUSH1 0x2 DUP14 ADD PUSH2 0x46A2 JUMP JUMPDEST PUSH1 0x1 DUP1 PUSH1 0xA0 SHL SUB PUSH1 0x4 DUP12 ADD SLOAD AND SWAP5 PUSH2 0x532 DUP12 PUSH1 0xC DUP2 ADD SLOAD SWAP3 PUSH1 0xD DUP3 ADD SLOAD SWAP5 DUP11 PUSH1 0x40 MLOAD SWAP7 DUP8 SWAP7 CALLER SWAP12 TIMESTAMP SWAP7 PUSH1 0x9 DUP2 ADD SWAP5 PUSH1 0xA DUP3 ADD SWAP3 PUSH1 0x2 PUSH1 0x5 DUP5 ADD SWAP4 ADD SWAP2 DUP13 PUSH2 0x4735 JUMP JUMPDEST DUP8 DUP2 SUB PUSH1 0x20 DUP10 ADD MSTORE PUSH1 0x2 DUP5 ADD PUSH2 0x4443 JUMP JUMPDEST SWAP2 DUP7 DUP4 SUB PUSH1 0x40 DUP9 ADD MSTORE ADD PUSH2 0x4443 JUMP JUMPDEST SWAP3 PUSH9 0x10D85B98D95B1B1959 PUSH1 0xBA SHL PUSH1 0x20 DUP3 DUP7 SUB SWAP6 DUP7 PUSH1 0x60 DUP6 ADD MSTORE PUSH1 0x9 DUP2 MSTORE ADD MSTORE TIMESTAMP PUSH1 0x80 DUP3 ADD MSTORE PUSH1 0x40 CALLER SWAP5 ADD SWAP1 LOG3 STOP JUMPDEST SWAP1 POP DUP4 ADD CALLDATALOAD CODESIZE PUSH2 0xF12 JUMP JUMPDEST PUSH1 0x1B DUP3 ADD PUSH1 0x0 MSTORE PUSH1 0x20 PUSH1 0x0 KECCAK256 SWAP1 PUSH1 0x0 JUMPDEST PUSH1 0x1F NOT DUP9 AND DUP2 LT PUSH2 0x10DD JUMPI POP SWAP5 PUSH2 0xFFA SWAP5 PUSH32 0xD16082890981E130BA7D013182F9E32F7B379F8EE11963F9EEDB2610D0D5DE67 PUSH2 0xFE9 SWAP6 PUSH1 0x23 PUSH2 0x1009 SWAP12 SWAP7 DUP12 SWAP7 PUSH1 0x1C SWAP12 PUSH1 0x0 DUP1 MLOAD PUSH1 0x20 PUSH2 0x48EA DUP4 CODECOPY DUP2 MLOAD SWAP2 MSTORE SWAP16 SWAP14 PUSH1 0x1F NOT DUP2 AND LT PUSH2 0x10C3 JUMPI JUMPDEST POP POP PUSH1 0x1 DUP8 DUP2 SHL ADD PUSH1 0x1B DUP3 ADD SSTORE PUSH2 0xF29 JUMP JUMPDEST DUP5 ADD CALLDATALOAD PUSH1 0x0 NOT PUSH1 0x3 DUP11 SWAP1 SHL PUSH1 0xF8 AND SHR NOT AND SWAP1 SSTORE CODESIZE DUP1 PUSH2 0x10B1 JUMP JUMPDEST DUP2 DUP6 ADD CALLDATALOAD DUP4 SSTORE DUP12 SWAP7 POP DUP11 SWAP6 POP PUSH1 0x1 SWAP1 SWAP3 ADD SWAP2 PUSH1 0x20 SWAP2 DUP3 ADD SWAP2 ADD PUSH2 0x1053 JUMP JUMPDEST SWAP1 POP DUP5 ADD CALLDATALOAD DUP9 PUSH2 0xCBA JUMP JUMPDEST SWAP1 POP PUSH1 0x1 DUP3 ADD PUSH1 0x0 MSTORE PUSH1 0x20 PUSH1 0x0 KECCAK256 SWAP1 PUSH1 0x0 JUMPDEST PUSH1 0x1F NOT DUP11 AND DUP2 LT PUSH2 0x115C JUMPI POP DUP9 PUSH1 0x1F NOT DUP2 AND LT PUSH2 0x1142 JUMPI JUMPDEST POP POP PUSH1 0x1 DUP8 DUP2 SHL ADD PUSH1 0x1 DUP3 ADD SSTORE PUSH2 0xCD1 JUMP JUMPDEST DUP6 ADD CALLDATALOAD PUSH1 0x0 NOT PUSH1 0x3 DUP11 SWAP1 SHL PUSH1 0xF8 AND SHR NOT AND SWAP1 SSTORE DUP8 DUP1 PUSH2 0x1130 JUMP JUMPDEST SWAP1 SWAP2 PUSH1 0x20 PUSH1 0x1 DUP2 SWAP3 DUP6 DUP11 ADD CALLDATALOAD DUP2 SSTORE ADD SWAP4 ADD SWAP2 ADD PUSH2 0x1118 JUMP JUMPDEST PUSH32 0x71FB55C0CB0FD74783D23C772B2F895CB0C286E8E0FAB4F642555D8B1FFCE252 SWAP2 POP PUSH8 0x1058D8D95C1D1959 PUSH1 0xC2 SHL PUSH1 0x20 PUSH1 0x40 MLOAD PUSH2 0x11B1 DUP2 PUSH2 0x44F5 JUMP JUMPDEST PUSH1 0x8 DUP2 MSTORE ADD MSTORE EQ ISZERO DUP7 PUSH2 0xC39 JUMP JUMPDEST CALLVALUE PUSH2 0x726 JUMPI PUSH1 0x3 NOT PUSH1 0x20 CALLDATASIZE DUP3 ADD SLT PUSH2 0x726 JUMPI PUSH1 0x1 PUSH1 0x1 PUSH1 0x40 SHL SUB PUSH1 0x4 CALLDATALOAD GT PUSH2 0x726 JUMPI PUSH2 0x320 SWAP1 PUSH1 0x4 CALLDATALOAD CALLDATASIZE SUB ADD SLT PUSH2 0x726 JUMPI PUSH1 0x1 PUSH1 0x1 PUSH1 0xA0 SHL SUB PUSH2 0x1206 PUSH1 0x4 CALLDATALOAD PUSH1 0x44 ADD PUSH2 0x42B3 JUMP JUMPDEST AND ISZERO DUP1 ISZERO PUSH2 0x2A74 JUMPI JUMPDEST PUSH2 0x2A62 JUMPI PUSH2 0x1221 PUSH1 0x44 PUSH1 0x4 CALLDATALOAD ADD PUSH2 0x42B3 JUMP JUMPDEST PUSH1 0x1 PUSH1 0x1 PUSH1 0xA0 SHL SUB PUSH2 0x1237 PUSH1 0x4 CALLDATALOAD PUSH1 0x64 ADD PUSH2 0x42B3 JUMP JUMPDEST PUSH1 0x1 PUSH1 0x1 PUSH1 0xA0 SHL SUB SWAP1 SWAP3 AND SWAP2 AND EQ PUSH2 0x2A62 JUMPI PUSH1 0xFF PUSH1 0x20 PUSH2 0x125B PUSH1 0x4 DUP1 CALLDATALOAD ADD DUP1 PUSH2 0x42C7 JUMP JUMPDEST SWAP2 SWAP1 DUP3 PUSH1 0x40 MLOAD SWAP4 DUP5 SWAP3 DUP4 CALLDATACOPY DUP2 ADD PUSH1 0x4 DUP2 MSTORE SUB ADD SWAP1 KECCAK256 SLOAD AND PUSH2 0x6F0 JUMPI PUSH2 0x164 PUSH1 0x4 CALLDATALOAD ADD CALLDATALOAD ISZERO PUSH2 0x2A51 JUMPI PUSH2 0x184 PUSH1 0x4 CALLDATALOAD ADD CALLDATALOAD ISZERO PUSH2 0x2A3F JUMPI PUSH2 0x1F4 PUSH2 0x12A8 PUSH2 0x124 PUSH1 0x4 CALLDATALOAD ADD PUSH1 0x4 CALLDATALOAD PUSH1 0x4 ADD PUSH2 0x42C7 JUMP JUMPDEST SWAP1 POP GT PUSH2 0x2A2D JUMPI PUSH2 0x7D0 PUSH2 0x12C7 PUSH2 0x144 PUSH1 0x4 CALLDATALOAD ADD PUSH1 0x4 CALLDATALOAD PUSH1 0x4 ADD PUSH2 0x42C7 JUMP JUMPDEST SWAP1 POP GT PUSH2 0x2A2D JUMPI PUSH2 0x12D9 PUSH1 0x0 SLOAD PUSH2 0x42F9 JUMP JUMPDEST PUSH1 0x0 DUP2 DUP2 SSTORE DUP2 DUP2 MSTORE PUSH1 0x2 PUSH1 0x20 MSTORE PUSH1 0x40 SWAP1 KECCAK256 DUP2 DUP2 SSTORE PUSH2 0x12FB PUSH1 0x4 DUP1 CALLDATALOAD ADD DUP1 PUSH2 0x42C7 JUMP JUMPDEST SWAP1 PUSH1 0x1 PUSH1 0x1 PUSH1 0x40 SHL SUB DUP3 GT PUSH2 0x66A JUMPI DUP2 SWAP1 PUSH2 0x1326 DUP3 PUSH2 0x131D PUSH1 0x1 DUP8 ADD SLOAD PUSH2 0x431E JUMP JUMPDEST PUSH1 0x1 DUP8 ADD PUSH2 0x4399 JUMP JUMPDEST PUSH1 0x0 SWAP1 PUSH1 0x1F DUP4 GT PUSH1 0x1 EQ PUSH2 0x29BC JUMPI PUSH1 0x0 SWAP3 PUSH2 0x29B1 JUMPI JUMPDEST POP POP DUP2 PUSH1 0x1 SHL SWAP2 PUSH1 0x0 NOT SWAP1 PUSH1 0x3 SHL SHR NOT AND OR PUSH1 0x1 DUP3 ADD SSTORE JUMPDEST PUSH2 0x1368 PUSH1 0x24 PUSH1 0x4 CALLDATALOAD ADD PUSH1 0x4 CALLDATALOAD PUSH1 0x4 ADD PUSH2 0x42C7 JUMP JUMPDEST SWAP1 PUSH1 0x1 PUSH1 0x1 PUSH1 0x40 SHL SUB DUP3 GT PUSH2 0x66A JUMPI DUP2 SWAP1 PUSH2 0x1393 DUP3 PUSH2 0x138A PUSH1 0x2 DUP8 ADD SLOAD PUSH2 0x431E JUMP JUMPDEST PUSH1 0x2 DUP8 ADD PUSH2 0x4399 JUMP JUMPDEST PUSH1 0x0 SWAP1 PUSH1 0x1F DUP4 GT PUSH1 0x1 EQ PUSH2 0x2940 JUMPI PUSH1 0x0 SWAP3 PUSH2 0x2935 JUMPI JUMPDEST POP POP DUP2 PUSH1 0x1 SHL SWAP2 PUSH1 0x0 NOT SWAP1 PUSH1 0x3 SHL SHR NOT AND OR PUSH1 0x2 DUP3 ADD SSTORE JUMPDEST PUSH2 0x13CF PUSH1 0x44 PUSH1 0x4 CALLDATALOAD ADD PUSH2 0x42B3 JUMP JUMPDEST PUSH1 0x3 DUP3 ADD DUP1 SLOAD PUSH1 0x1 PUSH1 0x1 PUSH1 0xA0 SHL SUB NOT AND PUSH1 0x1 PUSH1 0x1 PUSH1 0xA0 SHL SUB SWAP1 SWAP3 AND SWAP2 SWAP1 SWAP2 OR SWAP1 SSTORE PUSH2 0x13FE PUSH1 0x4 CALLDATALOAD PUSH1 0x64 ADD PUSH2 0x42B3 JUMP JUMPDEST PUSH1 0x4 DUP3 ADD SWAP1 PUSH1 0x1 DUP1 PUSH1 0xA0 SHL SUB AND PUSH1 0x1 PUSH1 0x1 PUSH1 0x60 SHL SUB PUSH1 0xA0 SHL DUP3 SLOAD AND OR SWAP1 SSTORE PUSH2 0x1430 PUSH1 0x84 PUSH1 0x4 CALLDATALOAD ADD PUSH1 0x4 CALLDATALOAD PUSH1 0x4 ADD PUSH2 0x42C7 JUMP JUMPDEST SWAP1 PUSH1 0x1 PUSH1 0x1 PUSH1 0x40 SHL SUB DUP3 GT PUSH2 0x66A JUMPI DUP2 SWAP1 PUSH2 0x145B DUP3 PUSH2 0x1452 PUSH1 0x5 DUP8 ADD SLOAD PUSH2 0x431E JUMP JUMPDEST PUSH1 0x5 DUP8 ADD PUSH2 0x4399 JUMP JUMPDEST PUSH1 0x0 SWAP1 PUSH1 0x1F DUP4 GT PUSH1 0x1 EQ PUSH2 0x28C4 JUMPI PUSH1 0x0 SWAP3 PUSH2 0x28B9 JUMPI JUMPDEST POP POP DUP2 PUSH1 0x1 SHL SWAP2 PUSH1 0x0 NOT SWAP1 PUSH1 0x3 SHL SHR NOT AND OR PUSH1 0x5 DUP3 ADD SSTORE JUMPDEST PUSH2 0x149D PUSH1 0xA4 PUSH1 0x4 CALLDATALOAD ADD PUSH1 0x4 CALLDATALOAD PUSH1 0x4 ADD PUSH2 0x42C7 JUMP JUMPDEST SWAP1 PUSH1 0x1 PUSH1 0x1 PUSH1 0x40 SHL SUB DUP3 GT PUSH2 0x66A JUMPI DUP2 SWAP1 PUSH2 0x14C8 DUP3 PUSH2 0x14BF PUSH1 0x6 DUP8 ADD SLOAD PUSH2 0x431E JUMP JUMPDEST PUSH1 0x6 DUP8 ADD PUSH2 0x4399 JUMP JUMPDEST PUSH1 0x0 SWAP1 PUSH1 0x1F DUP4 GT PUSH1 0x1 EQ PUSH2 0x2848 JUMPI PUSH1 0x0 SWAP3 PUSH2 0x283D JUMPI JUMPDEST POP POP DUP2 PUSH1 0x1 SHL SWAP2 PUSH1 0x0 NOT SWAP1 PUSH1 0x3 SHL SHR NOT AND OR PUSH1 0x6 DUP3 ADD SSTORE JUMPDEST PUSH2 0x150A PUSH1 0xC4 PUSH1 0x4 CALLDATALOAD ADD PUSH1 0x4 CALLDATALOAD PUSH1 0x4 ADD PUSH2 0x42C7 JUMP JUMPDEST SWAP1 PUSH1 0x1 PUSH1 0x1 PUSH1 0x40 SHL SUB DUP3 GT PUSH2 0x66A JUMPI DUP2 SWAP1 PUSH2 0x1535 DUP3 PUSH2 0x152C PUSH1 0x7 DUP8 ADD SLOAD PUSH2 0x431E JUMP JUMPDEST PUSH1 0x7 DUP8 ADD PUSH2 0x4399 JUMP JUMPDEST PUSH1 0x0 SWAP1 PUSH1 0x1F DUP4 GT PUSH1 0x1 EQ PUSH2 0x27CC JUMPI PUSH1 0x0 SWAP3 PUSH2 0x27C1 JUMPI JUMPDEST POP POP DUP2 PUSH1 0x1 SHL SWAP2 PUSH1 0x0 NOT SWAP1 PUSH1 0x3 SHL SHR NOT AND OR PUSH1 0x7 DUP3 ADD SSTORE JUMPDEST PUSH2 0x1577 PUSH1 0xE4 PUSH1 0x4 CALLDATALOAD ADD PUSH1 0x4 CALLDATALOAD PUSH1 0x4 ADD PUSH2 0x42C7 JUMP JUMPDEST SWAP1 PUSH1 0x1 PUSH1 0x1 PUSH1 0x40 SHL SUB DUP3 GT PUSH2 0x66A JUMPI DUP2 SWAP1 PUSH2 0x15A2 DUP3 PUSH2 0x1599 PUSH1 0x8 DUP8 ADD SLOAD PUSH2 0x431E JUMP JUMPDEST PUSH1 0x8 DUP8 ADD PUSH2 0x4399 JUMP JUMPDEST PUSH1 0x0 SWAP1 PUSH1 0x1F DUP4 GT PUSH1 0x1 EQ PUSH2 0x2750 JUMPI PUSH1 0x0 SWAP3 PUSH2 0x2745 JUMPI JUMPDEST POP POP DUP2 PUSH1 0x1 SHL SWAP2 PUSH1 0x0 NOT SWAP1 PUSH1 0x3 SHL SHR NOT AND OR PUSH1 0x8 DUP3 ADD SSTORE JUMPDEST PUSH2 0x15E5 PUSH2 0x104 PUSH1 0x4 CALLDATALOAD ADD PUSH1 0x4 CALLDATALOAD PUSH1 0x4 ADD PUSH2 0x42C7 JUMP JUMPDEST SWAP1 PUSH1 0x1 PUSH1 0x1 PUSH1 0x40 SHL SUB DUP3 GT PUSH2 0x66A JUMPI DUP2 SWAP1 PUSH2 0x1610 DUP3 PUSH2 0x1607 PUSH1 0x9 DUP8 ADD SLOAD PUSH2 0x431E JUMP JUMPDEST PUSH1 0x9 DUP8 ADD PUSH2 0x4399 JUMP JUMPDEST PUSH1 0x0 SWAP1 PUSH1 0x1F DUP4 GT PUSH1 0x1 EQ PUSH2 0x26D4 JUMPI PUSH1 0x0 SWAP3 PUSH2 0x26C9 JUMPI JUMPDEST POP POP DUP2 PUSH1 0x1 SHL SWAP2 PUSH1 0x0 NOT SWAP1 PUSH1 0x3 SHL SHR NOT AND OR PUSH1 0x9 DUP3 ADD SSTORE JUMPDEST PUSH2 0x1653 PUSH2 0x124 PUSH1 0x4 CALLDATALOAD ADD PUSH1 0x4 CALLDATALOAD PUSH1 0x4 ADD PUSH2 0x42C7 JUMP JUMPDEST SWAP1 PUSH1 0x1 PUSH1 0x1 PUSH1 0x40 SHL SUB DUP3 GT PUSH2 0x66A JUMPI DUP2 SWAP1 PUSH2 0x167E DUP3 PUSH2 0x1675 PUSH1 0xA DUP8 ADD SLOAD PUSH2 0x431E JUMP JUMPDEST PUSH1 0xA DUP8 ADD PUSH2 0x4399 JUMP JUMPDEST PUSH1 0x0 SWAP1 PUSH1 0x1F DUP4 GT PUSH1 0x1 EQ PUSH2 0x2658 JUMPI PUSH1 0x0 SWAP3 PUSH2 0x264D JUMPI JUMPDEST POP POP DUP2 PUSH1 0x1 SHL SWAP2 PUSH1 0x0 NOT SWAP1 PUSH1 0x3 SHL SHR NOT AND OR PUSH1 0xA DUP3 ADD SSTORE JUMPDEST PUSH2 0x16C1 PUSH2 0x144 PUSH1 0x4 CALLDATALOAD ADD PUSH1 0x4 CALLDATALOAD PUSH1 0x4 ADD PUSH2 0x42C7 JUMP JUMPDEST SWAP1 PUSH1 0x1 PUSH1 0x1 PUSH1 0x40 SHL SUB DUP3 GT PUSH2 0x66A JUMPI DUP2 SWAP1 PUSH2 0x16EC DUP3 PUSH2 0x16E3 PUSH1 0xB DUP8 ADD SLOAD PUSH2 0x431E JUMP JUMPDEST PUSH1 0xB DUP8 ADD PUSH2 0x4399 JUMP JUMPDEST PUSH1 0x0 SWAP1 PUSH1 0x1F DUP4 GT PUSH1 0x1 EQ PUSH2 0x25DC JUMPI PUSH1 0x0 SWAP3 PUSH2 0x25D1 JUMPI JUMPDEST POP POP DUP2 PUSH1 0x1 SHL SWAP2 PUSH1 0x0 NOT SWAP1 PUSH1 0x3 SHL SHR NOT AND OR PUSH1 0xB DUP3 ADD SSTORE JUMPDEST PUSH1 0x4 DUP1 CALLDATALOAD PUSH2 0x164 DUP2 ADD CALLDATALOAD PUSH1 0xC DUP5 ADD SSTORE PUSH2 0x184 DUP2 ADD CALLDATALOAD PUSH1 0xD DUP5 ADD SSTORE PUSH2 0x1744 SWAP2 PUSH2 0x1A4 DUP3 ADD SWAP2 ADD PUSH2 0x42C7 JUMP JUMPDEST SWAP1 PUSH1 0x1 PUSH1 0x1 PUSH1 0x40 SHL SUB DUP3 GT PUSH2 0x66A JUMPI DUP2 SWAP1 PUSH2 0x176F DUP3 PUSH2 0x1766 PUSH1 0xE DUP8 ADD SLOAD PUSH2 0x431E JUMP JUMPDEST PUSH1 0xE DUP8 ADD PUSH2 0x4399 JUMP JUMPDEST PUSH1 0x0 SWAP1 PUSH1 0x1F DUP4 GT PUSH1 0x1 EQ PUSH2 0x2560 JUMPI PUSH1 0x0 SWAP3 PUSH2 0x2555 JUMPI JUMPDEST POP POP DUP2 PUSH1 0x1 SHL SWAP2 PUSH1 0x0 NOT SWAP1 PUSH1 0x3 SHL SHR NOT AND OR PUSH1 0xE DUP3 ADD SSTORE JUMPDEST PUSH2 0x17B2 PUSH2 0x1C4 PUSH1 0x4 CALLDATALOAD ADD PUSH1 0x4 CALLDATALOAD PUSH1 0x4 ADD PUSH2 0x42C7 JUMP JUMPDEST SWAP1 PUSH1 0x1 PUSH1 0x1 PUSH1 0x40 SHL SUB DUP3 GT PUSH2 0x66A JUMPI DUP2 SWAP1 PUSH2 0x17DD DUP3 PUSH2 0x17D4 PUSH1 0xF DUP8 ADD SLOAD PUSH2 0x431E JUMP JUMPDEST PUSH1 0xF DUP8 ADD PUSH2 0x4399 JUMP JUMPDEST PUSH1 0x0 SWAP1 PUSH1 0x1F DUP4 GT PUSH1 0x1 EQ PUSH2 0x24E4 JUMPI PUSH1 0x0 SWAP3 PUSH2 0x24D9 JUMPI JUMPDEST POP POP DUP2 PUSH1 0x1 SHL SWAP2 PUSH1 0x0 NOT SWAP1 PUSH1 0x3 SHL SHR NOT AND OR PUSH1 0xF DUP3 ADD SSTORE JUMPDEST PUSH2 0x1820 PUSH2 0x1E4 PUSH1 0x4 CALLDATALOAD ADD PUSH1 0x4 CALLDATALOAD PUSH1 0x4 ADD PUSH2 0x42C7 JUMP JUMPDEST SWAP1 PUSH1 0x1 PUSH1 0x1 PUSH1 0x40 SHL SUB DUP3 GT PUSH2 0x66A JUMPI DUP2 SWAP1 PUSH2 0x184B DUP3 PUSH2 0x1842 PUSH1 0x12 DUP8 ADD SLOAD PUSH2 0x431E JUMP JUMPDEST PUSH1 0x12 DUP8 ADD PUSH2 0x4399 JUMP JUMPDEST PUSH1 0x0 SWAP1 PUSH1 0x1F DUP4 GT PUSH1 0x1 EQ PUSH2 0x2468 JUMPI PUSH1 0x0 SWAP3 PUSH2 0x245D JUMPI JUMPDEST POP POP DUP2 PUSH1 0x1 SHL SWAP2 PUSH1 0x0 NOT SWAP1 PUSH1 0x3 SHL SHR NOT AND OR PUSH1 0x12 DUP3 ADD SSTORE JUMPDEST PUSH2 0x188E PUSH2 0x204 PUSH1 0x4 CALLDATALOAD ADD PUSH1 0x4 CALLDATALOAD PUSH1 0x4 ADD PUSH2 0x42C7 JUMP JUMPDEST SWAP1 PUSH1 0x1 PUSH1 0x1 PUSH1 0x40 SHL SUB DUP3 GT PUSH2 0x66A JUMPI DUP2 SWAP1 PUSH2 0x18B9 DUP3 PUSH2 0x18B0 PUSH1 0x13 DUP8 ADD SLOAD PUSH2 0x431E JUMP JUMPDEST PUSH1 0x13 DUP8 ADD PUSH2 0x4399 JUMP JUMPDEST PUSH1 0x0 SWAP1 PUSH1 0x1F DUP4 GT PUSH1 0x1 EQ PUSH2 0x23EC JUMPI PUSH1 0x0 SWAP3 PUSH2 0x23E1 JUMPI JUMPDEST POP POP DUP2 PUSH1 0x1 SHL SWAP2 PUSH1 0x0 NOT SWAP1 PUSH1 0x3 SHL SHR NOT AND OR PUSH1 0x13 DUP3 ADD SSTORE JUMPDEST PUSH2 0x18FC PUSH2 0x224 PUSH1 0x4 CALLDATALOAD ADD PUSH1 0x4 CALLDATALOAD PUSH1 0x4 ADD PUSH2 0x42C7 JUMP JUMPDEST SWAP1 PUSH1 0x1 PUSH1 0x1 PUSH1 0x40 SHL SUB DUP3 GT PUSH2 0x66A JUMPI DUP2 SWAP1 PUSH2 0x1927 DUP3 PUSH2 0x191E PUSH1 0x14 DUP8 ADD SLOAD PUSH2 0x431E JUMP JUMPDEST PUSH1 0x14 DUP8 ADD PUSH2 0x4399 JUMP JUMPDEST PUSH1 0x0 SWAP1 PUSH1 0x1F DUP4 GT PUSH1 0x1 EQ PUSH2 0x2370 JUMPI PUSH1 0x0 SWAP3 PUSH2 0x2365 JUMPI JUMPDEST POP POP DUP2 PUSH1 0x1 SHL SWAP2 PUSH1 0x0 NOT SWAP1 PUSH1 0x3 SHL SHR NOT AND OR PUSH1 0x14 DUP3 ADD SSTORE JUMPDEST PUSH2 0x196A PUSH2 0x244 PUSH1 0x4 CALLDATALOAD ADD PUSH1 0x4 CALLDATALOAD PUSH1 0x4 ADD PUSH2 0x42C7 JUMP JUMPDEST SWAP1 PUSH1 0x1 PUSH1 0x1 PUSH1 0x40 SHL SUB DUP3 GT PUSH2 0x66A JUMPI DUP2 SWAP1 PUSH2 0x1995 DUP3 PUSH2 0x198C PUSH1 0x15 DUP8 ADD SLOAD PUSH2 0x431E JUMP JUMPDEST PUSH1 0x15 DUP8 ADD PUSH2 0x4399 JUMP JUMPDEST PUSH1 0x0 SWAP1 PUSH1 0x1F DUP4 GT PUSH1 0x1 EQ PUSH2 0x22F4 JUMPI PUSH1 0x0 SWAP3 PUSH2 0x22E9 JUMPI JUMPDEST POP POP DUP2 PUSH1 0x1 SHL SWAP2 PUSH1 0x0 NOT SWAP1 PUSH1 0x3 SHL SHR NOT AND OR PUSH1 0x15 DUP3 ADD SSTORE JUMPDEST PUSH2 0x19D8 PUSH2 0x264 PUSH1 0x4 CALLDATALOAD ADD PUSH1 0x4 CALLDATALOAD PUSH1 0x4 ADD PUSH2 0x42C7 JUMP JUMPDEST SWAP1 PUSH1 0x1 PUSH1 0x1 PUSH1 0x40 SHL SUB DUP3 GT PUSH2 0x66A JUMPI DUP2 SWAP1 PUSH2 0x1A03 DUP3 PUSH2 0x19FA PUSH1 0x16 DUP8 ADD SLOAD PUSH2 0x431E JUMP JUMPDEST PUSH1 0x16 DUP8 ADD PUSH2 0x4399 JUMP JUMPDEST PUSH1 0x0 SWAP1 PUSH1 0x1F DUP4 GT PUSH1 0x1 EQ PUSH2 0x2278 JUMPI PUSH1 0x0 SWAP3 PUSH2 0x226D JUMPI JUMPDEST POP POP DUP2 PUSH1 0x1 SHL SWAP2 PUSH1 0x0 NOT SWAP1 PUSH1 0x3 SHL SHR NOT AND OR PUSH1 0x16 DUP3 ADD SSTORE JUMPDEST PUSH2 0x1A46 PUSH2 0x284 PUSH1 0x4 CALLDATALOAD ADD PUSH1 0x4 CALLDATALOAD PUSH1 0x4 ADD PUSH2 0x42C7 JUMP JUMPDEST SWAP1 PUSH1 0x1 PUSH1 0x1 PUSH1 0x40 SHL SUB DUP3 GT PUSH2 0x66A JUMPI DUP2 SWAP1 PUSH2 0x1A71 DUP3 PUSH2 0x1A68 PUSH1 0x17 DUP8 ADD SLOAD PUSH2 0x431E JUMP JUMPDEST PUSH1 0x17 DUP8 ADD PUSH2 0x4399 JUMP JUMPDEST PUSH1 0x0 SWAP1 PUSH1 0x1F DUP4 GT PUSH1 0x1 EQ PUSH2 0x21FC JUMPI PUSH1 0x0 SWAP3 PUSH2 0x21F1 JUMPI JUMPDEST POP POP DUP2 PUSH1 0x1 SHL SWAP2 PUSH1 0x0 NOT SWAP1 PUSH1 0x3 SHL SHR NOT AND OR PUSH1 0x17 DUP3 ADD SSTORE JUMPDEST PUSH2 0x1AB4 PUSH2 0x2A4 PUSH1 0x4 CALLDATALOAD ADD PUSH1 0x4 CALLDATALOAD PUSH1 0x4 ADD PUSH2 0x42C7 JUMP JUMPDEST SWAP1 PUSH1 0x1 PUSH1 0x1 PUSH1 0x40 SHL SUB DUP3 GT PUSH2 0x66A JUMPI DUP2 SWAP1 PUSH2 0x1ADF DUP3 PUSH2 0x1AD6 PUSH1 0x18 DUP8 ADD SLOAD PUSH2 0x431E JUMP JUMPDEST PUSH1 0x18 DUP8 ADD PUSH2 0x4399 JUMP JUMPDEST PUSH1 0x0 SWAP1 PUSH1 0x1F DUP4 GT PUSH1 0x1 EQ PUSH2 0x2180 JUMPI PUSH1 0x0 SWAP3 PUSH2 0x2175 JUMPI JUMPDEST POP POP DUP2 PUSH1 0x1 SHL SWAP2 PUSH1 0x0 NOT SWAP1 PUSH1 0x3 SHL SHR NOT AND OR PUSH1 0x18 DUP3 ADD SSTORE JUMPDEST PUSH2 0x1B22 PUSH2 0x2C4 PUSH1 0x4 CALLDATALOAD ADD PUSH1 0x4 CALLDATALOAD PUSH1 0x4 ADD PUSH2 0x42C7 JUMP JUMPDEST SWAP1 PUSH1 0x1 PUSH1 0x1 PUSH1 0x40 SHL SUB DUP3 GT PUSH2 0x66A JUMPI DUP2 SWAP1 PUSH2 0x1B4D DUP3 PUSH2 0x1B44 PUSH1 0x19 DUP8 ADD SLOAD PUSH2 0x431E JUMP JUMPDEST PUSH1 0x19 DUP8 ADD PUSH2 0x4399 JUMP JUMPDEST PUSH1 0x0 SWAP1 PUSH1 0x1F DUP4 GT PUSH1 0x1 EQ PUSH2 0x2104 JUMPI PUSH1 0x0 SWAP3 PUSH2 0x20F9 JUMPI JUMPDEST POP POP DUP2 PUSH1 0x1 SHL SWAP2 PUSH1 0x0 NOT SWAP1 PUSH1 0x3 SHL SHR NOT AND OR PUSH1 0x19 DUP3 ADD SSTORE JUMPDEST PUSH2 0x1B90 PUSH2 0x2E4 PUSH1 0x4 CALLDATALOAD ADD PUSH1 0x4 CALLDATALOAD PUSH1 0x4 ADD PUSH2 0x42C7 JUMP JUMPDEST SWAP1 PUSH1 0x1 PUSH1 0x1 PUSH1 0x40 SHL SUB DUP3 GT PUSH2 0x66A JUMPI DUP2 SWAP1 PUSH2 0x1BBB DUP3 PUSH2 0x1BB2 PUSH1 0x1A DUP8 ADD SLOAD PUSH2 0x431E JUMP JUMPDEST PUSH1 0x1A DUP8 ADD PUSH2 0x4399 JUMP JUMPDEST PUSH1 0x0 SWAP1 PUSH1 0x1F DUP4 GT PUSH1 0x1 EQ PUSH2 0x2088 JUMPI PUSH1 0x0 SWAP3 PUSH2 0x207D JUMPI JUMPDEST POP POP DUP2 PUSH1 0x1 SHL SWAP2 PUSH1 0x0 NOT SWAP1 PUSH1 0x3 SHL SHR NOT AND OR PUSH1 0x1A DUP3 ADD SSTORE JUMPDEST PUSH2 0x1BFE PUSH2 0x304 PUSH1 0x4 CALLDATALOAD ADD PUSH1 0x4 CALLDATALOAD PUSH1 0x4 ADD PUSH2 0x42C7 JUMP JUMPDEST SWAP1 PUSH1 0x1 PUSH1 0x1 PUSH1 0x40 SHL SUB DUP3 GT PUSH2 0x66A JUMPI DUP2 SWAP1 PUSH2 0x1C29 DUP3 PUSH2 0x1C20 PUSH1 0x1C DUP8 ADD SLOAD PUSH2 0x431E JUMP JUMPDEST PUSH1 0x1C DUP8 ADD PUSH2 0x4399 JUMP JUMPDEST PUSH1 0x0 SWAP1 PUSH1 0x1F DUP4 GT PUSH1 0x1 EQ PUSH2 0x200C JUMPI PUSH1 0x0 SWAP3 PUSH2 0x2001 JUMPI JUMPDEST POP POP DUP2 PUSH1 0x1 SHL SWAP2 PUSH1 0x0 NOT SWAP1 PUSH1 0x3 SHL SHR NOT AND OR PUSH1 0x1C DUP3 ADD SSTORE JUMPDEST TIMESTAMP PUSH1 0x1D DUP3 ADD SSTORE TIMESTAMP PUSH1 0x1E DUP3 ADD SSTORE PUSH1 0x4 CALLDATALOAD PUSH1 0x44 ADD PUSH2 0x1C72 SWAP1 PUSH2 0x42B3 JUMP JUMPDEST PUSH1 0x23 SWAP1 SWAP2 ADD DUP1 SLOAD PUSH1 0x1 PUSH1 0x1 PUSH1 0xA0 SHL SUB NOT AND PUSH1 0x1 PUSH1 0x1 PUSH1 0xA0 SHL SUB SWAP1 SWAP3 AND SWAP2 SWAP1 SWAP2 OR SWAP1 SSTORE DUP1 PUSH2 0x1CA3 PUSH1 0x4 DUP1 CALLDATALOAD ADD DUP1 PUSH2 0x42C7 JUMP JUMPDEST SWAP1 DUP2 PUSH1 0x40 MLOAD SWAP3 DUP4 SWAP3 DUP4 CALLDATACOPY PUSH1 0x3 SWAP1 DUP3 ADD SWAP1 DUP2 MSTORE SUB PUSH1 0x20 ADD SWAP1 KECCAK256 SSTORE PUSH2 0x1CCA PUSH1 0x4 DUP1 CALLDATALOAD ADD DUP1 PUSH2 0x42C7 JUMP JUMPDEST SWAP1 DUP2 PUSH1 0x40 MLOAD SWAP3 DUP4 SWAP3 DUP4 CALLDATACOPY DUP2 ADD PUSH1 0x4 DUP2 MSTORE SUB PUSH1 0x20 ADD SWAP1 KECCAK256 PUSH1 0xFF NOT DUP2 SLOAD AND PUSH1 0x1 OR SWAP1 SSTORE DUP1 PUSH1 0x4 CALLDATALOAD PUSH1 0x24 ADD PUSH1 0x4 CALLDATALOAD PUSH1 0x4 ADD SWAP1 PUSH2 0x1D02 SWAP2 PUSH2 0x42C7 JUMP JUMPDEST SWAP1 DUP2 PUSH1 0x40 MLOAD SWAP3 DUP4 SWAP3 DUP4 CALLDATACOPY DUP2 ADD PUSH1 0x5 DUP2 MSTORE SUB PUSH1 0x20 ADD SWAP1 KECCAK256 SSTORE DUP1 PUSH1 0x4 CALLDATALOAD PUSH1 0x24 ADD PUSH1 0x4 CALLDATALOAD PUSH1 0x4 ADD SWAP1 PUSH2 0x1D30 SWAP2 PUSH2 0x42C7 JUMP JUMPDEST SWAP1 DUP2 PUSH1 0x40 MLOAD SWAP3 DUP4 SWAP3 DUP4 CALLDATACOPY DUP2 ADD PUSH1 0x6 DUP2 MSTORE SUB PUSH1 0x20 ADD SWAP1 KECCAK256 SWAP1 PUSH2 0x1D50 SWAP2 PUSH2 0x43DE JUMP JUMPDEST PUSH2 0x1D5E PUSH1 0x4 DUP1 CALLDATALOAD ADD DUP1 PUSH2 0x42C7 JUMP JUMPDEST SWAP1 PUSH2 0x100 MSTORE PUSH1 0x4 CALLDATALOAD PUSH1 0x24 ADD PUSH1 0x4 CALLDATALOAD PUSH1 0x4 ADD SWAP1 PUSH2 0x1D79 SWAP2 PUSH2 0x42C7 JUMP JUMPDEST PUSH2 0x1C0 MSTORE PUSH2 0x120 MSTORE PUSH2 0x1D8F PUSH1 0x44 PUSH1 0x4 CALLDATALOAD ADD PUSH2 0x42B3 JUMP JUMPDEST SWAP1 DUP3 PUSH2 0x1D9F PUSH1 0x64 PUSH1 0x4 CALLDATALOAD ADD PUSH2 0x42B3 JUMP JUMPDEST SWAP2 PUSH2 0x1DB2 PUSH1 0x4 DUP1 CALLDATALOAD PUSH1 0x84 DUP2 ADD SWAP2 ADD PUSH2 0x42C7 JUMP JUMPDEST PUSH2 0x160 MSTORE PUSH2 0x1DC8 PUSH1 0x4 DUP1 CALLDATALOAD PUSH1 0xA4 DUP2 ADD SWAP2 ADD PUSH2 0x42C7 JUMP JUMPDEST SWAP1 PUSH2 0x1DDB PUSH1 0x4 DUP1 CALLDATALOAD PUSH1 0xE4 DUP2 ADD SWAP2 ADD PUSH2 0x42C7 JUMP JUMPDEST SWAP1 PUSH2 0x1DEF PUSH1 0x4 DUP1 CALLDATALOAD PUSH2 0x104 DUP2 ADD SWAP2 ADD PUSH2 0x42C7 JUMP JUMPDEST SWAP2 SWAP1 SWAP3 PUSH1 0x4 CALLDATALOAD PUSH2 0x124 ADD PUSH1 0x4 CALLDATALOAD PUSH1 0x4 ADD SWAP1 PUSH2 0x1E09 SWAP2 PUSH2 0x42C7 JUMP JUMPDEST SWAP6 SWAP1 SWAP7 PUSH1 0x4 CALLDATALOAD PUSH2 0x144 ADD PUSH1 0x4 CALLDATALOAD PUSH1 0x4 ADD SWAP1 PUSH2 0x1E23 SWAP2 PUSH2 0x42C7 JUMP JUMPDEST SWAP10 SWAP1 SWAP11 PUSH1 0x4 CALLDATALOAD PUSH2 0x1A4 ADD PUSH1 0x4 CALLDATALOAD PUSH1 0x4 ADD SWAP1 PUSH2 0x1E3D SWAP2 PUSH2 0x42C7 JUMP JUMPDEST PUSH2 0x1A0 MSTORE PUSH2 0x180 MSTORE PUSH2 0x1E58 PUSH1 0x4 DUP1 CALLDATALOAD PUSH2 0x1C4 DUP2 ADD SWAP2 ADD PUSH2 0x42C7 JUMP JUMPDEST PUSH1 0xA0 MSTORE PUSH2 0x140 MSTORE PUSH2 0x1E72 PUSH1 0x4 DUP1 CALLDATALOAD PUSH2 0x2E4 DUP2 ADD SWAP2 ADD PUSH2 0x42C7 JUMP JUMPDEST PUSH1 0xC0 MSTORE PUSH1 0xE0 MSTORE PUSH1 0x40 MLOAD DUP1 PUSH1 0x80 MSTORE PUSH2 0x1C0 SWAP1 MSTORE PUSH1 0x80 MLOAD PUSH2 0x1C0 ADD PUSH2 0x100 MLOAD SWAP2 PUSH2 0x1E99 SWAP3 PUSH2 0x4422 JUMP JUMPDEST PUSH1 0x80 MLOAD DUP1 DUP3 SUB SWAP1 PUSH1 0x20 ADD MSTORE PUSH2 0x1C0 MLOAD SWAP1 PUSH2 0x120 MLOAD SWAP2 PUSH2 0x1EB7 SWAP3 PUSH2 0x4422 JUMP JUMPDEST PUSH1 0x80 MLOAD DUP1 DUP3 SUB SWAP1 PUSH1 0x40 ADD MSTORE PUSH2 0x160 MLOAD PUSH2 0x1ECF SWAP3 PUSH2 0x4422 JUMP JUMPDEST SWAP1 PUSH1 0x80 MLOAD DUP1 DUP4 SUB SWAP1 PUSH1 0x60 ADD MSTORE PUSH2 0x1EE4 SWAP3 PUSH2 0x4422 JUMP JUMPDEST SWAP1 PUSH1 0x80 MLOAD DUP1 DUP4 SUB SWAP1 PUSH1 0x80 ADD MSTORE PUSH2 0x1EF9 SWAP3 PUSH2 0x4422 JUMP JUMPDEST SWAP1 PUSH1 0x80 MLOAD DUP1 DUP4 SUB SWAP1 PUSH1 0xA0 ADD MSTORE PUSH2 0x1F0E SWAP3 PUSH2 0x4422 JUMP JUMPDEST SWAP1 PUSH1 0x80 MLOAD DUP1 DUP4 SUB SWAP1 PUSH1 0xC0 ADD MSTORE PUSH2 0x1F23 SWAP3 PUSH2 0x4422 JUMP JUMPDEST SWAP1 PUSH1 0x80 MLOAD DUP1 DUP4 SUB SWAP1 PUSH1 0xE0 ADD MSTORE PUSH2 0x1F38 SWAP3 PUSH2 0x4422 JUMP JUMPDEST PUSH1 0x4 CALLDATALOAD PUSH2 0x164 ADD CALLDATALOAD PUSH1 0x80 MLOAD PUSH2 0x100 ADD MSTORE PUSH1 0x4 CALLDATALOAD PUSH2 0x184 ADD CALLDATALOAD PUSH1 0x80 MLOAD PUSH2 0x120 ADD MSTORE PUSH1 0x80 MLOAD DUP1 DUP3 SUB SWAP1 PUSH2 0x140 ADD MSTORE PUSH2 0x1A0 MLOAD SWAP1 PUSH2 0x180 MLOAD SWAP2 PUSH2 0x1F77 SWAP3 PUSH2 0x4422 JUMP JUMPDEST PUSH1 0x80 MLOAD DUP1 DUP3 SUB SWAP1 PUSH2 0x160 ADD MSTORE PUSH1 0xA0 MLOAD SWAP1 PUSH2 0x140 MLOAD SWAP2 PUSH2 0x1F95 SWAP3 PUSH2 0x4422 JUMP JUMPDEST PUSH1 0x80 MLOAD DUP1 DUP3 SUB SWAP1 PUSH2 0x180 ADD MSTORE PUSH1 0xC0 MLOAD SWAP1 PUSH1 0xE0 MLOAD SWAP2 PUSH2 0x1FB2 SWAP3 PUSH2 0x4422 JUMP JUMPDEST PUSH1 0x80 DUP1 MLOAD TIMESTAMP PUSH2 0x1A0 SWAP1 SWAP2 ADD MSTORE MLOAD PUSH1 0x1 PUSH1 0x1 PUSH1 0xA0 SHL SUB SWAP4 DUP5 AND SWAP5 SWAP1 SWAP4 AND SWAP3 PUSH32 0x47C45480A144EE00E48B3F2FB883DBF12A937E843E600907E57CD76B3A782B87 SWAP2 DUP2 SWAP1 SUB SWAP1 LOG4 PUSH1 0x40 MLOAD SWAP1 DUP2 MSTORE PUSH1 0x20 SWAP1 RETURN JUMPDEST ADD CALLDATALOAD SWAP1 POP DUP5 DUP1 PUSH2 0x1C3F JUMP JUMPDEST SWAP1 SWAP3 POP PUSH1 0x1C DUP5 ADD PUSH1 0x0 MSTORE PUSH1 0x20 PUSH1 0x0 KECCAK256 SWAP1 PUSH1 0x0 SWAP4 JUMPDEST PUSH1 0x1F NOT DUP5 AND DUP6 LT PUSH2 0x2065 JUMPI PUSH1 0x1 SWAP5 POP DUP4 PUSH1 0x1F NOT DUP2 AND LT PUSH2 0x204B JUMPI JUMPDEST POP POP POP DUP2 SHL ADD PUSH1 0x1C DUP3 ADD SSTORE PUSH2 0x1C57 JUMP JUMPDEST ADD CALLDATALOAD PUSH1 0x0 NOT PUSH1 0x3 DUP5 SWAP1 SHL PUSH1 0xF8 AND SHR NOT AND SWAP1 SSTORE DUP5 DUP1 DUP1 PUSH2 0x203B JUMP JUMPDEST DUP2 DUP2 ADD CALLDATALOAD DUP4 SSTORE PUSH1 0x20 SWAP5 DUP6 ADD SWAP5 PUSH1 0x1 SWAP1 SWAP4 ADD SWAP3 ADD PUSH2 0x2020 JUMP JUMPDEST ADD CALLDATALOAD SWAP1 POP DUP5 DUP1 PUSH2 0x1BD1 JUMP JUMPDEST SWAP1 SWAP3 POP PUSH1 0x1A DUP5 ADD PUSH1 0x0 MSTORE PUSH1 0x20 PUSH1 0x0 KECCAK256 SWAP1 PUSH1 0x0 SWAP4 JUMPDEST PUSH1 0x1F NOT DUP5 AND DUP6 LT PUSH2 0x20E1 JUMPI PUSH1 0x1 SWAP5 POP DUP4 PUSH1 0x1F NOT DUP2 AND LT PUSH2 0x20C7 JUMPI JUMPDEST POP POP POP DUP2 SHL ADD PUSH1 0x1A DUP3 ADD SSTORE PUSH2 0x1BE9 JUMP JUMPDEST ADD CALLDATALOAD PUSH1 0x0 NOT PUSH1 0x3 DUP5 SWAP1 SHL PUSH1 0xF8 AND SHR NOT AND SWAP1 SSTORE DUP5 DUP1 DUP1 PUSH2 0x20B7 JUMP JUMPDEST DUP2 DUP2 ADD CALLDATALOAD DUP4 SSTORE PUSH1 0x20 SWAP5 DUP6 ADD SWAP5 PUSH1 0x1 SWAP1 SWAP4 ADD SWAP3 ADD PUSH2 0x209C JUMP JUMPDEST ADD CALLDATALOAD SWAP1 POP DUP5 DUP1 PUSH2 0x1B63 JUMP JUMPDEST SWAP1 SWAP3 POP PUSH1 0x19 DUP5 ADD PUSH1 0x0 MSTORE PUSH1 0x20 PUSH1 0x0 KECCAK256 SWAP1 PUSH1 0x0 SWAP4 JUMPDEST PUSH1 0x1F NOT DUP5 AND DUP6 LT PUSH2 0x215D JUMPI PUSH1 0x1 SWAP5 POP DUP4 PUSH1 0x1F NOT DUP2 AND LT PUSH2 0x2143 JUMPI JUMPDEST POP POP POP DUP2 SHL ADD PUSH1 0x19 DUP3 ADD SSTORE PUSH2 0x1B7B JUMP JUMPDEST ADD CALLDATALOAD PUSH1 0x0 NOT PUSH1 0x3 DUP5 SWAP1 SHL PUSH1 0xF8 AND SHR NOT AND SWAP1 SSTORE DUP5 DUP1 DUP1 PUSH2 0x2133 JUMP JUMPDEST DUP2 DUP2 ADD CALLDATALOAD DUP4 SSTORE PUSH1 0x20 SWAP5 DUP6 ADD SWAP5 PUSH1 0x1 SWAP1 SWAP4 ADD SWAP3 ADD PUSH2 0x2118 JUMP JUMPDEST ADD CALLDATALOAD SWAP1 POP DUP5 DUP1 PUSH2 0x1AF5 JUMP JUMPDEST SWAP1 SWAP3 POP PUSH1 0x18 DUP5 ADD PUSH1 0x0 MSTORE PUSH1 0x20 PUSH1 0x0 KECCAK256 SWAP1 PUSH1 0x0 SWAP4 JUMPDEST PUSH1 0x1F NOT DUP5 AND DUP6 LT PUSH2 0x21D9 JUMPI PUSH1 0x1 SWAP5 POP DUP4 PUSH1 0x1F NOT DUP2 AND LT PUSH2 0x21BF JUMPI JUMPDEST POP POP POP DUP2 SHL ADD PUSH1 0x18 DUP3 ADD SSTORE PUSH2 0x1B0D JUMP JUMPDEST ADD CALLDATALOAD PUSH1 0x0 NOT PUSH1 0x3 DUP5 SWAP1 SHL PUSH1 0xF8 AND SHR NOT AND SWAP1 SSTORE DUP5 DUP1 DUP1 PUSH2 0x21AF JUMP JUMPDEST DUP2 DUP2 ADD CALLDATALOAD DUP4 SSTORE PUSH1 0x20 SWAP5 DUP6 ADD SWAP5 PUSH1 0x1 SWAP1 SWAP4 ADD SWAP3 ADD PUSH2 0x2194 JUMP JUMPDEST ADD CALLDATALOAD SWAP1 POP DUP5 DUP1 PUSH2 0x1A87 JUMP JUMPDEST SWAP1 SWAP3 POP PUSH1 0x17 DUP5 ADD PUSH1 0x0 MSTORE PUSH1 0x20 PUSH1 0x0 KECCAK256 SWAP1 PUSH1 0x0 SWAP4 JUMPDEST PUSH1 0x1F NOT DUP5 AND DUP6 LT PUSH2 0x2255 JUMPI PUSH1 0x1 SWAP5 POP DUP4 PUSH1 0x1F NOT DUP2 AND LT PUSH2 0x223B JUMPI JUMPDEST POP POP POP DUP2 SHL ADD PUSH1 0x17 DUP3 ADD SSTORE PUSH2 0x1A9F JUMP JUMPDEST ADD CALLDATALOAD PUSH1 0x0 NOT PUSH1 0x3 DUP5 SWAP1 SHL PUSH1 0xF8 AND SHR NOT AND SWAP1 SSTORE DUP5 DUP1 DUP1 PUSH2 0x222B JUMP JUMPDEST DUP2 DUP2 ADD CALLDATALOAD DUP4 SSTORE PUSH1 0x20 SWAP5 DUP6 ADD SWAP5 PUSH1 0x1 SWAP1 SWAP4 ADD SWAP3 ADD PUSH2 0x2210 JUMP JUMPDEST ADD CALLDATALOAD SWAP1 POP DUP5 DUP1 PUSH2 0x1A19 JUMP JUMPDEST SWAP1 SWAP3 POP PUSH1 0x16 DUP5 ADD PUSH1 0x0 MSTORE PUSH1 0x20 PUSH1 0x0 KECCAK256 SWAP1 PUSH1 0x0 SWAP4 JUMPDEST PUSH1 0x1F NOT DUP5 AND DUP6 LT PUSH2 0x22D1 JUMPI PUSH1 0x1 SWAP5 POP DUP4 PUSH1 0x1F NOT DUP2 AND LT PUSH2 0x22B7 JUMPI JUMPDEST POP POP POP DUP2 SHL ADD PUSH1 0x16 DUP3 ADD SSTORE PUSH2 0x1A31 JUMP JUMPDEST ADD CALLDATALOAD PUSH1 0x0 NOT PUSH1 0x3 DUP5 SWAP1 SHL PUSH1 0xF8 AND SHR NOT AND SWAP1 SSTORE DUP5 DUP1 DUP1 PUSH2 0x22A7 JUMP JUMPDEST DUP2 DUP2 ADD CALLDATALOAD DUP4 SSTORE PUSH1 0x20 SWAP5 DUP6 ADD SWAP5 PUSH1 0x1 SWAP1 SWAP4 ADD SWAP3 ADD PUSH2 0x228C JUMP JUMPDEST ADD CALLDATALOAD SWAP1 POP DUP5 DUP1 PUSH2 0x19AB JUMP JUMPDEST SWAP1 SWAP3 POP PUSH1 0x15 DUP5 ADD PUSH1 0x0 MSTORE PUSH1 0x20 PUSH1 0x0 KECCAK256 SWAP1 PUSH1 0x0 SWAP4 JUMPDEST PUSH1 0x1F NOT DUP5 AND DUP6 LT PUSH2 0x234D JUMPI PUSH1 0x1 SWAP5 POP DUP4 PUSH1 0x1F NOT DUP2 AND LT PUSH2 0x2333 JUMPI JUMPDEST POP POP POP DUP2 SHL ADD PUSH1 0x15 DUP3 ADD SSTORE PUSH2 0x19C3 JUMP JUMPDEST ADD CALLDATALOAD PUSH1 0x0 NOT PUSH1 0x3 DUP5 SWAP1 SHL PUSH1 0xF8 AND SHR NOT AND SWAP1 SSTORE DUP5 DUP1 DUP1 PUSH2 0x2323 JUMP JUMPDEST DUP2 DUP2 ADD CALLDATALOAD DUP4 SSTORE PUSH1 0x20 SWAP5 DUP6 ADD SWAP5 PUSH1 0x1 SWAP1 SWAP4 ADD SWAP3 ADD PUSH2 0x2308 JUMP JUMPDEST ADD CALLDATALOAD SWAP1 POP DUP5 DUP1 PUSH2 0x193D JUMP JUMPDEST SWAP1 SWAP3 POP PUSH1 0x14 DUP5 ADD PUSH1 0x0 MSTORE PUSH1 0x20 PUSH1 0x0 KECCAK256 SWAP1 PUSH1 0x0 SWAP4 JUMPDEST PUSH1 0x1F NOT DUP5 AND DUP6 LT PUSH2 0x23C9 JUMPI PUSH1 0x1 SWAP5 POP DUP4 PUSH1 0x1F NOT DUP2 AND LT PUSH2 0x23AF JUMPI JUMPDEST POP POP POP DUP2 SHL ADD PUSH1 0x14 DUP3 ADD SSTORE PUSH2 0x1955 JUMP JUMPDEST ADD CALLDATALOAD PUSH1 0x0 NOT PUSH1 0x3 DUP5 SWAP1 SHL PUSH1 0xF8 AND SHR NOT AND SWAP1 SSTORE DUP5 DUP1 DUP1 PUSH2 0x239F JUMP JUMPDEST DUP2 DUP2 ADD CALLDATALOAD DUP4 SSTORE PUSH1 0x20 SWAP5 DUP6 ADD SWAP5 PUSH1 0x1 SWAP1 SWAP4 ADD SWAP3 ADD PUSH2 0x2384 JUMP JUMPDEST ADD CALLDATALOAD SWAP1 POP DUP5 DUP1 PUSH2 0x18CF JUMP JUMPDEST SWAP1 SWAP3 POP PUSH1 0x13 DUP5 ADD PUSH1 0x0 MSTORE PUSH1 0x20 PUSH1 0x0 KECCAK256 SWAP1 PUSH1 0x0 SWAP4 JUMPDEST PUSH1 0x1F NOT DUP5 AND DUP6 LT PUSH2 0x2445 JUMPI PUSH1 0x1 SWAP5 POP DUP4 PUSH1 0x1F NOT DUP2 AND LT PUSH2 0x242B JUMPI JUMPDEST POP POP POP DUP2 SHL ADD PUSH1 0x13 DUP3 ADD SSTORE PUSH2 0x18E7 JUMP JUMPDEST ADD CALLDATALOAD PUSH1 0x0 NOT PUSH1 0x3 DUP5 SWAP1 SHL PUSH1 0xF8 AND SHR NOT AND SWAP1 SSTORE DUP5 DUP1 DUP1 PUSH2 0x241B JUMP JUMPDEST DUP2 DUP2 ADD CALLDATALOAD DUP4 SSTORE PUSH1 0x20 SWAP5 DUP6 ADD SWAP5 PUSH1 0x1 SWAP1 SWAP4 ADD SWAP3 ADD PUSH2 0x2400 JUMP JUMPDEST ADD CALLDATALOAD SWAP1 POP DUP5 DUP1 PUSH2 0x1861 JUMP JUMPDEST SWAP1 SWAP3 POP PUSH1 0x12 DUP5 ADD PUSH1 0x0 MSTORE PUSH1 0x20 PUSH1 0x0 KECCAK256 SWAP1 PUSH1 0x0 SWAP4 JUMPDEST PUSH1 0x1F NOT DUP5 AND DUP6 LT PUSH2 0x24C1 JUMPI PUSH1 0x1 SWAP5 POP DUP4 PUSH1 0x1F NOT DUP2 AND LT PUSH2 0x24A7 JUMPI JUMPDEST POP POP POP DUP2 SHL ADD PUSH1 0x12 DUP3 ADD SSTORE PUSH2 0x1879 JUMP JUMPDEST ADD CALLDATALOAD PUSH1 0x0 NOT PUSH1 0x3 DUP5 SWAP1 SHL PUSH1 0xF8 AND SHR NOT AND SWAP1 SSTORE DUP5 DUP1 DUP1 PUSH2 0x2497 JUMP JUMPDEST DUP2 DUP2 ADD CALLDATALOAD DUP4 SSTORE PUSH1 0x20 SWAP5 DUP6 ADD SWAP5 PUSH1 0x1 SWAP1 SWAP4 ADD SWAP3 ADD PUSH2 0x247C JUMP JUMPDEST ADD CALLDATALOAD SWAP1 POP DUP5 DUP1 PUSH2 0x17F3 JUMP JUMPDEST SWAP1 SWAP3 POP PUSH1 0xF DUP5 ADD PUSH1 0x0 MSTORE PUSH1 0x20 PUSH1 0x0 KECCAK256 SWAP1 PUSH1 0x0 SWAP4 JUMPDEST PUSH1 0x1F NOT DUP5 AND DUP6 LT PUSH2 0x253D JUMPI PUSH1 0x1 SWAP5 POP DUP4 PUSH1 0x1F NOT DUP2 AND LT PUSH2 0x2523 JUMPI JUMPDEST POP POP POP DUP2 SHL ADD PUSH1 0xF DUP3 ADD SSTORE PUSH2 0x180B JUMP JUMPDEST ADD CALLDATALOAD PUSH1 0x0 NOT PUSH1 0x3 DUP5 SWAP1 SHL PUSH1 0xF8 AND SHR NOT AND SWAP1 SSTORE DUP5 DUP1 DUP1 PUSH2 0x2513 JUMP JUMPDEST DUP2 DUP2 ADD CALLDATALOAD DUP4 SSTORE PUSH1 0x20 SWAP5 DUP6 ADD SWAP5 PUSH1 0x1 SWAP1 SWAP4 ADD SWAP3 ADD PUSH2 0x24F8 JUMP JUMPDEST ADD CALLDATALOAD SWAP1 POP DUP5 DUP1 PUSH2 0x1785 JUMP JUMPDEST SWAP1 SWAP3 POP PUSH1 0xE DUP5 ADD PUSH1 0x0 MSTORE PUSH1 0x20 PUSH1 0x0 KECCAK256 SWAP1 PUSH1 0x0 SWAP4 JUMPDEST PUSH1 0x1F NOT DUP5 AND DUP6 LT PUSH2 0x25B9 JUMPI PUSH1 0x1 SWAP5 POP DUP4 PUSH1 0x1F NOT DUP2 AND LT PUSH2 0x259F JUMPI JUMPDEST POP POP POP DUP2 SHL ADD PUSH1 0xE DUP3 ADD SSTORE PUSH2 0x179D JUMP JUMPDEST ADD CALLDATALOAD PUSH1 0x0 NOT PUSH1 0x3 DUP5 SWAP1 SHL PUSH1 0xF8 AND SHR NOT AND SWAP1 SSTORE DUP5 DUP1 DUP1 PUSH2 0x258F JUMP JUMPDEST DUP2 DUP2 ADD CALLDATALOAD DUP4 SSTORE PUSH1 0x20 SWAP5 DUP6 ADD SWAP5 PUSH1 0x1 SWAP1 SWAP4 ADD SWAP3 ADD PUSH2 0x2574 JUMP JUMPDEST ADD CALLDATALOAD SWAP1 POP DUP5 DUP1 PUSH2 0x1702 JUMP JUMPDEST SWAP1 SWAP3 POP PUSH1 0xB DUP5 ADD PUSH1 0x0 MSTORE PUSH1 0x20 PUSH1 0x0 KECCAK256 SWAP1 PUSH1 0x0 SWAP4 JUMPDEST PUSH1 0x1F NOT DUP5 AND DUP6 LT PUSH2 0x2635 JUMPI PUSH1 0x1 SWAP5 POP DUP4 PUSH1 0x1F NOT DUP2 AND LT PUSH2 0x261B JUMPI JUMPDEST POP POP POP DUP2 SHL ADD PUSH1 0xB DUP3 ADD SSTORE PUSH2 0x171A JUMP JUMPDEST ADD CALLDATALOAD PUSH1 0x0 NOT PUSH1 0x3 DUP5 SWAP1 SHL PUSH1 0xF8 AND SHR NOT AND SWAP1 SSTORE DUP5 DUP1 DUP1 PUSH2 0x260B JUMP JUMPDEST DUP2 DUP2 ADD CALLDATALOAD DUP4 SSTORE PUSH1 0x20 SWAP5 DUP6 ADD SWAP5 PUSH1 0x1 SWAP1 SWAP4 ADD SWAP3 ADD PUSH2 0x25F0 JUMP JUMPDEST ADD CALLDATALOAD SWAP1 POP DUP5 DUP1 PUSH2 0x1694 JUMP JUMPDEST SWAP1 SWAP3 POP PUSH1 0xA DUP5 ADD PUSH1 0x0 MSTORE PUSH1 0x20 PUSH1 0x0 KECCAK256 SWAP1 PUSH1 0x0 SWAP4 JUMPDEST PUSH1 0x1F NOT DUP5 AND DUP6 LT PUSH2 0x26B1 JUMPI PUSH1 0x1 SWAP5 POP DUP4 PUSH1 0x1F NOT DUP2 AND LT PUSH2 0x2697 JUMPI JUMPDEST POP POP POP DUP2 SHL ADD PUSH1 0xA DUP3 ADD SSTORE PUSH2 0x16AC JUMP JUMPDEST ADD CALLDATALOAD PUSH1 0x0 NOT PUSH1 0x3 DUP5 SWAP1 SHL PUSH1 0xF8 AND SHR NOT AND SWAP1 SSTORE DUP5 DUP1 DUP1 PUSH2 0x2687 JUMP JUMPDEST DUP2 DUP2 ADD CALLDATALOAD DUP4 SSTORE PUSH1 0x20 SWAP5 DUP6 ADD SWAP5 PUSH1 0x1 SWAP1 SWAP4 ADD SWAP3 ADD PUSH2 0x266C JUMP JUMPDEST ADD CALLDATALOAD SWAP1 POP DUP5 DUP1 PUSH2 0x1626 JUMP JUMPDEST SWAP1 SWAP3 POP PUSH1 0x9 DUP5 ADD PUSH1 0x0 MSTORE PUSH1 0x20 PUSH1 0x0 KECCAK256 SWAP1 PUSH1 0x0 SWAP4 JUMPDEST PUSH1 0x1F NOT DUP5 AND DUP6 LT PUSH2 0x272D JUMPI PUSH1 0x1 SWAP5 POP DUP4 PUSH1 0x1F NOT DUP2 AND LT PUSH2 0x2713 JUMPI JUMPDEST POP POP POP DUP2 SHL ADD PUSH1 0x9 DUP3 ADD SSTORE PUSH2 0x163E JUMP JUMPDEST ADD CALLDATALOAD PUSH1 0x0 NOT PUSH1 0x3 DUP5 SWAP1 SHL PUSH1 0xF8 AND SHR NOT AND SWAP1 SSTORE DUP5 DUP1 DUP1 PUSH2 0x2703 JUMP JUMPDEST DUP2 DUP2 ADD CALLDATALOAD DUP4 SSTORE PUSH1 0x20 SWAP5 DUP6 ADD SWAP5 PUSH1 0x1 SWAP1 SWAP4 ADD SWAP3 ADD PUSH2 0x26E8 JUMP JUMPDEST ADD CALLDATALOAD SWAP1 POP DUP5 DUP1 PUSH2 0x15B8 JUMP JUMPDEST SWAP1 SWAP3 POP PUSH1 0x8 DUP5 ADD PUSH1 0x0 MSTORE PUSH1 0x20 PUSH1 0x0 KECCAK256 SWAP1 PUSH1 0x0 SWAP4 JUMPDEST PUSH1 0x1F NOT DUP5 AND DUP6 LT PUSH2 0x27A9 JUMPI PUSH1 0x1 SWAP5 POP DUP4 PUSH1 0x1F NOT DUP2 AND LT PUSH2 0x278F JUMPI JUMPDEST POP POP POP DUP2 SHL ADD PUSH1 0x8 DUP3 ADD SSTORE PUSH2 0x15D0 JUMP JUMPDEST ADD CALLDATALOAD PUSH1 0x0 NOT PUSH1 0x3 DUP5 SWAP1 SHL PUSH1 0xF8 AND SHR NOT AND SWAP1 SSTORE DUP5 DUP1 DUP1 PUSH2 0x277F JUMP JUMPDEST DUP2 DUP2 ADD CALLDATALOAD DUP4 SSTORE PUSH1 0x20 SWAP5 DUP6 ADD SWAP5 PUSH1 0x1 SWAP1 SWAP4 ADD SWAP3 ADD PUSH2 0x2764 JUMP JUMPDEST ADD CALLDATALOAD SWAP1 POP DUP5 DUP1 PUSH2 0x154B JUMP JUMPDEST SWAP1 SWAP3 POP PUSH1 0x7 DUP5 ADD PUSH1 0x0 MSTORE PUSH1 0x20 PUSH1 0x0 KECCAK256 SWAP1 PUSH1 0x0 SWAP4 JUMPDEST PUSH1 0x1F NOT DUP5 AND DUP6 LT PUSH2 0x2825 JUMPI PUSH1 0x1 SWAP5 POP DUP4 PUSH1 0x1F NOT DUP2 AND LT PUSH2 0x280B JUMPI JUMPDEST POP POP POP DUP2 SHL ADD PUSH1 0x7 DUP3 ADD SSTORE PUSH2 0x1563 JUMP JUMPDEST ADD CALLDATALOAD PUSH1 0x0 NOT PUSH1 0x3 DUP5 SWAP1 SHL PUSH1 0xF8 AND SHR NOT AND SWAP1 SSTORE DUP5 DUP1 DUP1 PUSH2 0x27FB JUMP JUMPDEST DUP2 DUP2 ADD CALLDATALOAD DUP4 SSTORE PUSH1 0x20 SWAP5 DUP6 ADD SWAP5 PUSH1 0x1 SWAP1 SWAP4 ADD SWAP3 ADD PUSH2 0x27E0 JUMP JUMPDEST ADD CALLDATALOAD SWAP1 POP DUP5 DUP1 PUSH2 0x14DE JUMP JUMPDEST SWAP1 SWAP3 POP PUSH1 0x6 DUP5 ADD PUSH1 0x0 MSTORE PUSH1 0x20 PUSH1 0x0 KECCAK256 SWAP1 PUSH1 0x0 SWAP4 JUMPDEST PUSH1 0x1F NOT DUP5 AND DUP6 LT PUSH2 0x28A1 JUMPI PUSH1 0x1 SWAP5 POP DUP4 PUSH1 0x1F NOT DUP2 AND LT PUSH2 0x2887 JUMPI JUMPDEST POP POP POP DUP2 SHL ADD PUSH1 0x6 DUP3 ADD SSTORE PUSH2 0x14F6 JUMP JUMPDEST ADD CALLDATALOAD PUSH1 0x0 NOT PUSH1 0x3 DUP5 SWAP1 SHL PUSH1 0xF8 AND SHR NOT AND SWAP1 SSTORE DUP5 DUP1 DUP1 PUSH2 0x2877 JUMP JUMPDEST DUP2 DUP2 ADD CALLDATALOAD DUP4 SSTORE PUSH1 0x20 SWAP5 DUP6 ADD SWAP5 PUSH1 0x1 SWAP1 SWAP4 ADD SWAP3 ADD PUSH2 0x285C JUMP JUMPDEST ADD CALLDATALOAD SWAP1 POP DUP5 DUP1 PUSH2 0x1471 JUMP JUMPDEST SWAP1 SWAP3 POP PUSH1 0x5 DUP5 ADD PUSH1 0x0 MSTORE PUSH1 0x20 PUSH1 0x0 KECCAK256 SWAP1 PUSH1 0x0 SWAP4 JUMPDEST PUSH1 0x1F NOT DUP5 AND DUP6 LT PUSH2 0x291D JUMPI PUSH1 0x1 SWAP5 POP DUP4 PUSH1 0x1F NOT DUP2 AND LT PUSH2 0x2903 JUMPI JUMPDEST POP POP POP DUP2 SHL ADD PUSH1 0x5 DUP3 ADD SSTORE PUSH2 0x1489 JUMP JUMPDEST ADD CALLDATALOAD PUSH1 0x0 NOT PUSH1 0x3 DUP5 SWAP1 SHL PUSH1 0xF8 AND SHR NOT AND SWAP1 SSTORE DUP5 DUP1 DUP1 PUSH2 0x28F3 JUMP JUMPDEST DUP2 DUP2 ADD CALLDATALOAD DUP4 SSTORE PUSH1 0x20 SWAP5 DUP6 ADD SWAP5 PUSH1 0x1 SWAP1 SWAP4 ADD SWAP3 ADD PUSH2 0x28D8 JUMP JUMPDEST ADD CALLDATALOAD SWAP1 POP DUP5 DUP1 PUSH2 0x13A9 JUMP JUMPDEST SWAP1 SWAP3 POP PUSH1 0x2 DUP5 ADD PUSH1 0x0 MSTORE PUSH1 0x20 PUSH1 0x0 KECCAK256 SWAP1 PUSH1 0x0 SWAP4 JUMPDEST PUSH1 0x1F NOT DUP5 AND DUP6 LT PUSH2 0x2999 JUMPI PUSH1 0x1 SWAP5 POP DUP4 PUSH1 0x1F NOT DUP2 AND LT PUSH2 0x297F JUMPI JUMPDEST POP POP POP DUP2 SHL ADD PUSH1 0x2 DUP3 ADD SSTORE PUSH2 0x13C1 JUMP JUMPDEST ADD CALLDATALOAD PUSH1 0x0 NOT PUSH1 0x3 DUP5 SWAP1 SHL PUSH1 0xF8 AND SHR NOT AND SWAP1 SSTORE DUP5 DUP1 DUP1 PUSH2 0x296F JUMP JUMPDEST DUP2 DUP2 ADD CALLDATALOAD DUP4 SSTORE PUSH1 0x20 SWAP5 DUP6 ADD SWAP5 PUSH1 0x1 SWAP1 SWAP4 ADD SWAP3 ADD PUSH2 0x2954 JUMP JUMPDEST ADD CALLDATALOAD SWAP1 POP DUP5 DUP1 PUSH2 0x133C JUMP JUMPDEST SWAP1 SWAP3 POP PUSH1 0x1 DUP5 ADD PUSH1 0x0 MSTORE PUSH1 0x20 PUSH1 0x0 KECCAK256 SWAP1 PUSH1 0x0 SWAP4 JUMPDEST PUSH1 0x1F NOT DUP5 AND DUP6 LT PUSH2 0x2A15 JUMPI PUSH1 0x1 SWAP5 POP DUP4 PUSH1 0x1F NOT DUP2 AND LT PUSH2 0x29FB JUMPI JUMPDEST POP POP POP DUP2 SHL ADD PUSH1 0x1 DUP3 ADD SSTORE PUSH2 0x1354 JUMP JUMPDEST ADD CALLDATALOAD PUSH1 0x0 NOT PUSH1 0x3 DUP5 SWAP1 SHL PUSH1 0xF8 AND SHR NOT AND SWAP1 SSTORE DUP5 DUP1 DUP1 PUSH2 0x29EB JUMP JUMPDEST DUP2 DUP2 ADD CALLDATALOAD DUP4 SSTORE PUSH1 0x20 SWAP5 DUP6 ADD SWAP5 PUSH1 0x1 SWAP1 SWAP4 ADD SWAP3 ADD PUSH2 0x29D0 JUMP JUMPDEST PUSH1 0x40 MLOAD PUSH4 0x1623655B PUSH1 0xE3 SHL DUP2 MSTORE PUSH1 0x4 SWAP1 REVERT JUMPDEST PUSH1 0x40 MLOAD PUSH4 0x524F409B PUSH1 0xE0 SHL DUP2 MSTORE PUSH1 0x4 SWAP1 REVERT JUMPDEST PUSH1 0x40 MLOAD PUSH3 0xBFC921 PUSH1 0xE0 SHL DUP2 MSTORE PUSH1 0x4 SWAP1 REVERT JUMPDEST PUSH1 0x40 MLOAD PUSH4 0xE6C4247B PUSH1 0xE0 SHL DUP2 MSTORE PUSH1 0x4 SWAP1 REVERT JUMPDEST POP PUSH1 0x1 PUSH1 0x1 PUSH1 0xA0 SHL SUB PUSH2 0x2A8B PUSH1 0x4 CALLDATALOAD PUSH1 0x64 ADD PUSH2 0x42B3 JUMP JUMPDEST AND ISZERO PUSH2 0x120F JUMP JUMPDEST CALLVALUE PUSH2 0x726 JUMPI PUSH1 0x80 CALLDATASIZE PUSH1 0x3 NOT ADD SLT PUSH2 0x726 JUMPI PUSH1 0x4 CALLDATALOAD PUSH1 0x1 PUSH1 0x1 PUSH1 0x40 SHL SUB DUP2 GT PUSH2 0x726 JUMPI PUSH2 0x2AC2 SWAP1 CALLDATASIZE SWAP1 PUSH1 0x4 ADD PUSH2 0x3F02 JUMP JUMPDEST SWAP1 PUSH1 0x24 CALLDATALOAD PUSH1 0x1 PUSH1 0x1 PUSH1 0x40 SHL SUB DUP2 GT PUSH2 0x726 JUMPI PUSH2 0x2AE2 SWAP1 CALLDATASIZE SWAP1 PUSH1 0x4 ADD PUSH2 0x3F02 JUMP JUMPDEST SWAP3 SWAP1 PUSH1 0x44 CALLDATALOAD PUSH1 0x1 PUSH1 0x1 PUSH1 0x40 SHL SUB DUP2 GT PUSH2 0x726 JUMPI PUSH2 0x2B03 SWAP1 CALLDATASIZE SWAP1 PUSH1 0x4 ADD PUSH2 0x3F02 JUMP JUMPDEST SWAP1 PUSH1 0x64 CALLDATALOAD PUSH1 0x1 PUSH1 0x1 PUSH1 0x40 SHL SUB DUP2 GT PUSH2 0x726 JUMPI PUSH2 0x2B23 SWAP1 CALLDATASIZE SWAP1 PUSH1 0x4 ADD PUSH2 0x3F02 JUMP JUMPDEST SWAP5 SWAP1 SWAP6 PUSH1 0xFF PUSH1 0x40 MLOAD DUP4 DUP4 DUP3 CALLDATACOPY PUSH1 0x20 DUP2 DUP6 DUP2 ADD PUSH1 0x4 DUP2 MSTORE SUB ADD SWAP1 KECCAK256 SLOAD AND ISZERO PUSH2 0x714 JUMPI PUSH1 0x20 SWAP1 DUP3 PUSH1 0x40 MLOAD SWAP4 DUP5 SWAP3 DUP4 CALLDATACOPY DUP2 ADD PUSH1 0x3 DUP2 MSTORE SUB ADD SWAP1 KECCAK256 SLOAD PUSH1 0x0 MSTORE PUSH1 0x2 PUSH1 0x20 MSTORE PUSH1 0x40 PUSH1 0x0 KECCAK256 SWAP4 PUSH32 0x4BE840E351422C3B302ABB79AA7DB05560EAD7E387E413320822A342FCA3F54E PUSH1 0x40 MLOAD PUSH2 0x2B9E DUP2 PUSH2 0x166 DUP2 PUSH1 0x1C DUP12 ADD PUSH2 0x4443 JUMP JUMPDEST PUSH1 0x20 DUP2 MLOAD SWAP2 ADD KECCAK256 PUSH7 0x50656E64696E67 PUSH1 0xC8 SHL PUSH1 0x20 PUSH1 0x40 MLOAD PUSH2 0x2BBE DUP2 PUSH2 0x44F5 JUMP JUMPDEST PUSH1 0x7 DUP2 MSTORE ADD MSTORE SUB PUSH2 0x702 JUMPI PUSH1 0xFF PUSH1 0x40 MLOAD DUP9 DUP7 DUP3 CALLDATACOPY PUSH1 0x20 DUP2 DUP11 DUP2 ADD PUSH1 0x4 DUP2 MSTORE SUB ADD SWAP1 KECCAK256 SLOAD AND PUSH2 0x6F0 JUMPI PUSH2 0x2BF1 PUSH1 0x0 SLOAD PUSH2 0x42F9 JUMP JUMPDEST SWAP6 DUP7 PUSH1 0x0 SSTORE DUP7 PUSH1 0x0 MSTORE PUSH1 0x2 PUSH1 0x20 MSTORE PUSH1 0x40 PUSH1 0x0 KECCAK256 SWAP2 DUP8 DUP4 SSTORE PUSH1 0x1 PUSH1 0x1 PUSH1 0x40 SHL SUB DUP10 GT PUSH2 0x66A JUMPI PUSH2 0x2C30 DUP10 PUSH2 0x2C27 PUSH1 0x1 DUP7 ADD SLOAD PUSH2 0x431E JUMP JUMPDEST PUSH1 0x1 DUP7 ADD PUSH2 0x4399 JUMP JUMPDEST DUP9 PUSH1 0x0 PUSH1 0x1F DUP3 GT PUSH1 0x1 EQ PUSH2 0x31AB JUMPI PUSH1 0x0 SWAP2 PUSH2 0x31A0 JUMPI JUMPDEST POP DUP10 PUSH1 0x1 SHL SWAP1 PUSH1 0x0 NOT DUP12 PUSH1 0x3 SHL SHR NOT AND OR PUSH1 0x1 DUP5 ADD SSTORE JUMPDEST PUSH2 0x2C6D PUSH1 0x2 DUP9 ADD PUSH1 0x2 DUP6 ADD PUSH2 0x4531 JUMP JUMPDEST PUSH1 0x3 DUP8 DUP2 ADD SLOAD SWAP1 DUP5 ADD DUP1 SLOAD PUSH1 0x1 PUSH1 0x1 PUSH1 0xA0 SHL SUB SWAP3 DUP4 AND PUSH1 0x1 PUSH1 0x1 PUSH1 0xA0 SHL SUB NOT SWAP2 DUP3 AND OR SWAP1 SWAP2 SSTORE PUSH1 0x4 DUP1 DUP11 ADD SLOAD SWAP1 DUP7 ADD DUP1 SLOAD SWAP2 SWAP1 SWAP4 AND SWAP2 AND OR SWAP1 SSTORE PUSH2 0x2CB7 PUSH1 0x5 DUP1 DUP10 ADD SWAP1 DUP6 ADD PUSH2 0x4531 JUMP JUMPDEST PUSH2 0x2CC7 PUSH1 0x6 DUP9 ADD PUSH1 0x6 DUP6 ADD PUSH2 0x4531 JUMP JUMPDEST PUSH2 0x2CD7 PUSH1 0x7 DUP9 ADD PUSH1 0x7 DUP6 ADD PUSH2 0x4531 JUMP JUMPDEST PUSH2 0x2CE7 PUSH1 0x8 DUP9 ADD PUSH1 0x8 DUP6 ADD PUSH2 0x4531 JUMP JUMPDEST PUSH2 0x2CF7 PUSH1 0x9 DUP9 ADD PUSH1 0x9 DUP6 ADD PUSH2 0x4531 JUMP JUMPDEST PUSH2 0x2D07 PUSH1 0xA DUP9 ADD PUSH1 0xA DUP6 ADD PUSH2 0x4531 JUMP JUMPDEST PUSH2 0x2D17 PUSH1 0xB DUP9 ADD PUSH1 0xB DUP6 ADD PUSH2 0x4531 JUMP JUMPDEST PUSH1 0xC DUP8 ADD SLOAD PUSH1 0xC DUP5 ADD SSTORE PUSH1 0xD DUP8 ADD SLOAD PUSH1 0xD DUP5 ADD SSTORE PUSH2 0x2D3B PUSH1 0xE DUP9 ADD PUSH1 0xE DUP6 ADD PUSH2 0x4531 JUMP JUMPDEST PUSH2 0x2D4B PUSH1 0xF DUP9 ADD PUSH1 0xF DUP6 ADD PUSH2 0x4531 JUMP JUMPDEST PUSH2 0x2D5B PUSH1 0x12 DUP9 ADD PUSH1 0x12 DUP6 ADD PUSH2 0x4531 JUMP JUMPDEST PUSH2 0x2D6B PUSH1 0x13 DUP9 ADD PUSH1 0x13 DUP6 ADD PUSH2 0x4531 JUMP JUMPDEST PUSH2 0x2D7B PUSH1 0x14 DUP9 ADD PUSH1 0x14 DUP6 ADD PUSH2 0x4531 JUMP JUMPDEST PUSH2 0x2D8B PUSH1 0x15 DUP9 ADD PUSH1 0x15 DUP6 ADD PUSH2 0x4531 JUMP JUMPDEST PUSH2 0x2D9B PUSH1 0x16 DUP9 ADD PUSH1 0x16 DUP6 ADD PUSH2 0x4531 JUMP JUMPDEST PUSH2 0x2DAB PUSH1 0x17 DUP9 ADD PUSH1 0x17 DUP6 ADD PUSH2 0x4531 JUMP JUMPDEST PUSH2 0x2DBB PUSH1 0x18 DUP9 ADD PUSH1 0x18 DUP6 ADD PUSH2 0x4531 JUMP JUMPDEST PUSH2 0x2DCB PUSH1 0x19 DUP9 ADD PUSH1 0x19 DUP6 ADD PUSH2 0x4531 JUMP JUMPDEST PUSH2 0x2DDB PUSH1 0x1A DUP9 ADD PUSH1 0x1A DUP6 ADD PUSH2 0x4531 JUMP JUMPDEST PUSH1 0x1C DUP4 ADD PUSH2 0x2DF2 PUSH2 0x2DEC DUP3 SLOAD PUSH2 0x431E JUMP JUMPDEST DUP3 PUSH2 0x436F JUMP JUMPDEST PUSH1 0x10 PUSH8 0x1058D8D95C1D1959 PUSH1 0xC2 SHL ADD SWAP1 SSTORE PUSH1 0x1 PUSH1 0x1 PUSH1 0x40 SHL SUB DUP6 GT PUSH2 0x66A JUMPI PUSH2 0x2E2B DUP6 PUSH2 0x2E22 PUSH1 0x10 DUP7 ADD SLOAD PUSH2 0x431E JUMP JUMPDEST PUSH1 0x10 DUP7 ADD PUSH2 0x4399 JUMP JUMPDEST DUP5 PUSH1 0x0 PUSH1 0x1F DUP3 GT PUSH1 0x1 EQ PUSH2 0x3132 JUMPI PUSH1 0x0 SWAP2 PUSH2 0x3127 JUMPI JUMPDEST POP DUP6 PUSH1 0x1 SHL SWAP1 PUSH1 0x0 NOT DUP8 PUSH1 0x3 SHL SHR NOT AND OR PUSH1 0x10 DUP5 ADD SSTORE JUMPDEST PUSH1 0x1 PUSH1 0x1 PUSH1 0x40 SHL SUB DUP2 GT PUSH2 0x66A JUMPI DUP3 PUSH2 0x2E82 DUP3 PUSH2 0x2E79 PUSH1 0x11 DUP13 SWAP8 ADD SLOAD PUSH2 0x431E JUMP JUMPDEST PUSH1 0x11 DUP5 ADD PUSH2 0x4399 JUMP JUMPDEST PUSH1 0x0 PUSH1 0x1F DUP4 GT PUSH1 0x1 EQ PUSH2 0x30B8 JUMPI PUSH1 0x0 SWAP1 DUP4 PUSH2 0x30AD JUMPI JUMPDEST POP DUP3 PUSH1 0x1 SHL SWAP1 PUSH1 0x0 NOT DUP5 PUSH1 0x3 SHL SHR NOT AND OR PUSH1 0x11 DUP3 ADD SSTORE JUMPDEST PUSH1 0x1D DUP9 ADD SLOAD PUSH1 0x1D DUP3 ADD SSTORE TIMESTAMP PUSH1 0x1F DUP3 ADD SSTORE TIMESTAMP PUSH1 0x1E DUP3 ADD SSTORE PUSH1 0x23 ADD CALLER PUSH1 0x1 PUSH1 0x1 PUSH1 0x60 SHL SUB PUSH1 0xA0 SHL DUP3 SLOAD AND OR SWAP1 SSTORE DUP3 PUSH1 0x40 MLOAD DUP11 DUP9 DUP3 CALLDATACOPY DUP1 DUP12 DUP2 ADD PUSH1 0x3 DUP2 MSTORE SUB PUSH1 0x20 ADD SWAP1 KECCAK256 SSTORE PUSH1 0x40 MLOAD DUP10 DUP8 DUP3 CALLDATACOPY DUP1 DUP11 DUP2 ADD PUSH1 0x4 DUP2 MSTORE SUB PUSH1 0x20 ADD SWAP1 KECCAK256 PUSH1 0xFF NOT DUP2 SLOAD AND PUSH1 0x1 OR SWAP1 SSTORE DUP3 PUSH1 0x2 DUP9 ADD PUSH2 0x2F1F SWAP1 PUSH2 0x460F JUMP JUMPDEST SSTORE DUP3 PUSH2 0x2F2D PUSH1 0x2 DUP10 ADD PUSH2 0x46A2 JUMP JUMPDEST SWAP1 PUSH2 0x2F37 SWAP2 PUSH2 0x43DE JUMP JUMPDEST PUSH1 0x1 PUSH1 0xA0 SHL PUSH1 0x1 SWAP1 SUB PUSH1 0x3 DUP9 ADD SLOAD AND SWAP4 PUSH1 0xC DUP9 ADD SLOAD SWAP6 PUSH1 0xD DUP10 ADD SLOAD SWAP7 PUSH1 0x40 MLOAD SWAP8 DUP13 PUSH2 0x140 DUP1 DUP12 MSTORE DUP11 ADD PUSH2 0x2F6A SWAP2 DUP13 PUSH2 0x4422 JUMP JUMPDEST DUP10 DUP2 SUB PUSH1 0x20 DUP12 ADD MSTORE PUSH2 0x2F7F SWAP1 PUSH1 0x2 DUP14 ADD PUSH2 0x4443 JUMP JUMPDEST DUP10 DUP2 SUB PUSH1 0x40 DUP12 ADD MSTORE PUSH2 0x2F94 SWAP1 PUSH1 0x6 DUP14 ADD PUSH2 0x4443 JUMP JUMPDEST DUP10 DUP2 SUB PUSH1 0x60 DUP12 ADD MSTORE PUSH2 0x2FA9 SWAP1 PUSH1 0xA DUP14 ADD PUSH2 0x4443 JUMP JUMPDEST SWAP2 PUSH1 0x80 DUP11 ADD MSTORE PUSH1 0xA0 DUP10 ADD MSTORE DUP8 DUP2 SUB PUSH1 0xC0 DUP10 ADD MSTORE PUSH1 0x9 DUP11 ADD SWAP1 PUSH2 0x2FCA SWAP2 PUSH2 0x4443 JUMP JUMPDEST SWAP1 DUP8 DUP3 SUB PUSH1 0xE0 DUP10 ADD MSTORE PUSH2 0x2FDC SWAP3 PUSH2 0x4422 JUMP JUMPDEST SWAP1 DUP6 DUP3 SUB PUSH2 0x100 DUP8 ADD MSTORE PUSH2 0x2FEF SWAP3 PUSH2 0x4422 JUMP JUMPDEST SWAP3 TIMESTAMP PUSH2 0x120 DUP3 ADD MSTORE DUP1 CALLER SWAP5 SUB PUSH32 0x9F05CE70672573FC1D86730EE0A71865ADA0A93208389D4E76B5698B5108B434 SWAP2 LOG4 PUSH1 0x40 MLOAD SWAP4 PUSH1 0xA0 DUP6 MSTORE PUSH1 0xA0 DUP6 ADD SWAP1 PUSH2 0x3034 SWAP3 PUSH2 0x4422 JUMP JUMPDEST DUP4 DUP2 SUB PUSH1 0x20 DUP6 ADD MSTORE PUSH2 0x3048 SWAP2 PUSH1 0x2 ADD PUSH2 0x4443 JUMP JUMPDEST DUP3 DUP2 SUB PUSH1 0x40 DUP5 ADD MSTORE PUSH2 0x306F SWAP1 PUSH1 0x40 SWAP1 PUSH1 0x7 DUP2 MSTORE PUSH7 0x50656E64696E67 PUSH1 0xC8 SHL PUSH1 0x20 DUP3 ADD MSTORE ADD SWAP1 JUMP JUMPDEST DUP3 DUP2 SUB PUSH1 0x60 DUP5 ADD MSTORE PUSH1 0x8 DUP2 MSTORE PUSH8 0x1058D8D95C1D1959 PUSH1 0xC2 SHL PUSH1 0x20 DUP3 ADD MSTORE PUSH1 0x40 ADD SWAP2 TIMESTAMP PUSH1 0x80 DUP3 ADD MSTORE DUP1 CALLER SWAP4 SUB PUSH1 0x0 DUP1 MLOAD PUSH1 0x20 PUSH2 0x48EA DUP4 CODECOPY DUP2 MLOAD SWAP2 MSTORE SWAP2 LOG3 STOP JUMPDEST SWAP1 POP DUP4 ADD CALLDATALOAD DUP12 PUSH2 0x2E98 JUMP JUMPDEST PUSH1 0x11 DUP3 ADD PUSH1 0x0 MSTORE PUSH1 0x20 PUSH1 0x0 KECCAK256 SWAP1 PUSH1 0x0 JUMPDEST PUSH1 0x1F NOT DUP6 AND DUP2 LT PUSH2 0x310C JUMPI POP DUP4 PUSH1 0x1F NOT DUP2 AND LT PUSH2 0x30F2 JUMPI JUMPDEST POP POP PUSH1 0x1 DUP3 DUP2 SHL ADD PUSH1 0x11 DUP3 ADD SSTORE PUSH2 0x2EAF JUMP JUMPDEST DUP5 ADD CALLDATALOAD PUSH1 0x0 NOT PUSH1 0x3 DUP6 SWAP1 SHL PUSH1 0xF8 AND SHR NOT AND SWAP1 SSTORE DUP11 DUP1 PUSH2 0x30E0 JUMP JUMPDEST DUP2 DUP7 ADD CALLDATALOAD DUP4 SSTORE DUP12 SWAP7 POP PUSH1 0x1 SWAP1 SWAP3 ADD SWAP2 PUSH1 0x20 SWAP2 DUP3 ADD SWAP2 ADD PUSH2 0x30C8 JUMP JUMPDEST SWAP1 POP DUP5 ADD CALLDATALOAD DUP11 PUSH2 0x2E41 JUMP JUMPDEST SWAP1 POP PUSH1 0x10 DUP5 ADD PUSH1 0x0 MSTORE PUSH1 0x20 PUSH1 0x0 KECCAK256 SWAP1 PUSH1 0x0 JUMPDEST PUSH1 0x1F NOT DUP9 AND DUP2 LT PUSH2 0x3188 JUMPI POP DUP7 PUSH1 0x1F NOT DUP2 AND LT PUSH2 0x316E JUMPI JUMPDEST POP POP PUSH1 0x1 DUP6 DUP2 SHL ADD PUSH1 0x10 DUP5 ADD SSTORE PUSH2 0x2E58 JUMP JUMPDEST DUP6 ADD CALLDATALOAD PUSH1 0x0 NOT PUSH1 0x3 DUP9 SWAP1 SHL PUSH1 0xF8 AND SHR NOT AND SWAP1 SSTORE DUP10 DUP1 PUSH2 0x315C JUMP JUMPDEST SWAP1 SWAP2 PUSH1 0x20 PUSH1 0x1 DUP2 SWAP3 DUP6 DUP11 ADD CALLDATALOAD DUP2 SSTORE ADD SWAP4 ADD SWAP2 ADD PUSH2 0x3144 JUMP JUMPDEST SWAP1 POP DUP7 ADD CALLDATALOAD DUP11 PUSH2 0x2C46 JUMP JUMPDEST SWAP1 POP PUSH1 0x1 DUP5 ADD PUSH1 0x0 MSTORE PUSH1 0x20 PUSH1 0x0 KECCAK256 SWAP1 PUSH1 0x0 JUMPDEST PUSH1 0x1F NOT DUP13 AND DUP2 LT PUSH2 0x3201 JUMPI POP DUP11 PUSH1 0x1F NOT DUP2 AND LT PUSH2 0x31E7 JUMPI JUMPDEST POP POP PUSH1 0x1 DUP10 DUP2 SHL ADD PUSH1 0x1 DUP5 ADD SSTORE PUSH2 0x2C5D JUMP JUMPDEST DUP8 ADD CALLDATALOAD PUSH1 0x0 NOT PUSH1 0x3 DUP13 SWAP1 SHL PUSH1 0xF8 AND SHR NOT AND SWAP1 SSTORE DUP10 DUP1 PUSH2 0x31D5 JUMP JUMPDEST SWAP1 SWAP2 PUSH1 0x20 PUSH1 0x1 DUP2 SWAP3 DUP6 DUP13 ADD CALLDATALOAD DUP2 SSTORE ADD SWAP4 ADD SWAP2 ADD PUSH2 0x31BD JUMP JUMPDEST CALLVALUE PUSH2 0x726 JUMPI PUSH1 0x0 CALLDATASIZE PUSH1 0x3 NOT ADD SLT PUSH2 0x726 JUMPI PUSH1 0x20 PUSH1 0x40 MLOAD PUSH2 0x7D0 DUP2 MSTORE RETURN JUMPDEST CALLVALUE PUSH2 0x726 JUMPI PUSH1 0x0 CALLDATASIZE PUSH1 0x3 NOT ADD SLT PUSH2 0x726 JUMPI PUSH1 0x1 SLOAD PUSH1 0x40 MLOAD PUSH1 0x1 PUSH1 0x1 PUSH1 0xA0 SHL SUB SWAP1 SWAP2 AND DUP2 MSTORE PUSH1 0x20 SWAP1 RETURN JUMPDEST CALLVALUE PUSH2 0x726 JUMPI PUSH1 0x40 CALLDATASIZE PUSH1 0x3 NOT ADD SLT PUSH2 0x726 JUMPI PUSH1 0x1 PUSH1 0x1 PUSH1 0x40 SHL SUB PUSH1 0x4 CALLDATALOAD DUP2 DUP2 GT PUSH2 0x726 JUMPI PUSH2 0x3290 SWAP1 CALLDATASIZE SWAP1 PUSH1 0x4 ADD PUSH2 0x3F02 JUMP JUMPDEST SWAP2 SWAP1 PUSH1 0x24 CALLDATALOAD DUP3 DUP2 GT PUSH2 0x726 JUMPI PUSH2 0x32AA SWAP1 CALLDATASIZE SWAP1 PUSH1 0x4 ADD PUSH2 0x3F02 JUMP JUMPDEST SWAP4 SWAP1 SWAP2 PUSH1 0xFF PUSH1 0x40 MLOAD DUP4 DUP4 DUP3 CALLDATACOPY PUSH1 0x20 DUP2 DUP6 DUP2 ADD PUSH1 0x4 DUP2 MSTORE SUB ADD SWAP1 KECCAK256 SLOAD AND ISZERO PUSH2 0x714 JUMPI PUSH1 0x20 SWAP1 DUP3 PUSH1 0x40 MLOAD SWAP4 DUP5 SWAP3 DUP4 CALLDATACOPY DUP2 ADD PUSH1 0x3 DUP2 MSTORE SUB ADD SWAP1 KECCAK256 SLOAD SWAP2 DUP3 PUSH1 0x0 MSTORE PUSH1 0x2 PUSH1 0x20 MSTORE PUSH32 0x71FB55C0CB0FD74783D23C772B2F895CB0C286E8E0FAB4F642555D8B1FFCE252 PUSH2 0x166 PUSH2 0x3327 PUSH1 0x1C PUSH1 0x40 PUSH1 0x0 KECCAK256 ADD PUSH1 0x40 MLOAD SWAP3 DUP4 DUP1 SWAP3 PUSH2 0x4443 JUMP JUMPDEST PUSH1 0x20 DUP2 MLOAD SWAP2 ADD KECCAK256 PUSH8 0x1058D8D95C1D1959 PUSH1 0xC2 SHL PUSH1 0x20 PUSH1 0x40 MLOAD PUSH2 0x3348 DUP2 PUSH2 0x44F5 JUMP JUMPDEST PUSH1 0x8 DUP2 MSTORE ADD MSTORE SUB PUSH2 0x702 JUMPI PUSH1 0xFF PUSH1 0x40 MLOAD DUP6 DUP5 DUP3 CALLDATACOPY PUSH1 0x20 DUP2 DUP8 DUP2 ADD PUSH1 0x4 DUP2 MSTORE SUB ADD SWAP1 KECCAK256 SLOAD AND PUSH2 0x6F0 JUMPI PUSH2 0x337B PUSH1 0x0 SLOAD PUSH2 0x42F9 JUMP JUMPDEST SWAP3 DUP4 PUSH1 0x0 SSTORE PUSH1 0x0 MSTORE PUSH1 0x2 PUSH1 0x20 MSTORE PUSH1 0x40 PUSH1 0x0 KECCAK256 DUP4 PUSH1 0x0 MSTORE PUSH1 0x40 PUSH1 0x0 KECCAK256 SWAP2 DUP5 DUP4 SSTORE DUP6 GT PUSH2 0x66A JUMPI PUSH2 0x33BA DUP6 PUSH2 0x33B1 PUSH1 0x1 DUP6 ADD SLOAD PUSH2 0x431E JUMP JUMPDEST PUSH1 0x1 DUP6 ADD PUSH2 0x4399 JUMP JUMPDEST DUP5 PUSH1 0x0 PUSH1 0x1F DUP3 GT PUSH1 0x1 EQ PUSH2 0x37C6 JUMPI SWAP3 PUSH1 0x1F DUP1 PUSH2 0x3768 SWAP5 PUSH1 0x0 DUP1 MLOAD PUSH1 0x20 PUSH2 0x48EA DUP4 CODECOPY DUP2 MLOAD SWAP2 MSTORE SWAP8 SWAP5 PUSH2 0x378C SWAP8 PUSH1 0x0 SWAP2 PUSH2 0x37BB JUMPI JUMPDEST POP DUP11 PUSH1 0x1 SHL SWAP1 PUSH1 0x0 NOT DUP13 PUSH1 0x3 SHL SHR NOT AND OR PUSH1 0x1 DUP6 ADD SSTORE JUMPDEST PUSH2 0x3414 PUSH1 0x2 DUP3 ADD PUSH1 0x2 DUP7 ADD PUSH2 0x4531 JUMP JUMPDEST PUSH1 0x3 DUP2 DUP2 ADD SLOAD SWAP1 DUP6 ADD DUP1 SLOAD PUSH1 0x1 PUSH1 0x1 PUSH1 0xA0 SHL SUB SWAP3 DUP4 AND PUSH1 0x1 PUSH1 0x1 PUSH1 0xA0 SHL SUB NOT SWAP2 DUP3 AND OR SWAP1 SWAP2 SSTORE PUSH1 0x4 DUP1 DUP5 ADD SLOAD SWAP1 DUP8 ADD DUP1 SLOAD SWAP2 SWAP1 SWAP4 AND SWAP2 AND OR SWAP1 SSTORE PUSH2 0x345E PUSH1 0x5 DUP1 DUP4 ADD SWAP1 DUP7 ADD PUSH2 0x4531 JUMP JUMPDEST PUSH2 0x346E PUSH1 0x6 DUP3 ADD PUSH1 0x6 DUP7 ADD PUSH2 0x4531 JUMP JUMPDEST PUSH2 0x347E PUSH1 0x7 DUP3 ADD PUSH1 0x7 DUP7 ADD PUSH2 0x4531 JUMP JUMPDEST PUSH2 0x348E PUSH1 0x8 DUP3 ADD PUSH1 0x8 DUP7 ADD PUSH2 0x4531 JUMP JUMPDEST PUSH2 0x349E PUSH1 0x9 DUP3 ADD PUSH1 0x9 DUP7 ADD PUSH2 0x4531 JUMP JUMPDEST PUSH2 0x34AE PUSH1 0xA DUP3 ADD PUSH1 0xA DUP7 ADD PUSH2 0x4531 JUMP JUMPDEST PUSH2 0x34BE PUSH1 0xB DUP3 ADD PUSH1 0xB DUP7 ADD PUSH2 0x4531 JUMP JUMPDEST PUSH1 0xC DUP2 ADD SLOAD PUSH1 0xC DUP6 ADD SSTORE PUSH1 0xD DUP2 ADD SLOAD PUSH1 0xD DUP6 ADD SSTORE PUSH2 0x34E2 PUSH1 0xE DUP3 ADD PUSH1 0xE DUP7 ADD PUSH2 0x4531 JUMP JUMPDEST PUSH2 0x34F2 PUSH1 0xF DUP3 ADD PUSH1 0xF DUP7 ADD PUSH2 0x4531 JUMP JUMPDEST PUSH2 0x3502 PUSH1 0x10 DUP3 ADD PUSH1 0x10 DUP7 ADD PUSH2 0x4531 JUMP JUMPDEST PUSH2 0x3512 PUSH1 0x11 DUP3 ADD PUSH1 0x11 DUP7 ADD PUSH2 0x4531 JUMP JUMPDEST PUSH2 0x3522 PUSH1 0x12 DUP3 ADD PUSH1 0x12 DUP7 ADD PUSH2 0x4531 JUMP JUMPDEST PUSH2 0x3532 PUSH1 0x13 DUP3 ADD PUSH1 0x13 DUP7 ADD PUSH2 0x4531 JUMP JUMPDEST PUSH2 0x3542 PUSH1 0x14 DUP3 ADD PUSH1 0x14 DUP7 ADD PUSH2 0x4531 JUMP JUMPDEST PUSH2 0x3552 PUSH1 0x15 DUP3 ADD PUSH1 0x15 DUP7 ADD PUSH2 0x4531 JUMP JUMPDEST PUSH2 0x3562 PUSH1 0x16 DUP3 ADD PUSH1 0x16 DUP7 ADD PUSH2 0x4531 JUMP JUMPDEST PUSH2 0x3572 PUSH1 0x17 DUP3 ADD PUSH1 0x17 DUP7 ADD PUSH2 0x4531 JUMP JUMPDEST PUSH2 0x3582 PUSH1 0x18 DUP3 ADD PUSH1 0x18 DUP7 ADD PUSH2 0x4531 JUMP JUMPDEST PUSH2 0x3592 PUSH1 0x19 DUP3 ADD PUSH1 0x19 DUP7 ADD PUSH2 0x4531 JUMP JUMPDEST PUSH2 0x35A2 PUSH1 0x1A DUP3 ADD PUSH1 0x1A DUP7 ADD PUSH2 0x4531 JUMP JUMPDEST PUSH1 0x1D DUP2 ADD SLOAD PUSH1 0x1D DUP6 ADD SSTORE ADD SLOAD SWAP2 ADD SSTORE DUP5 PUSH1 0x0 MSTORE PUSH1 0x2 PUSH1 0x20 MSTORE PUSH2 0x375A PUSH1 0x40 PUSH1 0x0 KECCAK256 SWAP2 PUSH2 0x35DC PUSH2 0x35D3 PUSH1 0x1C DUP6 ADD SLOAD PUSH2 0x431E JUMP JUMPDEST PUSH1 0x1C DUP6 ADD PUSH2 0x436F JUMP JUMPDEST PUSH1 0x12 PUSH9 0x10DBDB5C1B195D1959 PUSH1 0xBA SHL ADD PUSH1 0x1C DUP5 ADD SSTORE TIMESTAMP PUSH1 0x21 DUP5 ADD DUP2 SWAP1 SSTORE PUSH1 0x1E DUP5 ADD SSTORE PUSH1 0x23 DUP4 ADD DUP1 SLOAD PUSH1 0x1 PUSH1 0x1 PUSH1 0xA0 SHL SUB NOT AND CALLER OR SWAP1 SSTORE PUSH1 0x40 MLOAD DUP8 SWAP1 DUP10 DUP4 DUP3 CALLDATACOPY PUSH1 0x20 DUP2 DUP12 DUP2 ADD PUSH1 0x3 DUP2 MSTORE SUB ADD SWAP1 KECCAK256 SSTORE PUSH1 0x40 MLOAD DUP9 DUP3 DUP3 CALLDATACOPY PUSH1 0x20 DUP2 DUP11 DUP2 ADD PUSH1 0x4 DUP2 MSTORE SUB ADD SWAP1 KECCAK256 PUSH1 0x1 PUSH1 0xFF NOT DUP3 SLOAD AND OR SWAP1 SSTORE PUSH1 0x2 DUP4 ADD SWAP3 DUP8 PUSH2 0x3659 DUP6 PUSH2 0x460F JUMP JUMPDEST SSTORE PUSH2 0x3667 DUP9 PUSH2 0x4EB DUP7 PUSH2 0x46A2 JUMP JUMPDEST PUSH1 0x1 DUP1 PUSH1 0xA0 SHL SUB PUSH1 0x3 DUP3 ADD SLOAD AND DUP9 PUSH32 0x7EB090B0D076732E0E2C62254D3E200F4CEBCB162B68AB76D295F9DC10B543D7 DUP5 DUP13 PUSH2 0x373E PUSH1 0x1 DUP1 PUSH1 0xA0 SHL SUB PUSH1 0x4 DUP9 ADD SLOAD AND SWAP7 PUSH1 0x11 PUSH2 0x372E PUSH2 0x371D DUP14 PUSH1 0xC DUP6 ADD SLOAD SWAP1 PUSH2 0x3701 PUSH2 0x36EA PUSH1 0xD DUP9 ADD SLOAD SWAP3 PUSH2 0x36DC PUSH1 0x40 MLOAD SWAP13 DUP14 SWAP13 DUP14 PUSH2 0x140 SWAP1 DUP2 DUP2 MSTORE ADD SWAP2 PUSH2 0x4422 JUMP JUMPDEST SWAP1 DUP12 DUP3 SUB PUSH1 0x20 DUP14 ADD MSTORE PUSH2 0x4443 JUMP JUMPDEST CALLER PUSH1 0x40 DUP12 ADD MSTORE DUP10 DUP2 SUB PUSH1 0x60 DUP12 ADD MSTORE PUSH1 0xA DUP9 ADD PUSH2 0x4443 JUMP JUMPDEST SWAP2 PUSH1 0x80 DUP10 ADD MSTORE PUSH1 0xA0 DUP9 ADD MSTORE DUP7 DUP2 SUB PUSH1 0xC0 DUP9 ADD MSTORE PUSH1 0x9 DUP6 ADD PUSH2 0x4443 JUMP JUMPDEST DUP6 DUP2 SUB PUSH1 0xE0 DUP8 ADD MSTORE PUSH1 0x10 DUP5 ADD PUSH2 0x4443 JUMP JUMPDEST SWAP2 DUP5 DUP4 SUB PUSH2 0x100 DUP7 ADD MSTORE ADD PUSH2 0x4443 JUMP JUMPDEST TIMESTAMP PUSH2 0x120 DUP4 ADD MSTORE SUB SWAP1 LOG4 PUSH1 0x40 MLOAD SWAP8 PUSH1 0xA0 DUP10 MSTORE PUSH1 0xA0 DUP10 ADD SWAP2 PUSH2 0x4422 JUMP JUMPDEST SWAP1 DUP7 DUP3 SUB PUSH1 0x20 DUP9 ADD MSTORE PUSH2 0x4443 JUMP JUMPDEST DUP5 DUP2 SUB PUSH1 0x40 DUP7 ADD MSTORE PUSH1 0x40 SWAP1 PUSH1 0x8 DUP2 MSTORE PUSH8 0x1058D8D95C1D1959 PUSH1 0xC2 SHL PUSH1 0x20 DUP3 ADD MSTORE ADD SWAP1 JUMP JUMPDEST SWAP3 PUSH9 0x10DBDB5C1B195D1959 PUSH1 0xBA SHL PUSH1 0x20 DUP3 DUP7 SUB SWAP6 DUP7 PUSH1 0x60 DUP6 ADD MSTORE PUSH1 0x9 DUP2 MSTORE ADD MSTORE TIMESTAMP PUSH1 0x80 DUP3 ADD MSTORE PUSH1 0x40 CALLER SWAP5 ADD SWAP1 LOG3 STOP JUMPDEST SWAP1 POP DUP6 ADD CALLDATALOAD DUP12 PUSH2 0x33ED JUMP JUMPDEST SWAP1 POP PUSH1 0x1 DUP4 ADD PUSH1 0x0 MSTORE PUSH1 0x20 PUSH1 0x0 KECCAK256 SWAP1 PUSH1 0x0 JUMPDEST PUSH1 0x1F NOT DUP9 AND DUP2 LT PUSH2 0x3838 JUMPI POP SWAP3 PUSH1 0x1F DUP1 PUSH2 0x3768 SWAP5 PUSH1 0x0 DUP1 MLOAD PUSH1 0x20 PUSH2 0x48EA DUP4 CODECOPY DUP2 MLOAD SWAP2 MSTORE SWAP8 SWAP5 PUSH2 0x378C SWAP8 DUP12 DUP5 NOT DUP2 AND LT PUSH2 0x381E JUMPI JUMPDEST POP POP PUSH1 0x1 DUP11 DUP2 SHL ADD PUSH1 0x1 DUP6 ADD SSTORE PUSH2 0x3404 JUMP JUMPDEST DUP7 ADD CALLDATALOAD PUSH1 0x0 NOT PUSH1 0x3 DUP14 SWAP1 SHL PUSH1 0xF8 AND SHR NOT AND SWAP1 SSTORE DUP11 DUP1 PUSH2 0x380C JUMP JUMPDEST SWAP1 SWAP2 PUSH1 0x20 PUSH1 0x1 DUP2 SWAP3 DUP6 DUP10 ADD CALLDATALOAD DUP2 SSTORE ADD SWAP4 ADD SWAP2 ADD PUSH2 0x37D8 JUMP JUMPDEST CALLVALUE PUSH2 0x726 JUMPI PUSH1 0x20 DUP1 PUSH1 0x3 NOT CALLDATASIZE ADD SLT PUSH2 0x726 JUMPI PUSH1 0x4 CALLDATALOAD PUSH1 0x1 PUSH1 0x1 PUSH1 0x40 SHL SUB DUP2 GT PUSH2 0x726 JUMPI PUSH2 0x3881 SWAP1 CALLDATASIZE SWAP1 PUSH1 0x4 ADD PUSH2 0x3F02 JUMP JUMPDEST PUSH1 0xFF PUSH1 0x40 SWAP4 SWAP3 SWAP4 MLOAD DUP3 DUP6 DUP3 CALLDATACOPY DUP4 DUP2 DUP5 DUP2 ADD PUSH1 0x4 DUP2 MSTORE SUB ADD SWAP1 KECCAK256 SLOAD AND ISZERO PUSH2 0x714 JUMPI DUP2 PUSH2 0x38D8 SWAP4 DUP3 PUSH1 0x40 MLOAD SWAP4 DUP5 SWAP3 DUP4 CALLDATACOPY DUP2 ADD PUSH1 0x3 DUP2 MSTORE SUB ADD SWAP1 KECCAK256 SLOAD PUSH1 0x0 MSTORE PUSH1 0x2 DUP2 MSTORE PUSH2 0x38DF PUSH1 0x1C PUSH1 0x40 PUSH1 0x0 KECCAK256 ADD PUSH1 0x40 MLOAD SWAP4 DUP5 DUP1 SWAP3 PUSH2 0x4443 JUMP JUMPDEST SUB DUP4 PUSH2 0x4510 JUMP JUMPDEST PUSH2 0xAB7 PUSH1 0x40 MLOAD SWAP3 DUP3 DUP5 SWAP4 DUP5 MSTORE DUP4 ADD SWAP1 PUSH2 0x3F2F JUMP JUMPDEST CALLVALUE PUSH2 0x726 JUMPI PUSH1 0x20 DUP1 PUSH1 0x3 NOT CALLDATASIZE ADD SLT PUSH2 0x726 JUMPI PUSH1 0x4 CALLDATALOAD PUSH1 0x1 PUSH1 0x1 PUSH1 0x40 SHL SUB DUP2 GT PUSH2 0x726 JUMPI PUSH2 0x3924 SWAP1 CALLDATASIZE SWAP1 PUSH1 0x4 ADD PUSH2 0x3F02 JUMP JUMPDEST DUP1 PUSH1 0x40 MLOAD SWAP3 DUP4 CALLDATACOPY DUP2 ADD SWAP1 DUP3 DUP2 PUSH1 0x6 SWAP4 DUP5 DUP2 MSTORE SUB ADD SWAP1 KECCAK256 SWAP1 PUSH1 0x40 MLOAD DUP1 DUP4 DUP6 DUP3 SWAP6 SLOAD SWAP4 DUP5 DUP2 MSTORE ADD SWAP1 PUSH1 0x0 MSTORE DUP6 PUSH1 0x0 KECCAK256 SWAP3 PUSH1 0x0 JUMPDEST DUP8 DUP3 DUP3 LT PUSH2 0x3D5C JUMPI POP POP POP PUSH2 0x396C SWAP3 POP SUB DUP4 PUSH2 0x4510 JUMP JUMPDEST DUP2 MLOAD SWAP1 PUSH2 0x3978 DUP3 PUSH2 0x48BE JUMP JUMPDEST SWAP2 PUSH2 0x3986 PUSH1 0x40 MLOAD SWAP4 DUP5 PUSH2 0x4510 JUMP JUMPDEST DUP1 DUP4 MSTORE PUSH2 0x3995 PUSH1 0x1F NOT SWAP2 PUSH2 0x48BE JUMP JUMPDEST ADD DUP5 PUSH1 0x0 JUMPDEST DUP3 DUP2 LT PUSH2 0x3D46 JUMPI POP POP POP PUSH1 0x0 JUMPDEST DUP4 MLOAD DUP2 LT ISZERO PUSH2 0x3CE8 JUMPI DUP1 PUSH2 0x39BE PUSH2 0x3CE3 SWAP3 DUP7 PUSH2 0x48D5 JUMP JUMPDEST MLOAD PUSH1 0x0 MSTORE PUSH1 0x2 DUP1 DUP8 MSTORE PUSH1 0x40 PUSH1 0x0 KECCAK256 PUSH2 0x166 PUSH2 0x3A09 PUSH1 0x40 MLOAD SWAP4 PUSH2 0x39DF DUP6 PUSH2 0x44D9 JUMP JUMPDEST DUP4 SLOAD DUP6 MSTORE PUSH1 0x40 MLOAD PUSH2 0x39F7 DUP2 PUSH2 0x166 DUP2 PUSH1 0x1 DUP10 ADD PUSH2 0x4443 JUMP JUMPDEST DUP12 DUP7 ADD MSTORE PUSH1 0x40 MLOAD SWAP3 DUP4 DUP1 SWAP3 DUP7 ADD PUSH2 0x4443 JUMP JUMPDEST PUSH1 0x40 DUP4 ADD MSTORE PUSH1 0x23 PUSH1 0x1 DUP1 PUSH1 0xA0 SHL SUB SWAP2 DUP3 PUSH1 0x3 DUP3 ADD SLOAD AND PUSH1 0x60 DUP6 ADD MSTORE DUP3 PUSH1 0x4 DUP3 ADD SLOAD AND PUSH1 0x80 DUP6 ADD MSTORE PUSH1 0x40 MLOAD PUSH2 0x3A44 DUP2 PUSH2 0x166 DUP2 PUSH1 0x5 DUP7 ADD PUSH2 0x4443 JUMP JUMPDEST PUSH1 0xA0 DUP6 ADD MSTORE PUSH1 0x40 MLOAD PUSH2 0x3A5C DUP2 PUSH2 0x166 DUP2 DUP12 DUP7 ADD PUSH2 0x4443 JUMP JUMPDEST PUSH1 0xC0 DUP6 ADD MSTORE PUSH1 0x40 MLOAD PUSH2 0x3A75 DUP2 PUSH2 0x166 DUP2 PUSH1 0x7 DUP7 ADD PUSH2 0x4443 JUMP JUMPDEST PUSH1 0xE0 DUP6 ADD MSTORE PUSH1 0x40 MLOAD PUSH2 0x3A8E DUP2 PUSH2 0x166 DUP2 PUSH1 0x8 DUP7 ADD PUSH2 0x4443 JUMP JUMPDEST PUSH2 0x100 DUP6 ADD MSTORE PUSH1 0x40 MLOAD PUSH2 0x3AA8 DUP2 PUSH2 0x166 DUP2 PUSH1 0x9 DUP7 ADD PUSH2 0x4443 JUMP JUMPDEST PUSH2 0x120 DUP6 ADD MSTORE PUSH1 0x40 MLOAD PUSH2 0x3AC2 DUP2 PUSH2 0x166 DUP2 PUSH1 0xA DUP7 ADD PUSH2 0x4443 JUMP JUMPDEST PUSH2 0x140 DUP6 ADD MSTORE PUSH1 0x40 MLOAD PUSH2 0x3ADC DUP2 PUSH2 0x166 DUP2 PUSH1 0xB DUP7 ADD PUSH2 0x4443 JUMP JUMPDEST PUSH2 0x160 DUP6 ADD MSTORE PUSH1 0xC DUP2 ADD SLOAD PUSH2 0x180 DUP6 ADD MSTORE PUSH1 0xD DUP2 ADD SLOAD PUSH2 0x1A0 DUP6 ADD MSTORE PUSH1 0x40 MLOAD PUSH2 0x3B0C DUP2 PUSH2 0x166 DUP2 PUSH1 0xE DUP7 ADD PUSH2 0x4443 JUMP JUMPDEST PUSH2 0x1C0 DUP6 ADD MSTORE PUSH1 0x40 MLOAD PUSH2 0x3B26 DUP2 PUSH2 0x166 DUP2 PUSH1 0xF DUP7 ADD PUSH2 0x4443 JUMP JUMPDEST PUSH2 0x1E0 DUP6 ADD MSTORE PUSH1 0x40 MLOAD PUSH2 0x3B40 DUP2 PUSH2 0x166 DUP2 PUSH1 0x10 DUP7 ADD PUSH2 0x4443 JUMP JUMPDEST PUSH2 0x200 DUP6 ADD MSTORE PUSH1 0x40 MLOAD PUSH2 0x3B5A DUP2 PUSH2 0x166 DUP2 PUSH1 0x11 DUP7 ADD PUSH2 0x4443 JUMP JUMPDEST PUSH2 0x220 DUP6 ADD MSTORE PUSH1 0x40 MLOAD PUSH2 0x3B74 DUP2 PUSH2 0x166 DUP2 PUSH1 0x12 DUP7 ADD PUSH2 0x4443 JUMP JUMPDEST PUSH2 0x240 DUP6 ADD MSTORE PUSH1 0x40 MLOAD PUSH2 0x3B8E DUP2 PUSH2 0x166 DUP2 PUSH1 0x13 DUP7 ADD PUSH2 0x4443 JUMP JUMPDEST PUSH2 0x260 DUP6 ADD MSTORE PUSH1 0x40 MLOAD PUSH2 0x3BA8 DUP2 PUSH2 0x166 DUP2 PUSH1 0x14 DUP7 ADD PUSH2 0x4443 JUMP JUMPDEST PUSH2 0x280 DUP6 ADD MSTORE PUSH1 0x40 MLOAD PUSH2 0x3BC2 DUP2 PUSH2 0x166 DUP2 PUSH1 0x15 DUP7 ADD PUSH2 0x4443 JUMP JUMPDEST PUSH2 0x2A0 DUP6 ADD MSTORE PUSH1 0x40 MLOAD PUSH2 0x3BDC DUP2 PUSH2 0x166 DUP2 PUSH1 0x16 DUP7 ADD PUSH2 0x4443 JUMP JUMPDEST PUSH2 0x2C0 DUP6 ADD MSTORE PUSH1 0x40 MLOAD PUSH2 0x3BF6 DUP2 PUSH2 0x166 DUP2 PUSH1 0x17 DUP7 ADD PUSH2 0x4443 JUMP JUMPDEST PUSH2 0x2E0 DUP6 ADD MSTORE PUSH1 0x40 MLOAD PUSH2 0x3C10 DUP2 PUSH2 0x166 DUP2 PUSH1 0x18 DUP7 ADD PUSH2 0x4443 JUMP JUMPDEST PUSH2 0x300 DUP6 ADD MSTORE PUSH1 0x40 MLOAD PUSH2 0x3C2A DUP2 PUSH2 0x166 DUP2 PUSH1 0x19 DUP7 ADD PUSH2 0x4443 JUMP JUMPDEST PUSH2 0x320 DUP6 ADD MSTORE PUSH1 0x40 MLOAD PUSH2 0x3C44 DUP2 PUSH2 0x166 DUP2 PUSH1 0x1A DUP7 ADD PUSH2 0x4443 JUMP JUMPDEST PUSH2 0x340 DUP6 ADD MSTORE PUSH1 0x40 MLOAD PUSH2 0x3C5E DUP2 PUSH2 0x166 DUP2 PUSH1 0x1B DUP7 ADD PUSH2 0x4443 JUMP JUMPDEST PUSH2 0x360 DUP6 ADD MSTORE PUSH1 0x40 MLOAD PUSH2 0x3C78 DUP2 PUSH2 0x166 DUP2 PUSH1 0x1C DUP7 ADD PUSH2 0x4443 JUMP JUMPDEST PUSH2 0x380 DUP6 ADD MSTORE PUSH1 0x1D DUP2 ADD SLOAD PUSH2 0x3A0 DUP6 ADD MSTORE PUSH1 0x1E DUP2 ADD SLOAD PUSH2 0x3C0 DUP6 ADD MSTORE PUSH1 0x1F DUP2 ADD SLOAD PUSH2 0x3E0 DUP6 ADD MSTORE DUP10 DUP2 ADD SLOAD PUSH2 0x400 DUP6 ADD MSTORE PUSH1 0x21 DUP2 ADD SLOAD PUSH2 0x420 DUP6 ADD MSTORE PUSH1 0x22 DUP2 ADD SLOAD PUSH2 0x440 DUP6 ADD MSTORE ADD SLOAD AND PUSH2 0x460 DUP3 ADD MSTORE PUSH2 0x3CD2 DUP3 DUP7 PUSH2 0x48D5 JUMP JUMPDEST MSTORE PUSH2 0x3CDD DUP2 DUP6 PUSH2 0x48D5 JUMP JUMPDEST POP PUSH2 0x42F9 JUMP JUMPDEST PUSH2 0x39A7 JUMP JUMPDEST PUSH1 0x40 DUP1 MLOAD DUP7 DUP2 MSTORE DUP5 MLOAD DUP2 DUP9 ADD DUP2 SWAP1 MSTORE PUSH1 0x0 SWAP3 PUSH1 0x5 DUP3 SWAP1 SHL DUP4 ADD DUP2 ADD SWAP2 DUP8 DUP11 ADD SWAP2 DUP11 SWAP1 DUP6 ADD JUMPDEST DUP3 DUP8 LT PUSH2 0x3D1A JUMPI DUP6 DUP6 SUB DUP7 RETURN JUMPDEST SWAP1 SWAP2 SWAP3 SWAP4 DUP3 DUP1 PUSH2 0x3D36 PUSH1 0x1 SWAP4 PUSH1 0x3F NOT DUP11 DUP3 SUB ADD DUP7 MSTORE DUP9 MLOAD PUSH2 0x3F6F JUMP JUMPDEST SWAP7 ADD SWAP3 ADD SWAP7 ADD SWAP6 SWAP3 SWAP2 SWAP1 SWAP3 PUSH2 0x3D0D JUMP JUMPDEST PUSH2 0x3D4E PUSH2 0x47BC JUMP JUMPDEST DUP3 DUP3 DUP8 ADD ADD MSTORE ADD DUP6 SWAP1 PUSH2 0x399A JUMP JUMPDEST DUP6 SLOAD DUP5 MSTORE PUSH1 0x1 SWAP6 DUP7 ADD SWAP6 DUP9 SWAP6 POP SWAP4 ADD SWAP3 ADD PUSH2 0x3955 JUMP JUMPDEST CALLVALUE PUSH2 0x726 JUMPI PUSH1 0x0 CALLDATASIZE PUSH1 0x3 NOT ADD SLT PUSH2 0x726 JUMPI PUSH1 0x20 PUSH1 0x40 MLOAD PUSH2 0x1F4 DUP2 MSTORE RETURN JUMPDEST CALLVALUE PUSH2 0x726 JUMPI PUSH1 0x20 DUP1 PUSH1 0x3 NOT CALLDATASIZE ADD SLT PUSH2 0x726 JUMPI PUSH2 0x3DA9 PUSH2 0x47BC JUMP JUMPDEST POP PUSH1 0x4 CALLDATALOAD PUSH1 0x0 MSTORE PUSH1 0x2 DUP2 MSTORE PUSH1 0x40 PUSH1 0x0 KECCAK256 SWAP1 PUSH1 0x40 MLOAD SWAP2 PUSH2 0x7B3 DUP4 PUSH2 0x44D9 JUMP JUMPDEST CALLVALUE PUSH2 0x726 JUMPI PUSH1 0x0 CALLDATASIZE PUSH1 0x3 NOT ADD SLT PUSH2 0x726 JUMPI PUSH1 0x20 PUSH1 0x0 SLOAD PUSH1 0x40 MLOAD SWAP1 DUP2 MSTORE RETURN JUMPDEST CALLVALUE PUSH2 0x726 JUMPI PUSH1 0x20 DUP1 PUSH1 0x3 NOT CALLDATASIZE ADD SLT PUSH2 0x726 JUMPI PUSH1 0x4 CALLDATALOAD PUSH1 0x1 PUSH1 0x1 PUSH1 0x40 SHL SUB DUP2 GT PUSH2 0x726 JUMPI PUSH2 0x3E17 DUP3 SWAP2 CALLDATASIZE SWAP1 PUSH1 0x4 ADD PUSH2 0x3F02 JUMP JUMPDEST SWAP2 SWAP1 DUP3 PUSH1 0x40 MLOAD SWAP4 DUP5 SWAP3 DUP4 CALLDATACOPY DUP2 ADD PUSH1 0x6 DUP2 MSTORE SUB ADD SWAP1 KECCAK256 PUSH1 0x40 MLOAD SWAP1 DUP2 DUP4 DUP3 SLOAD SWAP2 DUP3 DUP2 MSTORE ADD SWAP1 DUP2 SWAP3 PUSH1 0x0 MSTORE DUP5 PUSH1 0x0 KECCAK256 SWAP1 PUSH1 0x0 JUMPDEST DUP7 DUP3 DUP3 LT PUSH2 0x3E9D JUMPI DUP7 DUP7 PUSH2 0x3E5D DUP3 DUP9 SUB DUP4 PUSH2 0x4510 JUMP JUMPDEST PUSH1 0x40 MLOAD SWAP3 DUP4 SWAP3 DUP2 DUP5 ADD SWAP1 DUP3 DUP6 MSTORE MLOAD DUP1 SWAP2 MSTORE PUSH1 0x40 DUP5 ADD SWAP3 SWAP2 PUSH1 0x0 JUMPDEST DUP3 DUP2 LT PUSH2 0x3E86 JUMPI POP POP POP POP SUB SWAP1 RETURN JUMPDEST DUP4 MLOAD DUP6 MSTORE DUP7 SWAP6 POP SWAP4 DUP2 ADD SWAP4 SWAP3 DUP2 ADD SWAP3 PUSH1 0x1 ADD PUSH2 0x3E77 JUMP JUMPDEST DUP4 SLOAD DUP6 MSTORE SWAP1 SWAP4 ADD SWAP3 PUSH1 0x1 SWAP3 DUP4 ADD SWAP3 ADD PUSH2 0x3E47 JUMP JUMPDEST CALLVALUE PUSH2 0x726 JUMPI PUSH1 0x20 CALLDATASIZE PUSH1 0x3 NOT ADD SLT PUSH2 0x726 JUMPI PUSH1 0x4 CALLDATALOAD PUSH1 0x1 PUSH1 0x1 PUSH1 0x40 SHL SUB DUP2 GT PUSH2 0x726 JUMPI DUP2 PUSH1 0x20 DUP1 SWAP4 PUSH2 0x3EE8 PUSH1 0xFF SWAP5 CALLDATASIZE SWAP1 PUSH1 0x4 ADD PUSH2 0x3F02 JUMP JUMPDEST DUP1 SWAP2 DUP4 CALLDATACOPY DUP2 ADD PUSH1 0x4 DUP2 MSTORE SUB ADD SWAP1 KECCAK256 SLOAD AND PUSH1 0x40 MLOAD SWAP1 ISZERO ISZERO DUP2 MSTORE RETURN JUMPDEST SWAP2 DUP2 PUSH1 0x1F DUP5 ADD SLT ISZERO PUSH2 0x726 JUMPI DUP3 CALLDATALOAD SWAP2 PUSH1 0x1 PUSH1 0x1 PUSH1 0x40 SHL SUB DUP4 GT PUSH2 0x726 JUMPI PUSH1 0x20 DUP4 DUP2 DUP7 ADD SWAP6 ADD ADD GT PUSH2 0x726 JUMPI JUMP JUMPDEST SWAP2 SWAP1 DUP3 MLOAD SWAP3 DUP4 DUP3 MSTORE PUSH1 0x0 JUMPDEST DUP5 DUP2 LT PUSH2 0x3F5B JUMPI POP POP DUP3 PUSH1 0x0 PUSH1 0x20 DUP1 SWAP5 SWAP6 DUP5 ADD ADD MSTORE PUSH1 0x1F DUP1 NOT SWAP2 ADD AND ADD ADD SWAP1 JUMP JUMPDEST PUSH1 0x20 DUP2 DUP4 ADD DUP2 ADD MLOAD DUP5 DUP4 ADD DUP3 ADD MSTORE ADD PUSH2 0x3F3A JUMP JUMPDEST SWAP1 DUP2 MLOAD DUP2 MSTORE PUSH1 0x20 DUP3 ADD MLOAD PUSH2 0x480 DUP1 PUSH1 0x20 DUP5 ADD MSTORE DUP3 ADD PUSH2 0x3F8D SWAP2 PUSH2 0x3F2F JUMP JUMPDEST PUSH1 0x40 DUP4 ADD MLOAD SWAP1 DUP3 DUP2 SUB PUSH1 0x40 DUP5 ADD MSTORE PUSH2 0x3FA4 SWAP2 PUSH2 0x3F2F JUMP JUMPDEST SWAP2 PUSH1 0x1 PUSH1 0xA0 SHL PUSH1 0x1 SWAP1 SUB SWAP3 DUP4 PUSH1 0x60 DUP4 ADD MLOAD AND PUSH1 0x60 DUP5 ADD MSTORE DUP4 PUSH1 0x80 DUP4 ADD MLOAD AND PUSH1 0x80 DUP5 ADD MSTORE PUSH1 0xA0 DUP3 ADD MLOAD SWAP1 DUP4 DUP2 SUB PUSH1 0xA0 DUP6 ADD MSTORE PUSH2 0x3FDE SWAP2 PUSH2 0x3F2F JUMP JUMPDEST PUSH1 0xC0 DUP3 ADD MLOAD SWAP1 DUP4 DUP2 SUB PUSH1 0xC0 DUP6 ADD MSTORE PUSH2 0x3FF5 SWAP2 PUSH2 0x3F2F JUMP JUMPDEST PUSH1 0xE0 DUP3 ADD MLOAD SWAP1 DUP4 DUP2 SUB PUSH1 0xE0 DUP6 ADD MSTORE PUSH2 0x400C SWAP2 PUSH2 0x3F2F JUMP JUMPDEST PUSH2 0x100 SWAP1 DUP2 DUP4 ADD MLOAD SWAP2 DUP5 DUP3 SUB SWAP1 DUP6 ADD MSTORE PUSH2 0x4025 SWAP2 PUSH2 0x3F2F JUMP JUMPDEST PUSH2 0x120 SWAP1 DUP2 DUP4 ADD MLOAD SWAP2 DUP5 DUP3 SUB SWAP1 DUP6 ADD MSTORE PUSH2 0x403E SWAP2 PUSH2 0x3F2F JUMP JUMPDEST PUSH2 0x140 SWAP1 DUP2 DUP4 ADD MLOAD SWAP2 DUP5 DUP3 SUB SWAP1 DUP6 ADD MSTORE PUSH2 0x4057 SWAP2 PUSH2 0x3F2F JUMP JUMPDEST PUSH2 0x160 SWAP1 DUP2 DUP4 ADD MLOAD SWAP2 DUP5 DUP3 SUB SWAP1 DUP6 ADD MSTORE PUSH2 0x4070 SWAP2 PUSH2 0x3F2F JUMP JUMPDEST PUSH2 0x180 DUP1 DUP4 ADD MLOAD SWAP1 DUP5 ADD MSTORE PUSH2 0x1A0 DUP1 DUP4 ADD MLOAD SWAP1 DUP5 ADD MSTORE PUSH2 0x1C0 SWAP1 DUP2 DUP4 ADD MLOAD SWAP2 DUP5 DUP3 SUB SWAP1 DUP6 ADD MSTORE PUSH2 0x409F SWAP2 PUSH2 0x3F2F JUMP JUMPDEST PUSH2 0x1E0 SWAP1 DUP2 DUP4 ADD MLOAD SWAP2 DUP5 DUP3 SUB SWAP1 DUP6 ADD MSTORE PUSH2 0x40B8 SWAP2 PUSH2 0x3F2F JUMP JUMPDEST PUSH2 0x200 SWAP1 DUP2 DUP4 ADD MLOAD SWAP2 DUP5 DUP3 SUB SWAP1 DUP6 ADD MSTORE PUSH2 0x40D1 SWAP2 PUSH2 0x3F2F JUMP JUMPDEST PUSH2 0x220 SWAP1 DUP2 DUP4 ADD MLOAD SWAP2 DUP5 DUP3 SUB SWAP1 DUP6 ADD MSTORE PUSH2 0x40EA SWAP2 PUSH2 0x3F2F JUMP JUMPDEST PUSH2 0x240 SWAP1 DUP2 DUP4 ADD MLOAD SWAP2 DUP5 DUP3 SUB SWAP1 DUP6 ADD MSTORE PUSH2 0x4103 SWAP2 PUSH2 0x3F2F JUMP JUMPDEST PUSH2 0x260 SWAP1 DUP2 DUP4 ADD MLOAD SWAP2 DUP5 DUP3 SUB SWAP1 DUP6 ADD MSTORE PUSH2 0x411C SWAP2 PUSH2 0x3F2F JUMP JUMPDEST PUSH2 0x280 SWAP1 DUP2 DUP4 ADD MLOAD SWAP2 DUP5 DUP3 SUB SWAP1 DUP6 ADD MSTORE PUSH2 0x4135 SWAP2 PUSH2 0x3F2F JUMP JUMPDEST PUSH2 0x2A0 SWAP1 DUP2 DUP4 ADD MLOAD SWAP2 DUP5 DUP3 SUB SWAP1 DUP6 ADD MSTORE PUSH2 0x414E SWAP2 PUSH2 0x3F2F JUMP JUMPDEST PUSH2 0x2C0 SWAP1 DUP2 DUP4 ADD MLOAD SWAP2 DUP5 DUP3 SUB SWAP1 DUP6 ADD MSTORE PUSH2 0x4167 SWAP2 PUSH2 0x3F2F JUMP JUMPDEST PUSH2 0x2E0 SWAP1 DUP2 DUP4 ADD MLOAD SWAP2 DUP5 DUP3 SUB SWAP1 DUP6 ADD MSTORE PUSH2 0x4180 SWAP2 PUSH2 0x3F2F JUMP JUMPDEST PUSH2 0x300 SWAP1 DUP2 DUP4 ADD MLOAD SWAP2 DUP5 DUP3 SUB SWAP1 DUP6 ADD MSTORE PUSH2 0x4199 SWAP2 PUSH2 0x3F2F JUMP JUMPDEST PUSH2 0x320 SWAP1 DUP2 DUP4 ADD MLOAD SWAP2 DUP5 DUP3 SUB SWAP1 DUP6 ADD MSTORE PUSH2 0x41B2 SWAP2 PUSH2 0x3F2F JUMP JUMPDEST PUSH2 0x340 SWAP1 DUP2 DUP4 ADD MLOAD SWAP2 DUP5 DUP3 SUB SWAP1 DUP6 ADD MSTORE PUSH2 0x41CB SWAP2 PUSH2 0x3F2F JUMP JUMPDEST PUSH2 0x360 SWAP1 DUP2 DUP4 ADD MLOAD SWAP2 DUP5 DUP3 SUB SWAP1 DUP6 ADD MSTORE PUSH2 0x41E4 SWAP2 PUSH2 0x3F2F JUMP JUMPDEST PUSH2 0x380 SWAP1 DUP2 DUP4 ADD MLOAD SWAP2 DUP5 DUP3 SUB SWAP1 DUP6 ADD MSTORE PUSH2 0x41FD SWAP2 PUSH2 0x3F2F JUMP JUMPDEST SWAP3 PUSH2 0x3A0 DUP1 DUP4 ADD MLOAD SWAP1 DUP5 ADD MSTORE PUSH2 0x3C0 DUP1 DUP4 ADD MLOAD SWAP1 DUP5 ADD MSTORE PUSH2 0x3E0 DUP1 DUP4 ADD MLOAD SWAP1 DUP5 ADD MSTORE PUSH2 0x400 DUP1 DUP4 ADD MLOAD SWAP1 DUP5 ADD MSTORE PUSH2 0x420 DUP1 DUP4 ADD MLOAD SWAP1 DUP5 ADD MSTORE PUSH2 0x440 DUP1 DUP4 ADD MLOAD SWAP1 DUP5 ADD MSTORE PUSH2 0x460 DUP1 SWAP3 ADD MLOAD AND SWAP2 ADD MSTORE SWAP1 JUMP JUMPDEST SWAP1 PUSH1 0x60 PUSH1 0x3 NOT DUP4 ADD SLT PUSH2 0x726 JUMPI PUSH1 0x1 PUSH1 0x1 PUSH1 0x40 SHL SUB PUSH1 0x4 CALLDATALOAD DUP2 DUP2 GT PUSH2 0x726 JUMPI DUP4 PUSH2 0x427A SWAP2 PUSH1 0x4 ADD PUSH2 0x3F02 JUMP JUMPDEST SWAP4 SWAP1 SWAP4 SWAP3 PUSH1 0x24 CALLDATALOAD DUP4 DUP2 GT PUSH2 0x726 JUMPI DUP3 PUSH2 0x4295 SWAP2 PUSH1 0x4 ADD PUSH2 0x3F02 JUMP JUMPDEST SWAP4 SWAP1 SWAP4 SWAP3 PUSH1 0x44 CALLDATALOAD SWAP2 DUP3 GT PUSH2 0x726 JUMPI PUSH2 0x42AF SWAP2 PUSH1 0x4 ADD PUSH2 0x3F02 JUMP JUMPDEST SWAP1 SWAP2 JUMP JUMPDEST CALLDATALOAD PUSH1 0x1 PUSH1 0x1 PUSH1 0xA0 SHL SUB DUP2 AND DUP2 SUB PUSH2 0x726 JUMPI SWAP1 JUMP JUMPDEST SWAP1 CALLDATALOAD SWAP1 PUSH1 0x1E NOT DUP2 CALLDATASIZE SUB ADD DUP3 SLT ISZERO PUSH2 0x726 JUMPI ADD DUP1 CALLDATALOAD SWAP1 PUSH1 0x1 PUSH1 0x1 PUSH1 0x40 SHL SUB DUP3 GT PUSH2 0x726 JUMPI PUSH1 0x20 ADD SWAP2 DUP2 CALLDATASIZE SUB DUP4 SGT PUSH2 0x726 JUMPI JUMP JUMPDEST PUSH1 0x0 NOT DUP2 EQ PUSH2 0x4308 JUMPI PUSH1 0x1 ADD SWAP1 JUMP JUMPDEST PUSH4 0x4E487B71 PUSH1 0xE0 SHL PUSH1 0x0 MSTORE PUSH1 0x11 PUSH1 0x4 MSTORE PUSH1 0x24 PUSH1 0x0 REVERT JUMPDEST SWAP1 PUSH1 0x1 DUP3 DUP2 SHR SWAP3 AND DUP1 ISZERO PUSH2 0x434E JUMPI JUMPDEST PUSH1 0x20 DUP4 LT EQ PUSH2 0x4338 JUMPI JUMP JUMPDEST PUSH4 0x4E487B71 PUSH1 0xE0 SHL PUSH1 0x0 MSTORE PUSH1 0x22 PUSH1 0x4 MSTORE PUSH1 0x24 PUSH1 0x0 REVERT JUMPDEST SWAP2 PUSH1 0x7F AND SWAP2 PUSH2 0x432D JUMP JUMPDEST DUP2 DUP2 LT PUSH2 0x4363 JUMPI POP POP JUMP JUMPDEST PUSH1 0x0 DUP2 SSTORE PUSH1 0x1 ADD PUSH2 0x4358 JUMP JUMPDEST SWAP1 PUSH1 0x1F DUP2 GT PUSH2 0x437C JUMPI POP POP JUMP JUMPDEST PUSH2 0x4397 SWAP2 PUSH1 0x0 MSTORE PUSH1 0x1F PUSH1 0x20 PUSH1 0x0 KECCAK256 SWAP2 ADD PUSH1 0x5 SHR DUP2 ADD SWAP1 PUSH2 0x4358 JUMP JUMPDEST JUMP JUMPDEST SWAP2 SWAP1 PUSH1 0x1F DUP2 GT PUSH2 0x43A8 JUMPI POP POP POP JUMP JUMPDEST PUSH2 0x4397 SWAP3 PUSH1 0x0 MSTORE PUSH1 0x20 PUSH1 0x0 KECCAK256 SWAP1 PUSH1 0x20 PUSH1 0x1F DUP5 ADD PUSH1 0x5 SHR DUP4 ADD SWAP4 LT PUSH2 0x43D4 JUMPI JUMPDEST PUSH1 0x1F ADD PUSH1 0x5 SHR ADD SWAP1 PUSH2 0x4358 JUMP JUMPDEST SWAP1 SWAP2 POP DUP2 SWAP1 PUSH2 0x43C7 JUMP JUMPDEST DUP1 SLOAD SWAP1 PUSH9 0x10000000000000000 DUP3 LT ISZERO PUSH2 0x66A JUMPI PUSH1 0x1 DUP3 ADD DUP1 DUP3 SSTORE DUP3 LT ISZERO PUSH2 0x440C JUMPI PUSH1 0x0 MSTORE PUSH1 0x20 PUSH1 0x0 KECCAK256 ADD SSTORE JUMP JUMPDEST PUSH4 0x4E487B71 PUSH1 0xE0 SHL PUSH1 0x0 MSTORE PUSH1 0x32 PUSH1 0x4 MSTORE PUSH1 0x24 PUSH1 0x0 REVERT JUMPDEST SWAP1 DUP1 PUSH1 0x20 SWAP4 SWAP3 DUP2 DUP5 MSTORE DUP5 DUP5 ADD CALLDATACOPY PUSH1 0x0 DUP3 DUP3 ADD DUP5 ADD MSTORE PUSH1 0x1F ADD PUSH1 0x1F NOT AND ADD ADD SWAP1 JUMP JUMPDEST SWAP1 PUSH1 0x0 SWAP3 SWAP2 DUP1 SLOAD SWAP2 PUSH2 0x4454 DUP4 PUSH2 0x431E JUMP JUMPDEST SWAP2 DUP3 DUP3 MSTORE PUSH1 0x1 SWAP4 DUP5 DUP2 AND SWAP1 DUP2 PUSH1 0x0 EQ PUSH2 0x44B6 JUMPI POP PUSH1 0x1 EQ PUSH2 0x4476 JUMPI JUMPDEST POP POP POP POP JUMP JUMPDEST SWAP1 SWAP2 SWAP4 SWAP5 POP PUSH1 0x0 MSTORE PUSH1 0x20 SWAP3 DUP4 PUSH1 0x0 KECCAK256 SWAP3 DUP5 PUSH1 0x0 SWAP5 JUMPDEST DUP4 DUP7 LT PUSH2 0x44A2 JUMPI POP POP POP POP ADD ADD SWAP1 CODESIZE DUP1 DUP1 DUP1 PUSH2 0x4470 JUMP JUMPDEST DUP1 SLOAD DUP6 DUP8 ADD DUP4 ADD MSTORE SWAP5 ADD SWAP4 DUP6 SWAP1 DUP3 ADD PUSH2 0x448B JUMP JUMPDEST SWAP3 SWAP5 POP POP POP PUSH1 0x20 SWAP4 SWAP5 POP PUSH1 0xFF NOT AND DUP4 DUP4 ADD MSTORE ISZERO ISZERO PUSH1 0x5 SHL ADD ADD SWAP1 CODESIZE DUP1 DUP1 DUP1 PUSH2 0x4470 JUMP JUMPDEST PUSH2 0x480 DUP2 ADD SWAP1 DUP2 LT PUSH1 0x1 PUSH1 0x1 PUSH1 0x40 SHL SUB DUP3 GT OR PUSH2 0x66A JUMPI PUSH1 0x40 MSTORE JUMP JUMPDEST PUSH1 0x40 DUP2 ADD SWAP1 DUP2 LT PUSH1 0x1 PUSH1 0x1 PUSH1 0x40 SHL SUB DUP3 GT OR PUSH2 0x66A JUMPI PUSH1 0x40 MSTORE JUMP JUMPDEST SWAP1 PUSH1 0x1F DUP1 NOT SWAP2 ADD AND DUP2 ADD SWAP1 DUP2 LT PUSH1 0x1 PUSH1 0x1 PUSH1 0x40 SHL SUB DUP3 GT OR PUSH2 0x66A JUMPI PUSH1 0x40 MSTORE JUMP JUMPDEST SWAP1 DUP1 DUP3 EQ PUSH2 0x460B JUMPI PUSH2 0x4543 DUP2 SLOAD PUSH2 0x431E JUMP JUMPDEST SWAP1 PUSH1 0x1 PUSH1 0x1 PUSH1 0x40 SHL SUB DUP3 GT PUSH2 0x66A JUMPI DUP2 SWAP1 PUSH2 0x4568 DUP3 PUSH2 0x4562 DUP7 SLOAD PUSH2 0x431E JUMP JUMPDEST DUP7 PUSH2 0x4399 JUMP JUMPDEST PUSH1 0x0 SWAP1 PUSH1 0x1F DUP4 GT PUSH1 0x1 EQ PUSH2 0x459F JUMPI PUSH1 0x0 SWAP3 PUSH2 0x4594 JUMPI JUMPDEST POP POP DUP2 PUSH1 0x1 SHL SWAP2 PUSH1 0x0 NOT SWAP1 PUSH1 0x3 SHL SHR NOT AND OR SWAP1 SSTORE JUMP JUMPDEST ADD SLOAD SWAP1 POP CODESIZE DUP1 PUSH2 0x457E JUMP JUMPDEST DUP2 MSTORE PUSH1 0x20 DUP1 DUP3 KECCAK256 DUP6 DUP4 MSTORE DUP2 DUP4 KECCAK256 SWAP4 POP SWAP1 PUSH1 0x1F NOT DUP6 AND SWAP1 DUP4 SWAP1 JUMPDEST DUP3 DUP3 LT PUSH2 0x45F2 JUMPI POP POP SWAP1 DUP5 PUSH1 0x1 SWAP6 SWAP5 SWAP4 SWAP3 LT PUSH2 0x45D9 JUMPI JUMPDEST POP POP POP DUP2 SHL ADD SWAP1 SSTORE JUMP JUMPDEST ADD SLOAD PUSH1 0x0 NOT PUSH1 0xF8 DUP5 PUSH1 0x3 SHL AND SHR NOT AND SWAP1 SSTORE CODESIZE DUP1 DUP1 PUSH2 0x45CF JUMP JUMPDEST DUP5 SWAP6 DUP2 SWAP3 SWAP6 DUP6 ADD SLOAD DUP2 SSTORE PUSH1 0x1 DUP1 SWAP2 ADD SWAP7 ADD SWAP5 ADD SWAP1 PUSH2 0x45B8 JUMP JUMPDEST POP POP JUMP JUMPDEST PUSH1 0x40 MLOAD SWAP1 DUP2 PUSH1 0x0 DUP3 SLOAD PUSH2 0x4621 DUP2 PUSH2 0x431E JUMP JUMPDEST SWAP4 PUSH1 0x1 SWAP2 DUP1 DUP4 AND SWAP1 DUP2 ISZERO PUSH2 0x4686 JUMPI POP PUSH1 0x1 EQ PUSH2 0x4649 JUMPI JUMPDEST POP POP PUSH1 0x20 SWAP3 POP PUSH1 0x5 DUP2 MSTORE SUB ADD SWAP1 KECCAK256 SWAP1 JUMP JUMPDEST SWAP1 SWAP2 POP PUSH1 0x0 MSTORE PUSH1 0x20 SWAP1 DUP2 PUSH1 0x0 KECCAK256 SWAP1 PUSH1 0x0 SWAP2 JUMPDEST DUP6 DUP4 LT PUSH2 0x4672 JUMPI POP POP POP POP PUSH1 0x20 SWAP2 DUP2 ADD CODESIZE DUP1 PUSH2 0x4638 JUMP JUMPDEST DUP1 SLOAD DUP8 DUP5 ADD MSTORE DUP7 SWAP5 POP SWAP2 DUP4 ADD SWAP2 DUP2 ADD PUSH2 0x465B JUMP JUMPDEST SWAP3 POP POP POP PUSH1 0x20 SWAP4 SWAP2 POP PUSH1 0xFF NOT AND DUP3 MSTORE DUP1 ISZERO ISZERO MUL DUP2 ADD CODESIZE DUP1 PUSH2 0x4638 JUMP JUMPDEST PUSH1 0x40 MLOAD SWAP1 DUP2 PUSH1 0x0 DUP3 SLOAD PUSH2 0x46B4 DUP2 PUSH2 0x431E JUMP JUMPDEST SWAP4 PUSH1 0x1 SWAP2 DUP1 DUP4 AND SWAP1 DUP2 ISZERO PUSH2 0x4719 JUMPI POP PUSH1 0x1 EQ PUSH2 0x46DC JUMPI JUMPDEST POP POP PUSH1 0x20 SWAP3 POP PUSH1 0x6 DUP2 MSTORE SUB ADD SWAP1 KECCAK256 SWAP1 JUMP JUMPDEST SWAP1 SWAP2 POP PUSH1 0x0 MSTORE PUSH1 0x20 SWAP1 DUP2 PUSH1 0x0 KECCAK256 SWAP1 PUSH1 0x0 SWAP2 JUMPDEST DUP6 DUP4 LT PUSH2 0x4705 JUMPI POP POP POP POP PUSH1 0x20 SWAP2 DUP2 ADD CODESIZE DUP1 PUSH2 0x46CB JUMP JUMPDEST DUP1 SLOAD DUP8 DUP5 ADD MSTORE DUP7 SWAP5 POP SWAP2 DUP4 ADD SWAP2 DUP2 ADD PUSH2 0x46EE JUMP JUMPDEST SWAP3 POP POP POP PUSH1 0x20 SWAP4 SWAP2 POP PUSH1 0xFF NOT AND DUP3 MSTORE DUP1 ISZERO ISZERO MUL DUP2 ADD CODESIZE DUP1 PUSH2 0x46CB JUMP JUMPDEST SWAP12 SWAP11 SWAP10 SWAP6 SWAP4 SWAP5 PUSH2 0x4783 DUP14 PUSH2 0x47A9 SWAP8 PUSH2 0x4775 PUSH2 0x47B7 SWAP13 SWAP8 PUSH2 0x4767 PUSH2 0x100 SWAP16 SWAP14 SWAP9 SWAP8 PUSH2 0x4791 SWAP9 PUSH2 0x120 DUP1 DUP9 MSTORE DUP8 ADD SWAP2 PUSH2 0x4422 JUMP JUMPDEST SWAP1 DUP5 DUP3 SUB PUSH1 0x20 DUP7 ADD MSTORE PUSH2 0x4443 JUMP JUMPDEST SWAP2 PUSH1 0x40 DUP2 DUP5 SUB SWAP2 ADD MSTORE PUSH2 0x4443 JUMP JUMPDEST DUP14 DUP2 SUB PUSH1 0x60 DUP16 ADD MSTORE SWAP1 PUSH2 0x4443 JUMP JUMPDEST SWAP3 PUSH1 0x80 DUP13 ADD MSTORE PUSH1 0xA0 DUP12 ADD MSTORE DUP10 DUP3 SUB PUSH1 0xC0 DUP12 ADD MSTORE PUSH2 0x4443 JUMP JUMPDEST SWAP2 DUP8 DUP4 SUB PUSH1 0xE0 DUP10 ADD MSTORE PUSH2 0x4422 JUMP JUMPDEST SWAP4 ADD MSTORE JUMP JUMPDEST PUSH1 0x40 MLOAD SWAP1 PUSH2 0x47C9 DUP3 PUSH2 0x44D9 JUMP JUMPDEST DUP2 PUSH2 0x460 PUSH1 0x0 SWAP2 DUP3 DUP2 MSTORE PUSH1 0x60 DUP1 PUSH1 0x20 DUP4 ADD MSTORE DUP1 PUSH1 0x40 DUP4 ADD MSTORE DUP4 DUP2 DUP4 ADD MSTORE DUP4 PUSH1 0x80 DUP4 ADD MSTORE DUP1 PUSH1 0xA0 DUP4 ADD MSTORE DUP1 PUSH1 0xC0 DUP4 ADD MSTORE DUP1 PUSH1 0xE0 DUP4 ADD MSTORE DUP1 PUSH2 0x100 DUP4 ADD MSTORE DUP1 PUSH2 0x120 DUP4 ADD MSTORE DUP1 PUSH2 0x140 DUP4 ADD MSTORE DUP1 PUSH2 0x160 DUP4 ADD MSTORE DUP4 PUSH2 0x180 DUP4 ADD MSTORE DUP4 PUSH2 0x1A0 DUP4 ADD MSTORE DUP1 PUSH2 0x1C0 DUP4 ADD MSTORE DUP1 PUSH2 0x1E0 DUP4 ADD MSTORE DUP1 PUSH2 0x200 DUP4 ADD MSTORE DUP1 PUSH2 0x220 DUP4 ADD MSTORE DUP1 PUSH2 0x240 DUP4 ADD MSTORE DUP1 PUSH2 0x260 DUP4 ADD MSTORE DUP1 PUSH2 0x280 DUP4 ADD MSTORE DUP1 PUSH2 0x2A0 DUP4 ADD MSTORE DUP1 PUSH2 0x2C0 DUP4 ADD MSTORE DUP1 PUSH2 0x2E0 DUP4 ADD MSTORE DUP1 PUSH2 0x300 DUP4 ADD MSTORE DUP1 PUSH2 0x320 DUP4 ADD MSTORE DUP1 PUSH2 0x340 DUP4 ADD MSTORE DUP1 PUSH2 0x360 DUP4 ADD MSTORE PUSH2 0x380 DUP3 ADD MSTORE DUP3 PUSH2 0x3A0 DUP3 ADD MSTORE DUP3 PUSH2 0x3C0 DUP3 ADD MSTORE DUP3 PUSH2 0x3E0 DUP3 ADD MSTORE DUP3 PUSH2 0x400 DUP3 ADD MSTORE DUP3 PUSH2 0x420 DUP3 ADD MSTORE DUP3 PUSH2 0x440 DUP3 ADD MSTORE ADD MSTORE JUMP JUMPDEST PUSH1 0x1 PUSH1 0x1 PUSH1 0x40 SHL SUB DUP2 GT PUSH2 0x66A JUMPI PUSH1 0x5 SHL PUSH1 0x20 ADD SWAP1 JUMP JUMPDEST DUP1 MLOAD DUP3 LT ISZERO PUSH2 0x440C JUMPI PUSH1 0x20 SWAP2 PUSH1 0x5 SHL ADD ADD SWAP1 JUMP INVALID 0xE7 PUSH29 0x2630304C8D9F0DDE30BCBD7F5F47449A9B20540195E95682659297800A 0xD0 LOG2 PUSH5 0x6970667358 0x22 SLT KECCAK256 PC 0xB1 SWAP8 0xD3 SWAP13 0xE3 0xDC 0xE3 SWAP11 SHL PUSH16 0xCB5A8E46DF410C6B9F0D8382140DBB49 0xA6 NOT SELFDESTRUCT 0x23 0x2C PUSH5 0x736F6C6343 STOP ADDMOD EQ STOP CALLER "
        },
        "methodIdentifiers": {
          "MAX_DESCRIPTION_LENGTH()": "9201ea0a",
          "MAX_STRING_LENGTH()": "34ccc5ea",
          "acceptTransaction(string,string,string,string)": "aa6ed518",
          "cancelTransaction(string,string,string)": "d867d92f",
          "completeTransaction(string,string)": "7831d75d",
          "createTransaction((string,string,address,address,string,string,string,string,string,string,string,uint256,uint256,string,string,string,string,string,string,string,string,string,string,string,string))": "aeddd8cc",
          "getBlockchainId(string)": "f1bb29ff",
          "getOrderFullHistory(string)": "41a8bc32",
          "getOrderTransactionHistory(string)": "1a0e0166",
          "getTransaction(uint256)": "33ea3dc8",
          "getTransactionByOrderId(string)": "ecb497d2",
          "getTransactionBySupabaseId(string)": "fa7b9cc4",
          "getTransactionCount()": "2e7700f0",
          "getTransactionStatus(string)": "7725e119",
          "owner()": "8da5cb5b",
          "rejectTransaction(string,string,string)": "fdee1a67",
          "transactionExists(string)": "193bbd88"
        }
      }
    }
  }
}