{
  "contracts/CSUMarketplace.sol": {
    "CSUMarketplace": {
      "abi": [
        {
          "inputs": [],
          "stateMutability": "nonpayable",
          "type": "constructor"
        },
        {
          "inputs": [],
          "name": "DuplicateTransaction",
          "type": "error"
        },
        {
          "inputs": [],
          "name": "InvalidAddress",
          "type": "error"
        },
        {
          "inputs": [],
          "name": "InvalidPrice",
          "type": "error"
        },
        {
          "inputs": [],
          "name": "InvalidQuantity",
          "type": "error"
        },
        {
          "inputs": [],
          "name": "InvalidStatusTransition",
          "type": "error"
        },
        {
          "inputs": [],
          "name": "OnlyBuyerCanCancel",
          "type": "error"
        },
        {
          "inputs": [],
          "name": "OnlySellerCanAcceptReject",
          "type": "error"
        },
        {
          "inputs": [],
          "name": "OnlySellerOrBuyerCanComplete",
          "type": "error"
        },
        {
          "inputs": [],
          "name": "StringTooLong",
          "type": "error"
        },
        {
          "inputs": [],
          "name": "TransactionNotFound",
          "type": "error"
        },
        {
          "inputs": [],
          "name": "Unauthorized",
          "type": "error"
        },
        {
          "anonymous": false,
          "inputs": [
            {
              "indexed": true,
              "internalType": "uint256",
              "name": "blockchainId",
              "type": "uint256"
            },
            {
              "indexed": false,
              "internalType": "string",
              "name": "supabaseId",
              "type": "string"
            },
            {
              "indexed": false,
              "internalType": "string",
              "name": "orderId",
              "type": "string"
            },
            {
              "indexed": true,
              "internalType": "address",
              "name": "buyerWallet",
              "type": "address"
            },
            {
              "indexed": true,
              "internalType": "address",
              "name": "sellerWallet",
              "type": "address"
            },
            {
              "indexed": false,
              "internalType": "string",
              "name": "itemName",
              "type": "string"
            },
            {
              "indexed": false,
              "internalType": "uint256",
              "name": "itemPrice",
              "type": "uint256"
            },
            {
              "indexed": false,
              "internalType": "uint256",
              "name": "quantity",
              "type": "uint256"
            },
            {
              "indexed": false,
              "internalType": "string",
              "name": "listingType",
              "type": "string"
            },
            {
              "indexed": false,
              "internalType": "string",
              "name": "finalPickupLocation",
              "type": "string"
            },
            {
              "indexed": false,
              "internalType": "string",
              "name": "finalMeetupLocation",
              "type": "string"
            },
            {
              "indexed": false,
              "internalType": "uint256",
              "name": "acceptedAt",
              "type": "uint256"
            }
          ],
          "name": "TransactionAccepted",
          "type": "event"
        },
        {
          "anonymous": false,
          "inputs": [
            {
              "indexed": true,
              "internalType": "uint256",
              "name": "blockchainId",
              "type": "uint256"
            },
            {
              "indexed": false,
              "internalType": "string",
              "name": "supabaseId",
              "type": "string"
            },
            {
              "indexed": false,
              "internalType": "string",
              "name": "orderId",
              "type": "string"
            },
            {
              "indexed": true,
              "internalType": "address",
              "name": "buyerWallet",
              "type": "address"
            },
            {
              "indexed": true,
              "internalType": "address",
              "name": "sellerWallet",
              "type": "address"
            },
            {
              "indexed": false,
              "internalType": "string",
              "name": "itemName",
              "type": "string"
            },
            {
              "indexed": false,
              "internalType": "uint256",
              "name": "itemPrice",
              "type": "uint256"
            },
            {
              "indexed": false,
              "internalType": "uint256",
              "name": "quantity",
              "type": "uint256"
            },
            {
              "indexed": false,
              "internalType": "string",
              "name": "listingType",
              "type": "string"
            },
            {
              "indexed": false,
              "internalType": "string",
              "name": "cancellationReason",
              "type": "string"
            },
            {
              "indexed": false,
              "internalType": "uint256",
              "name": "cancelledAt",
              "type": "uint256"
            }
          ],
          "name": "TransactionCancelled",
          "type": "event"
        },
        {
          "anonymous": false,
          "inputs": [
            {
              "indexed": true,
              "internalType": "uint256",
              "name": "blockchainId",
              "type": "uint256"
            },
            {
              "indexed": false,
              "internalType": "string",
              "name": "supabaseId",
              "type": "string"
            },
            {
              "indexed": false,
              "internalType": "string",
              "name": "orderId",
              "type": "string"
            },
            {
              "indexed": true,
              "internalType": "address",
              "name": "buyerWallet",
              "type": "address"
            },
            {
              "indexed": true,
              "internalType": "address",
              "name": "sellerWallet",
              "type": "address"
            },
            {
              "indexed": false,
              "internalType": "address",
              "name": "completedBy",
              "type": "address"
            },
            {
              "indexed": false,
              "internalType": "string",
              "name": "itemName",
              "type": "string"
            },
            {
              "indexed": false,
              "internalType": "uint256",
              "name": "itemPrice",
              "type": "uint256"
            },
            {
              "indexed": false,
              "internalType": "uint256",
              "name": "quantity",
              "type": "uint256"
            },
            {
              "indexed": false,
              "internalType": "string",
              "name": "listingType",
              "type": "string"
            },
            {
              "indexed": false,
              "internalType": "string",
              "name": "finalPickupLocation",
              "type": "string"
            },
            {
              "indexed": false,
              "internalType": "string",
              "name": "finalMeetupLocation",
              "type": "string"
            },
            {
              "indexed": false,
              "internalType": "uint256",
              "name": "completedAt",
              "type": "uint256"
            }
          ],
          "name": "TransactionCompleted",
          "type": "event"
        },
        {
          "anonymous": false,
          "inputs": [
            {
              "indexed": true,
              "internalType": "uint256",
              "name": "blockchainId",
              "type": "uint256"
            },
            {
              "indexed": false,
              "internalType": "string",
              "name": "supabaseId",
              "type": "string"
            },
            {
              "indexed": false,
              "internalType": "string",
              "name": "orderId",
              "type": "string"
            },
            {
              "indexed": true,
              "internalType": "address",
              "name": "buyerWallet",
              "type": "address"
            },
            {
              "indexed": true,
              "internalType": "address",
              "name": "sellerWallet",
              "type": "address"
            },
            {
              "indexed": false,
              "internalType": "string",
              "name": "category",
              "type": "string"
            },
            {
              "indexed": false,
              "internalType": "string",
              "name": "listingType",
              "type": "string"
            },
            {
              "indexed": false,
              "internalType": "string",
              "name": "itemName",
              "type": "string"
            },
            {
              "indexed": false,
              "internalType": "string",
              "name": "itemDescription",
              "type": "string"
            },
            {
              "indexed": false,
              "internalType": "uint256",
              "name": "itemPrice",
              "type": "uint256"
            },
            {
              "indexed": false,
              "internalType": "uint256",
              "name": "quantity",
              "type": "uint256"
            },
            {
              "indexed": false,
              "internalType": "string",
              "name": "pickupLocation",
              "type": "string"
            },
            {
              "indexed": false,
              "internalType": "string",
              "name": "meetupLocation",
              "type": "string"
            },
            {
              "indexed": false,
              "internalType": "string",
              "name": "messageToSeller",
              "type": "string"
            },
            {
              "indexed": false,
              "internalType": "uint256",
              "name": "createdAt",
              "type": "uint256"
            }
          ],
          "name": "TransactionCreated",
          "type": "event"
        },
        {
          "anonymous": false,
          "inputs": [
            {
              "indexed": true,
              "internalType": "uint256",
              "name": "blockchainId",
              "type": "uint256"
            },
            {
              "indexed": false,
              "internalType": "string",
              "name": "supabaseId",
              "type": "string"
            },
            {
              "indexed": false,
              "internalType": "string",
              "name": "orderId",
              "type": "string"
            },
            {
              "indexed": true,
              "internalType": "address",
              "name": "buyerWallet",
              "type": "address"
            },
            {
              "indexed": true,
              "internalType": "address",
              "name": "sellerWallet",
              "type": "address"
            },
            {
              "indexed": false,
              "internalType": "string",
              "name": "itemName",
              "type": "string"
            },
            {
              "indexed": false,
              "internalType": "uint256",
              "name": "itemPrice",
              "type": "uint256"
            },
            {
              "indexed": false,
              "internalType": "uint256",
              "name": "quantity",
              "type": "uint256"
            },
            {
              "indexed": false,
              "internalType": "string",
              "name": "listingType",
              "type": "string"
            },
            {
              "indexed": false,
              "internalType": "string",
              "name": "rejectionReason",
              "type": "string"
            },
            {
              "indexed": false,
              "internalType": "uint256",
              "name": "rejectedAt",
              "type": "uint256"
            }
          ],
          "name": "TransactionRejected",
          "type": "event"
        },
        {
          "anonymous": false,
          "inputs": [
            {
              "indexed": true,
              "internalType": "uint256",
              "name": "blockchainId",
              "type": "uint256"
            },
            {
              "indexed": false,
              "internalType": "string",
              "name": "supabaseId",
              "type": "string"
            },
            {
              "indexed": false,
              "internalType": "string",
              "name": "orderId",
              "type": "string"
            },
            {
              "indexed": true,
              "internalType": "address",
              "name": "updatedBy",
              "type": "address"
            },
            {
              "indexed": false,
              "internalType": "string",
              "name": "oldStatus",
              "type": "string"
            },
            {
              "indexed": false,
              "internalType": "string",
              "name": "newStatus",
              "type": "string"
            },
            {
              "indexed": false,
              "internalType": "uint256",
              "name": "updatedAt",
              "type": "uint256"
            }
          ],
          "name": "TransactionStatusUpdated",
          "type": "event"
        },
        {
          "inputs": [],
          "name": "MAX_DESCRIPTION_LENGTH",
          "outputs": [
            {
              "internalType": "uint256",
              "name": "",
              "type": "uint256"
            }
          ],
          "stateMutability": "view",
          "type": "function"
        },
        {
          "inputs": [],
          "name": "MAX_STRING_LENGTH",
          "outputs": [
            {
              "internalType": "uint256",
              "name": "",
              "type": "uint256"
            }
          ],
          "stateMutability": "view",
          "type": "function"
        },
        {
          "inputs": [
            {
              "internalType": "string",
              "name": "supabaseId",
              "type": "string"
            },
            {
              "internalType": "string",
              "name": "newSupabaseId",
              "type": "string"
            },
            {
              "internalType": "string",
              "name": "finalPickupLocation",
              "type": "string"
            },
            {
              "internalType": "string",
              "name": "finalMeetupLocation",
              "type": "string"
            }
          ],
          "name": "acceptTransaction",
          "outputs": [],
          "stateMutability": "nonpayable",
          "type": "function"
        },
        {
          "inputs": [
            {
              "internalType": "string",
              "name": "supabaseId",
              "type": "string"
            },
            {
              "internalType": "string",
              "name": "newSupabaseId",
              "type": "string"
            },
            {
              "internalType": "string",
              "name": "cancellationReason",
              "type": "string"
            }
          ],
          "name": "cancelTransaction",
          "outputs": [],
          "stateMutability": "nonpayable",
          "type": "function"
        },
        {
          "inputs": [
            {
              "internalType": "string",
              "name": "supabaseId",
              "type": "string"
            },
            {
              "internalType": "string",
              "name": "newSupabaseId",
              "type": "string"
            }
          ],
          "name": "completeTransaction",
          "outputs": [],
          "stateMutability": "nonpayable",
          "type": "function"
        },
        {
          "inputs": [
            {
              "components": [
                {
                  "internalType": "string",
                  "name": "supabaseId",
                  "type": "string"
                },
                {
                  "internalType": "string",
                  "name": "orderId",
                  "type": "string"
                },
                {
                  "internalType": "address",
                  "name": "buyerWallet",
                  "type": "address"
                },
                {
                  "internalType": "address",
                  "name": "sellerWallet",
                  "type": "address"
                },
                {
                  "internalType": "string",
                  "name": "category",
                  "type": "string"
                },
                {
                  "internalType": "string",
                  "name": "listingType",
                  "type": "string"
                },
                {
                  "internalType": "string",
                  "name": "itemName",
                  "type": "string"
                },
                {
                  "internalType": "string",
                  "name": "itemDescription",
                  "type": "string"
                },
                {
                  "internalType": "uint256",
                  "name": "itemPrice",
                  "type": "uint256"
                },
                {
                  "internalType": "uint256",
                  "name": "quantity",
                  "type": "uint256"
                },
                {
                  "internalType": "string",
                  "name": "pickupLocation",
                  "type": "string"
                },
                {
                  "internalType": "string",
                  "name": "meetupLocation",
                  "type": "string"
                },
                {
                  "internalType": "string",
                  "name": "requirements",
                  "type": "string"
                },
                {
                  "internalType": "string",
                  "name": "contactInfo",
                  "type": "string"
                },
                {
                  "internalType": "string",
                  "name": "returnCondition",
                  "type": "string"
                },
                {
                  "internalType": "string",
                  "name": "rentalDuration",
                  "type": "string"
                },
                {
                  "internalType": "string",
                  "name": "startDate",
                  "type": "string"
                },
                {
                  "internalType": "string",
                  "name": "endDate",
                  "type": "string"
                },
                {
                  "internalType": "string",
                  "name": "serviceSchedule",
                  "type": "string"
                },
                {
                  "internalType": "string",
                  "name": "serviceDuration",
                  "type": "string"
                },
                {
                  "internalType": "string",
                  "name": "messageToSeller",
                  "type": "string"
                },
                {
                  "internalType": "string",
                  "name": "transactionStatus",
                  "type": "string"
                }
              ],
              "internalType": "struct CSUMarketplace.CreateTransactionParams",
              "name": "params",
              "type": "tuple"
            }
          ],
          "name": "createTransaction",
          "outputs": [
            {
              "internalType": "uint256",
              "name": "",
              "type": "uint256"
            }
          ],
          "stateMutability": "nonpayable",
          "type": "function"
        },
        {
          "inputs": [
            {
              "internalType": "string",
              "name": "supabaseId",
              "type": "string"
            }
          ],
          "name": "getBlockchainId",
          "outputs": [
            {
              "internalType": "uint256",
              "name": "",
              "type": "uint256"
            }
          ],
          "stateMutability": "view",
          "type": "function"
        },
        {
          "inputs": [
            {
              "internalType": "string",
              "name": "orderId",
              "type": "string"
            }
          ],
          "name": "getOrderFullHistory",
          "outputs": [
            {
              "components": [
                {
                  "internalType": "uint256",
                  "name": "blockchainId",
                  "type": "uint256"
                },
                {
                  "internalType": "string",
                  "name": "supabaseId",
                  "type": "string"
                },
                {
                  "internalType": "string",
                  "name": "orderId",
                  "type": "string"
                },
                {
                  "internalType": "address",
                  "name": "buyerWallet",
                  "type": "address"
                },
                {
                  "internalType": "address",
                  "name": "sellerWallet",
                  "type": "address"
                },
                {
                  "internalType": "string",
                  "name": "category",
                  "type": "string"
                },
                {
                  "internalType": "string",
                  "name": "listingType",
                  "type": "string"
                },
                {
                  "internalType": "string",
                  "name": "itemName",
                  "type": "string"
                },
                {
                  "internalType": "string",
                  "name": "itemDescription",
                  "type": "string"
                },
                {
                  "internalType": "uint256",
                  "name": "itemPrice",
                  "type": "uint256"
                },
                {
                  "internalType": "uint256",
                  "name": "quantity",
                  "type": "uint256"
                },
                {
                  "internalType": "string",
                  "name": "pickupLocation",
                  "type": "string"
                },
                {
                  "internalType": "string",
                  "name": "meetupLocation",
                  "type": "string"
                },
                {
                  "internalType": "string",
                  "name": "finalPickupLocation",
                  "type": "string"
                },
                {
                  "internalType": "string",
                  "name": "finalMeetupLocation",
                  "type": "string"
                },
                {
                  "internalType": "string",
                  "name": "requirements",
                  "type": "string"
                },
                {
                  "internalType": "string",
                  "name": "contactInfo",
                  "type": "string"
                },
                {
                  "internalType": "string",
                  "name": "returnCondition",
                  "type": "string"
                },
                {
                  "internalType": "string",
                  "name": "rentalDuration",
                  "type": "string"
                },
                {
                  "internalType": "string",
                  "name": "startDate",
                  "type": "string"
                },
                {
                  "internalType": "string",
                  "name": "endDate",
                  "type": "string"
                },
                {
                  "internalType": "string",
                  "name": "serviceSchedule",
                  "type": "string"
                },
                {
                  "internalType": "string",
                  "name": "serviceDuration",
                  "type": "string"
                },
                {
                  "internalType": "string",
                  "name": "messageToSeller",
                  "type": "string"
                },
                {
                  "internalType": "string",
                  "name": "rejectionReason",
                  "type": "string"
                },
                {
                  "internalType": "string",
                  "name": "transactionStatus",
                  "type": "string"
                },
                {
                  "internalType": "uint256",
                  "name": "createdAt",
                  "type": "uint256"
                },
                {
                  "internalType": "uint256",
                  "name": "updatedAt",
                  "type": "uint256"
                },
                {
                  "internalType": "uint256",
                  "name": "acceptedAt",
                  "type": "uint256"
                },
                {
                  "internalType": "uint256",
                  "name": "rejectedAt",
                  "type": "uint256"
                },
                {
                  "internalType": "uint256",
                  "name": "completedAt",
                  "type": "uint256"
                },
                {
                  "internalType": "uint256",
                  "name": "cancelledAt",
                  "type": "uint256"
                },
                {
                  "internalType": "address",
                  "name": "lastUpdatedBy",
                  "type": "address"
                }
              ],
              "internalType": "struct CSUMarketplace.Transaction[]",
              "name": "",
              "type": "tuple[]"
            }
          ],
          "stateMutability": "view",
          "type": "function"
        },
        {
          "inputs": [
            {
              "internalType": "string",
              "name": "orderId",
              "type": "string"
            }
          ],
          "name": "getOrderTransactionHistory",
          "outputs": [
            {
              "internalType": "uint256[]",
              "name": "",
              "type": "uint256[]"
            }
          ],
          "stateMutability": "view",
          "type": "function"
        },
        {
          "inputs": [
            {
              "internalType": "uint256",
              "name": "blockchainId",
              "type": "uint256"
            }
          ],
          "name": "getTransaction",
          "outputs": [
            {
              "components": [
                {
                  "internalType": "uint256",
                  "name": "blockchainId",
                  "type": "uint256"
                },
                {
                  "internalType": "string",
                  "name": "supabaseId",
                  "type": "string"
                },
                {
                  "internalType": "string",
                  "name": "orderId",
                  "type": "string"
                },
                {
                  "internalType": "address",
                  "name": "buyerWallet",
                  "type": "address"
                },
                {
                  "internalType": "address",
                  "name": "sellerWallet",
                  "type": "address"
                },
                {
                  "internalType": "string",
                  "name": "category",
                  "type": "string"
                },
                {
                  "internalType": "string",
                  "name": "listingType",
                  "type": "string"
                },
                {
                  "internalType": "string",
                  "name": "itemName",
                  "type": "string"
                },
                {
                  "internalType": "string",
                  "name": "itemDescription",
                  "type": "string"
                },
                {
                  "internalType": "uint256",
                  "name": "itemPrice",
                  "type": "uint256"
                },
                {
                  "internalType": "uint256",
                  "name": "quantity",
                  "type": "uint256"
                },
                {
                  "internalType": "string",
                  "name": "pickupLocation",
                  "type": "string"
                },
                {
                  "internalType": "string",
                  "name": "meetupLocation",
                  "type": "string"
                },
                {
                  "internalType": "string",
                  "name": "finalPickupLocation",
                  "type": "string"
                },
                {
                  "internalType": "string",
                  "name": "finalMeetupLocation",
                  "type": "string"
                },
                {
                  "internalType": "string",
                  "name": "requirements",
                  "type": "string"
                },
                {
                  "internalType": "string",
                  "name": "contactInfo",
                  "type": "string"
                },
                {
                  "internalType": "string",
                  "name": "returnCondition",
                  "type": "string"
                },
                {
                  "internalType": "string",
                  "name": "rentalDuration",
                  "type": "string"
                },
                {
                  "internalType": "string",
                  "name": "startDate",
                  "type": "string"
                },
                {
                  "internalType": "string",
                  "name": "endDate",
                  "type": "string"
                },
                {
                  "internalType": "string",
                  "name": "serviceSchedule",
                  "type": "string"
                },
                {
                  "internalType": "string",
                  "name": "serviceDuration",
                  "type": "string"
                },
                {
                  "internalType": "string",
                  "name": "messageToSeller",
                  "type": "string"
                },
                {
                  "internalType": "string",
                  "name": "rejectionReason",
                  "type": "string"
                },
                {
                  "internalType": "string",
                  "name": "transactionStatus",
                  "type": "string"
                },
                {
                  "internalType": "uint256",
                  "name": "createdAt",
                  "type": "uint256"
                },
                {
                  "internalType": "uint256",
                  "name": "updatedAt",
                  "type": "uint256"
                },
                {
                  "internalType": "uint256",
                  "name": "acceptedAt",
                  "type": "uint256"
                },
                {
                  "internalType": "uint256",
                  "name": "rejectedAt",
                  "type": "uint256"
                },
                {
                  "internalType": "uint256",
                  "name": "completedAt",
                  "type": "uint256"
                },
                {
                  "internalType": "uint256",
                  "name": "cancelledAt",
                  "type": "uint256"
                },
                {
                  "internalType": "address",
                  "name": "lastUpdatedBy",
                  "type": "address"
                }
              ],
              "internalType": "struct CSUMarketplace.Transaction",
              "name": "",
              "type": "tuple"
            }
          ],
          "stateMutability": "view",
          "type": "function"
        },
        {
          "inputs": [
            {
              "internalType": "string",
              "name": "orderId",
              "type": "string"
            }
          ],
          "name": "getTransactionByOrderId",
          "outputs": [
            {
              "components": [
                {
                  "internalType": "uint256",
                  "name": "blockchainId",
                  "type": "uint256"
                },
                {
                  "internalType": "string",
                  "name": "supabaseId",
                  "type": "string"
                },
                {
                  "internalType": "string",
                  "name": "orderId",
                  "type": "string"
                },
                {
                  "internalType": "address",
                  "name": "buyerWallet",
                  "type": "address"
                },
                {
                  "internalType": "address",
                  "name": "sellerWallet",
                  "type": "address"
                },
                {
                  "internalType": "string",
                  "name": "category",
                  "type": "string"
                },
                {
                  "internalType": "string",
                  "name": "listingType",
                  "type": "string"
                },
                {
                  "internalType": "string",
                  "name": "itemName",
                  "type": "string"
                },
                {
                  "internalType": "string",
                  "name": "itemDescription",
                  "type": "string"
                },
                {
                  "internalType": "uint256",
                  "name": "itemPrice",
                  "type": "uint256"
                },
                {
                  "internalType": "uint256",
                  "name": "quantity",
                  "type": "uint256"
                },
                {
                  "internalType": "string",
                  "name": "pickupLocation",
                  "type": "string"
                },
                {
                  "internalType": "string",
                  "name": "meetupLocation",
                  "type": "string"
                },
                {
                  "internalType": "string",
                  "name": "finalPickupLocation",
                  "type": "string"
                },
                {
                  "internalType": "string",
                  "name": "finalMeetupLocation",
                  "type": "string"
                },
                {
                  "internalType": "string",
                  "name": "requirements",
                  "type": "string"
                },
                {
                  "internalType": "string",
                  "name": "contactInfo",
                  "type": "string"
                },
                {
                  "internalType": "string",
                  "name": "returnCondition",
                  "type": "string"
                },
                {
                  "internalType": "string",
                  "name": "rentalDuration",
                  "type": "string"
                },
                {
                  "internalType": "string",
                  "name": "startDate",
                  "type": "string"
                },
                {
                  "internalType": "string",
                  "name": "endDate",
                  "type": "string"
                },
                {
                  "internalType": "string",
                  "name": "serviceSchedule",
                  "type": "string"
                },
                {
                  "internalType": "string",
                  "name": "serviceDuration",
                  "type": "string"
                },
                {
                  "internalType": "string",
                  "name": "messageToSeller",
                  "type": "string"
                },
                {
                  "internalType": "string",
                  "name": "rejectionReason",
                  "type": "string"
                },
                {
                  "internalType": "string",
                  "name": "transactionStatus",
                  "type": "string"
                },
                {
                  "internalType": "uint256",
                  "name": "createdAt",
                  "type": "uint256"
                },
                {
                  "internalType": "uint256",
                  "name": "updatedAt",
                  "type": "uint256"
                },
                {
                  "internalType": "uint256",
                  "name": "acceptedAt",
                  "type": "uint256"
                },
                {
                  "internalType": "uint256",
                  "name": "rejectedAt",
                  "type": "uint256"
                },
                {
                  "internalType": "uint256",
                  "name": "completedAt",
                  "type": "uint256"
                },
                {
                  "internalType": "uint256",
                  "name": "cancelledAt",
                  "type": "uint256"
                },
                {
                  "internalType": "address",
                  "name": "lastUpdatedBy",
                  "type": "address"
                }
              ],
              "internalType": "struct CSUMarketplace.Transaction",
              "name": "",
              "type": "tuple"
            }
          ],
          "stateMutability": "view",
          "type": "function"
        },
        {
          "inputs": [
            {
              "internalType": "string",
              "name": "supabaseId",
              "type": "string"
            }
          ],
          "name": "getTransactionBySupabaseId",
          "outputs": [
            {
              "components": [
                {
                  "internalType": "uint256",
                  "name": "blockchainId",
                  "type": "uint256"
                },
                {
                  "internalType": "string",
                  "name": "supabaseId",
                  "type": "string"
                },
                {
                  "internalType": "string",
                  "name": "orderId",
                  "type": "string"
                },
                {
                  "internalType": "address",
                  "name": "buyerWallet",
                  "type": "address"
                },
                {
                  "internalType": "address",
                  "name": "sellerWallet",
                  "type": "address"
                },
                {
                  "internalType": "string",
                  "name": "category",
                  "type": "string"
                },
                {
                  "internalType": "string",
                  "name": "listingType",
                  "type": "string"
                },
                {
                  "internalType": "string",
                  "name": "itemName",
                  "type": "string"
                },
                {
                  "internalType": "string",
                  "name": "itemDescription",
                  "type": "string"
                },
                {
                  "internalType": "uint256",
                  "name": "itemPrice",
                  "type": "uint256"
                },
                {
                  "internalType": "uint256",
                  "name": "quantity",
                  "type": "uint256"
                },
                {
                  "internalType": "string",
                  "name": "pickupLocation",
                  "type": "string"
                },
                {
                  "internalType": "string",
                  "name": "meetupLocation",
                  "type": "string"
                },
                {
                  "internalType": "string",
                  "name": "finalPickupLocation",
                  "type": "string"
                },
                {
                  "internalType": "string",
                  "name": "finalMeetupLocation",
                  "type": "string"
                },
                {
                  "internalType": "string",
                  "name": "requirements",
                  "type": "string"
                },
                {
                  "internalType": "string",
                  "name": "contactInfo",
                  "type": "string"
                },
                {
                  "internalType": "string",
                  "name": "returnCondition",
                  "type": "string"
                },
                {
                  "internalType": "string",
                  "name": "rentalDuration",
                  "type": "string"
                },
                {
                  "internalType": "string",
                  "name": "startDate",
                  "type": "string"
                },
                {
                  "internalType": "string",
                  "name": "endDate",
                  "type": "string"
                },
                {
                  "internalType": "string",
                  "name": "serviceSchedule",
                  "type": "string"
                },
                {
                  "internalType": "string",
                  "name": "serviceDuration",
                  "type": "string"
                },
                {
                  "internalType": "string",
                  "name": "messageToSeller",
                  "type": "string"
                },
                {
                  "internalType": "string",
                  "name": "rejectionReason",
                  "type": "string"
                },
                {
                  "internalType": "string",
                  "name": "transactionStatus",
                  "type": "string"
                },
                {
                  "internalType": "uint256",
                  "name": "createdAt",
                  "type": "uint256"
                },
                {
                  "internalType": "uint256",
                  "name": "updatedAt",
                  "type": "uint256"
                },
                {
                  "internalType": "uint256",
                  "name": "acceptedAt",
                  "type": "uint256"
                },
                {
                  "internalType": "uint256",
                  "name": "rejectedAt",
                  "type": "uint256"
                },
                {
                  "internalType": "uint256",
                  "name": "completedAt",
                  "type": "uint256"
                },
                {
                  "internalType": "uint256",
                  "name": "cancelledAt",
                  "type": "uint256"
                },
                {
                  "internalType": "address",
                  "name": "lastUpdatedBy",
                  "type": "address"
                }
              ],
              "internalType": "struct CSUMarketplace.Transaction",
              "name": "",
              "type": "tuple"
            }
          ],
          "stateMutability": "view",
          "type": "function"
        },
        {
          "inputs": [],
          "name": "getTransactionCount",
          "outputs": [
            {
              "internalType": "uint256",
              "name": "",
              "type": "uint256"
            }
          ],
          "stateMutability": "view",
          "type": "function"
        },
        {
          "inputs": [
            {
              "internalType": "string",
              "name": "supabaseId",
              "type": "string"
            }
          ],
          "name": "getTransactionStatus",
          "outputs": [
            {
              "internalType": "string",
              "name": "",
              "type": "string"
            }
          ],
          "stateMutability": "view",
          "type": "function"
        },
        {
          "inputs": [],
          "name": "owner",
          "outputs": [
            {
              "internalType": "address",
              "name": "",
              "type": "address"
            }
          ],
          "stateMutability": "view",
          "type": "function"
        },
        {
          "inputs": [
            {
              "internalType": "string",
              "name": "supabaseId",
              "type": "string"
            },
            {
              "internalType": "string",
              "name": "newSupabaseId",
              "type": "string"
            },
            {
              "internalType": "string",
              "name": "rejectionReason",
              "type": "string"
            }
          ],
          "name": "rejectTransaction",
          "outputs": [],
          "stateMutability": "nonpayable",
          "type": "function"
        },
        {
          "inputs": [
            {
              "internalType": "string",
              "name": "supabaseId",
              "type": "string"
            }
          ],
          "name": "transactionExists",
          "outputs": [
            {
              "internalType": "bool",
              "name": "",
              "type": "bool"
            }
          ],
          "stateMutability": "view",
          "type": "function"
        }
      ],
      "evm": {
        "bytecode": {
          "linkReferences": {},
          "object": "6080806040523461002c57600180546001600160a01b031916331790556000805561441090816100328239f35b600080fdfe61012080604052600436101561001457600080fd5b60003560e01c908163193bbd88146139f6575080631a0e01661461392a5780632e7700f01461390c57806333ea3dc8146138d457806334ccc5ea146138b757806341a8bc32146134865780637725e119146133e35780637831d75d14612e215780638d91156f146118965780638da5cb5b1461186d5780639201ea0a14611850578063aa6ed5181461110f578063d867d92f14610b0a578063ecb497d214610a99578063f1bb29ff14610a48578063fa7b9cc4146107065763fdee1a67146100db57600080fd5b34610701576100e936613d48565b92919460ff6040959295518383823760208185810160048152030190205416156106ef57602090826040519384928337810160038152030190205460005260026020526040600020917f4be840e351422c3b302abb79aa7db05560ead7e387e413320822a342fca3f54e60405161016e816101678160198901613f3d565b038261400a565b602081519101206650656e64696e6760c81b602060405161018e81613fef565b600781520152036106dd5760ff60405186848237602081888101600481520301902054166106cb576101c1600054613df3565b938460005584600052600260205260406000208581556001600160401b03871161063c576101ff876101f66001840154613e18565b60018401613e93565b866000601f821160011461065d57600091610652575b508760011b906000198960031b1c19161760018201555b61023c600286016002830161402b565b60038581015490820180546001600160a01b039283166001600160a01b0319918216179091556004808801549084018054919093169116179055610286600580870190830161402b565b610296600686016006830161402b565b6102a6600786016007830161402b565b6102b6600886016008830161402b565b60098501546009820155600a850154600a8201556102da600b8601600b830161402b565b6102ea600c8601600c830161402b565b6102fa600f8601600f830161402b565b61030a601086016010830161402b565b61031a601186016011830161402b565b61032a601286016012830161402b565b61033a601386016013830161402b565b61034a601486016014830161402b565b61035a601586016015830161402b565b61036a601686016016830161402b565b61037a601786016017830161402b565b61039361038a6019830154613e18565b60198301613e69565b60106714995a9958dd195960c21b0160198201556001600160401b03831161063c578591816103d3856103ca60188c960154613e18565b60188401613e93565b6000601f861160011461058357968581957f531e4b2662c1b55b8b19314878dc42eb123a3e19682801aea1ceafb174d4a61960029661051896602061054a9c976105279c6000805160206143bb8339815191529f600091610578575b508760011b906000198960031b1c19161760188201555b601a880154601a82015542601d82015542601b82015501336001600160601b0360a01b8254161790558360405183898237602081858101600381520301902055604051828882376020818481016004815203019020600160ff19825416179055836104b28a8801614109565b556104c7846104c28b890161419c565b613ed8565b6105038760018060a01b0360038901541696600989015493600a8a015495604051968796339c429660068201946002600784019301918b61422f565b0390a46040519860a08a5260a08a0191613f1c565b91878303602089015201613f3d565b8481036040860152604090600781526650656e64696e6760c81b60208201520190565b926714995a9958dd195960c21b602082860395866060850152600881520152426080820152604033940190a3005b90508301353861042f565b6018820160005260206000209060005b601f198816811061061e57509588957f531e4b2662c1b55b8b19314878dc42eb123a3e19682801aea1ceafb174d4a61960029661051896602061054a9c976000805160206143bb8339815191529e976105279d88601f19811610610604575b5050600187811b016018820155610446565b84013560001960038a901b60f8161c1916905538806105f2565b8185013583558a96508b955060019092019160209182019101610593565b634e487b7160e01b600052604160045260246000fd5b905084013538610215565b90506001820160005260206000209060005b601f198a1681106106b3575088601f19811610610699575b5050600187811b01600182015561022c565b85013560001960038a901b60f8161c191690553880610687565b9091602060018192858a01358155019301910161066f565b604051632928418b60e01b8152600490fd5b60405163088bd32360e11b8152600490fd5b6040516331fb878f60e01b8152600490fd5b600080fd5b3461070157602080600319360112610701576004356001600160401b03811161070157610737903690600401613a47565b906107406142a2565b5060ff60405183838237848185810160048152030190205416156106ef5782908260405193849283378101600381520301902054600052600281526040600020906040519161078e83613fd3565b805483526040516107a6816101678160018601613f3d565b828401526040516107be816101678160028601613f3d565b60408401528160018060a01b03918260038201541660608601528260048201541660808601526040516107f8816101678160058601613f3d565b60a0860152604051610811816101678160068601613f3d565b60c086015260405161082a816101678160078601613f3d565b60e0860152604051610843816101678160088601613f3d565b6101008601526009810154610120860152600a8101546101408601526040516108738161016781600b8601613f3d565b61016086015260405161088d8161016781600c8601613f3d565b6101808601526040516108a78161016781600d8601613f3d565b6101a08601526040516108c18161016781600e8601613f3d565b6101c08601526040516108db8161016781600f8601613f3d565b6101e08601526040516108f5816101678160108601613f3d565b61020086015260405161090f816101678160118601613f3d565b610220860152604051610929816101678160128601613f3d565b610240860152604051610943816101678160138601613f3d565b61026086015260405161095d816101678160148601613f3d565b610280860152604051610977816101678160158601613f3d565b6102a0860152604051610991816101678160168601613f3d565b6102c08601526040516109ab816101678160178601613f3d565b6102e08601526040516109c5816101678160188601613f3d565b6103008601526040516109df816101678160198601613f3d565b610320860152601a810154610340860152601b810154610360860152601c810154610380860152601d8101546103a0860152601e8101546103c0860152601f8101546103e0860152015416610400830152610a44604051928284938452830190613ab4565b0390f35b34610701576020366003190112610701576004356001600160401b038111610701576020610a7b81923690600401613a47565b91908260405193849283378101600381520301902054604051908152f35b3461070157602080600319360112610701576004356001600160401b03811161070157610acb82913690600401613a47565b9190610ad56142a2565b50826040519384928337810160058152030190205480156106ef57600052600281526040600020906040519161078e83613fd3565b3461070157610b1836613d48565b92919460ff6040959295518383823760208185810160048152030190205416156106ef5760209082604051938492833781016003815203019020546000526002602052604060002091604051610b75816101678160198801613f3d565b602081519101206650656e64696e6760c81b6020604051610b9581613fef565b6007815201527f4be840e351422c3b302abb79aa7db05560ead7e387e413320822a342fca3f54e81141590816110c4575b506106dd5760ff60405186848237602081888101600481520301902054166106cb57610bf3600054613df3565b938460005584600052600260205260406000208581556001600160401b03871161063c57610c28876101f66001840154613e18565b866000601f82116001146110565760009161104b575b508760011b906000198960031b1c19161760018201555b610c65600286016002830161402b565b60038581015490820180546001600160a01b039283166001600160a01b0319918216179091556004808801549084018054919093169116179055610caf600580870190830161402b565b610cbf600686016006830161402b565b610ccf600786016007830161402b565b610cdf600886016008830161402b565b60098501546009820155600a850154600a820155610d03600b8601600b830161402b565b610d13600c8601600c830161402b565b610d23600d8601600d830161402b565b610d33600e8601600e830161402b565b610d43600f8601600f830161402b565b610d53601086016010830161402b565b610d63601186016011830161402b565b610d73601286016012830161402b565b610d83601386016013830161402b565b610d93601486016014830161402b565b610da3601586016015830161402b565b610db3601686016016830161402b565b610dc3601786016017830161402b565b610dd361038a6019830154613e18565b60126810d85b98d95b1b195960ba1b0160198201556001600160401b03831161063c57859181610e0b856103ca60188c960154613e18565b6000601f8611600114610f925794876019957fd5543a7e8ff59ed8add299d2d102d8352c9eaa9f714b0cefb0af7573e803cf0c610f4996610f38966020610f589c97876000805160206143bb8339815191529f9d600091610f87575b508860011b906000198a60031b1c19161760188201555b601a870154601a82015542601f82015542601b82015501336001600160601b0360a01b8254161790558360405183898237602081858101600381520301902055604051828882376020818481016004815203019020600160ff1982541617905583610eeb60028701614109565b55610efc846104c26002880161419c565b6105038760018060a01b0360048801541697600988015493600a89015495604051968796339b429660068201946002600784019301918b61422f565b878103602089015260028401613f3d565b91868303604088015201613f3d565b926810d85b98d95b1b195960ba1b602082860395866060850152600981520152426080820152604033940190a3005b905083013538610e67565b6018820160005260206000209060005b601f198816811061102d5750976019957fd5543a7e8ff59ed8add299d2d102d8352c9eaa9f714b0cefb0af7573e803cf0c610f4996610f38966020610f589c978c976000805160206143bb8339815191529f889e601f19811610611013575b5050600188811b016018820155610e7e565b84013560001960038b901b60f8161c191690553880611001565b8185013583558a96508b955060019092019160209182019101610fa2565b905084013588610c3e565b90506001820160005260206000209060005b601f198a1681106110ac575088601f19811610611092575b5050600187811b016001820155610c55565b85013560001960038a901b60f8161c191690558780611080565b9091602060018192858a013581550193019101611068565b7f71fb55c0cb0fd74783d23c772b2f895cb0c286e8e0fab4f642555d8b1ffce2529150671058d8d95c1d195960c21b602060405161110181613fef565b600881520152141586610bc6565b34610701576080366003190112610701576004356001600160401b0381116107015761113f903690600401613a47565b906024356001600160401b0381116107015761115f903690600401613a47565b92906044356001600160401b03811161070157611180903690600401613a47565b906064356001600160401b038111610701576111a0903690600401613a47565b94909560ff6040518383823760208185810160048152030190205416156106ef57602090826040519384928337810160038152030190205460005260026020526040600020937f4be840e351422c3b302abb79aa7db05560ead7e387e413320822a342fca3f54e60405161121b816101678160198b01613f3d565b602081519101206650656e64696e6760c81b602060405161123b81613fef565b600781520152036106dd5760ff604051888682376020818a8101600481520301902054166106cb5761126e600054613df3565b95866000558660005260026020526040600020918783556001600160401b03891161063c576112ad896112a46001860154613e18565b60018601613e93565b886000601f82116001146117e2576000916117d7575b508960011b906000198b60031b1c19161760018401555b6112ea600288016002850161402b565b60038781015490840180546001600160a01b039283166001600160a01b0319918216179091556004808a01549086018054919093169116179055611334600580890190850161402b565b611344600688016006850161402b565b611354600788016007850161402b565b611364600888016008850161402b565b60098701546009840155600a870154600a840155611388600b8801600b850161402b565b611398600c8801600c850161402b565b6113a8600f8801600f850161402b565b6113b8601088016010850161402b565b6113c8601188016011850161402b565b6113d8601288016012850161402b565b6113e8601388016013850161402b565b6113f8601488016014850161402b565b611408601588016015850161402b565b611418601688016016850161402b565b611428601788016017850161402b565b6019830161143f6114398254613e18565b82613e69565b6010671058d8d95c1d195960c21b0190556001600160401b03851161063c576114788561146f600d860154613e18565b600d8601613e93565b846000601f82116001146117695760009161175e575b508560011b906000198760031b1c191617600d8401555b6001600160401b03811161063c57826114cf826114c6600e8c970154613e18565b600e8401613e93565b6000601f83116001146116ef57600090836116e4575b508260011b906000198460031b1c191617600e8201555b601a880154601a82015542601c82015542601b820155602001336001600160601b0360a01b825416179055826040518a888237808b8101600381520360200190205560405189878237808a81016004815203602001902060ff198154166001179055826002880161156c90614109565b558261157a6002890161419c565b9061158491613ed8565b600160a01b6001900360038801541693600988015495600a89015496604051978c610120808b528a016115b7918c613f1c565b89810360208b01526115cc9060028d01613f3d565b89810360408b01526115e19060078d01613f3d565b9160608a0152608089015287810360a089015260068a019061160291613f3d565b9087820360c089015261161492613f1c565b9085820360e087015261162692613f1c565b9242610100820152803394037feef9ce1ec3494c2b26c7001cc7bb28d45cf61587fd104b9053efe8787168f67d91a46040519360a0855260a085019061166b92613f1c565b838103602085015261167f91600201613f3d565b82810360408401526116a690604090600781526650656e64696e6760c81b60208201520190565b828103606084015260088152671058d8d95c1d195960c21b602082015260400191426080820152803393036000805160206143bb83398151915291a3005b90508301358b6114e5565b600e820160005260206000209060005b601f1985168110611743575083601f19811610611729575b5050600182811b01600e8201556114fc565b840135600019600385901b60f8161c191690558a80611717565b8186013583558b9650600190920191602091820191016116ff565b90508401358a61148e565b9050600d840160005260206000209060005b601f19881681106117bf575086601f198116106117a5575b5050600185811b01600d8401556114a5565b850135600019600388901b60f8161c191690558980611793565b9091602060018192858a01358155019301910161177b565b90508601358a6112c3565b90506001840160005260206000209060005b601f198c16811061183857508a601f1981161061181e575b5050600189811b0160018401556112da565b87013560001960038c901b60f8161c19169055898061180c565b9091602060018192858c0135815501930191016117f4565b346107015760003660031901126107015760206040516107d08152f35b34610701576000366003190112610701576001546040516001600160a01b039091168152602090f35b3461070157600319602036820112610701576001600160401b0360043511610701576102c09060043536030112610701576001600160a01b036118dd600435604401613dad565b16158015612e03575b612df1576118f8604460043501613dad565b6001600160a01b0361190e600435606401613dad565b6001600160a01b03909216911614612df15760ff6020611932600480350180613dc1565b91908260405193849283378101600481520301902054166106cb57610104600435013515612de057610124600435013515612dce576101f461197e60c460043501600435600401613dc1565b905011612dbc576107d061199c60e460043501600435600401613dc1565b905011612dbc576119ae600054613df3565b60008181558181526002602052604090208181556119d0600480350180613dc1565b906001600160401b03821161063c5781906119fb826119f26001870154613e18565b60018701613e93565b600090601f8311600114612d4b57600092612d40575b50508160011b916000199060031b1c19161760018201555b611a3d602460043501600435600401613dc1565b906001600160401b03821161063c578190611a6882611a5f6002870154613e18565b60028701613e93565b600090601f8311600114612ccf57600092612cc4575b50508160011b916000199060031b1c19161760028201555b611aa4604460043501613dad565b6003820180546001600160a01b0319166001600160a01b03909216919091179055611ad3600435606401613dad565b600482019060018060a01b03166001600160601b0360a01b825416179055611b05608460043501600435600401613dc1565b906001600160401b03821161063c578190611b3082611b276005870154613e18565b60058701613e93565b600090601f8311600114612c5357600092612c48575b50508160011b916000199060031b1c19161760058201555b611b7260a460043501600435600401613dc1565b906001600160401b03821161063c578190611b9d82611b946006870154613e18565b60068701613e93565b600090601f8311600114612bd757600092612bcc575b50508160011b916000199060031b1c19161760068201555b611bdf60c460043501600435600401613dc1565b906001600160401b03821161063c578190611c0a82611c016007870154613e18565b60078701613e93565b600090601f8311600114612b5b57600092612b50575b50508160011b916000199060031b1c19161760078201555b611c4c60e460043501600435600401613dc1565b906001600160401b03821161063c578190611c7782611c6e6008870154613e18565b60088701613e93565b600090601f8311600114612adf57600092612ad4575b50508160011b916000199060031b1c19161760088201555b600480356101048101356009840155610124810135600a840155611ccf9161014482019101613dc1565b906001600160401b03821161063c578190611cfa82611cf1600b870154613e18565b600b8701613e93565b600090601f8311600114612a6357600092612a58575b50508160011b916000199060031b1c191617600b8201555b611d3d61016460043501600435600401613dc1565b906001600160401b03821161063c578190611d6882611d5f600c870154613e18565b600c8701613e93565b600090601f83116001146129e7576000926129dc575b50508160011b916000199060031b1c191617600c8201555b611dab61018460043501600435600401613dc1565b906001600160401b03821161063c578190611dd682611dcd600f870154613e18565b600f8701613e93565b600090601f831160011461296b57600092612960575b50508160011b916000199060031b1c191617600f8201555b611e196101a460043501600435600401613dc1565b906001600160401b03821161063c578190611e4482611e3b6010870154613e18565b60108701613e93565b600090601f83116001146128ef576000926128e4575b50508160011b916000199060031b1c19161760108201555b611e876101c460043501600435600401613dc1565b906001600160401b03821161063c578190611eb282611ea96011870154613e18565b60118701613e93565b600090601f831160011461287357600092612868575b50508160011b916000199060031b1c19161760118201555b611ef56101e460043501600435600401613dc1565b906001600160401b03821161063c578190611f2082611f176012870154613e18565b60128701613e93565b600090601f83116001146127f7576000926127ec575b50508160011b916000199060031b1c19161760128201555b611f6361020460043501600435600401613dc1565b906001600160401b03821161063c578190611f8e82611f856013870154613e18565b60138701613e93565b600090601f831160011461277b57600092612770575b50508160011b916000199060031b1c19161760138201555b611fd161022460043501600435600401613dc1565b906001600160401b03821161063c578190611ffc82611ff36014870154613e18565b60148701613e93565b600090601f83116001146126ff576000926126f4575b50508160011b916000199060031b1c19161760148201555b61203f61024460043501600435600401613dc1565b906001600160401b03821161063c57819061206a826120616015870154613e18565b60158701613e93565b600090601f831160011461268357600092612678575b50508160011b916000199060031b1c19161760158201555b6120ad61026460043501600435600401613dc1565b906001600160401b03821161063c5781906120d8826120cf6016870154613e18565b60168701613e93565b600090601f8311600114612607576000926125fc575b50508160011b916000199060031b1c19161760168201555b61211b61028460043501600435600401613dc1565b906001600160401b03821161063c5781906121468261213d6017870154613e18565b60178701613e93565b600090601f831160011461258b57600092612580575b50508160011b916000199060031b1c19161760178201555b6121896102a460043501600435600401613dc1565b906001600160401b03821161063c5781906121b4826121ab6019870154613e18565b60198701613e93565b600090601f831160011461250f57600092612504575b50508160011b916000199060031b1c19161760198201555b42601a82015542601b8201556004356044016121fd90613dad565b602090910180546001600160a01b0319166001600160a01b039092169190911790558061222e600480350180613dc1565b90816040519283928337600390820190815203602001902055612255600480350180613dc1565b9081604051928392833781016004815203602001902060ff198154166001179055806004356024016004356004019061228d91613dc1565b908160405192839283378101600581520360200190205580600435602401600435600401906122bb91613dc1565b90816040519283928337810160068152036020019020906122db91613ed8565b6122e9600480350180613dc1565b9060c0526004356024016004356004019061230391613dc1565b60e05282612315604460043501613dad565b92612324606460043501613dad565b9261233760048035608481019101613dc1565b9061234a6004803560a481019101613dc1565b9061235d6004803560c481019101613dc1565b61236f6004803560e481019101613dc1565b939094600435610144016004356004019061238991613dc1565b97909860043561016401600435600401906123a391613dc1565b9b909c60043561028401600435600401906123bd91613dc1565b610100526080526040518060a05261018080915260a0510160c051916123e292613f1c565b60a051808203906020015260e0516123f992613f1c565b9060a051808303906040015261240e92613f1c565b9060a051808303906060015261242392613f1c565b9060a051808303906080015261243892613f1c565b9060a0518083039060a0015261244d92613f1c565b90600435610104013560a05160c00152600435610124013560a05160e0015260a05180830390610100015261248192613f1c565b9060a05180830390610120015261249792613f1c565b60a0518082039061014001526101005190608051916124b592613f1c565b60a080514261016090910152516001600160a01b0393841694909316927f13f51d0f5bc8c9c2667e59b60f0eebe93833a66d5ff41370267bdd9e144d07009181900390a4604051908152602090f35b0135905084806121ca565b909250601984016000526020600020906000935b601f1984168510612568576001945083601f1981161061254e575b505050811b0160198201556121e2565b0135600019600384901b60f8161c1916905584808061253e565b81810135835560209485019460019093019201612523565b01359050848061215c565b909250601784016000526020600020906000935b601f19841685106125e4576001945083601f198116106125ca575b505050811b016017820155612174565b0135600019600384901b60f8161c191690558480806125ba565b8181013583556020948501946001909301920161259f565b0135905084806120ee565b909250601684016000526020600020906000935b601f1984168510612660576001945083601f19811610612646575b505050811b016016820155612106565b0135600019600384901b60f8161c19169055848080612636565b8181013583556020948501946001909301920161261b565b013590508480612080565b909250601584016000526020600020906000935b601f19841685106126dc576001945083601f198116106126c2575b505050811b016015820155612098565b0135600019600384901b60f8161c191690558480806126b2565b81810135835560209485019460019093019201612697565b013590508480612012565b909250601484016000526020600020906000935b601f1984168510612758576001945083601f1981161061273e575b505050811b01601482015561202a565b0135600019600384901b60f8161c1916905584808061272e565b81810135835560209485019460019093019201612713565b013590508480611fa4565b909250601384016000526020600020906000935b601f19841685106127d4576001945083601f198116106127ba575b505050811b016013820155611fbc565b0135600019600384901b60f8161c191690558480806127aa565b8181013583556020948501946001909301920161278f565b013590508480611f36565b909250601284016000526020600020906000935b601f1984168510612850576001945083601f19811610612836575b505050811b016012820155611f4e565b0135600019600384901b60f8161c19169055848080612826565b8181013583556020948501946001909301920161280b565b013590508480611ec8565b909250601184016000526020600020906000935b601f19841685106128cc576001945083601f198116106128b2575b505050811b016011820155611ee0565b0135600019600384901b60f8161c191690558480806128a2565b81810135835560209485019460019093019201612887565b013590508480611e5a565b909250601084016000526020600020906000935b601f1984168510612948576001945083601f1981161061292e575b505050811b016010820155611e72565b0135600019600384901b60f8161c1916905584808061291e565b81810135835560209485019460019093019201612903565b013590508480611dec565b909250600f84016000526020600020906000935b601f19841685106129c4576001945083601f198116106129aa575b505050811b01600f820155611e04565b0135600019600384901b60f8161c1916905584808061299a565b8181013583556020948501946001909301920161297f565b013590508480611d7e565b909250600c84016000526020600020906000935b601f1984168510612a40576001945083601f19811610612a26575b505050811b01600c820155611d96565b0135600019600384901b60f8161c19169055848080612a16565b818101358355602094850194600190930192016129fb565b013590508480611d10565b909250600b84016000526020600020906000935b601f1984168510612abc576001945083601f19811610612aa2575b505050811b01600b820155611d28565b0135600019600384901b60f8161c19169055848080612a92565b81810135835560209485019460019093019201612a77565b013590508480611c8d565b909250600884016000526020600020906000935b601f1984168510612b38576001945083601f19811610612b1e575b505050811b016008820155611ca5565b0135600019600384901b60f8161c19169055848080612b0e565b81810135835560209485019460019093019201612af3565b013590508480611c20565b909250600784016000526020600020906000935b601f1984168510612bb4576001945083601f19811610612b9a575b505050811b016007820155611c38565b0135600019600384901b60f8161c19169055848080612b8a565b81810135835560209485019460019093019201612b6f565b013590508480611bb3565b909250600684016000526020600020906000935b601f1984168510612c30576001945083601f19811610612c16575b505050811b016006820155611bcb565b0135600019600384901b60f8161c19169055848080612c06565b81810135835560209485019460019093019201612beb565b013590508480611b46565b909250600584016000526020600020906000935b601f1984168510612cac576001945083601f19811610612c92575b505050811b016005820155611b5e565b0135600019600384901b60f8161c19169055848080612c82565b81810135835560209485019460019093019201612c67565b013590508480611a7e565b909250600284016000526020600020906000935b601f1984168510612d28576001945083601f19811610612d0e575b505050811b016002820155611a96565b0135600019600384901b60f8161c19169055848080612cfe565b81810135835560209485019460019093019201612ce3565b013590508480611a11565b909250600184016000526020600020906000935b601f1984168510612da4576001945083601f19811610612d8a575b505050811b016001820155611a29565b0135600019600384901b60f8161c19169055848080612d7a565b81810135835560209485019460019093019201612d5f565b604051631623655b60e31b8152600490fd5b60405163524f409b60e01b8152600490fd5b60405162bfc92160e01b8152600490fd5b60405163e6c4247b60e01b8152600490fd5b506001600160a01b03612e1a600435606401613dad565b16156118e6565b34610701576040366003190112610701576001600160401b0360043581811161070157612e52903690600401613a47565b919060243582811161070157612e6c903690600401613a47565b93909160ff6040518383823760208185810160048152030190205416156106ef576020908260405193849283378101600381520301902054918260005260026020527f71fb55c0cb0fd74783d23c772b2f895cb0c286e8e0fab4f642555d8b1ffce252610167612ee9601960406000200160405192838092613f3d565b60208151910120671058d8d95c1d195960c21b6020604051612f0a81613fef565b600881520152036106dd5760ff60405185848237602081878101600481520301902054166106cb57612f3d600054613df3565b92836000556000526002602052604060002083600052604060002091848355851161063c57612f7c85612f736001850154613e18565b60018501613e93565b846000601f82116001146133585792601c806132fa946000805160206143bb833981519152979461331e9760009161334d575b508a60011b906000198c60031b1c19161760018501555b612fd6600282016002860161402b565b60038181015490850180546001600160a01b039283166001600160a01b0319918216179091556004808401549087018054919093169116179055613020600580830190860161402b565b613030600682016006860161402b565b613040600782016007860161402b565b613050600882016008860161402b565b60098101546009850155600a810154600a850155613074600b8201600b860161402b565b613084600c8201600c860161402b565b613094600d8201600d860161402b565b6130a4600e8201600e860161402b565b6130b4600f8201600f860161402b565b6130c4601082016010860161402b565b6130d4601182016011860161402b565b6130e4601282016012860161402b565b6130f4601382016013860161402b565b613104601482016014860161402b565b613114601582016015860161402b565b613124601682016016860161402b565b613134601782016017860161402b565b601a810154601a85015501549101558460005260026020526132ec60406000209161316e6131656019850154613e18565b60198501613e69565b60126810dbdb5c1b195d195960ba1b01601984015542601e8401819055601b8401556020830180546001600160a01b031916331790556040518790898382376020818b8101600381520301902055604051888282376020818a81016004815203019020600160ff198254161790556002830192876131eb85614109565b556131f9886104c28661419c565b60018060a01b03600382015416887f7eb090b0d076732e0e2c62254d3e200f4cebcb162b68ab76d295f9dc10b543d7848c6132d060018060a01b0360048801541696600e6132c06132af8d60098501549061329361327c600a8801549261326e6040519c8d9c8d610140908181520191613f1c565b908b820360208d0152613f3d565b3360408b015289810360608b015260078801613f3d565b91608089015260a088015286810360c088015260068501613f3d565b85810360e0870152600d8401613f3d565b9184830361010086015201613f3d565b426101208301520390a46040519760a0895260a0890191613f1c565b908682036020880152613f3d565b848103604086015260409060088152671058d8d95c1d195960c21b60208201520190565b926810dbdb5c1b195d195960ba1b602082860395866060850152600981520152426080820152604033940190a3005b90508501358b612faf565b90506001830160005260206000209060005b601f19881681106133cb575092601c806132fa946000805160206143bb833981519152979461331e978b601f198116106133b1575b505060018a811b016001850155612fc6565b86013560001960038d901b60f8161c191690558a8061339f565b9091602060018192858901358155019301910161336a565b3461070157602080600319360112610701576004356001600160401b03811161070157613414903690600401613a47565b60ff60409392935182858237838184810160048152030190205416156106ef578161346b93826040519384928337810160038152030190205460005260028152613472601960406000200160405193848092613f3d565b038361400a565b610a44604051928284938452830190613a74565b3461070157602080600319360112610701576004356001600160401b038111610701576134b7903690600401613a47565b8060405192833781019082816006938481520301902090604051808385829554938481520190600052856000209260005b878282106138a1575050506134ff9250038361400a565b81519061350b8261438f565b91613519604051938461400a565b808352613528601f199161438f565b018460005b82811061388b5750505060005b835181101561382d578061355161382892866143a6565b516000526002808752604060002061016761359c6040519361357285613fd3565b8354855260405161358a816101678160018901613f3d565b8b860152604051928380928601613f3d565b60408301528760018060a01b03918260038201541660608501528260048201541660808501526040516135d6816101678160058601613f3d565b60a08501526040516135ee81610167818b8601613f3d565b60c0850152604051613607816101678160078601613f3d565b60e0850152604051613620816101678160088601613f3d565b6101008501526009810154610120850152600a8101546101408501526040516136508161016781600b8601613f3d565b61016085015260405161366a8161016781600c8601613f3d565b6101808501526040516136848161016781600d8601613f3d565b6101a085015260405161369e8161016781600e8601613f3d565b6101c08501526040516136b88161016781600f8601613f3d565b6101e08501526040516136d2816101678160108601613f3d565b6102008501526040516136ec816101678160118601613f3d565b610220850152604051613706816101678160128601613f3d565b610240850152604051613720816101678160138601613f3d565b61026085015260405161373a816101678160148601613f3d565b610280850152604051613754816101678160158601613f3d565b6102a085015260405161376e816101678160168601613f3d565b6102c0850152604051613788816101678160178601613f3d565b6102e08501526040516137a2816101678160188601613f3d565b6103008501526040516137bc816101678160198601613f3d565b610320850152601a810154610340850152601b810154610360850152601c810154610380850152601d8101546103a0850152601e8101546103c0850152601f8101546103e085015201541661040082015261381782866143a6565b5261382281856143a6565b50613df3565b61353a565b604080518681528451818801819052600092600582901b8301810191878a01918a9085015b82871061385f5785850386f35b90919293828061387b600193603f198a82030186528851613ab4565b9601920196019592919092613852565b6138936142a2565b82828701015201859061352d565b85548452600195860195889550930192016134e8565b346107015760003660031901126107015760206040516101f48152f35b3461070157602080600319360112610701576138ee6142a2565b50600435600052600281526040600020906040519161078e83613fd3565b34610701576000366003190112610701576020600054604051908152f35b3461070157602080600319360112610701576004356001600160401b0381116107015761395c82913690600401613a47565b91908260405193849283378101600681520301902060405190818382549182815201908192600052846000209060005b868282106139e25786866139a28288038361400a565b604051928392818401908285525180915260408401929160005b8281106139cb57505050500390f35b8351855286955093810193928101926001016139bc565b83548552909301926001928301920161398c565b34610701576020366003190112610701576004356001600160401b038111610701578160208093613a2d60ff943690600401613a47565b809183378101600481520301902054166040519015158152f35b9181601f84011215610701578235916001600160401b038311610701576020838186019501011161070157565b919082519283825260005b848110613aa0575050826000602080949584010152601f8019910116010190565b602081830181015184830182015201613a7f565b908151815260208201516104208060208401528201613ad291613a74565b6040830151908281036040840152613ae991613a74565b91600160a01b600190039283606083015116606084015283608083015116608084015260a08201519083810360a0850152613b2391613a74565b60c08201519083810360c0850152613b3a91613a74565b60e08201519083810360e0850152613b5191613a74565b61010090818301519184820390850152613b6a91613a74565b6101208083015190840152610140808301519084015261016090818301519184820390850152613b9991613a74565b61018090818301519184820390850152613bb291613a74565b6101a090818301519184820390850152613bcb91613a74565b6101c090818301519184820390850152613be491613a74565b6101e090818301519184820390850152613bfd91613a74565b61020090818301519184820390850152613c1691613a74565b61022090818301519184820390850152613c2f91613a74565b61024090818301519184820390850152613c4891613a74565b61026090818301519184820390850152613c6191613a74565b61028090818301519184820390850152613c7a91613a74565b6102a090818301519184820390850152613c9391613a74565b6102c090818301519184820390850152613cac91613a74565b6102e090818301519184820390850152613cc591613a74565b61030090818301519184820390850152613cde91613a74565b61032090818301519184820390850152613cf791613a74565b926103408083015190840152610360808301519084015261038080830151908401526103a080830151908401526103c080830151908401526103e08083015190840152610400809201511691015290565b906060600319830112610701576001600160401b036004358181116107015783613d7491600401613a47565b939093926024358381116107015782613d8f91600401613a47565b9390939260443591821161070157613da991600401613a47565b9091565b356001600160a01b03811681036107015790565b903590601e198136030182121561070157018035906001600160401b0382116107015760200191813603831361070157565b6000198114613e025760010190565b634e487b7160e01b600052601160045260246000fd5b90600182811c92168015613e48575b6020831014613e3257565b634e487b7160e01b600052602260045260246000fd5b91607f1691613e27565b818110613e5d575050565b60008155600101613e52565b90601f8111613e76575050565b613e9191600052601f6020600020910160051c810190613e52565b565b9190601f8111613ea257505050565b613e91926000526020600020906020601f840160051c83019310613ece575b601f0160051c0190613e52565b9091508190613ec1565b8054906801000000000000000082101561063c5760018201808255821015613f065760005260206000200155565b634e487b7160e01b600052603260045260246000fd5b908060209392818452848401376000828201840152601f01601f1916010190565b9060009291805491613f4e83613e18565b918282526001938481169081600014613fb05750600114613f70575b50505050565b90919394506000526020928360002092846000945b838610613f9c575050505001019038808080613f6a565b805485870183015294019385908201613f85565b9294505050602093945060ff191683830152151560051b01019038808080613f6a565b61042081019081106001600160401b0382111761063c57604052565b604081019081106001600160401b0382111761063c57604052565b90601f801991011681019081106001600160401b0382111761063c57604052565b908082146141055761403d8154613e18565b906001600160401b03821161063c5781906140628261405c8654613e18565b86613e93565b600090601f83116001146140995760009261408e575b50508160011b916000199060031b1c1916179055565b015490503880614078565b81526020808220858352818320935090601f1985169083905b8282106140ec5750509084600195949392106140d3575b505050811b019055565b015460001960f88460031b161c191690553880806140c9565b84958192958501548155600180910196019401906140b2565b5050565b60405190816000825461411b81613e18565b936001918083169081156141805750600114614143575b505060209250600581520301902090565b90915060005260209081600020906000915b85831061416c575050505060209181013880614132565b805487840152869450918301918101614155565b92505050602093915060ff191682528015150281013880614132565b6040519081600082546141ae81613e18565b9360019180831690811561421357506001146141d6575b505060209250600681520301902090565b90915060005260209081600020906000915b8583106141ff5750505050602091810138806141c5565b8054878401528694509183019181016141e8565b92505050602093915060ff1916825280151502810138806141c5565b9a9998949261428f946142698d6142779361425b60e09d9b9661429d9d98610100808652850191613f1c565b916020818403910152613f3d565b8d810360408f015290613f3d565b9260608c015260808b015289820360a08b0152613f3d565b9187830360c0890152613f1c565b930152565b604051906142af82613fd3565b81610400600091828152606080602083015280604083015283818301528360808301528060a08301528060c08301528060e08301528061010083015283610120830152836101408301528061016083015280610180830152806101a0830152806101c0830152806101e08301528061020083015280610220830152806102408301528061026083015280610280830152806102a0830152806102c0830152806102e083015280610300830152610320820152826103408201528261036082015282610380820152826103a0820152826103c0820152826103e08201520152565b6001600160401b03811161063c5760051b60200190565b8051821015613f065760209160051b01019056fee77c2630304c8d9f0dde30bcbd7f5f47449a9b20540195e95682659297800ad0a26469706673582212201bcd3acc1891590489819592fdd145dbf4037a58a92d4ab27e123c8e9e5757e464736f6c63430008140033",
          "opcodes": "PUSH1 0x80 DUP1 PUSH1 0x40 MSTORE CALLVALUE PUSH2 0x2C JUMPI PUSH1 0x1 DUP1 SLOAD PUSH1 0x1 PUSH1 0x1 PUSH1 0xA0 SHL SUB NOT AND CALLER OR SWAP1 SSTORE PUSH1 0x0 DUP1 SSTORE PUSH2 0x4410 SWAP1 DUP2 PUSH2 0x32 DUP3 CODECOPY RETURN JUMPDEST PUSH1 0x0 DUP1 REVERT INVALID PUSH2 0x120 DUP1 PUSH1 0x40 MSTORE PUSH1 0x4 CALLDATASIZE LT ISZERO PUSH2 0x14 JUMPI PUSH1 0x0 DUP1 REVERT JUMPDEST PUSH1 0x0 CALLDATALOAD PUSH1 0xE0 SHR SWAP1 DUP2 PUSH4 0x193BBD88 EQ PUSH2 0x39F6 JUMPI POP DUP1 PUSH4 0x1A0E0166 EQ PUSH2 0x392A JUMPI DUP1 PUSH4 0x2E7700F0 EQ PUSH2 0x390C JUMPI DUP1 PUSH4 0x33EA3DC8 EQ PUSH2 0x38D4 JUMPI DUP1 PUSH4 0x34CCC5EA EQ PUSH2 0x38B7 JUMPI DUP1 PUSH4 0x41A8BC32 EQ PUSH2 0x3486 JUMPI DUP1 PUSH4 0x7725E119 EQ PUSH2 0x33E3 JUMPI DUP1 PUSH4 0x7831D75D EQ PUSH2 0x2E21 JUMPI DUP1 PUSH4 0x8D91156F EQ PUSH2 0x1896 JUMPI DUP1 PUSH4 0x8DA5CB5B EQ PUSH2 0x186D JUMPI DUP1 PUSH4 0x9201EA0A EQ PUSH2 0x1850 JUMPI DUP1 PUSH4 0xAA6ED518 EQ PUSH2 0x110F JUMPI DUP1 PUSH4 0xD867D92F EQ PUSH2 0xB0A JUMPI DUP1 PUSH4 0xECB497D2 EQ PUSH2 0xA99 JUMPI DUP1 PUSH4 0xF1BB29FF EQ PUSH2 0xA48 JUMPI DUP1 PUSH4 0xFA7B9CC4 EQ PUSH2 0x706 JUMPI PUSH4 0xFDEE1A67 EQ PUSH2 0xDB JUMPI PUSH1 0x0 DUP1 REVERT JUMPDEST CALLVALUE PUSH2 0x701 JUMPI PUSH2 0xE9 CALLDATASIZE PUSH2 0x3D48 JUMP JUMPDEST SWAP3 SWAP2 SWAP5 PUSH1 0xFF PUSH1 0x40 SWAP6 SWAP3 SWAP6 MLOAD DUP4 DUP4 DUP3 CALLDATACOPY PUSH1 0x20 DUP2 DUP6 DUP2 ADD PUSH1 0x4 DUP2 MSTORE SUB ADD SWAP1 KECCAK256 SLOAD AND ISZERO PUSH2 0x6EF JUMPI PUSH1 0x20 SWAP1 DUP3 PUSH1 0x40 MLOAD SWAP4 DUP5 SWAP3 DUP4 CALLDATACOPY DUP2 ADD PUSH1 0x3 DUP2 MSTORE SUB ADD SWAP1 KECCAK256 SLOAD PUSH1 0x0 MSTORE PUSH1 0x2 PUSH1 0x20 MSTORE PUSH1 0x40 PUSH1 0x0 KECCAK256 SWAP2 PUSH32 0x4BE840E351422C3B302ABB79AA7DB05560EAD7E387E413320822A342FCA3F54E PUSH1 0x40 MLOAD PUSH2 0x16E DUP2 PUSH2 0x167 DUP2 PUSH1 0x19 DUP10 ADD PUSH2 0x3F3D JUMP JUMPDEST SUB DUP3 PUSH2 0x400A JUMP JUMPDEST PUSH1 0x20 DUP2 MLOAD SWAP2 ADD KECCAK256 PUSH7 0x50656E64696E67 PUSH1 0xC8 SHL PUSH1 0x20 PUSH1 0x40 MLOAD PUSH2 0x18E DUP2 PUSH2 0x3FEF JUMP JUMPDEST PUSH1 0x7 DUP2 MSTORE ADD MSTORE SUB PUSH2 0x6DD JUMPI PUSH1 0xFF PUSH1 0x40 MLOAD DUP7 DUP5 DUP3 CALLDATACOPY PUSH1 0x20 DUP2 DUP9 DUP2 ADD PUSH1 0x4 DUP2 MSTORE SUB ADD SWAP1 KECCAK256 SLOAD AND PUSH2 0x6CB JUMPI PUSH2 0x1C1 PUSH1 0x0 SLOAD PUSH2 0x3DF3 JUMP JUMPDEST SWAP4 DUP5 PUSH1 0x0 SSTORE DUP5 PUSH1 0x0 MSTORE PUSH1 0x2 PUSH1 0x20 MSTORE PUSH1 0x40 PUSH1 0x0 KECCAK256 DUP6 DUP2 SSTORE PUSH1 0x1 PUSH1 0x1 PUSH1 0x40 SHL SUB DUP8 GT PUSH2 0x63C JUMPI PUSH2 0x1FF DUP8 PUSH2 0x1F6 PUSH1 0x1 DUP5 ADD SLOAD PUSH2 0x3E18 JUMP JUMPDEST PUSH1 0x1 DUP5 ADD PUSH2 0x3E93 JUMP JUMPDEST DUP7 PUSH1 0x0 PUSH1 0x1F DUP3 GT PUSH1 0x1 EQ PUSH2 0x65D JUMPI PUSH1 0x0 SWAP2 PUSH2 0x652 JUMPI JUMPDEST POP DUP8 PUSH1 0x1 SHL SWAP1 PUSH1 0x0 NOT DUP10 PUSH1 0x3 SHL SHR NOT AND OR PUSH1 0x1 DUP3 ADD SSTORE JUMPDEST PUSH2 0x23C PUSH1 0x2 DUP7 ADD PUSH1 0x2 DUP4 ADD PUSH2 0x402B JUMP JUMPDEST PUSH1 0x3 DUP6 DUP2 ADD SLOAD SWAP1 DUP3 ADD DUP1 SLOAD PUSH1 0x1 PUSH1 0x1 PUSH1 0xA0 SHL SUB SWAP3 DUP4 AND PUSH1 0x1 PUSH1 0x1 PUSH1 0xA0 SHL SUB NOT SWAP2 DUP3 AND OR SWAP1 SWAP2 SSTORE PUSH1 0x4 DUP1 DUP9 ADD SLOAD SWAP1 DUP5 ADD DUP1 SLOAD SWAP2 SWAP1 SWAP4 AND SWAP2 AND OR SWAP1 SSTORE PUSH2 0x286 PUSH1 0x5 DUP1 DUP8 ADD SWAP1 DUP4 ADD PUSH2 0x402B JUMP JUMPDEST PUSH2 0x296 PUSH1 0x6 DUP7 ADD PUSH1 0x6 DUP4 ADD PUSH2 0x402B JUMP JUMPDEST PUSH2 0x2A6 PUSH1 0x7 DUP7 ADD PUSH1 0x7 DUP4 ADD PUSH2 0x402B JUMP JUMPDEST PUSH2 0x2B6 PUSH1 0x8 DUP7 ADD PUSH1 0x8 DUP4 ADD PUSH2 0x402B JUMP JUMPDEST PUSH1 0x9 DUP6 ADD SLOAD PUSH1 0x9 DUP3 ADD SSTORE PUSH1 0xA DUP6 ADD SLOAD PUSH1 0xA DUP3 ADD SSTORE PUSH2 0x2DA PUSH1 0xB DUP7 ADD PUSH1 0xB DUP4 ADD PUSH2 0x402B JUMP JUMPDEST PUSH2 0x2EA PUSH1 0xC DUP7 ADD PUSH1 0xC DUP4 ADD PUSH2 0x402B JUMP JUMPDEST PUSH2 0x2FA PUSH1 0xF DUP7 ADD PUSH1 0xF DUP4 ADD PUSH2 0x402B JUMP JUMPDEST PUSH2 0x30A PUSH1 0x10 DUP7 ADD PUSH1 0x10 DUP4 ADD PUSH2 0x402B JUMP JUMPDEST PUSH2 0x31A PUSH1 0x11 DUP7 ADD PUSH1 0x11 DUP4 ADD PUSH2 0x402B JUMP JUMPDEST PUSH2 0x32A PUSH1 0x12 DUP7 ADD PUSH1 0x12 DUP4 ADD PUSH2 0x402B JUMP JUMPDEST PUSH2 0x33A PUSH1 0x13 DUP7 ADD PUSH1 0x13 DUP4 ADD PUSH2 0x402B JUMP JUMPDEST PUSH2 0x34A PUSH1 0x14 DUP7 ADD PUSH1 0x14 DUP4 ADD PUSH2 0x402B JUMP JUMPDEST PUSH2 0x35A PUSH1 0x15 DUP7 ADD PUSH1 0x15 DUP4 ADD PUSH2 0x402B JUMP JUMPDEST PUSH2 0x36A PUSH1 0x16 DUP7 ADD PUSH1 0x16 DUP4 ADD PUSH2 0x402B JUMP JUMPDEST PUSH2 0x37A PUSH1 0x17 DUP7 ADD PUSH1 0x17 DUP4 ADD PUSH2 0x402B JUMP JUMPDEST PUSH2 0x393 PUSH2 0x38A PUSH1 0x19 DUP4 ADD SLOAD PUSH2 0x3E18 JUMP JUMPDEST PUSH1 0x19 DUP4 ADD PUSH2 0x3E69 JUMP JUMPDEST PUSH1 0x10 PUSH8 0x14995A9958DD1959 PUSH1 0xC2 SHL ADD PUSH1 0x19 DUP3 ADD SSTORE PUSH1 0x1 PUSH1 0x1 PUSH1 0x40 SHL SUB DUP4 GT PUSH2 0x63C JUMPI DUP6 SWAP2 DUP2 PUSH2 0x3D3 DUP6 PUSH2 0x3CA PUSH1 0x18 DUP13 SWAP7 ADD SLOAD PUSH2 0x3E18 JUMP JUMPDEST PUSH1 0x18 DUP5 ADD PUSH2 0x3E93 JUMP JUMPDEST PUSH1 0x0 PUSH1 0x1F DUP7 GT PUSH1 0x1 EQ PUSH2 0x583 JUMPI SWAP7 DUP6 DUP2 SWAP6 PUSH32 0x531E4B2662C1B55B8B19314878DC42EB123A3E19682801AEA1CEAFB174D4A619 PUSH1 0x2 SWAP7 PUSH2 0x518 SWAP7 PUSH1 0x20 PUSH2 0x54A SWAP13 SWAP8 PUSH2 0x527 SWAP13 PUSH1 0x0 DUP1 MLOAD PUSH1 0x20 PUSH2 0x43BB DUP4 CODECOPY DUP2 MLOAD SWAP2 MSTORE SWAP16 PUSH1 0x0 SWAP2 PUSH2 0x578 JUMPI JUMPDEST POP DUP8 PUSH1 0x1 SHL SWAP1 PUSH1 0x0 NOT DUP10 PUSH1 0x3 SHL SHR NOT AND OR PUSH1 0x18 DUP3 ADD SSTORE JUMPDEST PUSH1 0x1A DUP9 ADD SLOAD PUSH1 0x1A DUP3 ADD SSTORE TIMESTAMP PUSH1 0x1D DUP3 ADD SSTORE TIMESTAMP PUSH1 0x1B DUP3 ADD SSTORE ADD CALLER PUSH1 0x1 PUSH1 0x1 PUSH1 0x60 SHL SUB PUSH1 0xA0 SHL DUP3 SLOAD AND OR SWAP1 SSTORE DUP4 PUSH1 0x40 MLOAD DUP4 DUP10 DUP3 CALLDATACOPY PUSH1 0x20 DUP2 DUP6 DUP2 ADD PUSH1 0x3 DUP2 MSTORE SUB ADD SWAP1 KECCAK256 SSTORE PUSH1 0x40 MLOAD DUP3 DUP9 DUP3 CALLDATACOPY PUSH1 0x20 DUP2 DUP5 DUP2 ADD PUSH1 0x4 DUP2 MSTORE SUB ADD SWAP1 KECCAK256 PUSH1 0x1 PUSH1 0xFF NOT DUP3 SLOAD AND OR SWAP1 SSTORE DUP4 PUSH2 0x4B2 DUP11 DUP9 ADD PUSH2 0x4109 JUMP JUMPDEST SSTORE PUSH2 0x4C7 DUP5 PUSH2 0x4C2 DUP12 DUP10 ADD PUSH2 0x419C JUMP JUMPDEST PUSH2 0x3ED8 JUMP JUMPDEST PUSH2 0x503 DUP8 PUSH1 0x1 DUP1 PUSH1 0xA0 SHL SUB PUSH1 0x3 DUP10 ADD SLOAD AND SWAP7 PUSH1 0x9 DUP10 ADD SLOAD SWAP4 PUSH1 0xA DUP11 ADD SLOAD SWAP6 PUSH1 0x40 MLOAD SWAP7 DUP8 SWAP7 CALLER SWAP13 TIMESTAMP SWAP7 PUSH1 0x6 DUP3 ADD SWAP5 PUSH1 0x2 PUSH1 0x7 DUP5 ADD SWAP4 ADD SWAP2 DUP12 PUSH2 0x422F JUMP JUMPDEST SUB SWAP1 LOG4 PUSH1 0x40 MLOAD SWAP9 PUSH1 0xA0 DUP11 MSTORE PUSH1 0xA0 DUP11 ADD SWAP2 PUSH2 0x3F1C JUMP JUMPDEST SWAP2 DUP8 DUP4 SUB PUSH1 0x20 DUP10 ADD MSTORE ADD PUSH2 0x3F3D JUMP JUMPDEST DUP5 DUP2 SUB PUSH1 0x40 DUP7 ADD MSTORE PUSH1 0x40 SWAP1 PUSH1 0x7 DUP2 MSTORE PUSH7 0x50656E64696E67 PUSH1 0xC8 SHL PUSH1 0x20 DUP3 ADD MSTORE ADD SWAP1 JUMP JUMPDEST SWAP3 PUSH8 0x14995A9958DD1959 PUSH1 0xC2 SHL PUSH1 0x20 DUP3 DUP7 SUB SWAP6 DUP7 PUSH1 0x60 DUP6 ADD MSTORE PUSH1 0x8 DUP2 MSTORE ADD MSTORE TIMESTAMP PUSH1 0x80 DUP3 ADD MSTORE PUSH1 0x40 CALLER SWAP5 ADD SWAP1 LOG3 STOP JUMPDEST SWAP1 POP DUP4 ADD CALLDATALOAD CODESIZE PUSH2 0x42F JUMP JUMPDEST PUSH1 0x18 DUP3 ADD PUSH1 0x0 MSTORE PUSH1 0x20 PUSH1 0x0 KECCAK256 SWAP1 PUSH1 0x0 JUMPDEST PUSH1 0x1F NOT DUP9 AND DUP2 LT PUSH2 0x61E JUMPI POP SWAP6 DUP9 SWAP6 PUSH32 0x531E4B2662C1B55B8B19314878DC42EB123A3E19682801AEA1CEAFB174D4A619 PUSH1 0x2 SWAP7 PUSH2 0x518 SWAP7 PUSH1 0x20 PUSH2 0x54A SWAP13 SWAP8 PUSH1 0x0 DUP1 MLOAD PUSH1 0x20 PUSH2 0x43BB DUP4 CODECOPY DUP2 MLOAD SWAP2 MSTORE SWAP15 SWAP8 PUSH2 0x527 SWAP14 DUP9 PUSH1 0x1F NOT DUP2 AND LT PUSH2 0x604 JUMPI JUMPDEST POP POP PUSH1 0x1 DUP8 DUP2 SHL ADD PUSH1 0x18 DUP3 ADD SSTORE PUSH2 0x446 JUMP JUMPDEST DUP5 ADD CALLDATALOAD PUSH1 0x0 NOT PUSH1 0x3 DUP11 SWAP1 SHL PUSH1 0xF8 AND SHR NOT AND SWAP1 SSTORE CODESIZE DUP1 PUSH2 0x5F2 JUMP JUMPDEST DUP2 DUP6 ADD CALLDATALOAD DUP4 SSTORE DUP11 SWAP7 POP DUP12 SWAP6 POP PUSH1 0x1 SWAP1 SWAP3 ADD SWAP2 PUSH1 0x20 SWAP2 DUP3 ADD SWAP2 ADD PUSH2 0x593 JUMP JUMPDEST PUSH4 0x4E487B71 PUSH1 0xE0 SHL PUSH1 0x0 MSTORE PUSH1 0x41 PUSH1 0x4 MSTORE PUSH1 0x24 PUSH1 0x0 REVERT JUMPDEST SWAP1 POP DUP5 ADD CALLDATALOAD CODESIZE PUSH2 0x215 JUMP JUMPDEST SWAP1 POP PUSH1 0x1 DUP3 ADD PUSH1 0x0 MSTORE PUSH1 0x20 PUSH1 0x0 KECCAK256 SWAP1 PUSH1 0x0 JUMPDEST PUSH1 0x1F NOT DUP11 AND DUP2 LT PUSH2 0x6B3 JUMPI POP DUP9 PUSH1 0x1F NOT DUP2 AND LT PUSH2 0x699 JUMPI JUMPDEST POP POP PUSH1 0x1 DUP8 DUP2 SHL ADD PUSH1 0x1 DUP3 ADD SSTORE PUSH2 0x22C JUMP JUMPDEST DUP6 ADD CALLDATALOAD PUSH1 0x0 NOT PUSH1 0x3 DUP11 SWAP1 SHL PUSH1 0xF8 AND SHR NOT AND SWAP1 SSTORE CODESIZE DUP1 PUSH2 0x687 JUMP JUMPDEST SWAP1 SWAP2 PUSH1 0x20 PUSH1 0x1 DUP2 SWAP3 DUP6 DUP11 ADD CALLDATALOAD DUP2 SSTORE ADD SWAP4 ADD SWAP2 ADD PUSH2 0x66F JUMP JUMPDEST PUSH1 0x40 MLOAD PUSH4 0x2928418B PUSH1 0xE0 SHL DUP2 MSTORE PUSH1 0x4 SWAP1 REVERT JUMPDEST PUSH1 0x40 MLOAD PUSH4 0x88BD323 PUSH1 0xE1 SHL DUP2 MSTORE PUSH1 0x4 SWAP1 REVERT JUMPDEST PUSH1 0x40 MLOAD PUSH4 0x31FB878F PUSH1 0xE0 SHL DUP2 MSTORE PUSH1 0x4 SWAP1 REVERT JUMPDEST PUSH1 0x0 DUP1 REVERT JUMPDEST CALLVALUE PUSH2 0x701 JUMPI PUSH1 0x20 DUP1 PUSH1 0x3 NOT CALLDATASIZE ADD SLT PUSH2 0x701 JUMPI PUSH1 0x4 CALLDATALOAD PUSH1 0x1 PUSH1 0x1 PUSH1 0x40 SHL SUB DUP2 GT PUSH2 0x701 JUMPI PUSH2 0x737 SWAP1 CALLDATASIZE SWAP1 PUSH1 0x4 ADD PUSH2 0x3A47 JUMP JUMPDEST SWAP1 PUSH2 0x740 PUSH2 0x42A2 JUMP JUMPDEST POP PUSH1 0xFF PUSH1 0x40 MLOAD DUP4 DUP4 DUP3 CALLDATACOPY DUP5 DUP2 DUP6 DUP2 ADD PUSH1 0x4 DUP2 MSTORE SUB ADD SWAP1 KECCAK256 SLOAD AND ISZERO PUSH2 0x6EF JUMPI DUP3 SWAP1 DUP3 PUSH1 0x40 MLOAD SWAP4 DUP5 SWAP3 DUP4 CALLDATACOPY DUP2 ADD PUSH1 0x3 DUP2 MSTORE SUB ADD SWAP1 KECCAK256 SLOAD PUSH1 0x0 MSTORE PUSH1 0x2 DUP2 MSTORE PUSH1 0x40 PUSH1 0x0 KECCAK256 SWAP1 PUSH1 0x40 MLOAD SWAP2 PUSH2 0x78E DUP4 PUSH2 0x3FD3 JUMP JUMPDEST DUP1 SLOAD DUP4 MSTORE PUSH1 0x40 MLOAD PUSH2 0x7A6 DUP2 PUSH2 0x167 DUP2 PUSH1 0x1 DUP7 ADD PUSH2 0x3F3D JUMP JUMPDEST DUP3 DUP5 ADD MSTORE PUSH1 0x40 MLOAD PUSH2 0x7BE DUP2 PUSH2 0x167 DUP2 PUSH1 0x2 DUP7 ADD PUSH2 0x3F3D JUMP JUMPDEST PUSH1 0x40 DUP5 ADD MSTORE DUP2 PUSH1 0x1 DUP1 PUSH1 0xA0 SHL SUB SWAP2 DUP3 PUSH1 0x3 DUP3 ADD SLOAD AND PUSH1 0x60 DUP7 ADD MSTORE DUP3 PUSH1 0x4 DUP3 ADD SLOAD AND PUSH1 0x80 DUP7 ADD MSTORE PUSH1 0x40 MLOAD PUSH2 0x7F8 DUP2 PUSH2 0x167 DUP2 PUSH1 0x5 DUP7 ADD PUSH2 0x3F3D JUMP JUMPDEST PUSH1 0xA0 DUP7 ADD MSTORE PUSH1 0x40 MLOAD PUSH2 0x811 DUP2 PUSH2 0x167 DUP2 PUSH1 0x6 DUP7 ADD PUSH2 0x3F3D JUMP JUMPDEST PUSH1 0xC0 DUP7 ADD MSTORE PUSH1 0x40 MLOAD PUSH2 0x82A DUP2 PUSH2 0x167 DUP2 PUSH1 0x7 DUP7 ADD PUSH2 0x3F3D JUMP JUMPDEST PUSH1 0xE0 DUP7 ADD MSTORE PUSH1 0x40 MLOAD PUSH2 0x843 DUP2 PUSH2 0x167 DUP2 PUSH1 0x8 DUP7 ADD PUSH2 0x3F3D JUMP JUMPDEST PUSH2 0x100 DUP7 ADD MSTORE PUSH1 0x9 DUP2 ADD SLOAD PUSH2 0x120 DUP7 ADD MSTORE PUSH1 0xA DUP2 ADD SLOAD PUSH2 0x140 DUP7 ADD MSTORE PUSH1 0x40 MLOAD PUSH2 0x873 DUP2 PUSH2 0x167 DUP2 PUSH1 0xB DUP7 ADD PUSH2 0x3F3D JUMP JUMPDEST PUSH2 0x160 DUP7 ADD MSTORE PUSH1 0x40 MLOAD PUSH2 0x88D DUP2 PUSH2 0x167 DUP2 PUSH1 0xC DUP7 ADD PUSH2 0x3F3D JUMP JUMPDEST PUSH2 0x180 DUP7 ADD MSTORE PUSH1 0x40 MLOAD PUSH2 0x8A7 DUP2 PUSH2 0x167 DUP2 PUSH1 0xD DUP7 ADD PUSH2 0x3F3D JUMP JUMPDEST PUSH2 0x1A0 DUP7 ADD MSTORE PUSH1 0x40 MLOAD PUSH2 0x8C1 DUP2 PUSH2 0x167 DUP2 PUSH1 0xE DUP7 ADD PUSH2 0x3F3D JUMP JUMPDEST PUSH2 0x1C0 DUP7 ADD MSTORE PUSH1 0x40 MLOAD PUSH2 0x8DB DUP2 PUSH2 0x167 DUP2 PUSH1 0xF DUP7 ADD PUSH2 0x3F3D JUMP JUMPDEST PUSH2 0x1E0 DUP7 ADD MSTORE PUSH1 0x40 MLOAD PUSH2 0x8F5 DUP2 PUSH2 0x167 DUP2 PUSH1 0x10 DUP7 ADD PUSH2 0x3F3D JUMP JUMPDEST PUSH2 0x200 DUP7 ADD MSTORE PUSH1 0x40 MLOAD PUSH2 0x90F DUP2 PUSH2 0x167 DUP2 PUSH1 0x11 DUP7 ADD PUSH2 0x3F3D JUMP JUMPDEST PUSH2 0x220 DUP7 ADD MSTORE PUSH1 0x40 MLOAD PUSH2 0x929 DUP2 PUSH2 0x167 DUP2 PUSH1 0x12 DUP7 ADD PUSH2 0x3F3D JUMP JUMPDEST PUSH2 0x240 DUP7 ADD MSTORE PUSH1 0x40 MLOAD PUSH2 0x943 DUP2 PUSH2 0x167 DUP2 PUSH1 0x13 DUP7 ADD PUSH2 0x3F3D JUMP JUMPDEST PUSH2 0x260 DUP7 ADD MSTORE PUSH1 0x40 MLOAD PUSH2 0x95D DUP2 PUSH2 0x167 DUP2 PUSH1 0x14 DUP7 ADD PUSH2 0x3F3D JUMP JUMPDEST PUSH2 0x280 DUP7 ADD MSTORE PUSH1 0x40 MLOAD PUSH2 0x977 DUP2 PUSH2 0x167 DUP2 PUSH1 0x15 DUP7 ADD PUSH2 0x3F3D JUMP JUMPDEST PUSH2 0x2A0 DUP7 ADD MSTORE PUSH1 0x40 MLOAD PUSH2 0x991 DUP2 PUSH2 0x167 DUP2 PUSH1 0x16 DUP7 ADD PUSH2 0x3F3D JUMP JUMPDEST PUSH2 0x2C0 DUP7 ADD MSTORE PUSH1 0x40 MLOAD PUSH2 0x9AB DUP2 PUSH2 0x167 DUP2 PUSH1 0x17 DUP7 ADD PUSH2 0x3F3D JUMP JUMPDEST PUSH2 0x2E0 DUP7 ADD MSTORE PUSH1 0x40 MLOAD PUSH2 0x9C5 DUP2 PUSH2 0x167 DUP2 PUSH1 0x18 DUP7 ADD PUSH2 0x3F3D JUMP JUMPDEST PUSH2 0x300 DUP7 ADD MSTORE PUSH1 0x40 MLOAD PUSH2 0x9DF DUP2 PUSH2 0x167 DUP2 PUSH1 0x19 DUP7 ADD PUSH2 0x3F3D JUMP JUMPDEST PUSH2 0x320 DUP7 ADD MSTORE PUSH1 0x1A DUP2 ADD SLOAD PUSH2 0x340 DUP7 ADD MSTORE PUSH1 0x1B DUP2 ADD SLOAD PUSH2 0x360 DUP7 ADD MSTORE PUSH1 0x1C DUP2 ADD SLOAD PUSH2 0x380 DUP7 ADD MSTORE PUSH1 0x1D DUP2 ADD SLOAD PUSH2 0x3A0 DUP7 ADD MSTORE PUSH1 0x1E DUP2 ADD SLOAD PUSH2 0x3C0 DUP7 ADD MSTORE PUSH1 0x1F DUP2 ADD SLOAD PUSH2 0x3E0 DUP7 ADD MSTORE ADD SLOAD AND PUSH2 0x400 DUP4 ADD MSTORE PUSH2 0xA44 PUSH1 0x40 MLOAD SWAP3 DUP3 DUP5 SWAP4 DUP5 MSTORE DUP4 ADD SWAP1 PUSH2 0x3AB4 JUMP JUMPDEST SUB SWAP1 RETURN JUMPDEST CALLVALUE PUSH2 0x701 JUMPI PUSH1 0x20 CALLDATASIZE PUSH1 0x3 NOT ADD SLT PUSH2 0x701 JUMPI PUSH1 0x4 CALLDATALOAD PUSH1 0x1 PUSH1 0x1 PUSH1 0x40 SHL SUB DUP2 GT PUSH2 0x701 JUMPI PUSH1 0x20 PUSH2 0xA7B DUP2 SWAP3 CALLDATASIZE SWAP1 PUSH1 0x4 ADD PUSH2 0x3A47 JUMP JUMPDEST SWAP2 SWAP1 DUP3 PUSH1 0x40 MLOAD SWAP4 DUP5 SWAP3 DUP4 CALLDATACOPY DUP2 ADD PUSH1 0x3 DUP2 MSTORE SUB ADD SWAP1 KECCAK256 SLOAD PUSH1 0x40 MLOAD SWAP1 DUP2 MSTORE RETURN JUMPDEST CALLVALUE PUSH2 0x701 JUMPI PUSH1 0x20 DUP1 PUSH1 0x3 NOT CALLDATASIZE ADD SLT PUSH2 0x701 JUMPI PUSH1 0x4 CALLDATALOAD PUSH1 0x1 PUSH1 0x1 PUSH1 0x40 SHL SUB DUP2 GT PUSH2 0x701 JUMPI PUSH2 0xACB DUP3 SWAP2 CALLDATASIZE SWAP1 PUSH1 0x4 ADD PUSH2 0x3A47 JUMP JUMPDEST SWAP2 SWAP1 PUSH2 0xAD5 PUSH2 0x42A2 JUMP JUMPDEST POP DUP3 PUSH1 0x40 MLOAD SWAP4 DUP5 SWAP3 DUP4 CALLDATACOPY DUP2 ADD PUSH1 0x5 DUP2 MSTORE SUB ADD SWAP1 KECCAK256 SLOAD DUP1 ISZERO PUSH2 0x6EF JUMPI PUSH1 0x0 MSTORE PUSH1 0x2 DUP2 MSTORE PUSH1 0x40 PUSH1 0x0 KECCAK256 SWAP1 PUSH1 0x40 MLOAD SWAP2 PUSH2 0x78E DUP4 PUSH2 0x3FD3 JUMP JUMPDEST CALLVALUE PUSH2 0x701 JUMPI PUSH2 0xB18 CALLDATASIZE PUSH2 0x3D48 JUMP JUMPDEST SWAP3 SWAP2 SWAP5 PUSH1 0xFF PUSH1 0x40 SWAP6 SWAP3 SWAP6 MLOAD DUP4 DUP4 DUP3 CALLDATACOPY PUSH1 0x20 DUP2 DUP6 DUP2 ADD PUSH1 0x4 DUP2 MSTORE SUB ADD SWAP1 KECCAK256 SLOAD AND ISZERO PUSH2 0x6EF JUMPI PUSH1 0x20 SWAP1 DUP3 PUSH1 0x40 MLOAD SWAP4 DUP5 SWAP3 DUP4 CALLDATACOPY DUP2 ADD PUSH1 0x3 DUP2 MSTORE SUB ADD SWAP1 KECCAK256 SLOAD PUSH1 0x0 MSTORE PUSH1 0x2 PUSH1 0x20 MSTORE PUSH1 0x40 PUSH1 0x0 KECCAK256 SWAP2 PUSH1 0x40 MLOAD PUSH2 0xB75 DUP2 PUSH2 0x167 DUP2 PUSH1 0x19 DUP9 ADD PUSH2 0x3F3D JUMP JUMPDEST PUSH1 0x20 DUP2 MLOAD SWAP2 ADD KECCAK256 PUSH7 0x50656E64696E67 PUSH1 0xC8 SHL PUSH1 0x20 PUSH1 0x40 MLOAD PUSH2 0xB95 DUP2 PUSH2 0x3FEF JUMP JUMPDEST PUSH1 0x7 DUP2 MSTORE ADD MSTORE PUSH32 0x4BE840E351422C3B302ABB79AA7DB05560EAD7E387E413320822A342FCA3F54E DUP2 EQ ISZERO SWAP1 DUP2 PUSH2 0x10C4 JUMPI JUMPDEST POP PUSH2 0x6DD JUMPI PUSH1 0xFF PUSH1 0x40 MLOAD DUP7 DUP5 DUP3 CALLDATACOPY PUSH1 0x20 DUP2 DUP9 DUP2 ADD PUSH1 0x4 DUP2 MSTORE SUB ADD SWAP1 KECCAK256 SLOAD AND PUSH2 0x6CB JUMPI PUSH2 0xBF3 PUSH1 0x0 SLOAD PUSH2 0x3DF3 JUMP JUMPDEST SWAP4 DUP5 PUSH1 0x0 SSTORE DUP5 PUSH1 0x0 MSTORE PUSH1 0x2 PUSH1 0x20 MSTORE PUSH1 0x40 PUSH1 0x0 KECCAK256 DUP6 DUP2 SSTORE PUSH1 0x1 PUSH1 0x1 PUSH1 0x40 SHL SUB DUP8 GT PUSH2 0x63C JUMPI PUSH2 0xC28 DUP8 PUSH2 0x1F6 PUSH1 0x1 DUP5 ADD SLOAD PUSH2 0x3E18 JUMP JUMPDEST DUP7 PUSH1 0x0 PUSH1 0x1F DUP3 GT PUSH1 0x1 EQ PUSH2 0x1056 JUMPI PUSH1 0x0 SWAP2 PUSH2 0x104B JUMPI JUMPDEST POP DUP8 PUSH1 0x1 SHL SWAP1 PUSH1 0x0 NOT DUP10 PUSH1 0x3 SHL SHR NOT AND OR PUSH1 0x1 DUP3 ADD SSTORE JUMPDEST PUSH2 0xC65 PUSH1 0x2 DUP7 ADD PUSH1 0x2 DUP4 ADD PUSH2 0x402B JUMP JUMPDEST PUSH1 0x3 DUP6 DUP2 ADD SLOAD SWAP1 DUP3 ADD DUP1 SLOAD PUSH1 0x1 PUSH1 0x1 PUSH1 0xA0 SHL SUB SWAP3 DUP4 AND PUSH1 0x1 PUSH1 0x1 PUSH1 0xA0 SHL SUB NOT SWAP2 DUP3 AND OR SWAP1 SWAP2 SSTORE PUSH1 0x4 DUP1 DUP9 ADD SLOAD SWAP1 DUP5 ADD DUP1 SLOAD SWAP2 SWAP1 SWAP4 AND SWAP2 AND OR SWAP1 SSTORE PUSH2 0xCAF PUSH1 0x5 DUP1 DUP8 ADD SWAP1 DUP4 ADD PUSH2 0x402B JUMP JUMPDEST PUSH2 0xCBF PUSH1 0x6 DUP7 ADD PUSH1 0x6 DUP4 ADD PUSH2 0x402B JUMP JUMPDEST PUSH2 0xCCF PUSH1 0x7 DUP7 ADD PUSH1 0x7 DUP4 ADD PUSH2 0x402B JUMP JUMPDEST PUSH2 0xCDF PUSH1 0x8 DUP7 ADD PUSH1 0x8 DUP4 ADD PUSH2 0x402B JUMP JUMPDEST PUSH1 0x9 DUP6 ADD SLOAD PUSH1 0x9 DUP3 ADD SSTORE PUSH1 0xA DUP6 ADD SLOAD PUSH1 0xA DUP3 ADD SSTORE PUSH2 0xD03 PUSH1 0xB DUP7 ADD PUSH1 0xB DUP4 ADD PUSH2 0x402B JUMP JUMPDEST PUSH2 0xD13 PUSH1 0xC DUP7 ADD PUSH1 0xC DUP4 ADD PUSH2 0x402B JUMP JUMPDEST PUSH2 0xD23 PUSH1 0xD DUP7 ADD PUSH1 0xD DUP4 ADD PUSH2 0x402B JUMP JUMPDEST PUSH2 0xD33 PUSH1 0xE DUP7 ADD PUSH1 0xE DUP4 ADD PUSH2 0x402B JUMP JUMPDEST PUSH2 0xD43 PUSH1 0xF DUP7 ADD PUSH1 0xF DUP4 ADD PUSH2 0x402B JUMP JUMPDEST PUSH2 0xD53 PUSH1 0x10 DUP7 ADD PUSH1 0x10 DUP4 ADD PUSH2 0x402B JUMP JUMPDEST PUSH2 0xD63 PUSH1 0x11 DUP7 ADD PUSH1 0x11 DUP4 ADD PUSH2 0x402B JUMP JUMPDEST PUSH2 0xD73 PUSH1 0x12 DUP7 ADD PUSH1 0x12 DUP4 ADD PUSH2 0x402B JUMP JUMPDEST PUSH2 0xD83 PUSH1 0x13 DUP7 ADD PUSH1 0x13 DUP4 ADD PUSH2 0x402B JUMP JUMPDEST PUSH2 0xD93 PUSH1 0x14 DUP7 ADD PUSH1 0x14 DUP4 ADD PUSH2 0x402B JUMP JUMPDEST PUSH2 0xDA3 PUSH1 0x15 DUP7 ADD PUSH1 0x15 DUP4 ADD PUSH2 0x402B JUMP JUMPDEST PUSH2 0xDB3 PUSH1 0x16 DUP7 ADD PUSH1 0x16 DUP4 ADD PUSH2 0x402B JUMP JUMPDEST PUSH2 0xDC3 PUSH1 0x17 DUP7 ADD PUSH1 0x17 DUP4 ADD PUSH2 0x402B JUMP JUMPDEST PUSH2 0xDD3 PUSH2 0x38A PUSH1 0x19 DUP4 ADD SLOAD PUSH2 0x3E18 JUMP JUMPDEST PUSH1 0x12 PUSH9 0x10D85B98D95B1B1959 PUSH1 0xBA SHL ADD PUSH1 0x19 DUP3 ADD SSTORE PUSH1 0x1 PUSH1 0x1 PUSH1 0x40 SHL SUB DUP4 GT PUSH2 0x63C JUMPI DUP6 SWAP2 DUP2 PUSH2 0xE0B DUP6 PUSH2 0x3CA PUSH1 0x18 DUP13 SWAP7 ADD SLOAD PUSH2 0x3E18 JUMP JUMPDEST PUSH1 0x0 PUSH1 0x1F DUP7 GT PUSH1 0x1 EQ PUSH2 0xF92 JUMPI SWAP5 DUP8 PUSH1 0x19 SWAP6 PUSH32 0xD5543A7E8FF59ED8ADD299D2D102D8352C9EAA9F714B0CEFB0AF7573E803CF0C PUSH2 0xF49 SWAP7 PUSH2 0xF38 SWAP7 PUSH1 0x20 PUSH2 0xF58 SWAP13 SWAP8 DUP8 PUSH1 0x0 DUP1 MLOAD PUSH1 0x20 PUSH2 0x43BB DUP4 CODECOPY DUP2 MLOAD SWAP2 MSTORE SWAP16 SWAP14 PUSH1 0x0 SWAP2 PUSH2 0xF87 JUMPI JUMPDEST POP DUP9 PUSH1 0x1 SHL SWAP1 PUSH1 0x0 NOT DUP11 PUSH1 0x3 SHL SHR NOT AND OR PUSH1 0x18 DUP3 ADD SSTORE JUMPDEST PUSH1 0x1A DUP8 ADD SLOAD PUSH1 0x1A DUP3 ADD SSTORE TIMESTAMP PUSH1 0x1F DUP3 ADD SSTORE TIMESTAMP PUSH1 0x1B DUP3 ADD SSTORE ADD CALLER PUSH1 0x1 PUSH1 0x1 PUSH1 0x60 SHL SUB PUSH1 0xA0 SHL DUP3 SLOAD AND OR SWAP1 SSTORE DUP4 PUSH1 0x40 MLOAD DUP4 DUP10 DUP3 CALLDATACOPY PUSH1 0x20 DUP2 DUP6 DUP2 ADD PUSH1 0x3 DUP2 MSTORE SUB ADD SWAP1 KECCAK256 SSTORE PUSH1 0x40 MLOAD DUP3 DUP9 DUP3 CALLDATACOPY PUSH1 0x20 DUP2 DUP5 DUP2 ADD PUSH1 0x4 DUP2 MSTORE SUB ADD SWAP1 KECCAK256 PUSH1 0x1 PUSH1 0xFF NOT DUP3 SLOAD AND OR SWAP1 SSTORE DUP4 PUSH2 0xEEB PUSH1 0x2 DUP8 ADD PUSH2 0x4109 JUMP JUMPDEST SSTORE PUSH2 0xEFC DUP5 PUSH2 0x4C2 PUSH1 0x2 DUP9 ADD PUSH2 0x419C JUMP JUMPDEST PUSH2 0x503 DUP8 PUSH1 0x1 DUP1 PUSH1 0xA0 SHL SUB PUSH1 0x4 DUP9 ADD SLOAD AND SWAP8 PUSH1 0x9 DUP9 ADD SLOAD SWAP4 PUSH1 0xA DUP10 ADD SLOAD SWAP6 PUSH1 0x40 MLOAD SWAP7 DUP8 SWAP7 CALLER SWAP12 TIMESTAMP SWAP7 PUSH1 0x6 DUP3 ADD SWAP5 PUSH1 0x2 PUSH1 0x7 DUP5 ADD SWAP4 ADD SWAP2 DUP12 PUSH2 0x422F JUMP JUMPDEST DUP8 DUP2 SUB PUSH1 0x20 DUP10 ADD MSTORE PUSH1 0x2 DUP5 ADD PUSH2 0x3F3D JUMP JUMPDEST SWAP2 DUP7 DUP4 SUB PUSH1 0x40 DUP9 ADD MSTORE ADD PUSH2 0x3F3D JUMP JUMPDEST SWAP3 PUSH9 0x10D85B98D95B1B1959 PUSH1 0xBA SHL PUSH1 0x20 DUP3 DUP7 SUB SWAP6 DUP7 PUSH1 0x60 DUP6 ADD MSTORE PUSH1 0x9 DUP2 MSTORE ADD MSTORE TIMESTAMP PUSH1 0x80 DUP3 ADD MSTORE PUSH1 0x40 CALLER SWAP5 ADD SWAP1 LOG3 STOP JUMPDEST SWAP1 POP DUP4 ADD CALLDATALOAD CODESIZE PUSH2 0xE67 JUMP JUMPDEST PUSH1 0x18 DUP3 ADD PUSH1 0x0 MSTORE PUSH1 0x20 PUSH1 0x0 KECCAK256 SWAP1 PUSH1 0x0 JUMPDEST PUSH1 0x1F NOT DUP9 AND DUP2 LT PUSH2 0x102D JUMPI POP SWAP8 PUSH1 0x19 SWAP6 PUSH32 0xD5543A7E8FF59ED8ADD299D2D102D8352C9EAA9F714B0CEFB0AF7573E803CF0C PUSH2 0xF49 SWAP7 PUSH2 0xF38 SWAP7 PUSH1 0x20 PUSH2 0xF58 SWAP13 SWAP8 DUP13 SWAP8 PUSH1 0x0 DUP1 MLOAD PUSH1 0x20 PUSH2 0x43BB DUP4 CODECOPY DUP2 MLOAD SWAP2 MSTORE SWAP16 DUP9 SWAP15 PUSH1 0x1F NOT DUP2 AND LT PUSH2 0x1013 JUMPI JUMPDEST POP POP PUSH1 0x1 DUP9 DUP2 SHL ADD PUSH1 0x18 DUP3 ADD SSTORE PUSH2 0xE7E JUMP JUMPDEST DUP5 ADD CALLDATALOAD PUSH1 0x0 NOT PUSH1 0x3 DUP12 SWAP1 SHL PUSH1 0xF8 AND SHR NOT AND SWAP1 SSTORE CODESIZE DUP1 PUSH2 0x1001 JUMP JUMPDEST DUP2 DUP6 ADD CALLDATALOAD DUP4 SSTORE DUP11 SWAP7 POP DUP12 SWAP6 POP PUSH1 0x1 SWAP1 SWAP3 ADD SWAP2 PUSH1 0x20 SWAP2 DUP3 ADD SWAP2 ADD PUSH2 0xFA2 JUMP JUMPDEST SWAP1 POP DUP5 ADD CALLDATALOAD DUP9 PUSH2 0xC3E JUMP JUMPDEST SWAP1 POP PUSH1 0x1 DUP3 ADD PUSH1 0x0 MSTORE PUSH1 0x20 PUSH1 0x0 KECCAK256 SWAP1 PUSH1 0x0 JUMPDEST PUSH1 0x1F NOT DUP11 AND DUP2 LT PUSH2 0x10AC JUMPI POP DUP9 PUSH1 0x1F NOT DUP2 AND LT PUSH2 0x1092 JUMPI JUMPDEST POP POP PUSH1 0x1 DUP8 DUP2 SHL ADD PUSH1 0x1 DUP3 ADD SSTORE PUSH2 0xC55 JUMP JUMPDEST DUP6 ADD CALLDATALOAD PUSH1 0x0 NOT PUSH1 0x3 DUP11 SWAP1 SHL PUSH1 0xF8 AND SHR NOT AND SWAP1 SSTORE DUP8 DUP1 PUSH2 0x1080 JUMP JUMPDEST SWAP1 SWAP2 PUSH1 0x20 PUSH1 0x1 DUP2 SWAP3 DUP6 DUP11 ADD CALLDATALOAD DUP2 SSTORE ADD SWAP4 ADD SWAP2 ADD PUSH2 0x1068 JUMP JUMPDEST PUSH32 0x71FB55C0CB0FD74783D23C772B2F895CB0C286E8E0FAB4F642555D8B1FFCE252 SWAP2 POP PUSH8 0x1058D8D95C1D1959 PUSH1 0xC2 SHL PUSH1 0x20 PUSH1 0x40 MLOAD PUSH2 0x1101 DUP2 PUSH2 0x3FEF JUMP JUMPDEST PUSH1 0x8 DUP2 MSTORE ADD MSTORE EQ ISZERO DUP7 PUSH2 0xBC6 JUMP JUMPDEST CALLVALUE PUSH2 0x701 JUMPI PUSH1 0x80 CALLDATASIZE PUSH1 0x3 NOT ADD SLT PUSH2 0x701 JUMPI PUSH1 0x4 CALLDATALOAD PUSH1 0x1 PUSH1 0x1 PUSH1 0x40 SHL SUB DUP2 GT PUSH2 0x701 JUMPI PUSH2 0x113F SWAP1 CALLDATASIZE SWAP1 PUSH1 0x4 ADD PUSH2 0x3A47 JUMP JUMPDEST SWAP1 PUSH1 0x24 CALLDATALOAD PUSH1 0x1 PUSH1 0x1 PUSH1 0x40 SHL SUB DUP2 GT PUSH2 0x701 JUMPI PUSH2 0x115F SWAP1 CALLDATASIZE SWAP1 PUSH1 0x4 ADD PUSH2 0x3A47 JUMP JUMPDEST SWAP3 SWAP1 PUSH1 0x44 CALLDATALOAD PUSH1 0x1 PUSH1 0x1 PUSH1 0x40 SHL SUB DUP2 GT PUSH2 0x701 JUMPI PUSH2 0x1180 SWAP1 CALLDATASIZE SWAP1 PUSH1 0x4 ADD PUSH2 0x3A47 JUMP JUMPDEST SWAP1 PUSH1 0x64 CALLDATALOAD PUSH1 0x1 PUSH1 0x1 PUSH1 0x40 SHL SUB DUP2 GT PUSH2 0x701 JUMPI PUSH2 0x11A0 SWAP1 CALLDATASIZE SWAP1 PUSH1 0x4 ADD PUSH2 0x3A47 JUMP JUMPDEST SWAP5 SWAP1 SWAP6 PUSH1 0xFF PUSH1 0x40 MLOAD DUP4 DUP4 DUP3 CALLDATACOPY PUSH1 0x20 DUP2 DUP6 DUP2 ADD PUSH1 0x4 DUP2 MSTORE SUB ADD SWAP1 KECCAK256 SLOAD AND ISZERO PUSH2 0x6EF JUMPI PUSH1 0x20 SWAP1 DUP3 PUSH1 0x40 MLOAD SWAP4 DUP5 SWAP3 DUP4 CALLDATACOPY DUP2 ADD PUSH1 0x3 DUP2 MSTORE SUB ADD SWAP1 KECCAK256 SLOAD PUSH1 0x0 MSTORE PUSH1 0x2 PUSH1 0x20 MSTORE PUSH1 0x40 PUSH1 0x0 KECCAK256 SWAP4 PUSH32 0x4BE840E351422C3B302ABB79AA7DB05560EAD7E387E413320822A342FCA3F54E PUSH1 0x40 MLOAD PUSH2 0x121B DUP2 PUSH2 0x167 DUP2 PUSH1 0x19 DUP12 ADD PUSH2 0x3F3D JUMP JUMPDEST PUSH1 0x20 DUP2 MLOAD SWAP2 ADD KECCAK256 PUSH7 0x50656E64696E67 PUSH1 0xC8 SHL PUSH1 0x20 PUSH1 0x40 MLOAD PUSH2 0x123B DUP2 PUSH2 0x3FEF JUMP JUMPDEST PUSH1 0x7 DUP2 MSTORE ADD MSTORE SUB PUSH2 0x6DD JUMPI PUSH1 0xFF PUSH1 0x40 MLOAD DUP9 DUP7 DUP3 CALLDATACOPY PUSH1 0x20 DUP2 DUP11 DUP2 ADD PUSH1 0x4 DUP2 MSTORE SUB ADD SWAP1 KECCAK256 SLOAD AND PUSH2 0x6CB JUMPI PUSH2 0x126E PUSH1 0x0 SLOAD PUSH2 0x3DF3 JUMP JUMPDEST SWAP6 DUP7 PUSH1 0x0 SSTORE DUP7 PUSH1 0x0 MSTORE PUSH1 0x2 PUSH1 0x20 MSTORE PUSH1 0x40 PUSH1 0x0 KECCAK256 SWAP2 DUP8 DUP4 SSTORE PUSH1 0x1 PUSH1 0x1 PUSH1 0x40 SHL SUB DUP10 GT PUSH2 0x63C JUMPI PUSH2 0x12AD DUP10 PUSH2 0x12A4 PUSH1 0x1 DUP7 ADD SLOAD PUSH2 0x3E18 JUMP JUMPDEST PUSH1 0x1 DUP7 ADD PUSH2 0x3E93 JUMP JUMPDEST DUP9 PUSH1 0x0 PUSH1 0x1F DUP3 GT PUSH1 0x1 EQ PUSH2 0x17E2 JUMPI PUSH1 0x0 SWAP2 PUSH2 0x17D7 JUMPI JUMPDEST POP DUP10 PUSH1 0x1 SHL SWAP1 PUSH1 0x0 NOT DUP12 PUSH1 0x3 SHL SHR NOT AND OR PUSH1 0x1 DUP5 ADD SSTORE JUMPDEST PUSH2 0x12EA PUSH1 0x2 DUP9 ADD PUSH1 0x2 DUP6 ADD PUSH2 0x402B JUMP JUMPDEST PUSH1 0x3 DUP8 DUP2 ADD SLOAD SWAP1 DUP5 ADD DUP1 SLOAD PUSH1 0x1 PUSH1 0x1 PUSH1 0xA0 SHL SUB SWAP3 DUP4 AND PUSH1 0x1 PUSH1 0x1 PUSH1 0xA0 SHL SUB NOT SWAP2 DUP3 AND OR SWAP1 SWAP2 SSTORE PUSH1 0x4 DUP1 DUP11 ADD SLOAD SWAP1 DUP7 ADD DUP1 SLOAD SWAP2 SWAP1 SWAP4 AND SWAP2 AND OR SWAP1 SSTORE PUSH2 0x1334 PUSH1 0x5 DUP1 DUP10 ADD SWAP1 DUP6 ADD PUSH2 0x402B JUMP JUMPDEST PUSH2 0x1344 PUSH1 0x6 DUP9 ADD PUSH1 0x6 DUP6 ADD PUSH2 0x402B JUMP JUMPDEST PUSH2 0x1354 PUSH1 0x7 DUP9 ADD PUSH1 0x7 DUP6 ADD PUSH2 0x402B JUMP JUMPDEST PUSH2 0x1364 PUSH1 0x8 DUP9 ADD PUSH1 0x8 DUP6 ADD PUSH2 0x402B JUMP JUMPDEST PUSH1 0x9 DUP8 ADD SLOAD PUSH1 0x9 DUP5 ADD SSTORE PUSH1 0xA DUP8 ADD SLOAD PUSH1 0xA DUP5 ADD SSTORE PUSH2 0x1388 PUSH1 0xB DUP9 ADD PUSH1 0xB DUP6 ADD PUSH2 0x402B JUMP JUMPDEST PUSH2 0x1398 PUSH1 0xC DUP9 ADD PUSH1 0xC DUP6 ADD PUSH2 0x402B JUMP JUMPDEST PUSH2 0x13A8 PUSH1 0xF DUP9 ADD PUSH1 0xF DUP6 ADD PUSH2 0x402B JUMP JUMPDEST PUSH2 0x13B8 PUSH1 0x10 DUP9 ADD PUSH1 0x10 DUP6 ADD PUSH2 0x402B JUMP JUMPDEST PUSH2 0x13C8 PUSH1 0x11 DUP9 ADD PUSH1 0x11 DUP6 ADD PUSH2 0x402B JUMP JUMPDEST PUSH2 0x13D8 PUSH1 0x12 DUP9 ADD PUSH1 0x12 DUP6 ADD PUSH2 0x402B JUMP JUMPDEST PUSH2 0x13E8 PUSH1 0x13 DUP9 ADD PUSH1 0x13 DUP6 ADD PUSH2 0x402B JUMP JUMPDEST PUSH2 0x13F8 PUSH1 0x14 DUP9 ADD PUSH1 0x14 DUP6 ADD PUSH2 0x402B JUMP JUMPDEST PUSH2 0x1408 PUSH1 0x15 DUP9 ADD PUSH1 0x15 DUP6 ADD PUSH2 0x402B JUMP JUMPDEST PUSH2 0x1418 PUSH1 0x16 DUP9 ADD PUSH1 0x16 DUP6 ADD PUSH2 0x402B JUMP JUMPDEST PUSH2 0x1428 PUSH1 0x17 DUP9 ADD PUSH1 0x17 DUP6 ADD PUSH2 0x402B JUMP JUMPDEST PUSH1 0x19 DUP4 ADD PUSH2 0x143F PUSH2 0x1439 DUP3 SLOAD PUSH2 0x3E18 JUMP JUMPDEST DUP3 PUSH2 0x3E69 JUMP JUMPDEST PUSH1 0x10 PUSH8 0x1058D8D95C1D1959 PUSH1 0xC2 SHL ADD SWAP1 SSTORE PUSH1 0x1 PUSH1 0x1 PUSH1 0x40 SHL SUB DUP6 GT PUSH2 0x63C JUMPI PUSH2 0x1478 DUP6 PUSH2 0x146F PUSH1 0xD DUP7 ADD SLOAD PUSH2 0x3E18 JUMP JUMPDEST PUSH1 0xD DUP7 ADD PUSH2 0x3E93 JUMP JUMPDEST DUP5 PUSH1 0x0 PUSH1 0x1F DUP3 GT PUSH1 0x1 EQ PUSH2 0x1769 JUMPI PUSH1 0x0 SWAP2 PUSH2 0x175E JUMPI JUMPDEST POP DUP6 PUSH1 0x1 SHL SWAP1 PUSH1 0x0 NOT DUP8 PUSH1 0x3 SHL SHR NOT AND OR PUSH1 0xD DUP5 ADD SSTORE JUMPDEST PUSH1 0x1 PUSH1 0x1 PUSH1 0x40 SHL SUB DUP2 GT PUSH2 0x63C JUMPI DUP3 PUSH2 0x14CF DUP3 PUSH2 0x14C6 PUSH1 0xE DUP13 SWAP8 ADD SLOAD PUSH2 0x3E18 JUMP JUMPDEST PUSH1 0xE DUP5 ADD PUSH2 0x3E93 JUMP JUMPDEST PUSH1 0x0 PUSH1 0x1F DUP4 GT PUSH1 0x1 EQ PUSH2 0x16EF JUMPI PUSH1 0x0 SWAP1 DUP4 PUSH2 0x16E4 JUMPI JUMPDEST POP DUP3 PUSH1 0x1 SHL SWAP1 PUSH1 0x0 NOT DUP5 PUSH1 0x3 SHL SHR NOT AND OR PUSH1 0xE DUP3 ADD SSTORE JUMPDEST PUSH1 0x1A DUP9 ADD SLOAD PUSH1 0x1A DUP3 ADD SSTORE TIMESTAMP PUSH1 0x1C DUP3 ADD SSTORE TIMESTAMP PUSH1 0x1B DUP3 ADD SSTORE PUSH1 0x20 ADD CALLER PUSH1 0x1 PUSH1 0x1 PUSH1 0x60 SHL SUB PUSH1 0xA0 SHL DUP3 SLOAD AND OR SWAP1 SSTORE DUP3 PUSH1 0x40 MLOAD DUP11 DUP9 DUP3 CALLDATACOPY DUP1 DUP12 DUP2 ADD PUSH1 0x3 DUP2 MSTORE SUB PUSH1 0x20 ADD SWAP1 KECCAK256 SSTORE PUSH1 0x40 MLOAD DUP10 DUP8 DUP3 CALLDATACOPY DUP1 DUP11 DUP2 ADD PUSH1 0x4 DUP2 MSTORE SUB PUSH1 0x20 ADD SWAP1 KECCAK256 PUSH1 0xFF NOT DUP2 SLOAD AND PUSH1 0x1 OR SWAP1 SSTORE DUP3 PUSH1 0x2 DUP9 ADD PUSH2 0x156C SWAP1 PUSH2 0x4109 JUMP JUMPDEST SSTORE DUP3 PUSH2 0x157A PUSH1 0x2 DUP10 ADD PUSH2 0x419C JUMP JUMPDEST SWAP1 PUSH2 0x1584 SWAP2 PUSH2 0x3ED8 JUMP JUMPDEST PUSH1 0x1 PUSH1 0xA0 SHL PUSH1 0x1 SWAP1 SUB PUSH1 0x3 DUP9 ADD SLOAD AND SWAP4 PUSH1 0x9 DUP9 ADD SLOAD SWAP6 PUSH1 0xA DUP10 ADD SLOAD SWAP7 PUSH1 0x40 MLOAD SWAP8 DUP13 PUSH2 0x120 DUP1 DUP12 MSTORE DUP11 ADD PUSH2 0x15B7 SWAP2 DUP13 PUSH2 0x3F1C JUMP JUMPDEST DUP10 DUP2 SUB PUSH1 0x20 DUP12 ADD MSTORE PUSH2 0x15CC SWAP1 PUSH1 0x2 DUP14 ADD PUSH2 0x3F3D JUMP JUMPDEST DUP10 DUP2 SUB PUSH1 0x40 DUP12 ADD MSTORE PUSH2 0x15E1 SWAP1 PUSH1 0x7 DUP14 ADD PUSH2 0x3F3D JUMP JUMPDEST SWAP2 PUSH1 0x60 DUP11 ADD MSTORE PUSH1 0x80 DUP10 ADD MSTORE DUP8 DUP2 SUB PUSH1 0xA0 DUP10 ADD MSTORE PUSH1 0x6 DUP11 ADD SWAP1 PUSH2 0x1602 SWAP2 PUSH2 0x3F3D JUMP JUMPDEST SWAP1 DUP8 DUP3 SUB PUSH1 0xC0 DUP10 ADD MSTORE PUSH2 0x1614 SWAP3 PUSH2 0x3F1C JUMP JUMPDEST SWAP1 DUP6 DUP3 SUB PUSH1 0xE0 DUP8 ADD MSTORE PUSH2 0x1626 SWAP3 PUSH2 0x3F1C JUMP JUMPDEST SWAP3 TIMESTAMP PUSH2 0x100 DUP3 ADD MSTORE DUP1 CALLER SWAP5 SUB PUSH32 0xEEF9CE1EC3494C2B26C7001CC7BB28D45CF61587FD104B9053EFE8787168F67D SWAP2 LOG4 PUSH1 0x40 MLOAD SWAP4 PUSH1 0xA0 DUP6 MSTORE PUSH1 0xA0 DUP6 ADD SWAP1 PUSH2 0x166B SWAP3 PUSH2 0x3F1C JUMP JUMPDEST DUP4 DUP2 SUB PUSH1 0x20 DUP6 ADD MSTORE PUSH2 0x167F SWAP2 PUSH1 0x2 ADD PUSH2 0x3F3D JUMP JUMPDEST DUP3 DUP2 SUB PUSH1 0x40 DUP5 ADD MSTORE PUSH2 0x16A6 SWAP1 PUSH1 0x40 SWAP1 PUSH1 0x7 DUP2 MSTORE PUSH7 0x50656E64696E67 PUSH1 0xC8 SHL PUSH1 0x20 DUP3 ADD MSTORE ADD SWAP1 JUMP JUMPDEST DUP3 DUP2 SUB PUSH1 0x60 DUP5 ADD MSTORE PUSH1 0x8 DUP2 MSTORE PUSH8 0x1058D8D95C1D1959 PUSH1 0xC2 SHL PUSH1 0x20 DUP3 ADD MSTORE PUSH1 0x40 ADD SWAP2 TIMESTAMP PUSH1 0x80 DUP3 ADD MSTORE DUP1 CALLER SWAP4 SUB PUSH1 0x0 DUP1 MLOAD PUSH1 0x20 PUSH2 0x43BB DUP4 CODECOPY DUP2 MLOAD SWAP2 MSTORE SWAP2 LOG3 STOP JUMPDEST SWAP1 POP DUP4 ADD CALLDATALOAD DUP12 PUSH2 0x14E5 JUMP JUMPDEST PUSH1 0xE DUP3 ADD PUSH1 0x0 MSTORE PUSH1 0x20 PUSH1 0x0 KECCAK256 SWAP1 PUSH1 0x0 JUMPDEST PUSH1 0x1F NOT DUP6 AND DUP2 LT PUSH2 0x1743 JUMPI POP DUP4 PUSH1 0x1F NOT DUP2 AND LT PUSH2 0x1729 JUMPI JUMPDEST POP POP PUSH1 0x1 DUP3 DUP2 SHL ADD PUSH1 0xE DUP3 ADD SSTORE PUSH2 0x14FC JUMP JUMPDEST DUP5 ADD CALLDATALOAD PUSH1 0x0 NOT PUSH1 0x3 DUP6 SWAP1 SHL PUSH1 0xF8 AND SHR NOT AND SWAP1 SSTORE DUP11 DUP1 PUSH2 0x1717 JUMP JUMPDEST DUP2 DUP7 ADD CALLDATALOAD DUP4 SSTORE DUP12 SWAP7 POP PUSH1 0x1 SWAP1 SWAP3 ADD SWAP2 PUSH1 0x20 SWAP2 DUP3 ADD SWAP2 ADD PUSH2 0x16FF JUMP JUMPDEST SWAP1 POP DUP5 ADD CALLDATALOAD DUP11 PUSH2 0x148E JUMP JUMPDEST SWAP1 POP PUSH1 0xD DUP5 ADD PUSH1 0x0 MSTORE PUSH1 0x20 PUSH1 0x0 KECCAK256 SWAP1 PUSH1 0x0 JUMPDEST PUSH1 0x1F NOT DUP9 AND DUP2 LT PUSH2 0x17BF JUMPI POP DUP7 PUSH1 0x1F NOT DUP2 AND LT PUSH2 0x17A5 JUMPI JUMPDEST POP POP PUSH1 0x1 DUP6 DUP2 SHL ADD PUSH1 0xD DUP5 ADD SSTORE PUSH2 0x14A5 JUMP JUMPDEST DUP6 ADD CALLDATALOAD PUSH1 0x0 NOT PUSH1 0x3 DUP9 SWAP1 SHL PUSH1 0xF8 AND SHR NOT AND SWAP1 SSTORE DUP10 DUP1 PUSH2 0x1793 JUMP JUMPDEST SWAP1 SWAP2 PUSH1 0x20 PUSH1 0x1 DUP2 SWAP3 DUP6 DUP11 ADD CALLDATALOAD DUP2 SSTORE ADD SWAP4 ADD SWAP2 ADD PUSH2 0x177B JUMP JUMPDEST SWAP1 POP DUP7 ADD CALLDATALOAD DUP11 PUSH2 0x12C3 JUMP JUMPDEST SWAP1 POP PUSH1 0x1 DUP5 ADD PUSH1 0x0 MSTORE PUSH1 0x20 PUSH1 0x0 KECCAK256 SWAP1 PUSH1 0x0 JUMPDEST PUSH1 0x1F NOT DUP13 AND DUP2 LT PUSH2 0x1838 JUMPI POP DUP11 PUSH1 0x1F NOT DUP2 AND LT PUSH2 0x181E JUMPI JUMPDEST POP POP PUSH1 0x1 DUP10 DUP2 SHL ADD PUSH1 0x1 DUP5 ADD SSTORE PUSH2 0x12DA JUMP JUMPDEST DUP8 ADD CALLDATALOAD PUSH1 0x0 NOT PUSH1 0x3 DUP13 SWAP1 SHL PUSH1 0xF8 AND SHR NOT AND SWAP1 SSTORE DUP10 DUP1 PUSH2 0x180C JUMP JUMPDEST SWAP1 SWAP2 PUSH1 0x20 PUSH1 0x1 DUP2 SWAP3 DUP6 DUP13 ADD CALLDATALOAD DUP2 SSTORE ADD SWAP4 ADD SWAP2 ADD PUSH2 0x17F4 JUMP JUMPDEST CALLVALUE PUSH2 0x701 JUMPI PUSH1 0x0 CALLDATASIZE PUSH1 0x3 NOT ADD SLT PUSH2 0x701 JUMPI PUSH1 0x20 PUSH1 0x40 MLOAD PUSH2 0x7D0 DUP2 MSTORE RETURN JUMPDEST CALLVALUE PUSH2 0x701 JUMPI PUSH1 0x0 CALLDATASIZE PUSH1 0x3 NOT ADD SLT PUSH2 0x701 JUMPI PUSH1 0x1 SLOAD PUSH1 0x40 MLOAD PUSH1 0x1 PUSH1 0x1 PUSH1 0xA0 SHL SUB SWAP1 SWAP2 AND DUP2 MSTORE PUSH1 0x20 SWAP1 RETURN JUMPDEST CALLVALUE PUSH2 0x701 JUMPI PUSH1 0x3 NOT PUSH1 0x20 CALLDATASIZE DUP3 ADD SLT PUSH2 0x701 JUMPI PUSH1 0x1 PUSH1 0x1 PUSH1 0x40 SHL SUB PUSH1 0x4 CALLDATALOAD GT PUSH2 0x701 JUMPI PUSH2 0x2C0 SWAP1 PUSH1 0x4 CALLDATALOAD CALLDATASIZE SUB ADD SLT PUSH2 0x701 JUMPI PUSH1 0x1 PUSH1 0x1 PUSH1 0xA0 SHL SUB PUSH2 0x18DD PUSH1 0x4 CALLDATALOAD PUSH1 0x44 ADD PUSH2 0x3DAD JUMP JUMPDEST AND ISZERO DUP1 ISZERO PUSH2 0x2E03 JUMPI JUMPDEST PUSH2 0x2DF1 JUMPI PUSH2 0x18F8 PUSH1 0x44 PUSH1 0x4 CALLDATALOAD ADD PUSH2 0x3DAD JUMP JUMPDEST PUSH1 0x1 PUSH1 0x1 PUSH1 0xA0 SHL SUB PUSH2 0x190E PUSH1 0x4 CALLDATALOAD PUSH1 0x64 ADD PUSH2 0x3DAD JUMP JUMPDEST PUSH1 0x1 PUSH1 0x1 PUSH1 0xA0 SHL SUB SWAP1 SWAP3 AND SWAP2 AND EQ PUSH2 0x2DF1 JUMPI PUSH1 0xFF PUSH1 0x20 PUSH2 0x1932 PUSH1 0x4 DUP1 CALLDATALOAD ADD DUP1 PUSH2 0x3DC1 JUMP JUMPDEST SWAP2 SWAP1 DUP3 PUSH1 0x40 MLOAD SWAP4 DUP5 SWAP3 DUP4 CALLDATACOPY DUP2 ADD PUSH1 0x4 DUP2 MSTORE SUB ADD SWAP1 KECCAK256 SLOAD AND PUSH2 0x6CB JUMPI PUSH2 0x104 PUSH1 0x4 CALLDATALOAD ADD CALLDATALOAD ISZERO PUSH2 0x2DE0 JUMPI PUSH2 0x124 PUSH1 0x4 CALLDATALOAD ADD CALLDATALOAD ISZERO PUSH2 0x2DCE JUMPI PUSH2 0x1F4 PUSH2 0x197E PUSH1 0xC4 PUSH1 0x4 CALLDATALOAD ADD PUSH1 0x4 CALLDATALOAD PUSH1 0x4 ADD PUSH2 0x3DC1 JUMP JUMPDEST SWAP1 POP GT PUSH2 0x2DBC JUMPI PUSH2 0x7D0 PUSH2 0x199C PUSH1 0xE4 PUSH1 0x4 CALLDATALOAD ADD PUSH1 0x4 CALLDATALOAD PUSH1 0x4 ADD PUSH2 0x3DC1 JUMP JUMPDEST SWAP1 POP GT PUSH2 0x2DBC JUMPI PUSH2 0x19AE PUSH1 0x0 SLOAD PUSH2 0x3DF3 JUMP JUMPDEST PUSH1 0x0 DUP2 DUP2 SSTORE DUP2 DUP2 MSTORE PUSH1 0x2 PUSH1 0x20 MSTORE PUSH1 0x40 SWAP1 KECCAK256 DUP2 DUP2 SSTORE PUSH2 0x19D0 PUSH1 0x4 DUP1 CALLDATALOAD ADD DUP1 PUSH2 0x3DC1 JUMP JUMPDEST SWAP1 PUSH1 0x1 PUSH1 0x1 PUSH1 0x40 SHL SUB DUP3 GT PUSH2 0x63C JUMPI DUP2 SWAP1 PUSH2 0x19FB DUP3 PUSH2 0x19F2 PUSH1 0x1 DUP8 ADD SLOAD PUSH2 0x3E18 JUMP JUMPDEST PUSH1 0x1 DUP8 ADD PUSH2 0x3E93 JUMP JUMPDEST PUSH1 0x0 SWAP1 PUSH1 0x1F DUP4 GT PUSH1 0x1 EQ PUSH2 0x2D4B JUMPI PUSH1 0x0 SWAP3 PUSH2 0x2D40 JUMPI JUMPDEST POP POP DUP2 PUSH1 0x1 SHL SWAP2 PUSH1 0x0 NOT SWAP1 PUSH1 0x3 SHL SHR NOT AND OR PUSH1 0x1 DUP3 ADD SSTORE JUMPDEST PUSH2 0x1A3D PUSH1 0x24 PUSH1 0x4 CALLDATALOAD ADD PUSH1 0x4 CALLDATALOAD PUSH1 0x4 ADD PUSH2 0x3DC1 JUMP JUMPDEST SWAP1 PUSH1 0x1 PUSH1 0x1 PUSH1 0x40 SHL SUB DUP3 GT PUSH2 0x63C JUMPI DUP2 SWAP1 PUSH2 0x1A68 DUP3 PUSH2 0x1A5F PUSH1 0x2 DUP8 ADD SLOAD PUSH2 0x3E18 JUMP JUMPDEST PUSH1 0x2 DUP8 ADD PUSH2 0x3E93 JUMP JUMPDEST PUSH1 0x0 SWAP1 PUSH1 0x1F DUP4 GT PUSH1 0x1 EQ PUSH2 0x2CCF JUMPI PUSH1 0x0 SWAP3 PUSH2 0x2CC4 JUMPI JUMPDEST POP POP DUP2 PUSH1 0x1 SHL SWAP2 PUSH1 0x0 NOT SWAP1 PUSH1 0x3 SHL SHR NOT AND OR PUSH1 0x2 DUP3 ADD SSTORE JUMPDEST PUSH2 0x1AA4 PUSH1 0x44 PUSH1 0x4 CALLDATALOAD ADD PUSH2 0x3DAD JUMP JUMPDEST PUSH1 0x3 DUP3 ADD DUP1 SLOAD PUSH1 0x1 PUSH1 0x1 PUSH1 0xA0 SHL SUB NOT AND PUSH1 0x1 PUSH1 0x1 PUSH1 0xA0 SHL SUB SWAP1 SWAP3 AND SWAP2 SWAP1 SWAP2 OR SWAP1 SSTORE PUSH2 0x1AD3 PUSH1 0x4 CALLDATALOAD PUSH1 0x64 ADD PUSH2 0x3DAD JUMP JUMPDEST PUSH1 0x4 DUP3 ADD SWAP1 PUSH1 0x1 DUP1 PUSH1 0xA0 SHL SUB AND PUSH1 0x1 PUSH1 0x1 PUSH1 0x60 SHL SUB PUSH1 0xA0 SHL DUP3 SLOAD AND OR SWAP1 SSTORE PUSH2 0x1B05 PUSH1 0x84 PUSH1 0x4 CALLDATALOAD ADD PUSH1 0x4 CALLDATALOAD PUSH1 0x4 ADD PUSH2 0x3DC1 JUMP JUMPDEST SWAP1 PUSH1 0x1 PUSH1 0x1 PUSH1 0x40 SHL SUB DUP3 GT PUSH2 0x63C JUMPI DUP2 SWAP1 PUSH2 0x1B30 DUP3 PUSH2 0x1B27 PUSH1 0x5 DUP8 ADD SLOAD PUSH2 0x3E18 JUMP JUMPDEST PUSH1 0x5 DUP8 ADD PUSH2 0x3E93 JUMP JUMPDEST PUSH1 0x0 SWAP1 PUSH1 0x1F DUP4 GT PUSH1 0x1 EQ PUSH2 0x2C53 JUMPI PUSH1 0x0 SWAP3 PUSH2 0x2C48 JUMPI JUMPDEST POP POP DUP2 PUSH1 0x1 SHL SWAP2 PUSH1 0x0 NOT SWAP1 PUSH1 0x3 SHL SHR NOT AND OR PUSH1 0x5 DUP3 ADD SSTORE JUMPDEST PUSH2 0x1B72 PUSH1 0xA4 PUSH1 0x4 CALLDATALOAD ADD PUSH1 0x4 CALLDATALOAD PUSH1 0x4 ADD PUSH2 0x3DC1 JUMP JUMPDEST SWAP1 PUSH1 0x1 PUSH1 0x1 PUSH1 0x40 SHL SUB DUP3 GT PUSH2 0x63C JUMPI DUP2 SWAP1 PUSH2 0x1B9D DUP3 PUSH2 0x1B94 PUSH1 0x6 DUP8 ADD SLOAD PUSH2 0x3E18 JUMP JUMPDEST PUSH1 0x6 DUP8 ADD PUSH2 0x3E93 JUMP JUMPDEST PUSH1 0x0 SWAP1 PUSH1 0x1F DUP4 GT PUSH1 0x1 EQ PUSH2 0x2BD7 JUMPI PUSH1 0x0 SWAP3 PUSH2 0x2BCC JUMPI JUMPDEST POP POP DUP2 PUSH1 0x1 SHL SWAP2 PUSH1 0x0 NOT SWAP1 PUSH1 0x3 SHL SHR NOT AND OR PUSH1 0x6 DUP3 ADD SSTORE JUMPDEST PUSH2 0x1BDF PUSH1 0xC4 PUSH1 0x4 CALLDATALOAD ADD PUSH1 0x4 CALLDATALOAD PUSH1 0x4 ADD PUSH2 0x3DC1 JUMP JUMPDEST SWAP1 PUSH1 0x1 PUSH1 0x1 PUSH1 0x40 SHL SUB DUP3 GT PUSH2 0x63C JUMPI DUP2 SWAP1 PUSH2 0x1C0A DUP3 PUSH2 0x1C01 PUSH1 0x7 DUP8 ADD SLOAD PUSH2 0x3E18 JUMP JUMPDEST PUSH1 0x7 DUP8 ADD PUSH2 0x3E93 JUMP JUMPDEST PUSH1 0x0 SWAP1 PUSH1 0x1F DUP4 GT PUSH1 0x1 EQ PUSH2 0x2B5B JUMPI PUSH1 0x0 SWAP3 PUSH2 0x2B50 JUMPI JUMPDEST POP POP DUP2 PUSH1 0x1 SHL SWAP2 PUSH1 0x0 NOT SWAP1 PUSH1 0x3 SHL SHR NOT AND OR PUSH1 0x7 DUP3 ADD SSTORE JUMPDEST PUSH2 0x1C4C PUSH1 0xE4 PUSH1 0x4 CALLDATALOAD ADD PUSH1 0x4 CALLDATALOAD PUSH1 0x4 ADD PUSH2 0x3DC1 JUMP JUMPDEST SWAP1 PUSH1 0x1 PUSH1 0x1 PUSH1 0x40 SHL SUB DUP3 GT PUSH2 0x63C JUMPI DUP2 SWAP1 PUSH2 0x1C77 DUP3 PUSH2 0x1C6E PUSH1 0x8 DUP8 ADD SLOAD PUSH2 0x3E18 JUMP JUMPDEST PUSH1 0x8 DUP8 ADD PUSH2 0x3E93 JUMP JUMPDEST PUSH1 0x0 SWAP1 PUSH1 0x1F DUP4 GT PUSH1 0x1 EQ PUSH2 0x2ADF JUMPI PUSH1 0x0 SWAP3 PUSH2 0x2AD4 JUMPI JUMPDEST POP POP DUP2 PUSH1 0x1 SHL SWAP2 PUSH1 0x0 NOT SWAP1 PUSH1 0x3 SHL SHR NOT AND OR PUSH1 0x8 DUP3 ADD SSTORE JUMPDEST PUSH1 0x4 DUP1 CALLDATALOAD PUSH2 0x104 DUP2 ADD CALLDATALOAD PUSH1 0x9 DUP5 ADD SSTORE PUSH2 0x124 DUP2 ADD CALLDATALOAD PUSH1 0xA DUP5 ADD SSTORE PUSH2 0x1CCF SWAP2 PUSH2 0x144 DUP3 ADD SWAP2 ADD PUSH2 0x3DC1 JUMP JUMPDEST SWAP1 PUSH1 0x1 PUSH1 0x1 PUSH1 0x40 SHL SUB DUP3 GT PUSH2 0x63C JUMPI DUP2 SWAP1 PUSH2 0x1CFA DUP3 PUSH2 0x1CF1 PUSH1 0xB DUP8 ADD SLOAD PUSH2 0x3E18 JUMP JUMPDEST PUSH1 0xB DUP8 ADD PUSH2 0x3E93 JUMP JUMPDEST PUSH1 0x0 SWAP1 PUSH1 0x1F DUP4 GT PUSH1 0x1 EQ PUSH2 0x2A63 JUMPI PUSH1 0x0 SWAP3 PUSH2 0x2A58 JUMPI JUMPDEST POP POP DUP2 PUSH1 0x1 SHL SWAP2 PUSH1 0x0 NOT SWAP1 PUSH1 0x3 SHL SHR NOT AND OR PUSH1 0xB DUP3 ADD SSTORE JUMPDEST PUSH2 0x1D3D PUSH2 0x164 PUSH1 0x4 CALLDATALOAD ADD PUSH1 0x4 CALLDATALOAD PUSH1 0x4 ADD PUSH2 0x3DC1 JUMP JUMPDEST SWAP1 PUSH1 0x1 PUSH1 0x1 PUSH1 0x40 SHL SUB DUP3 GT PUSH2 0x63C JUMPI DUP2 SWAP1 PUSH2 0x1D68 DUP3 PUSH2 0x1D5F PUSH1 0xC DUP8 ADD SLOAD PUSH2 0x3E18 JUMP JUMPDEST PUSH1 0xC DUP8 ADD PUSH2 0x3E93 JUMP JUMPDEST PUSH1 0x0 SWAP1 PUSH1 0x1F DUP4 GT PUSH1 0x1 EQ PUSH2 0x29E7 JUMPI PUSH1 0x0 SWAP3 PUSH2 0x29DC JUMPI JUMPDEST POP POP DUP2 PUSH1 0x1 SHL SWAP2 PUSH1 0x0 NOT SWAP1 PUSH1 0x3 SHL SHR NOT AND OR PUSH1 0xC DUP3 ADD SSTORE JUMPDEST PUSH2 0x1DAB PUSH2 0x184 PUSH1 0x4 CALLDATALOAD ADD PUSH1 0x4 CALLDATALOAD PUSH1 0x4 ADD PUSH2 0x3DC1 JUMP JUMPDEST SWAP1 PUSH1 0x1 PUSH1 0x1 PUSH1 0x40 SHL SUB DUP3 GT PUSH2 0x63C JUMPI DUP2 SWAP1 PUSH2 0x1DD6 DUP3 PUSH2 0x1DCD PUSH1 0xF DUP8 ADD SLOAD PUSH2 0x3E18 JUMP JUMPDEST PUSH1 0xF DUP8 ADD PUSH2 0x3E93 JUMP JUMPDEST PUSH1 0x0 SWAP1 PUSH1 0x1F DUP4 GT PUSH1 0x1 EQ PUSH2 0x296B JUMPI PUSH1 0x0 SWAP3 PUSH2 0x2960 JUMPI JUMPDEST POP POP DUP2 PUSH1 0x1 SHL SWAP2 PUSH1 0x0 NOT SWAP1 PUSH1 0x3 SHL SHR NOT AND OR PUSH1 0xF DUP3 ADD SSTORE JUMPDEST PUSH2 0x1E19 PUSH2 0x1A4 PUSH1 0x4 CALLDATALOAD ADD PUSH1 0x4 CALLDATALOAD PUSH1 0x4 ADD PUSH2 0x3DC1 JUMP JUMPDEST SWAP1 PUSH1 0x1 PUSH1 0x1 PUSH1 0x40 SHL SUB DUP3 GT PUSH2 0x63C JUMPI DUP2 SWAP1 PUSH2 0x1E44 DUP3 PUSH2 0x1E3B PUSH1 0x10 DUP8 ADD SLOAD PUSH2 0x3E18 JUMP JUMPDEST PUSH1 0x10 DUP8 ADD PUSH2 0x3E93 JUMP JUMPDEST PUSH1 0x0 SWAP1 PUSH1 0x1F DUP4 GT PUSH1 0x1 EQ PUSH2 0x28EF JUMPI PUSH1 0x0 SWAP3 PUSH2 0x28E4 JUMPI JUMPDEST POP POP DUP2 PUSH1 0x1 SHL SWAP2 PUSH1 0x0 NOT SWAP1 PUSH1 0x3 SHL SHR NOT AND OR PUSH1 0x10 DUP3 ADD SSTORE JUMPDEST PUSH2 0x1E87 PUSH2 0x1C4 PUSH1 0x4 CALLDATALOAD ADD PUSH1 0x4 CALLDATALOAD PUSH1 0x4 ADD PUSH2 0x3DC1 JUMP JUMPDEST SWAP1 PUSH1 0x1 PUSH1 0x1 PUSH1 0x40 SHL SUB DUP3 GT PUSH2 0x63C JUMPI DUP2 SWAP1 PUSH2 0x1EB2 DUP3 PUSH2 0x1EA9 PUSH1 0x11 DUP8 ADD SLOAD PUSH2 0x3E18 JUMP JUMPDEST PUSH1 0x11 DUP8 ADD PUSH2 0x3E93 JUMP JUMPDEST PUSH1 0x0 SWAP1 PUSH1 0x1F DUP4 GT PUSH1 0x1 EQ PUSH2 0x2873 JUMPI PUSH1 0x0 SWAP3 PUSH2 0x2868 JUMPI JUMPDEST POP POP DUP2 PUSH1 0x1 SHL SWAP2 PUSH1 0x0 NOT SWAP1 PUSH1 0x3 SHL SHR NOT AND OR PUSH1 0x11 DUP3 ADD SSTORE JUMPDEST PUSH2 0x1EF5 PUSH2 0x1E4 PUSH1 0x4 CALLDATALOAD ADD PUSH1 0x4 CALLDATALOAD PUSH1 0x4 ADD PUSH2 0x3DC1 JUMP JUMPDEST SWAP1 PUSH1 0x1 PUSH1 0x1 PUSH1 0x40 SHL SUB DUP3 GT PUSH2 0x63C JUMPI DUP2 SWAP1 PUSH2 0x1F20 DUP3 PUSH2 0x1F17 PUSH1 0x12 DUP8 ADD SLOAD PUSH2 0x3E18 JUMP JUMPDEST PUSH1 0x12 DUP8 ADD PUSH2 0x3E93 JUMP JUMPDEST PUSH1 0x0 SWAP1 PUSH1 0x1F DUP4 GT PUSH1 0x1 EQ PUSH2 0x27F7 JUMPI PUSH1 0x0 SWAP3 PUSH2 0x27EC JUMPI JUMPDEST POP POP DUP2 PUSH1 0x1 SHL SWAP2 PUSH1 0x0 NOT SWAP1 PUSH1 0x3 SHL SHR NOT AND OR PUSH1 0x12 DUP3 ADD SSTORE JUMPDEST PUSH2 0x1F63 PUSH2 0x204 PUSH1 0x4 CALLDATALOAD ADD PUSH1 0x4 CALLDATALOAD PUSH1 0x4 ADD PUSH2 0x3DC1 JUMP JUMPDEST SWAP1 PUSH1 0x1 PUSH1 0x1 PUSH1 0x40 SHL SUB DUP3 GT PUSH2 0x63C JUMPI DUP2 SWAP1 PUSH2 0x1F8E DUP3 PUSH2 0x1F85 PUSH1 0x13 DUP8 ADD SLOAD PUSH2 0x3E18 JUMP JUMPDEST PUSH1 0x13 DUP8 ADD PUSH2 0x3E93 JUMP JUMPDEST PUSH1 0x0 SWAP1 PUSH1 0x1F DUP4 GT PUSH1 0x1 EQ PUSH2 0x277B JUMPI PUSH1 0x0 SWAP3 PUSH2 0x2770 JUMPI JUMPDEST POP POP DUP2 PUSH1 0x1 SHL SWAP2 PUSH1 0x0 NOT SWAP1 PUSH1 0x3 SHL SHR NOT AND OR PUSH1 0x13 DUP3 ADD SSTORE JUMPDEST PUSH2 0x1FD1 PUSH2 0x224 PUSH1 0x4 CALLDATALOAD ADD PUSH1 0x4 CALLDATALOAD PUSH1 0x4 ADD PUSH2 0x3DC1 JUMP JUMPDEST SWAP1 PUSH1 0x1 PUSH1 0x1 PUSH1 0x40 SHL SUB DUP3 GT PUSH2 0x63C JUMPI DUP2 SWAP1 PUSH2 0x1FFC DUP3 PUSH2 0x1FF3 PUSH1 0x14 DUP8 ADD SLOAD PUSH2 0x3E18 JUMP JUMPDEST PUSH1 0x14 DUP8 ADD PUSH2 0x3E93 JUMP JUMPDEST PUSH1 0x0 SWAP1 PUSH1 0x1F DUP4 GT PUSH1 0x1 EQ PUSH2 0x26FF JUMPI PUSH1 0x0 SWAP3 PUSH2 0x26F4 JUMPI JUMPDEST POP POP DUP2 PUSH1 0x1 SHL SWAP2 PUSH1 0x0 NOT SWAP1 PUSH1 0x3 SHL SHR NOT AND OR PUSH1 0x14 DUP3 ADD SSTORE JUMPDEST PUSH2 0x203F PUSH2 0x244 PUSH1 0x4 CALLDATALOAD ADD PUSH1 0x4 CALLDATALOAD PUSH1 0x4 ADD PUSH2 0x3DC1 JUMP JUMPDEST SWAP1 PUSH1 0x1 PUSH1 0x1 PUSH1 0x40 SHL SUB DUP3 GT PUSH2 0x63C JUMPI DUP2 SWAP1 PUSH2 0x206A DUP3 PUSH2 0x2061 PUSH1 0x15 DUP8 ADD SLOAD PUSH2 0x3E18 JUMP JUMPDEST PUSH1 0x15 DUP8 ADD PUSH2 0x3E93 JUMP JUMPDEST PUSH1 0x0 SWAP1 PUSH1 0x1F DUP4 GT PUSH1 0x1 EQ PUSH2 0x2683 JUMPI PUSH1 0x0 SWAP3 PUSH2 0x2678 JUMPI JUMPDEST POP POP DUP2 PUSH1 0x1 SHL SWAP2 PUSH1 0x0 NOT SWAP1 PUSH1 0x3 SHL SHR NOT AND OR PUSH1 0x15 DUP3 ADD SSTORE JUMPDEST PUSH2 0x20AD PUSH2 0x264 PUSH1 0x4 CALLDATALOAD ADD PUSH1 0x4 CALLDATALOAD PUSH1 0x4 ADD PUSH2 0x3DC1 JUMP JUMPDEST SWAP1 PUSH1 0x1 PUSH1 0x1 PUSH1 0x40 SHL SUB DUP3 GT PUSH2 0x63C JUMPI DUP2 SWAP1 PUSH2 0x20D8 DUP3 PUSH2 0x20CF PUSH1 0x16 DUP8 ADD SLOAD PUSH2 0x3E18 JUMP JUMPDEST PUSH1 0x16 DUP8 ADD PUSH2 0x3E93 JUMP JUMPDEST PUSH1 0x0 SWAP1 PUSH1 0x1F DUP4 GT PUSH1 0x1 EQ PUSH2 0x2607 JUMPI PUSH1 0x0 SWAP3 PUSH2 0x25FC JUMPI JUMPDEST POP POP DUP2 PUSH1 0x1 SHL SWAP2 PUSH1 0x0 NOT SWAP1 PUSH1 0x3 SHL SHR NOT AND OR PUSH1 0x16 DUP3 ADD SSTORE JUMPDEST PUSH2 0x211B PUSH2 0x284 PUSH1 0x4 CALLDATALOAD ADD PUSH1 0x4 CALLDATALOAD PUSH1 0x4 ADD PUSH2 0x3DC1 JUMP JUMPDEST SWAP1 PUSH1 0x1 PUSH1 0x1 PUSH1 0x40 SHL SUB DUP3 GT PUSH2 0x63C JUMPI DUP2 SWAP1 PUSH2 0x2146 DUP3 PUSH2 0x213D PUSH1 0x17 DUP8 ADD SLOAD PUSH2 0x3E18 JUMP JUMPDEST PUSH1 0x17 DUP8 ADD PUSH2 0x3E93 JUMP JUMPDEST PUSH1 0x0 SWAP1 PUSH1 0x1F DUP4 GT PUSH1 0x1 EQ PUSH2 0x258B JUMPI PUSH1 0x0 SWAP3 PUSH2 0x2580 JUMPI JUMPDEST POP POP DUP2 PUSH1 0x1 SHL SWAP2 PUSH1 0x0 NOT SWAP1 PUSH1 0x3 SHL SHR NOT AND OR PUSH1 0x17 DUP3 ADD SSTORE JUMPDEST PUSH2 0x2189 PUSH2 0x2A4 PUSH1 0x4 CALLDATALOAD ADD PUSH1 0x4 CALLDATALOAD PUSH1 0x4 ADD PUSH2 0x3DC1 JUMP JUMPDEST SWAP1 PUSH1 0x1 PUSH1 0x1 PUSH1 0x40 SHL SUB DUP3 GT PUSH2 0x63C JUMPI DUP2 SWAP1 PUSH2 0x21B4 DUP3 PUSH2 0x21AB PUSH1 0x19 DUP8 ADD SLOAD PUSH2 0x3E18 JUMP JUMPDEST PUSH1 0x19 DUP8 ADD PUSH2 0x3E93 JUMP JUMPDEST PUSH1 0x0 SWAP1 PUSH1 0x1F DUP4 GT PUSH1 0x1 EQ PUSH2 0x250F JUMPI PUSH1 0x0 SWAP3 PUSH2 0x2504 JUMPI JUMPDEST POP POP DUP2 PUSH1 0x1 SHL SWAP2 PUSH1 0x0 NOT SWAP1 PUSH1 0x3 SHL SHR NOT AND OR PUSH1 0x19 DUP3 ADD SSTORE JUMPDEST TIMESTAMP PUSH1 0x1A DUP3 ADD SSTORE TIMESTAMP PUSH1 0x1B DUP3 ADD SSTORE PUSH1 0x4 CALLDATALOAD PUSH1 0x44 ADD PUSH2 0x21FD SWAP1 PUSH2 0x3DAD JUMP JUMPDEST PUSH1 0x20 SWAP1 SWAP2 ADD DUP1 SLOAD PUSH1 0x1 PUSH1 0x1 PUSH1 0xA0 SHL SUB NOT AND PUSH1 0x1 PUSH1 0x1 PUSH1 0xA0 SHL SUB SWAP1 SWAP3 AND SWAP2 SWAP1 SWAP2 OR SWAP1 SSTORE DUP1 PUSH2 0x222E PUSH1 0x4 DUP1 CALLDATALOAD ADD DUP1 PUSH2 0x3DC1 JUMP JUMPDEST SWAP1 DUP2 PUSH1 0x40 MLOAD SWAP3 DUP4 SWAP3 DUP4 CALLDATACOPY PUSH1 0x3 SWAP1 DUP3 ADD SWAP1 DUP2 MSTORE SUB PUSH1 0x20 ADD SWAP1 KECCAK256 SSTORE PUSH2 0x2255 PUSH1 0x4 DUP1 CALLDATALOAD ADD DUP1 PUSH2 0x3DC1 JUMP JUMPDEST SWAP1 DUP2 PUSH1 0x40 MLOAD SWAP3 DUP4 SWAP3 DUP4 CALLDATACOPY DUP2 ADD PUSH1 0x4 DUP2 MSTORE SUB PUSH1 0x20 ADD SWAP1 KECCAK256 PUSH1 0xFF NOT DUP2 SLOAD AND PUSH1 0x1 OR SWAP1 SSTORE DUP1 PUSH1 0x4 CALLDATALOAD PUSH1 0x24 ADD PUSH1 0x4 CALLDATALOAD PUSH1 0x4 ADD SWAP1 PUSH2 0x228D SWAP2 PUSH2 0x3DC1 JUMP JUMPDEST SWAP1 DUP2 PUSH1 0x40 MLOAD SWAP3 DUP4 SWAP3 DUP4 CALLDATACOPY DUP2 ADD PUSH1 0x5 DUP2 MSTORE SUB PUSH1 0x20 ADD SWAP1 KECCAK256 SSTORE DUP1 PUSH1 0x4 CALLDATALOAD PUSH1 0x24 ADD PUSH1 0x4 CALLDATALOAD PUSH1 0x4 ADD SWAP1 PUSH2 0x22BB SWAP2 PUSH2 0x3DC1 JUMP JUMPDEST SWAP1 DUP2 PUSH1 0x40 MLOAD SWAP3 DUP4 SWAP3 DUP4 CALLDATACOPY DUP2 ADD PUSH1 0x6 DUP2 MSTORE SUB PUSH1 0x20 ADD SWAP1 KECCAK256 SWAP1 PUSH2 0x22DB SWAP2 PUSH2 0x3ED8 JUMP JUMPDEST PUSH2 0x22E9 PUSH1 0x4 DUP1 CALLDATALOAD ADD DUP1 PUSH2 0x3DC1 JUMP JUMPDEST SWAP1 PUSH1 0xC0 MSTORE PUSH1 0x4 CALLDATALOAD PUSH1 0x24 ADD PUSH1 0x4 CALLDATALOAD PUSH1 0x4 ADD SWAP1 PUSH2 0x2303 SWAP2 PUSH2 0x3DC1 JUMP JUMPDEST PUSH1 0xE0 MSTORE DUP3 PUSH2 0x2315 PUSH1 0x44 PUSH1 0x4 CALLDATALOAD ADD PUSH2 0x3DAD JUMP JUMPDEST SWAP3 PUSH2 0x2324 PUSH1 0x64 PUSH1 0x4 CALLDATALOAD ADD PUSH2 0x3DAD JUMP JUMPDEST SWAP3 PUSH2 0x2337 PUSH1 0x4 DUP1 CALLDATALOAD PUSH1 0x84 DUP2 ADD SWAP2 ADD PUSH2 0x3DC1 JUMP JUMPDEST SWAP1 PUSH2 0x234A PUSH1 0x4 DUP1 CALLDATALOAD PUSH1 0xA4 DUP2 ADD SWAP2 ADD PUSH2 0x3DC1 JUMP JUMPDEST SWAP1 PUSH2 0x235D PUSH1 0x4 DUP1 CALLDATALOAD PUSH1 0xC4 DUP2 ADD SWAP2 ADD PUSH2 0x3DC1 JUMP JUMPDEST PUSH2 0x236F PUSH1 0x4 DUP1 CALLDATALOAD PUSH1 0xE4 DUP2 ADD SWAP2 ADD PUSH2 0x3DC1 JUMP JUMPDEST SWAP4 SWAP1 SWAP5 PUSH1 0x4 CALLDATALOAD PUSH2 0x144 ADD PUSH1 0x4 CALLDATALOAD PUSH1 0x4 ADD SWAP1 PUSH2 0x2389 SWAP2 PUSH2 0x3DC1 JUMP JUMPDEST SWAP8 SWAP1 SWAP9 PUSH1 0x4 CALLDATALOAD PUSH2 0x164 ADD PUSH1 0x4 CALLDATALOAD PUSH1 0x4 ADD SWAP1 PUSH2 0x23A3 SWAP2 PUSH2 0x3DC1 JUMP JUMPDEST SWAP12 SWAP1 SWAP13 PUSH1 0x4 CALLDATALOAD PUSH2 0x284 ADD PUSH1 0x4 CALLDATALOAD PUSH1 0x4 ADD SWAP1 PUSH2 0x23BD SWAP2 PUSH2 0x3DC1 JUMP JUMPDEST PUSH2 0x100 MSTORE PUSH1 0x80 MSTORE PUSH1 0x40 MLOAD DUP1 PUSH1 0xA0 MSTORE PUSH2 0x180 DUP1 SWAP2 MSTORE PUSH1 0xA0 MLOAD ADD PUSH1 0xC0 MLOAD SWAP2 PUSH2 0x23E2 SWAP3 PUSH2 0x3F1C JUMP JUMPDEST PUSH1 0xA0 MLOAD DUP1 DUP3 SUB SWAP1 PUSH1 0x20 ADD MSTORE PUSH1 0xE0 MLOAD PUSH2 0x23F9 SWAP3 PUSH2 0x3F1C JUMP JUMPDEST SWAP1 PUSH1 0xA0 MLOAD DUP1 DUP4 SUB SWAP1 PUSH1 0x40 ADD MSTORE PUSH2 0x240E SWAP3 PUSH2 0x3F1C JUMP JUMPDEST SWAP1 PUSH1 0xA0 MLOAD DUP1 DUP4 SUB SWAP1 PUSH1 0x60 ADD MSTORE PUSH2 0x2423 SWAP3 PUSH2 0x3F1C JUMP JUMPDEST SWAP1 PUSH1 0xA0 MLOAD DUP1 DUP4 SUB SWAP1 PUSH1 0x80 ADD MSTORE PUSH2 0x2438 SWAP3 PUSH2 0x3F1C JUMP JUMPDEST SWAP1 PUSH1 0xA0 MLOAD DUP1 DUP4 SUB SWAP1 PUSH1 0xA0 ADD MSTORE PUSH2 0x244D SWAP3 PUSH2 0x3F1C JUMP JUMPDEST SWAP1 PUSH1 0x4 CALLDATALOAD PUSH2 0x104 ADD CALLDATALOAD PUSH1 0xA0 MLOAD PUSH1 0xC0 ADD MSTORE PUSH1 0x4 CALLDATALOAD PUSH2 0x124 ADD CALLDATALOAD PUSH1 0xA0 MLOAD PUSH1 0xE0 ADD MSTORE PUSH1 0xA0 MLOAD DUP1 DUP4 SUB SWAP1 PUSH2 0x100 ADD MSTORE PUSH2 0x2481 SWAP3 PUSH2 0x3F1C JUMP JUMPDEST SWAP1 PUSH1 0xA0 MLOAD DUP1 DUP4 SUB SWAP1 PUSH2 0x120 ADD MSTORE PUSH2 0x2497 SWAP3 PUSH2 0x3F1C JUMP JUMPDEST PUSH1 0xA0 MLOAD DUP1 DUP3 SUB SWAP1 PUSH2 0x140 ADD MSTORE PUSH2 0x100 MLOAD SWAP1 PUSH1 0x80 MLOAD SWAP2 PUSH2 0x24B5 SWAP3 PUSH2 0x3F1C JUMP JUMPDEST PUSH1 0xA0 DUP1 MLOAD TIMESTAMP PUSH2 0x160 SWAP1 SWAP2 ADD MSTORE MLOAD PUSH1 0x1 PUSH1 0x1 PUSH1 0xA0 SHL SUB SWAP4 DUP5 AND SWAP5 SWAP1 SWAP4 AND SWAP3 PUSH32 0x13F51D0F5BC8C9C2667E59B60F0EEBE93833A66D5FF41370267BDD9E144D0700 SWAP2 DUP2 SWAP1 SUB SWAP1 LOG4 PUSH1 0x40 MLOAD SWAP1 DUP2 MSTORE PUSH1 0x20 SWAP1 RETURN JUMPDEST ADD CALLDATALOAD SWAP1 POP DUP5 DUP1 PUSH2 0x21CA JUMP JUMPDEST SWAP1 SWAP3 POP PUSH1 0x19 DUP5 ADD PUSH1 0x0 MSTORE PUSH1 0x20 PUSH1 0x0 KECCAK256 SWAP1 PUSH1 0x0 SWAP4 JUMPDEST PUSH1 0x1F NOT DUP5 AND DUP6 LT PUSH2 0x2568 JUMPI PUSH1 0x1 SWAP5 POP DUP4 PUSH1 0x1F NOT DUP2 AND LT PUSH2 0x254E JUMPI JUMPDEST POP POP POP DUP2 SHL ADD PUSH1 0x19 DUP3 ADD SSTORE PUSH2 0x21E2 JUMP JUMPDEST ADD CALLDATALOAD PUSH1 0x0 NOT PUSH1 0x3 DUP5 SWAP1 SHL PUSH1 0xF8 AND SHR NOT AND SWAP1 SSTORE DUP5 DUP1 DUP1 PUSH2 0x253E JUMP JUMPDEST DUP2 DUP2 ADD CALLDATALOAD DUP4 SSTORE PUSH1 0x20 SWAP5 DUP6 ADD SWAP5 PUSH1 0x1 SWAP1 SWAP4 ADD SWAP3 ADD PUSH2 0x2523 JUMP JUMPDEST ADD CALLDATALOAD SWAP1 POP DUP5 DUP1 PUSH2 0x215C JUMP JUMPDEST SWAP1 SWAP3 POP PUSH1 0x17 DUP5 ADD PUSH1 0x0 MSTORE PUSH1 0x20 PUSH1 0x0 KECCAK256 SWAP1 PUSH1 0x0 SWAP4 JUMPDEST PUSH1 0x1F NOT DUP5 AND DUP6 LT PUSH2 0x25E4 JUMPI PUSH1 0x1 SWAP5 POP DUP4 PUSH1 0x1F NOT DUP2 AND LT PUSH2 0x25CA JUMPI JUMPDEST POP POP POP DUP2 SHL ADD PUSH1 0x17 DUP3 ADD SSTORE PUSH2 0x2174 JUMP JUMPDEST ADD CALLDATALOAD PUSH1 0x0 NOT PUSH1 0x3 DUP5 SWAP1 SHL PUSH1 0xF8 AND SHR NOT AND SWAP1 SSTORE DUP5 DUP1 DUP1 PUSH2 0x25BA JUMP JUMPDEST DUP2 DUP2 ADD CALLDATALOAD DUP4 SSTORE PUSH1 0x20 SWAP5 DUP6 ADD SWAP5 PUSH1 0x1 SWAP1 SWAP4 ADD SWAP3 ADD PUSH2 0x259F JUMP JUMPDEST ADD CALLDATALOAD SWAP1 POP DUP5 DUP1 PUSH2 0x20EE JUMP JUMPDEST SWAP1 SWAP3 POP PUSH1 0x16 DUP5 ADD PUSH1 0x0 MSTORE PUSH1 0x20 PUSH1 0x0 KECCAK256 SWAP1 PUSH1 0x0 SWAP4 JUMPDEST PUSH1 0x1F NOT DUP5 AND DUP6 LT PUSH2 0x2660 JUMPI PUSH1 0x1 SWAP5 POP DUP4 PUSH1 0x1F NOT DUP2 AND LT PUSH2 0x2646 JUMPI JUMPDEST POP POP POP DUP2 SHL ADD PUSH1 0x16 DUP3 ADD SSTORE PUSH2 0x2106 JUMP JUMPDEST ADD CALLDATALOAD PUSH1 0x0 NOT PUSH1 0x3 DUP5 SWAP1 SHL PUSH1 0xF8 AND SHR NOT AND SWAP1 SSTORE DUP5 DUP1 DUP1 PUSH2 0x2636 JUMP JUMPDEST DUP2 DUP2 ADD CALLDATALOAD DUP4 SSTORE PUSH1 0x20 SWAP5 DUP6 ADD SWAP5 PUSH1 0x1 SWAP1 SWAP4 ADD SWAP3 ADD PUSH2 0x261B JUMP JUMPDEST ADD CALLDATALOAD SWAP1 POP DUP5 DUP1 PUSH2 0x2080 JUMP JUMPDEST SWAP1 SWAP3 POP PUSH1 0x15 DUP5 ADD PUSH1 0x0 MSTORE PUSH1 0x20 PUSH1 0x0 KECCAK256 SWAP1 PUSH1 0x0 SWAP4 JUMPDEST PUSH1 0x1F NOT DUP5 AND DUP6 LT PUSH2 0x26DC JUMPI PUSH1 0x1 SWAP5 POP DUP4 PUSH1 0x1F NOT DUP2 AND LT PUSH2 0x26C2 JUMPI JUMPDEST POP POP POP DUP2 SHL ADD PUSH1 0x15 DUP3 ADD SSTORE PUSH2 0x2098 JUMP JUMPDEST ADD CALLDATALOAD PUSH1 0x0 NOT PUSH1 0x3 DUP5 SWAP1 SHL PUSH1 0xF8 AND SHR NOT AND SWAP1 SSTORE DUP5 DUP1 DUP1 PUSH2 0x26B2 JUMP JUMPDEST DUP2 DUP2 ADD CALLDATALOAD DUP4 SSTORE PUSH1 0x20 SWAP5 DUP6 ADD SWAP5 PUSH1 0x1 SWAP1 SWAP4 ADD SWAP3 ADD PUSH2 0x2697 JUMP JUMPDEST ADD CALLDATALOAD SWAP1 POP DUP5 DUP1 PUSH2 0x2012 JUMP JUMPDEST SWAP1 SWAP3 POP PUSH1 0x14 DUP5 ADD PUSH1 0x0 MSTORE PUSH1 0x20 PUSH1 0x0 KECCAK256 SWAP1 PUSH1 0x0 SWAP4 JUMPDEST PUSH1 0x1F NOT DUP5 AND DUP6 LT PUSH2 0x2758 JUMPI PUSH1 0x1 SWAP5 POP DUP4 PUSH1 0x1F NOT DUP2 AND LT PUSH2 0x273E JUMPI JUMPDEST POP POP POP DUP2 SHL ADD PUSH1 0x14 DUP3 ADD SSTORE PUSH2 0x202A JUMP JUMPDEST ADD CALLDATALOAD PUSH1 0x0 NOT PUSH1 0x3 DUP5 SWAP1 SHL PUSH1 0xF8 AND SHR NOT AND SWAP1 SSTORE DUP5 DUP1 DUP1 PUSH2 0x272E JUMP JUMPDEST DUP2 DUP2 ADD CALLDATALOAD DUP4 SSTORE PUSH1 0x20 SWAP5 DUP6 ADD SWAP5 PUSH1 0x1 SWAP1 SWAP4 ADD SWAP3 ADD PUSH2 0x2713 JUMP JUMPDEST ADD CALLDATALOAD SWAP1 POP DUP5 DUP1 PUSH2 0x1FA4 JUMP JUMPDEST SWAP1 SWAP3 POP PUSH1 0x13 DUP5 ADD PUSH1 0x0 MSTORE PUSH1 0x20 PUSH1 0x0 KECCAK256 SWAP1 PUSH1 0x0 SWAP4 JUMPDEST PUSH1 0x1F NOT DUP5 AND DUP6 LT PUSH2 0x27D4 JUMPI PUSH1 0x1 SWAP5 POP DUP4 PUSH1 0x1F NOT DUP2 AND LT PUSH2 0x27BA JUMPI JUMPDEST POP POP POP DUP2 SHL ADD PUSH1 0x13 DUP3 ADD SSTORE PUSH2 0x1FBC JUMP JUMPDEST ADD CALLDATALOAD PUSH1 0x0 NOT PUSH1 0x3 DUP5 SWAP1 SHL PUSH1 0xF8 AND SHR NOT AND SWAP1 SSTORE DUP5 DUP1 DUP1 PUSH2 0x27AA JUMP JUMPDEST DUP2 DUP2 ADD CALLDATALOAD DUP4 SSTORE PUSH1 0x20 SWAP5 DUP6 ADD SWAP5 PUSH1 0x1 SWAP1 SWAP4 ADD SWAP3 ADD PUSH2 0x278F JUMP JUMPDEST ADD CALLDATALOAD SWAP1 POP DUP5 DUP1 PUSH2 0x1F36 JUMP JUMPDEST SWAP1 SWAP3 POP PUSH1 0x12 DUP5 ADD PUSH1 0x0 MSTORE PUSH1 0x20 PUSH1 0x0 KECCAK256 SWAP1 PUSH1 0x0 SWAP4 JUMPDEST PUSH1 0x1F NOT DUP5 AND DUP6 LT PUSH2 0x2850 JUMPI PUSH1 0x1 SWAP5 POP DUP4 PUSH1 0x1F NOT DUP2 AND LT PUSH2 0x2836 JUMPI JUMPDEST POP POP POP DUP2 SHL ADD PUSH1 0x12 DUP3 ADD SSTORE PUSH2 0x1F4E JUMP JUMPDEST ADD CALLDATALOAD PUSH1 0x0 NOT PUSH1 0x3 DUP5 SWAP1 SHL PUSH1 0xF8 AND SHR NOT AND SWAP1 SSTORE DUP5 DUP1 DUP1 PUSH2 0x2826 JUMP JUMPDEST DUP2 DUP2 ADD CALLDATALOAD DUP4 SSTORE PUSH1 0x20 SWAP5 DUP6 ADD SWAP5 PUSH1 0x1 SWAP1 SWAP4 ADD SWAP3 ADD PUSH2 0x280B JUMP JUMPDEST ADD CALLDATALOAD SWAP1 POP DUP5 DUP1 PUSH2 0x1EC8 JUMP JUMPDEST SWAP1 SWAP3 POP PUSH1 0x11 DUP5 ADD PUSH1 0x0 MSTORE PUSH1 0x20 PUSH1 0x0 KECCAK256 SWAP1 PUSH1 0x0 SWAP4 JUMPDEST PUSH1 0x1F NOT DUP5 AND DUP6 LT PUSH2 0x28CC JUMPI PUSH1 0x1 SWAP5 POP DUP4 PUSH1 0x1F NOT DUP2 AND LT PUSH2 0x28B2 JUMPI JUMPDEST POP POP POP DUP2 SHL ADD PUSH1 0x11 DUP3 ADD SSTORE PUSH2 0x1EE0 JUMP JUMPDEST ADD CALLDATALOAD PUSH1 0x0 NOT PUSH1 0x3 DUP5 SWAP1 SHL PUSH1 0xF8 AND SHR NOT AND SWAP1 SSTORE DUP5 DUP1 DUP1 PUSH2 0x28A2 JUMP JUMPDEST DUP2 DUP2 ADD CALLDATALOAD DUP4 SSTORE PUSH1 0x20 SWAP5 DUP6 ADD SWAP5 PUSH1 0x1 SWAP1 SWAP4 ADD SWAP3 ADD PUSH2 0x2887 JUMP JUMPDEST ADD CALLDATALOAD SWAP1 POP DUP5 DUP1 PUSH2 0x1E5A JUMP JUMPDEST SWAP1 SWAP3 POP PUSH1 0x10 DUP5 ADD PUSH1 0x0 MSTORE PUSH1 0x20 PUSH1 0x0 KECCAK256 SWAP1 PUSH1 0x0 SWAP4 JUMPDEST PUSH1 0x1F NOT DUP5 AND DUP6 LT PUSH2 0x2948 JUMPI PUSH1 0x1 SWAP5 POP DUP4 PUSH1 0x1F NOT DUP2 AND LT PUSH2 0x292E JUMPI JUMPDEST POP POP POP DUP2 SHL ADD PUSH1 0x10 DUP3 ADD SSTORE PUSH2 0x1E72 JUMP JUMPDEST ADD CALLDATALOAD PUSH1 0x0 NOT PUSH1 0x3 DUP5 SWAP1 SHL PUSH1 0xF8 AND SHR NOT AND SWAP1 SSTORE DUP5 DUP1 DUP1 PUSH2 0x291E JUMP JUMPDEST DUP2 DUP2 ADD CALLDATALOAD DUP4 SSTORE PUSH1 0x20 SWAP5 DUP6 ADD SWAP5 PUSH1 0x1 SWAP1 SWAP4 ADD SWAP3 ADD PUSH2 0x2903 JUMP JUMPDEST ADD CALLDATALOAD SWAP1 POP DUP5 DUP1 PUSH2 0x1DEC JUMP JUMPDEST SWAP1 SWAP3 POP PUSH1 0xF DUP5 ADD PUSH1 0x0 MSTORE PUSH1 0x20 PUSH1 0x0 KECCAK256 SWAP1 PUSH1 0x0 SWAP4 JUMPDEST PUSH1 0x1F NOT DUP5 AND DUP6 LT PUSH2 0x29C4 JUMPI PUSH1 0x1 SWAP5 POP DUP4 PUSH1 0x1F NOT DUP2 AND LT PUSH2 0x29AA JUMPI JUMPDEST POP POP POP DUP2 SHL ADD PUSH1 0xF DUP3 ADD SSTORE PUSH2 0x1E04 JUMP JUMPDEST ADD CALLDATALOAD PUSH1 0x0 NOT PUSH1 0x3 DUP5 SWAP1 SHL PUSH1 0xF8 AND SHR NOT AND SWAP1 SSTORE DUP5 DUP1 DUP1 PUSH2 0x299A JUMP JUMPDEST DUP2 DUP2 ADD CALLDATALOAD DUP4 SSTORE PUSH1 0x20 SWAP5 DUP6 ADD SWAP5 PUSH1 0x1 SWAP1 SWAP4 ADD SWAP3 ADD PUSH2 0x297F JUMP JUMPDEST ADD CALLDATALOAD SWAP1 POP DUP5 DUP1 PUSH2 0x1D7E JUMP JUMPDEST SWAP1 SWAP3 POP PUSH1 0xC DUP5 ADD PUSH1 0x0 MSTORE PUSH1 0x20 PUSH1 0x0 KECCAK256 SWAP1 PUSH1 0x0 SWAP4 JUMPDEST PUSH1 0x1F NOT DUP5 AND DUP6 LT PUSH2 0x2A40 JUMPI PUSH1 0x1 SWAP5 POP DUP4 PUSH1 0x1F NOT DUP2 AND LT PUSH2 0x2A26 JUMPI JUMPDEST POP POP POP DUP2 SHL ADD PUSH1 0xC DUP3 ADD SSTORE PUSH2 0x1D96 JUMP JUMPDEST ADD CALLDATALOAD PUSH1 0x0 NOT PUSH1 0x3 DUP5 SWAP1 SHL PUSH1 0xF8 AND SHR NOT AND SWAP1 SSTORE DUP5 DUP1 DUP1 PUSH2 0x2A16 JUMP JUMPDEST DUP2 DUP2 ADD CALLDATALOAD DUP4 SSTORE PUSH1 0x20 SWAP5 DUP6 ADD SWAP5 PUSH1 0x1 SWAP1 SWAP4 ADD SWAP3 ADD PUSH2 0x29FB JUMP JUMPDEST ADD CALLDATALOAD SWAP1 POP DUP5 DUP1 PUSH2 0x1D10 JUMP JUMPDEST SWAP1 SWAP3 POP PUSH1 0xB DUP5 ADD PUSH1 0x0 MSTORE PUSH1 0x20 PUSH1 0x0 KECCAK256 SWAP1 PUSH1 0x0 SWAP4 JUMPDEST PUSH1 0x1F NOT DUP5 AND DUP6 LT PUSH2 0x2ABC JUMPI PUSH1 0x1 SWAP5 POP DUP4 PUSH1 0x1F NOT DUP2 AND LT PUSH2 0x2AA2 JUMPI JUMPDEST POP POP POP DUP2 SHL ADD PUSH1 0xB DUP3 ADD SSTORE PUSH2 0x1D28 JUMP JUMPDEST ADD CALLDATALOAD PUSH1 0x0 NOT PUSH1 0x3 DUP5 SWAP1 SHL PUSH1 0xF8 AND SHR NOT AND SWAP1 SSTORE DUP5 DUP1 DUP1 PUSH2 0x2A92 JUMP JUMPDEST DUP2 DUP2 ADD CALLDATALOAD DUP4 SSTORE PUSH1 0x20 SWAP5 DUP6 ADD SWAP5 PUSH1 0x1 SWAP1 SWAP4 ADD SWAP3 ADD PUSH2 0x2A77 JUMP JUMPDEST ADD CALLDATALOAD SWAP1 POP DUP5 DUP1 PUSH2 0x1C8D JUMP JUMPDEST SWAP1 SWAP3 POP PUSH1 0x8 DUP5 ADD PUSH1 0x0 MSTORE PUSH1 0x20 PUSH1 0x0 KECCAK256 SWAP1 PUSH1 0x0 SWAP4 JUMPDEST PUSH1 0x1F NOT DUP5 AND DUP6 LT PUSH2 0x2B38 JUMPI PUSH1 0x1 SWAP5 POP DUP4 PUSH1 0x1F NOT DUP2 AND LT PUSH2 0x2B1E JUMPI JUMPDEST POP POP POP DUP2 SHL ADD PUSH1 0x8 DUP3 ADD SSTORE PUSH2 0x1CA5 JUMP JUMPDEST ADD CALLDATALOAD PUSH1 0x0 NOT PUSH1 0x3 DUP5 SWAP1 SHL PUSH1 0xF8 AND SHR NOT AND SWAP1 SSTORE DUP5 DUP1 DUP1 PUSH2 0x2B0E JUMP JUMPDEST DUP2 DUP2 ADD CALLDATALOAD DUP4 SSTORE PUSH1 0x20 SWAP5 DUP6 ADD SWAP5 PUSH1 0x1 SWAP1 SWAP4 ADD SWAP3 ADD PUSH2 0x2AF3 JUMP JUMPDEST ADD CALLDATALOAD SWAP1 POP DUP5 DUP1 PUSH2 0x1C20 JUMP JUMPDEST SWAP1 SWAP3 POP PUSH1 0x7 DUP5 ADD PUSH1 0x0 MSTORE PUSH1 0x20 PUSH1 0x0 KECCAK256 SWAP1 PUSH1 0x0 SWAP4 JUMPDEST PUSH1 0x1F NOT DUP5 AND DUP6 LT PUSH2 0x2BB4 JUMPI PUSH1 0x1 SWAP5 POP DUP4 PUSH1 0x1F NOT DUP2 AND LT PUSH2 0x2B9A JUMPI JUMPDEST POP POP POP DUP2 SHL ADD PUSH1 0x7 DUP3 ADD SSTORE PUSH2 0x1C38 JUMP JUMPDEST ADD CALLDATALOAD PUSH1 0x0 NOT PUSH1 0x3 DUP5 SWAP1 SHL PUSH1 0xF8 AND SHR NOT AND SWAP1 SSTORE DUP5 DUP1 DUP1 PUSH2 0x2B8A JUMP JUMPDEST DUP2 DUP2 ADD CALLDATALOAD DUP4 SSTORE PUSH1 0x20 SWAP5 DUP6 ADD SWAP5 PUSH1 0x1 SWAP1 SWAP4 ADD SWAP3 ADD PUSH2 0x2B6F JUMP JUMPDEST ADD CALLDATALOAD SWAP1 POP DUP5 DUP1 PUSH2 0x1BB3 JUMP JUMPDEST SWAP1 SWAP3 POP PUSH1 0x6 DUP5 ADD PUSH1 0x0 MSTORE PUSH1 0x20 PUSH1 0x0 KECCAK256 SWAP1 PUSH1 0x0 SWAP4 JUMPDEST PUSH1 0x1F NOT DUP5 AND DUP6 LT PUSH2 0x2C30 JUMPI PUSH1 0x1 SWAP5 POP DUP4 PUSH1 0x1F NOT DUP2 AND LT PUSH2 0x2C16 JUMPI JUMPDEST POP POP POP DUP2 SHL ADD PUSH1 0x6 DUP3 ADD SSTORE PUSH2 0x1BCB JUMP JUMPDEST ADD CALLDATALOAD PUSH1 0x0 NOT PUSH1 0x3 DUP5 SWAP1 SHL PUSH1 0xF8 AND SHR NOT AND SWAP1 SSTORE DUP5 DUP1 DUP1 PUSH2 0x2C06 JUMP JUMPDEST DUP2 DUP2 ADD CALLDATALOAD DUP4 SSTORE PUSH1 0x20 SWAP5 DUP6 ADD SWAP5 PUSH1 0x1 SWAP1 SWAP4 ADD SWAP3 ADD PUSH2 0x2BEB JUMP JUMPDEST ADD CALLDATALOAD SWAP1 POP DUP5 DUP1 PUSH2 0x1B46 JUMP JUMPDEST SWAP1 SWAP3 POP PUSH1 0x5 DUP5 ADD PUSH1 0x0 MSTORE PUSH1 0x20 PUSH1 0x0 KECCAK256 SWAP1 PUSH1 0x0 SWAP4 JUMPDEST PUSH1 0x1F NOT DUP5 AND DUP6 LT PUSH2 0x2CAC JUMPI PUSH1 0x1 SWAP5 POP DUP4 PUSH1 0x1F NOT DUP2 AND LT PUSH2 0x2C92 JUMPI JUMPDEST POP POP POP DUP2 SHL ADD PUSH1 0x5 DUP3 ADD SSTORE PUSH2 0x1B5E JUMP JUMPDEST ADD CALLDATALOAD PUSH1 0x0 NOT PUSH1 0x3 DUP5 SWAP1 SHL PUSH1 0xF8 AND SHR NOT AND SWAP1 SSTORE DUP5 DUP1 DUP1 PUSH2 0x2C82 JUMP JUMPDEST DUP2 DUP2 ADD CALLDATALOAD DUP4 SSTORE PUSH1 0x20 SWAP5 DUP6 ADD SWAP5 PUSH1 0x1 SWAP1 SWAP4 ADD SWAP3 ADD PUSH2 0x2C67 JUMP JUMPDEST ADD CALLDATALOAD SWAP1 POP DUP5 DUP1 PUSH2 0x1A7E JUMP JUMPDEST SWAP1 SWAP3 POP PUSH1 0x2 DUP5 ADD PUSH1 0x0 MSTORE PUSH1 0x20 PUSH1 0x0 KECCAK256 SWAP1 PUSH1 0x0 SWAP4 JUMPDEST PUSH1 0x1F NOT DUP5 AND DUP6 LT PUSH2 0x2D28 JUMPI PUSH1 0x1 SWAP5 POP DUP4 PUSH1 0x1F NOT DUP2 AND LT PUSH2 0x2D0E JUMPI JUMPDEST POP POP POP DUP2 SHL ADD PUSH1 0x2 DUP3 ADD SSTORE PUSH2 0x1A96 JUMP JUMPDEST ADD CALLDATALOAD PUSH1 0x0 NOT PUSH1 0x3 DUP5 SWAP1 SHL PUSH1 0xF8 AND SHR NOT AND SWAP1 SSTORE DUP5 DUP1 DUP1 PUSH2 0x2CFE JUMP JUMPDEST DUP2 DUP2 ADD CALLDATALOAD DUP4 SSTORE PUSH1 0x20 SWAP5 DUP6 ADD SWAP5 PUSH1 0x1 SWAP1 SWAP4 ADD SWAP3 ADD PUSH2 0x2CE3 JUMP JUMPDEST ADD CALLDATALOAD SWAP1 POP DUP5 DUP1 PUSH2 0x1A11 JUMP JUMPDEST SWAP1 SWAP3 POP PUSH1 0x1 DUP5 ADD PUSH1 0x0 MSTORE PUSH1 0x20 PUSH1 0x0 KECCAK256 SWAP1 PUSH1 0x0 SWAP4 JUMPDEST PUSH1 0x1F NOT DUP5 AND DUP6 LT PUSH2 0x2DA4 JUMPI PUSH1 0x1 SWAP5 POP DUP4 PUSH1 0x1F NOT DUP2 AND LT PUSH2 0x2D8A JUMPI JUMPDEST POP POP POP DUP2 SHL ADD PUSH1 0x1 DUP3 ADD SSTORE PUSH2 0x1A29 JUMP JUMPDEST ADD CALLDATALOAD PUSH1 0x0 NOT PUSH1 0x3 DUP5 SWAP1 SHL PUSH1 0xF8 AND SHR NOT AND SWAP1 SSTORE DUP5 DUP1 DUP1 PUSH2 0x2D7A JUMP JUMPDEST DUP2 DUP2 ADD CALLDATALOAD DUP4 SSTORE PUSH1 0x20 SWAP5 DUP6 ADD SWAP5 PUSH1 0x1 SWAP1 SWAP4 ADD SWAP3 ADD PUSH2 0x2D5F JUMP JUMPDEST PUSH1 0x40 MLOAD PUSH4 0x1623655B PUSH1 0xE3 SHL DUP2 MSTORE PUSH1 0x4 SWAP1 REVERT JUMPDEST PUSH1 0x40 MLOAD PUSH4 0x524F409B PUSH1 0xE0 SHL DUP2 MSTORE PUSH1 0x4 SWAP1 REVERT JUMPDEST PUSH1 0x40 MLOAD PUSH3 0xBFC921 PUSH1 0xE0 SHL DUP2 MSTORE PUSH1 0x4 SWAP1 REVERT JUMPDEST PUSH1 0x40 MLOAD PUSH4 0xE6C4247B PUSH1 0xE0 SHL DUP2 MSTORE PUSH1 0x4 SWAP1 REVERT JUMPDEST POP PUSH1 0x1 PUSH1 0x1 PUSH1 0xA0 SHL SUB PUSH2 0x2E1A PUSH1 0x4 CALLDATALOAD PUSH1 0x64 ADD PUSH2 0x3DAD JUMP JUMPDEST AND ISZERO PUSH2 0x18E6 JUMP JUMPDEST CALLVALUE PUSH2 0x701 JUMPI PUSH1 0x40 CALLDATASIZE PUSH1 0x3 NOT ADD SLT PUSH2 0x701 JUMPI PUSH1 0x1 PUSH1 0x1 PUSH1 0x40 SHL SUB PUSH1 0x4 CALLDATALOAD DUP2 DUP2 GT PUSH2 0x701 JUMPI PUSH2 0x2E52 SWAP1 CALLDATASIZE SWAP1 PUSH1 0x4 ADD PUSH2 0x3A47 JUMP JUMPDEST SWAP2 SWAP1 PUSH1 0x24 CALLDATALOAD DUP3 DUP2 GT PUSH2 0x701 JUMPI PUSH2 0x2E6C SWAP1 CALLDATASIZE SWAP1 PUSH1 0x4 ADD PUSH2 0x3A47 JUMP JUMPDEST SWAP4 SWAP1 SWAP2 PUSH1 0xFF PUSH1 0x40 MLOAD DUP4 DUP4 DUP3 CALLDATACOPY PUSH1 0x20 DUP2 DUP6 DUP2 ADD PUSH1 0x4 DUP2 MSTORE SUB ADD SWAP1 KECCAK256 SLOAD AND ISZERO PUSH2 0x6EF JUMPI PUSH1 0x20 SWAP1 DUP3 PUSH1 0x40 MLOAD SWAP4 DUP5 SWAP3 DUP4 CALLDATACOPY DUP2 ADD PUSH1 0x3 DUP2 MSTORE SUB ADD SWAP1 KECCAK256 SLOAD SWAP2 DUP3 PUSH1 0x0 MSTORE PUSH1 0x2 PUSH1 0x20 MSTORE PUSH32 0x71FB55C0CB0FD74783D23C772B2F895CB0C286E8E0FAB4F642555D8B1FFCE252 PUSH2 0x167 PUSH2 0x2EE9 PUSH1 0x19 PUSH1 0x40 PUSH1 0x0 KECCAK256 ADD PUSH1 0x40 MLOAD SWAP3 DUP4 DUP1 SWAP3 PUSH2 0x3F3D JUMP JUMPDEST PUSH1 0x20 DUP2 MLOAD SWAP2 ADD KECCAK256 PUSH8 0x1058D8D95C1D1959 PUSH1 0xC2 SHL PUSH1 0x20 PUSH1 0x40 MLOAD PUSH2 0x2F0A DUP2 PUSH2 0x3FEF JUMP JUMPDEST PUSH1 0x8 DUP2 MSTORE ADD MSTORE SUB PUSH2 0x6DD JUMPI PUSH1 0xFF PUSH1 0x40 MLOAD DUP6 DUP5 DUP3 CALLDATACOPY PUSH1 0x20 DUP2 DUP8 DUP2 ADD PUSH1 0x4 DUP2 MSTORE SUB ADD SWAP1 KECCAK256 SLOAD AND PUSH2 0x6CB JUMPI PUSH2 0x2F3D PUSH1 0x0 SLOAD PUSH2 0x3DF3 JUMP JUMPDEST SWAP3 DUP4 PUSH1 0x0 SSTORE PUSH1 0x0 MSTORE PUSH1 0x2 PUSH1 0x20 MSTORE PUSH1 0x40 PUSH1 0x0 KECCAK256 DUP4 PUSH1 0x0 MSTORE PUSH1 0x40 PUSH1 0x0 KECCAK256 SWAP2 DUP5 DUP4 SSTORE DUP6 GT PUSH2 0x63C JUMPI PUSH2 0x2F7C DUP6 PUSH2 0x2F73 PUSH1 0x1 DUP6 ADD SLOAD PUSH2 0x3E18 JUMP JUMPDEST PUSH1 0x1 DUP6 ADD PUSH2 0x3E93 JUMP JUMPDEST DUP5 PUSH1 0x0 PUSH1 0x1F DUP3 GT PUSH1 0x1 EQ PUSH2 0x3358 JUMPI SWAP3 PUSH1 0x1C DUP1 PUSH2 0x32FA SWAP5 PUSH1 0x0 DUP1 MLOAD PUSH1 0x20 PUSH2 0x43BB DUP4 CODECOPY DUP2 MLOAD SWAP2 MSTORE SWAP8 SWAP5 PUSH2 0x331E SWAP8 PUSH1 0x0 SWAP2 PUSH2 0x334D JUMPI JUMPDEST POP DUP11 PUSH1 0x1 SHL SWAP1 PUSH1 0x0 NOT DUP13 PUSH1 0x3 SHL SHR NOT AND OR PUSH1 0x1 DUP6 ADD SSTORE JUMPDEST PUSH2 0x2FD6 PUSH1 0x2 DUP3 ADD PUSH1 0x2 DUP7 ADD PUSH2 0x402B JUMP JUMPDEST PUSH1 0x3 DUP2 DUP2 ADD SLOAD SWAP1 DUP6 ADD DUP1 SLOAD PUSH1 0x1 PUSH1 0x1 PUSH1 0xA0 SHL SUB SWAP3 DUP4 AND PUSH1 0x1 PUSH1 0x1 PUSH1 0xA0 SHL SUB NOT SWAP2 DUP3 AND OR SWAP1 SWAP2 SSTORE PUSH1 0x4 DUP1 DUP5 ADD SLOAD SWAP1 DUP8 ADD DUP1 SLOAD SWAP2 SWAP1 SWAP4 AND SWAP2 AND OR SWAP1 SSTORE PUSH2 0x3020 PUSH1 0x5 DUP1 DUP4 ADD SWAP1 DUP7 ADD PUSH2 0x402B JUMP JUMPDEST PUSH2 0x3030 PUSH1 0x6 DUP3 ADD PUSH1 0x6 DUP7 ADD PUSH2 0x402B JUMP JUMPDEST PUSH2 0x3040 PUSH1 0x7 DUP3 ADD PUSH1 0x7 DUP7 ADD PUSH2 0x402B JUMP JUMPDEST PUSH2 0x3050 PUSH1 0x8 DUP3 ADD PUSH1 0x8 DUP7 ADD PUSH2 0x402B JUMP JUMPDEST PUSH1 0x9 DUP2 ADD SLOAD PUSH1 0x9 DUP6 ADD SSTORE PUSH1 0xA DUP2 ADD SLOAD PUSH1 0xA DUP6 ADD SSTORE PUSH2 0x3074 PUSH1 0xB DUP3 ADD PUSH1 0xB DUP7 ADD PUSH2 0x402B JUMP JUMPDEST PUSH2 0x3084 PUSH1 0xC DUP3 ADD PUSH1 0xC DUP7 ADD PUSH2 0x402B JUMP JUMPDEST PUSH2 0x3094 PUSH1 0xD DUP3 ADD PUSH1 0xD DUP7 ADD PUSH2 0x402B JUMP JUMPDEST PUSH2 0x30A4 PUSH1 0xE DUP3 ADD PUSH1 0xE DUP7 ADD PUSH2 0x402B JUMP JUMPDEST PUSH2 0x30B4 PUSH1 0xF DUP3 ADD PUSH1 0xF DUP7 ADD PUSH2 0x402B JUMP JUMPDEST PUSH2 0x30C4 PUSH1 0x10 DUP3 ADD PUSH1 0x10 DUP7 ADD PUSH2 0x402B JUMP JUMPDEST PUSH2 0x30D4 PUSH1 0x11 DUP3 ADD PUSH1 0x11 DUP7 ADD PUSH2 0x402B JUMP JUMPDEST PUSH2 0x30E4 PUSH1 0x12 DUP3 ADD PUSH1 0x12 DUP7 ADD PUSH2 0x402B JUMP JUMPDEST PUSH2 0x30F4 PUSH1 0x13 DUP3 ADD PUSH1 0x13 DUP7 ADD PUSH2 0x402B JUMP JUMPDEST PUSH2 0x3104 PUSH1 0x14 DUP3 ADD PUSH1 0x14 DUP7 ADD PUSH2 0x402B JUMP JUMPDEST PUSH2 0x3114 PUSH1 0x15 DUP3 ADD PUSH1 0x15 DUP7 ADD PUSH2 0x402B JUMP JUMPDEST PUSH2 0x3124 PUSH1 0x16 DUP3 ADD PUSH1 0x16 DUP7 ADD PUSH2 0x402B JUMP JUMPDEST PUSH2 0x3134 PUSH1 0x17 DUP3 ADD PUSH1 0x17 DUP7 ADD PUSH2 0x402B JUMP JUMPDEST PUSH1 0x1A DUP2 ADD SLOAD PUSH1 0x1A DUP6 ADD SSTORE ADD SLOAD SWAP2 ADD SSTORE DUP5 PUSH1 0x0 MSTORE PUSH1 0x2 PUSH1 0x20 MSTORE PUSH2 0x32EC PUSH1 0x40 PUSH1 0x0 KECCAK256 SWAP2 PUSH2 0x316E PUSH2 0x3165 PUSH1 0x19 DUP6 ADD SLOAD PUSH2 0x3E18 JUMP JUMPDEST PUSH1 0x19 DUP6 ADD PUSH2 0x3E69 JUMP JUMPDEST PUSH1 0x12 PUSH9 0x10DBDB5C1B195D1959 PUSH1 0xBA SHL ADD PUSH1 0x19 DUP5 ADD SSTORE TIMESTAMP PUSH1 0x1E DUP5 ADD DUP2 SWAP1 SSTORE PUSH1 0x1B DUP5 ADD SSTORE PUSH1 0x20 DUP4 ADD DUP1 SLOAD PUSH1 0x1 PUSH1 0x1 PUSH1 0xA0 SHL SUB NOT AND CALLER OR SWAP1 SSTORE PUSH1 0x40 MLOAD DUP8 SWAP1 DUP10 DUP4 DUP3 CALLDATACOPY PUSH1 0x20 DUP2 DUP12 DUP2 ADD PUSH1 0x3 DUP2 MSTORE SUB ADD SWAP1 KECCAK256 SSTORE PUSH1 0x40 MLOAD DUP9 DUP3 DUP3 CALLDATACOPY PUSH1 0x20 DUP2 DUP11 DUP2 ADD PUSH1 0x4 DUP2 MSTORE SUB ADD SWAP1 KECCAK256 PUSH1 0x1 PUSH1 0xFF NOT DUP3 SLOAD AND OR SWAP1 SSTORE PUSH1 0x2 DUP4 ADD SWAP3 DUP8 PUSH2 0x31EB DUP6 PUSH2 0x4109 JUMP JUMPDEST SSTORE PUSH2 0x31F9 DUP9 PUSH2 0x4C2 DUP7 PUSH2 0x419C JUMP JUMPDEST PUSH1 0x1 DUP1 PUSH1 0xA0 SHL SUB PUSH1 0x3 DUP3 ADD SLOAD AND DUP9 PUSH32 0x7EB090B0D076732E0E2C62254D3E200F4CEBCB162B68AB76D295F9DC10B543D7 DUP5 DUP13 PUSH2 0x32D0 PUSH1 0x1 DUP1 PUSH1 0xA0 SHL SUB PUSH1 0x4 DUP9 ADD SLOAD AND SWAP7 PUSH1 0xE PUSH2 0x32C0 PUSH2 0x32AF DUP14 PUSH1 0x9 DUP6 ADD SLOAD SWAP1 PUSH2 0x3293 PUSH2 0x327C PUSH1 0xA DUP9 ADD SLOAD SWAP3 PUSH2 0x326E PUSH1 0x40 MLOAD SWAP13 DUP14 SWAP13 DUP14 PUSH2 0x140 SWAP1 DUP2 DUP2 MSTORE ADD SWAP2 PUSH2 0x3F1C JUMP JUMPDEST SWAP1 DUP12 DUP3 SUB PUSH1 0x20 DUP14 ADD MSTORE PUSH2 0x3F3D JUMP JUMPDEST CALLER PUSH1 0x40 DUP12 ADD MSTORE DUP10 DUP2 SUB PUSH1 0x60 DUP12 ADD MSTORE PUSH1 0x7 DUP9 ADD PUSH2 0x3F3D JUMP JUMPDEST SWAP2 PUSH1 0x80 DUP10 ADD MSTORE PUSH1 0xA0 DUP9 ADD MSTORE DUP7 DUP2 SUB PUSH1 0xC0 DUP9 ADD MSTORE PUSH1 0x6 DUP6 ADD PUSH2 0x3F3D JUMP JUMPDEST DUP6 DUP2 SUB PUSH1 0xE0 DUP8 ADD MSTORE PUSH1 0xD DUP5 ADD PUSH2 0x3F3D JUMP JUMPDEST SWAP2 DUP5 DUP4 SUB PUSH2 0x100 DUP7 ADD MSTORE ADD PUSH2 0x3F3D JUMP JUMPDEST TIMESTAMP PUSH2 0x120 DUP4 ADD MSTORE SUB SWAP1 LOG4 PUSH1 0x40 MLOAD SWAP8 PUSH1 0xA0 DUP10 MSTORE PUSH1 0xA0 DUP10 ADD SWAP2 PUSH2 0x3F1C JUMP JUMPDEST SWAP1 DUP7 DUP3 SUB PUSH1 0x20 DUP9 ADD MSTORE PUSH2 0x3F3D JUMP JUMPDEST DUP5 DUP2 SUB PUSH1 0x40 DUP7 ADD MSTORE PUSH1 0x40 SWAP1 PUSH1 0x8 DUP2 MSTORE PUSH8 0x1058D8D95C1D1959 PUSH1 0xC2 SHL PUSH1 0x20 DUP3 ADD MSTORE ADD SWAP1 JUMP JUMPDEST SWAP3 PUSH9 0x10DBDB5C1B195D1959 PUSH1 0xBA SHL PUSH1 0x20 DUP3 DUP7 SUB SWAP6 DUP7 PUSH1 0x60 DUP6 ADD MSTORE PUSH1 0x9 DUP2 MSTORE ADD MSTORE TIMESTAMP PUSH1 0x80 DUP3 ADD MSTORE PUSH1 0x40 CALLER SWAP5 ADD SWAP1 LOG3 STOP JUMPDEST SWAP1 POP DUP6 ADD CALLDATALOAD DUP12 PUSH2 0x2FAF JUMP JUMPDEST SWAP1 POP PUSH1 0x1 DUP4 ADD PUSH1 0x0 MSTORE PUSH1 0x20 PUSH1 0x0 KECCAK256 SWAP1 PUSH1 0x0 JUMPDEST PUSH1 0x1F NOT DUP9 AND DUP2 LT PUSH2 0x33CB JUMPI POP SWAP3 PUSH1 0x1C DUP1 PUSH2 0x32FA SWAP5 PUSH1 0x0 DUP1 MLOAD PUSH1 0x20 PUSH2 0x43BB DUP4 CODECOPY DUP2 MLOAD SWAP2 MSTORE SWAP8 SWAP5 PUSH2 0x331E SWAP8 DUP12 PUSH1 0x1F NOT DUP2 AND LT PUSH2 0x33B1 JUMPI JUMPDEST POP POP PUSH1 0x1 DUP11 DUP2 SHL ADD PUSH1 0x1 DUP6 ADD SSTORE PUSH2 0x2FC6 JUMP JUMPDEST DUP7 ADD CALLDATALOAD PUSH1 0x0 NOT PUSH1 0x3 DUP14 SWAP1 SHL PUSH1 0xF8 AND SHR NOT AND SWAP1 SSTORE DUP11 DUP1 PUSH2 0x339F JUMP JUMPDEST SWAP1 SWAP2 PUSH1 0x20 PUSH1 0x1 DUP2 SWAP3 DUP6 DUP10 ADD CALLDATALOAD DUP2 SSTORE ADD SWAP4 ADD SWAP2 ADD PUSH2 0x336A JUMP JUMPDEST CALLVALUE PUSH2 0x701 JUMPI PUSH1 0x20 DUP1 PUSH1 0x3 NOT CALLDATASIZE ADD SLT PUSH2 0x701 JUMPI PUSH1 0x4 CALLDATALOAD PUSH1 0x1 PUSH1 0x1 PUSH1 0x40 SHL SUB DUP2 GT PUSH2 0x701 JUMPI PUSH2 0x3414 SWAP1 CALLDATASIZE SWAP1 PUSH1 0x4 ADD PUSH2 0x3A47 JUMP JUMPDEST PUSH1 0xFF PUSH1 0x40 SWAP4 SWAP3 SWAP4 MLOAD DUP3 DUP6 DUP3 CALLDATACOPY DUP4 DUP2 DUP5 DUP2 ADD PUSH1 0x4 DUP2 MSTORE SUB ADD SWAP1 KECCAK256 SLOAD AND ISZERO PUSH2 0x6EF JUMPI DUP2 PUSH2 0x346B SWAP4 DUP3 PUSH1 0x40 MLOAD SWAP4 DUP5 SWAP3 DUP4 CALLDATACOPY DUP2 ADD PUSH1 0x3 DUP2 MSTORE SUB ADD SWAP1 KECCAK256 SLOAD PUSH1 0x0 MSTORE PUSH1 0x2 DUP2 MSTORE PUSH2 0x3472 PUSH1 0x19 PUSH1 0x40 PUSH1 0x0 KECCAK256 ADD PUSH1 0x40 MLOAD SWAP4 DUP5 DUP1 SWAP3 PUSH2 0x3F3D JUMP JUMPDEST SUB DUP4 PUSH2 0x400A JUMP JUMPDEST PUSH2 0xA44 PUSH1 0x40 MLOAD SWAP3 DUP3 DUP5 SWAP4 DUP5 MSTORE DUP4 ADD SWAP1 PUSH2 0x3A74 JUMP JUMPDEST CALLVALUE PUSH2 0x701 JUMPI PUSH1 0x20 DUP1 PUSH1 0x3 NOT CALLDATASIZE ADD SLT PUSH2 0x701 JUMPI PUSH1 0x4 CALLDATALOAD PUSH1 0x1 PUSH1 0x1 PUSH1 0x40 SHL SUB DUP2 GT PUSH2 0x701 JUMPI PUSH2 0x34B7 SWAP1 CALLDATASIZE SWAP1 PUSH1 0x4 ADD PUSH2 0x3A47 JUMP JUMPDEST DUP1 PUSH1 0x40 MLOAD SWAP3 DUP4 CALLDATACOPY DUP2 ADD SWAP1 DUP3 DUP2 PUSH1 0x6 SWAP4 DUP5 DUP2 MSTORE SUB ADD SWAP1 KECCAK256 SWAP1 PUSH1 0x40 MLOAD DUP1 DUP4 DUP6 DUP3 SWAP6 SLOAD SWAP4 DUP5 DUP2 MSTORE ADD SWAP1 PUSH1 0x0 MSTORE DUP6 PUSH1 0x0 KECCAK256 SWAP3 PUSH1 0x0 JUMPDEST DUP8 DUP3 DUP3 LT PUSH2 0x38A1 JUMPI POP POP POP PUSH2 0x34FF SWAP3 POP SUB DUP4 PUSH2 0x400A JUMP JUMPDEST DUP2 MLOAD SWAP1 PUSH2 0x350B DUP3 PUSH2 0x438F JUMP JUMPDEST SWAP2 PUSH2 0x3519 PUSH1 0x40 MLOAD SWAP4 DUP5 PUSH2 0x400A JUMP JUMPDEST DUP1 DUP4 MSTORE PUSH2 0x3528 PUSH1 0x1F NOT SWAP2 PUSH2 0x438F JUMP JUMPDEST ADD DUP5 PUSH1 0x0 JUMPDEST DUP3 DUP2 LT PUSH2 0x388B JUMPI POP POP POP PUSH1 0x0 JUMPDEST DUP4 MLOAD DUP2 LT ISZERO PUSH2 0x382D JUMPI DUP1 PUSH2 0x3551 PUSH2 0x3828 SWAP3 DUP7 PUSH2 0x43A6 JUMP JUMPDEST MLOAD PUSH1 0x0 MSTORE PUSH1 0x2 DUP1 DUP8 MSTORE PUSH1 0x40 PUSH1 0x0 KECCAK256 PUSH2 0x167 PUSH2 0x359C PUSH1 0x40 MLOAD SWAP4 PUSH2 0x3572 DUP6 PUSH2 0x3FD3 JUMP JUMPDEST DUP4 SLOAD DUP6 MSTORE PUSH1 0x40 MLOAD PUSH2 0x358A DUP2 PUSH2 0x167 DUP2 PUSH1 0x1 DUP10 ADD PUSH2 0x3F3D JUMP JUMPDEST DUP12 DUP7 ADD MSTORE PUSH1 0x40 MLOAD SWAP3 DUP4 DUP1 SWAP3 DUP7 ADD PUSH2 0x3F3D JUMP JUMPDEST PUSH1 0x40 DUP4 ADD MSTORE DUP8 PUSH1 0x1 DUP1 PUSH1 0xA0 SHL SUB SWAP2 DUP3 PUSH1 0x3 DUP3 ADD SLOAD AND PUSH1 0x60 DUP6 ADD MSTORE DUP3 PUSH1 0x4 DUP3 ADD SLOAD AND PUSH1 0x80 DUP6 ADD MSTORE PUSH1 0x40 MLOAD PUSH2 0x35D6 DUP2 PUSH2 0x167 DUP2 PUSH1 0x5 DUP7 ADD PUSH2 0x3F3D JUMP JUMPDEST PUSH1 0xA0 DUP6 ADD MSTORE PUSH1 0x40 MLOAD PUSH2 0x35EE DUP2 PUSH2 0x167 DUP2 DUP12 DUP7 ADD PUSH2 0x3F3D JUMP JUMPDEST PUSH1 0xC0 DUP6 ADD MSTORE PUSH1 0x40 MLOAD PUSH2 0x3607 DUP2 PUSH2 0x167 DUP2 PUSH1 0x7 DUP7 ADD PUSH2 0x3F3D JUMP JUMPDEST PUSH1 0xE0 DUP6 ADD MSTORE PUSH1 0x40 MLOAD PUSH2 0x3620 DUP2 PUSH2 0x167 DUP2 PUSH1 0x8 DUP7 ADD PUSH2 0x3F3D JUMP JUMPDEST PUSH2 0x100 DUP6 ADD MSTORE PUSH1 0x9 DUP2 ADD SLOAD PUSH2 0x120 DUP6 ADD MSTORE PUSH1 0xA DUP2 ADD SLOAD PUSH2 0x140 DUP6 ADD MSTORE PUSH1 0x40 MLOAD PUSH2 0x3650 DUP2 PUSH2 0x167 DUP2 PUSH1 0xB DUP7 ADD PUSH2 0x3F3D JUMP JUMPDEST PUSH2 0x160 DUP6 ADD MSTORE PUSH1 0x40 MLOAD PUSH2 0x366A DUP2 PUSH2 0x167 DUP2 PUSH1 0xC DUP7 ADD PUSH2 0x3F3D JUMP JUMPDEST PUSH2 0x180 DUP6 ADD MSTORE PUSH1 0x40 MLOAD PUSH2 0x3684 DUP2 PUSH2 0x167 DUP2 PUSH1 0xD DUP7 ADD PUSH2 0x3F3D JUMP JUMPDEST PUSH2 0x1A0 DUP6 ADD MSTORE PUSH1 0x40 MLOAD PUSH2 0x369E DUP2 PUSH2 0x167 DUP2 PUSH1 0xE DUP7 ADD PUSH2 0x3F3D JUMP JUMPDEST PUSH2 0x1C0 DUP6 ADD MSTORE PUSH1 0x40 MLOAD PUSH2 0x36B8 DUP2 PUSH2 0x167 DUP2 PUSH1 0xF DUP7 ADD PUSH2 0x3F3D JUMP JUMPDEST PUSH2 0x1E0 DUP6 ADD MSTORE PUSH1 0x40 MLOAD PUSH2 0x36D2 DUP2 PUSH2 0x167 DUP2 PUSH1 0x10 DUP7 ADD PUSH2 0x3F3D JUMP JUMPDEST PUSH2 0x200 DUP6 ADD MSTORE PUSH1 0x40 MLOAD PUSH2 0x36EC DUP2 PUSH2 0x167 DUP2 PUSH1 0x11 DUP7 ADD PUSH2 0x3F3D JUMP JUMPDEST PUSH2 0x220 DUP6 ADD MSTORE PUSH1 0x40 MLOAD PUSH2 0x3706 DUP2 PUSH2 0x167 DUP2 PUSH1 0x12 DUP7 ADD PUSH2 0x3F3D JUMP JUMPDEST PUSH2 0x240 DUP6 ADD MSTORE PUSH1 0x40 MLOAD PUSH2 0x3720 DUP2 PUSH2 0x167 DUP2 PUSH1 0x13 DUP7 ADD PUSH2 0x3F3D JUMP JUMPDEST PUSH2 0x260 DUP6 ADD MSTORE PUSH1 0x40 MLOAD PUSH2 0x373A DUP2 PUSH2 0x167 DUP2 PUSH1 0x14 DUP7 ADD PUSH2 0x3F3D JUMP JUMPDEST PUSH2 0x280 DUP6 ADD MSTORE PUSH1 0x40 MLOAD PUSH2 0x3754 DUP2 PUSH2 0x167 DUP2 PUSH1 0x15 DUP7 ADD PUSH2 0x3F3D JUMP JUMPDEST PUSH2 0x2A0 DUP6 ADD MSTORE PUSH1 0x40 MLOAD PUSH2 0x376E DUP2 PUSH2 0x167 DUP2 PUSH1 0x16 DUP7 ADD PUSH2 0x3F3D JUMP JUMPDEST PUSH2 0x2C0 DUP6 ADD MSTORE PUSH1 0x40 MLOAD PUSH2 0x3788 DUP2 PUSH2 0x167 DUP2 PUSH1 0x17 DUP7 ADD PUSH2 0x3F3D JUMP JUMPDEST PUSH2 0x2E0 DUP6 ADD MSTORE PUSH1 0x40 MLOAD PUSH2 0x37A2 DUP2 PUSH2 0x167 DUP2 PUSH1 0x18 DUP7 ADD PUSH2 0x3F3D JUMP JUMPDEST PUSH2 0x300 DUP6 ADD MSTORE PUSH1 0x40 MLOAD PUSH2 0x37BC DUP2 PUSH2 0x167 DUP2 PUSH1 0x19 DUP7 ADD PUSH2 0x3F3D JUMP JUMPDEST PUSH2 0x320 DUP6 ADD MSTORE PUSH1 0x1A DUP2 ADD SLOAD PUSH2 0x340 DUP6 ADD MSTORE PUSH1 0x1B DUP2 ADD SLOAD PUSH2 0x360 DUP6 ADD MSTORE PUSH1 0x1C DUP2 ADD SLOAD PUSH2 0x380 DUP6 ADD MSTORE PUSH1 0x1D DUP2 ADD SLOAD PUSH2 0x3A0 DUP6 ADD MSTORE PUSH1 0x1E DUP2 ADD SLOAD PUSH2 0x3C0 DUP6 ADD MSTORE PUSH1 0x1F DUP2 ADD SLOAD PUSH2 0x3E0 DUP6 ADD MSTORE ADD SLOAD AND PUSH2 0x400 DUP3 ADD MSTORE PUSH2 0x3817 DUP3 DUP7 PUSH2 0x43A6 JUMP JUMPDEST MSTORE PUSH2 0x3822 DUP2 DUP6 PUSH2 0x43A6 JUMP JUMPDEST POP PUSH2 0x3DF3 JUMP JUMPDEST PUSH2 0x353A JUMP JUMPDEST PUSH1 0x40 DUP1 MLOAD DUP7 DUP2 MSTORE DUP5 MLOAD DUP2 DUP9 ADD DUP2 SWAP1 MSTORE PUSH1 0x0 SWAP3 PUSH1 0x5 DUP3 SWAP1 SHL DUP4 ADD DUP2 ADD SWAP2 DUP8 DUP11 ADD SWAP2 DUP11 SWAP1 DUP6 ADD JUMPDEST DUP3 DUP8 LT PUSH2 0x385F JUMPI DUP6 DUP6 SUB DUP7 RETURN JUMPDEST SWAP1 SWAP2 SWAP3 SWAP4 DUP3 DUP1 PUSH2 0x387B PUSH1 0x1 SWAP4 PUSH1 0x3F NOT DUP11 DUP3 SUB ADD DUP7 MSTORE DUP9 MLOAD PUSH2 0x3AB4 JUMP JUMPDEST SWAP7 ADD SWAP3 ADD SWAP7 ADD SWAP6 SWAP3 SWAP2 SWAP1 SWAP3 PUSH2 0x3852 JUMP JUMPDEST PUSH2 0x3893 PUSH2 0x42A2 JUMP JUMPDEST DUP3 DUP3 DUP8 ADD ADD MSTORE ADD DUP6 SWAP1 PUSH2 0x352D JUMP JUMPDEST DUP6 SLOAD DUP5 MSTORE PUSH1 0x1 SWAP6 DUP7 ADD SWAP6 DUP9 SWAP6 POP SWAP4 ADD SWAP3 ADD PUSH2 0x34E8 JUMP JUMPDEST CALLVALUE PUSH2 0x701 JUMPI PUSH1 0x0 CALLDATASIZE PUSH1 0x3 NOT ADD SLT PUSH2 0x701 JUMPI PUSH1 0x20 PUSH1 0x40 MLOAD PUSH2 0x1F4 DUP2 MSTORE RETURN JUMPDEST CALLVALUE PUSH2 0x701 JUMPI PUSH1 0x20 DUP1 PUSH1 0x3 NOT CALLDATASIZE ADD SLT PUSH2 0x701 JUMPI PUSH2 0x38EE PUSH2 0x42A2 JUMP JUMPDEST POP PUSH1 0x4 CALLDATALOAD PUSH1 0x0 MSTORE PUSH1 0x2 DUP2 MSTORE PUSH1 0x40 PUSH1 0x0 KECCAK256 SWAP1 PUSH1 0x40 MLOAD SWAP2 PUSH2 0x78E DUP4 PUSH2 0x3FD3 JUMP JUMPDEST CALLVALUE PUSH2 0x701 JUMPI PUSH1 0x0 CALLDATASIZE PUSH1 0x3 NOT ADD SLT PUSH2 0x701 JUMPI PUSH1 0x20 PUSH1 0x0 SLOAD PUSH1 0x40 MLOAD SWAP1 DUP2 MSTORE RETURN JUMPDEST CALLVALUE PUSH2 0x701 JUMPI PUSH1 0x20 DUP1 PUSH1 0x3 NOT CALLDATASIZE ADD SLT PUSH2 0x701 JUMPI PUSH1 0x4 CALLDATALOAD PUSH1 0x1 PUSH1 0x1 PUSH1 0x40 SHL SUB DUP2 GT PUSH2 0x701 JUMPI PUSH2 0x395C DUP3 SWAP2 CALLDATASIZE SWAP1 PUSH1 0x4 ADD PUSH2 0x3A47 JUMP JUMPDEST SWAP2 SWAP1 DUP3 PUSH1 0x40 MLOAD SWAP4 DUP5 SWAP3 DUP4 CALLDATACOPY DUP2 ADD PUSH1 0x6 DUP2 MSTORE SUB ADD SWAP1 KECCAK256 PUSH1 0x40 MLOAD SWAP1 DUP2 DUP4 DUP3 SLOAD SWAP2 DUP3 DUP2 MSTORE ADD SWAP1 DUP2 SWAP3 PUSH1 0x0 MSTORE DUP5 PUSH1 0x0 KECCAK256 SWAP1 PUSH1 0x0 JUMPDEST DUP7 DUP3 DUP3 LT PUSH2 0x39E2 JUMPI DUP7 DUP7 PUSH2 0x39A2 DUP3 DUP9 SUB DUP4 PUSH2 0x400A JUMP JUMPDEST PUSH1 0x40 MLOAD SWAP3 DUP4 SWAP3 DUP2 DUP5 ADD SWAP1 DUP3 DUP6 MSTORE MLOAD DUP1 SWAP2 MSTORE PUSH1 0x40 DUP5 ADD SWAP3 SWAP2 PUSH1 0x0 JUMPDEST DUP3 DUP2 LT PUSH2 0x39CB JUMPI POP POP POP POP SUB SWAP1 RETURN JUMPDEST DUP4 MLOAD DUP6 MSTORE DUP7 SWAP6 POP SWAP4 DUP2 ADD SWAP4 SWAP3 DUP2 ADD SWAP3 PUSH1 0x1 ADD PUSH2 0x39BC JUMP JUMPDEST DUP4 SLOAD DUP6 MSTORE SWAP1 SWAP4 ADD SWAP3 PUSH1 0x1 SWAP3 DUP4 ADD SWAP3 ADD PUSH2 0x398C JUMP JUMPDEST CALLVALUE PUSH2 0x701 JUMPI PUSH1 0x20 CALLDATASIZE PUSH1 0x3 NOT ADD SLT PUSH2 0x701 JUMPI PUSH1 0x4 CALLDATALOAD PUSH1 0x1 PUSH1 0x1 PUSH1 0x40 SHL SUB DUP2 GT PUSH2 0x701 JUMPI DUP2 PUSH1 0x20 DUP1 SWAP4 PUSH2 0x3A2D PUSH1 0xFF SWAP5 CALLDATASIZE SWAP1 PUSH1 0x4 ADD PUSH2 0x3A47 JUMP JUMPDEST DUP1 SWAP2 DUP4 CALLDATACOPY DUP2 ADD PUSH1 0x4 DUP2 MSTORE SUB ADD SWAP1 KECCAK256 SLOAD AND PUSH1 0x40 MLOAD SWAP1 ISZERO ISZERO DUP2 MSTORE RETURN JUMPDEST SWAP2 DUP2 PUSH1 0x1F DUP5 ADD SLT ISZERO PUSH2 0x701 JUMPI DUP3 CALLDATALOAD SWAP2 PUSH1 0x1 PUSH1 0x1 PUSH1 0x40 SHL SUB DUP4 GT PUSH2 0x701 JUMPI PUSH1 0x20 DUP4 DUP2 DUP7 ADD SWAP6 ADD ADD GT PUSH2 0x701 JUMPI JUMP JUMPDEST SWAP2 SWAP1 DUP3 MLOAD SWAP3 DUP4 DUP3 MSTORE PUSH1 0x0 JUMPDEST DUP5 DUP2 LT PUSH2 0x3AA0 JUMPI POP POP DUP3 PUSH1 0x0 PUSH1 0x20 DUP1 SWAP5 SWAP6 DUP5 ADD ADD MSTORE PUSH1 0x1F DUP1 NOT SWAP2 ADD AND ADD ADD SWAP1 JUMP JUMPDEST PUSH1 0x20 DUP2 DUP4 ADD DUP2 ADD MLOAD DUP5 DUP4 ADD DUP3 ADD MSTORE ADD PUSH2 0x3A7F JUMP JUMPDEST SWAP1 DUP2 MLOAD DUP2 MSTORE PUSH1 0x20 DUP3 ADD MLOAD PUSH2 0x420 DUP1 PUSH1 0x20 DUP5 ADD MSTORE DUP3 ADD PUSH2 0x3AD2 SWAP2 PUSH2 0x3A74 JUMP JUMPDEST PUSH1 0x40 DUP4 ADD MLOAD SWAP1 DUP3 DUP2 SUB PUSH1 0x40 DUP5 ADD MSTORE PUSH2 0x3AE9 SWAP2 PUSH2 0x3A74 JUMP JUMPDEST SWAP2 PUSH1 0x1 PUSH1 0xA0 SHL PUSH1 0x1 SWAP1 SUB SWAP3 DUP4 PUSH1 0x60 DUP4 ADD MLOAD AND PUSH1 0x60 DUP5 ADD MSTORE DUP4 PUSH1 0x80 DUP4 ADD MLOAD AND PUSH1 0x80 DUP5 ADD MSTORE PUSH1 0xA0 DUP3 ADD MLOAD SWAP1 DUP4 DUP2 SUB PUSH1 0xA0 DUP6 ADD MSTORE PUSH2 0x3B23 SWAP2 PUSH2 0x3A74 JUMP JUMPDEST PUSH1 0xC0 DUP3 ADD MLOAD SWAP1 DUP4 DUP2 SUB PUSH1 0xC0 DUP6 ADD MSTORE PUSH2 0x3B3A SWAP2 PUSH2 0x3A74 JUMP JUMPDEST PUSH1 0xE0 DUP3 ADD MLOAD SWAP1 DUP4 DUP2 SUB PUSH1 0xE0 DUP6 ADD MSTORE PUSH2 0x3B51 SWAP2 PUSH2 0x3A74 JUMP JUMPDEST PUSH2 0x100 SWAP1 DUP2 DUP4 ADD MLOAD SWAP2 DUP5 DUP3 SUB SWAP1 DUP6 ADD MSTORE PUSH2 0x3B6A SWAP2 PUSH2 0x3A74 JUMP JUMPDEST PUSH2 0x120 DUP1 DUP4 ADD MLOAD SWAP1 DUP5 ADD MSTORE PUSH2 0x140 DUP1 DUP4 ADD MLOAD SWAP1 DUP5 ADD MSTORE PUSH2 0x160 SWAP1 DUP2 DUP4 ADD MLOAD SWAP2 DUP5 DUP3 SUB SWAP1 DUP6 ADD MSTORE PUSH2 0x3B99 SWAP2 PUSH2 0x3A74 JUMP JUMPDEST PUSH2 0x180 SWAP1 DUP2 DUP4 ADD MLOAD SWAP2 DUP5 DUP3 SUB SWAP1 DUP6 ADD MSTORE PUSH2 0x3BB2 SWAP2 PUSH2 0x3A74 JUMP JUMPDEST PUSH2 0x1A0 SWAP1 DUP2 DUP4 ADD MLOAD SWAP2 DUP5 DUP3 SUB SWAP1 DUP6 ADD MSTORE PUSH2 0x3BCB SWAP2 PUSH2 0x3A74 JUMP JUMPDEST PUSH2 0x1C0 SWAP1 DUP2 DUP4 ADD MLOAD SWAP2 DUP5 DUP3 SUB SWAP1 DUP6 ADD MSTORE PUSH2 0x3BE4 SWAP2 PUSH2 0x3A74 JUMP JUMPDEST PUSH2 0x1E0 SWAP1 DUP2 DUP4 ADD MLOAD SWAP2 DUP5 DUP3 SUB SWAP1 DUP6 ADD MSTORE PUSH2 0x3BFD SWAP2 PUSH2 0x3A74 JUMP JUMPDEST PUSH2 0x200 SWAP1 DUP2 DUP4 ADD MLOAD SWAP2 DUP5 DUP3 SUB SWAP1 DUP6 ADD MSTORE PUSH2 0x3C16 SWAP2 PUSH2 0x3A74 JUMP JUMPDEST PUSH2 0x220 SWAP1 DUP2 DUP4 ADD MLOAD SWAP2 DUP5 DUP3 SUB SWAP1 DUP6 ADD MSTORE PUSH2 0x3C2F SWAP2 PUSH2 0x3A74 JUMP JUMPDEST PUSH2 0x240 SWAP1 DUP2 DUP4 ADD MLOAD SWAP2 DUP5 DUP3 SUB SWAP1 DUP6 ADD MSTORE PUSH2 0x3C48 SWAP2 PUSH2 0x3A74 JUMP JUMPDEST PUSH2 0x260 SWAP1 DUP2 DUP4 ADD MLOAD SWAP2 DUP5 DUP3 SUB SWAP1 DUP6 ADD MSTORE PUSH2 0x3C61 SWAP2 PUSH2 0x3A74 JUMP JUMPDEST PUSH2 0x280 SWAP1 DUP2 DUP4 ADD MLOAD SWAP2 DUP5 DUP3 SUB SWAP1 DUP6 ADD MSTORE PUSH2 0x3C7A SWAP2 PUSH2 0x3A74 JUMP JUMPDEST PUSH2 0x2A0 SWAP1 DUP2 DUP4 ADD MLOAD SWAP2 DUP5 DUP3 SUB SWAP1 DUP6 ADD MSTORE PUSH2 0x3C93 SWAP2 PUSH2 0x3A74 JUMP JUMPDEST PUSH2 0x2C0 SWAP1 DUP2 DUP4 ADD MLOAD SWAP2 DUP5 DUP3 SUB SWAP1 DUP6 ADD MSTORE PUSH2 0x3CAC SWAP2 PUSH2 0x3A74 JUMP JUMPDEST PUSH2 0x2E0 SWAP1 DUP2 DUP4 ADD MLOAD SWAP2 DUP5 DUP3 SUB SWAP1 DUP6 ADD MSTORE PUSH2 0x3CC5 SWAP2 PUSH2 0x3A74 JUMP JUMPDEST PUSH2 0x300 SWAP1 DUP2 DUP4 ADD MLOAD SWAP2 DUP5 DUP3 SUB SWAP1 DUP6 ADD MSTORE PUSH2 0x3CDE SWAP2 PUSH2 0x3A74 JUMP JUMPDEST PUSH2 0x320 SWAP1 DUP2 DUP4 ADD MLOAD SWAP2 DUP5 DUP3 SUB SWAP1 DUP6 ADD MSTORE PUSH2 0x3CF7 SWAP2 PUSH2 0x3A74 JUMP JUMPDEST SWAP3 PUSH2 0x340 DUP1 DUP4 ADD MLOAD SWAP1 DUP5 ADD MSTORE PUSH2 0x360 DUP1 DUP4 ADD MLOAD SWAP1 DUP5 ADD MSTORE PUSH2 0x380 DUP1 DUP4 ADD MLOAD SWAP1 DUP5 ADD MSTORE PUSH2 0x3A0 DUP1 DUP4 ADD MLOAD SWAP1 DUP5 ADD MSTORE PUSH2 0x3C0 DUP1 DUP4 ADD MLOAD SWAP1 DUP5 ADD MSTORE PUSH2 0x3E0 DUP1 DUP4 ADD MLOAD SWAP1 DUP5 ADD MSTORE PUSH2 0x400 DUP1 SWAP3 ADD MLOAD AND SWAP2 ADD MSTORE SWAP1 JUMP JUMPDEST SWAP1 PUSH1 0x60 PUSH1 0x3 NOT DUP4 ADD SLT PUSH2 0x701 JUMPI PUSH1 0x1 PUSH1 0x1 PUSH1 0x40 SHL SUB PUSH1 0x4 CALLDATALOAD DUP2 DUP2 GT PUSH2 0x701 JUMPI DUP4 PUSH2 0x3D74 SWAP2 PUSH1 0x4 ADD PUSH2 0x3A47 JUMP JUMPDEST SWAP4 SWAP1 SWAP4 SWAP3 PUSH1 0x24 CALLDATALOAD DUP4 DUP2 GT PUSH2 0x701 JUMPI DUP3 PUSH2 0x3D8F SWAP2 PUSH1 0x4 ADD PUSH2 0x3A47 JUMP JUMPDEST SWAP4 SWAP1 SWAP4 SWAP3 PUSH1 0x44 CALLDATALOAD SWAP2 DUP3 GT PUSH2 0x701 JUMPI PUSH2 0x3DA9 SWAP2 PUSH1 0x4 ADD PUSH2 0x3A47 JUMP JUMPDEST SWAP1 SWAP2 JUMP JUMPDEST CALLDATALOAD PUSH1 0x1 PUSH1 0x1 PUSH1 0xA0 SHL SUB DUP2 AND DUP2 SUB PUSH2 0x701 JUMPI SWAP1 JUMP JUMPDEST SWAP1 CALLDATALOAD SWAP1 PUSH1 0x1E NOT DUP2 CALLDATASIZE SUB ADD DUP3 SLT ISZERO PUSH2 0x701 JUMPI ADD DUP1 CALLDATALOAD SWAP1 PUSH1 0x1 PUSH1 0x1 PUSH1 0x40 SHL SUB DUP3 GT PUSH2 0x701 JUMPI PUSH1 0x20 ADD SWAP2 DUP2 CALLDATASIZE SUB DUP4 SGT PUSH2 0x701 JUMPI JUMP JUMPDEST PUSH1 0x0 NOT DUP2 EQ PUSH2 0x3E02 JUMPI PUSH1 0x1 ADD SWAP1 JUMP JUMPDEST PUSH4 0x4E487B71 PUSH1 0xE0 SHL PUSH1 0x0 MSTORE PUSH1 0x11 PUSH1 0x4 MSTORE PUSH1 0x24 PUSH1 0x0 REVERT JUMPDEST SWAP1 PUSH1 0x1 DUP3 DUP2 SHR SWAP3 AND DUP1 ISZERO PUSH2 0x3E48 JUMPI JUMPDEST PUSH1 0x20 DUP4 LT EQ PUSH2 0x3E32 JUMPI JUMP JUMPDEST PUSH4 0x4E487B71 PUSH1 0xE0 SHL PUSH1 0x0 MSTORE PUSH1 0x22 PUSH1 0x4 MSTORE PUSH1 0x24 PUSH1 0x0 REVERT JUMPDEST SWAP2 PUSH1 0x7F AND SWAP2 PUSH2 0x3E27 JUMP JUMPDEST DUP2 DUP2 LT PUSH2 0x3E5D JUMPI POP POP JUMP JUMPDEST PUSH1 0x0 DUP2 SSTORE PUSH1 0x1 ADD PUSH2 0x3E52 JUMP JUMPDEST SWAP1 PUSH1 0x1F DUP2 GT PUSH2 0x3E76 JUMPI POP POP JUMP JUMPDEST PUSH2 0x3E91 SWAP2 PUSH1 0x0 MSTORE PUSH1 0x1F PUSH1 0x20 PUSH1 0x0 KECCAK256 SWAP2 ADD PUSH1 0x5 SHR DUP2 ADD SWAP1 PUSH2 0x3E52 JUMP JUMPDEST JUMP JUMPDEST SWAP2 SWAP1 PUSH1 0x1F DUP2 GT PUSH2 0x3EA2 JUMPI POP POP POP JUMP JUMPDEST PUSH2 0x3E91 SWAP3 PUSH1 0x0 MSTORE PUSH1 0x20 PUSH1 0x0 KECCAK256 SWAP1 PUSH1 0x20 PUSH1 0x1F DUP5 ADD PUSH1 0x5 SHR DUP4 ADD SWAP4 LT PUSH2 0x3ECE JUMPI JUMPDEST PUSH1 0x1F ADD PUSH1 0x5 SHR ADD SWAP1 PUSH2 0x3E52 JUMP JUMPDEST SWAP1 SWAP2 POP DUP2 SWAP1 PUSH2 0x3EC1 JUMP JUMPDEST DUP1 SLOAD SWAP1 PUSH9 0x10000000000000000 DUP3 LT ISZERO PUSH2 0x63C JUMPI PUSH1 0x1 DUP3 ADD DUP1 DUP3 SSTORE DUP3 LT ISZERO PUSH2 0x3F06 JUMPI PUSH1 0x0 MSTORE PUSH1 0x20 PUSH1 0x0 KECCAK256 ADD SSTORE JUMP JUMPDEST PUSH4 0x4E487B71 PUSH1 0xE0 SHL PUSH1 0x0 MSTORE PUSH1 0x32 PUSH1 0x4 MSTORE PUSH1 0x24 PUSH1 0x0 REVERT JUMPDEST SWAP1 DUP1 PUSH1 0x20 SWAP4 SWAP3 DUP2 DUP5 MSTORE DUP5 DUP5 ADD CALLDATACOPY PUSH1 0x0 DUP3 DUP3 ADD DUP5 ADD MSTORE PUSH1 0x1F ADD PUSH1 0x1F NOT AND ADD ADD SWAP1 JUMP JUMPDEST SWAP1 PUSH1 0x0 SWAP3 SWAP2 DUP1 SLOAD SWAP2 PUSH2 0x3F4E DUP4 PUSH2 0x3E18 JUMP JUMPDEST SWAP2 DUP3 DUP3 MSTORE PUSH1 0x1 SWAP4 DUP5 DUP2 AND SWAP1 DUP2 PUSH1 0x0 EQ PUSH2 0x3FB0 JUMPI POP PUSH1 0x1 EQ PUSH2 0x3F70 JUMPI JUMPDEST POP POP POP POP JUMP JUMPDEST SWAP1 SWAP2 SWAP4 SWAP5 POP PUSH1 0x0 MSTORE PUSH1 0x20 SWAP3 DUP4 PUSH1 0x0 KECCAK256 SWAP3 DUP5 PUSH1 0x0 SWAP5 JUMPDEST DUP4 DUP7 LT PUSH2 0x3F9C JUMPI POP POP POP POP ADD ADD SWAP1 CODESIZE DUP1 DUP1 DUP1 PUSH2 0x3F6A JUMP JUMPDEST DUP1 SLOAD DUP6 DUP8 ADD DUP4 ADD MSTORE SWAP5 ADD SWAP4 DUP6 SWAP1 DUP3 ADD PUSH2 0x3F85 JUMP JUMPDEST SWAP3 SWAP5 POP POP POP PUSH1 0x20 SWAP4 SWAP5 POP PUSH1 0xFF NOT AND DUP4 DUP4 ADD MSTORE ISZERO ISZERO PUSH1 0x5 SHL ADD ADD SWAP1 CODESIZE DUP1 DUP1 DUP1 PUSH2 0x3F6A JUMP JUMPDEST PUSH2 0x420 DUP2 ADD SWAP1 DUP2 LT PUSH1 0x1 PUSH1 0x1 PUSH1 0x40 SHL SUB DUP3 GT OR PUSH2 0x63C JUMPI PUSH1 0x40 MSTORE JUMP JUMPDEST PUSH1 0x40 DUP2 ADD SWAP1 DUP2 LT PUSH1 0x1 PUSH1 0x1 PUSH1 0x40 SHL SUB DUP3 GT OR PUSH2 0x63C JUMPI PUSH1 0x40 MSTORE JUMP JUMPDEST SWAP1 PUSH1 0x1F DUP1 NOT SWAP2 ADD AND DUP2 ADD SWAP1 DUP2 LT PUSH1 0x1 PUSH1 0x1 PUSH1 0x40 SHL SUB DUP3 GT OR PUSH2 0x63C JUMPI PUSH1 0x40 MSTORE JUMP JUMPDEST SWAP1 DUP1 DUP3 EQ PUSH2 0x4105 JUMPI PUSH2 0x403D DUP2 SLOAD PUSH2 0x3E18 JUMP JUMPDEST SWAP1 PUSH1 0x1 PUSH1 0x1 PUSH1 0x40 SHL SUB DUP3 GT PUSH2 0x63C JUMPI DUP2 SWAP1 PUSH2 0x4062 DUP3 PUSH2 0x405C DUP7 SLOAD PUSH2 0x3E18 JUMP JUMPDEST DUP7 PUSH2 0x3E93 JUMP JUMPDEST PUSH1 0x0 SWAP1 PUSH1 0x1F DUP4 GT PUSH1 0x1 EQ PUSH2 0x4099 JUMPI PUSH1 0x0 SWAP3 PUSH2 0x408E JUMPI JUMPDEST POP POP DUP2 PUSH1 0x1 SHL SWAP2 PUSH1 0x0 NOT SWAP1 PUSH1 0x3 SHL SHR NOT AND OR SWAP1 SSTORE JUMP JUMPDEST ADD SLOAD SWAP1 POP CODESIZE DUP1 PUSH2 0x4078 JUMP JUMPDEST DUP2 MSTORE PUSH1 0x20 DUP1 DUP3 KECCAK256 DUP6 DUP4 MSTORE DUP2 DUP4 KECCAK256 SWAP4 POP SWAP1 PUSH1 0x1F NOT DUP6 AND SWAP1 DUP4 SWAP1 JUMPDEST DUP3 DUP3 LT PUSH2 0x40EC JUMPI POP POP SWAP1 DUP5 PUSH1 0x1 SWAP6 SWAP5 SWAP4 SWAP3 LT PUSH2 0x40D3 JUMPI JUMPDEST POP POP POP DUP2 SHL ADD SWAP1 SSTORE JUMP JUMPDEST ADD SLOAD PUSH1 0x0 NOT PUSH1 0xF8 DUP5 PUSH1 0x3 SHL AND SHR NOT AND SWAP1 SSTORE CODESIZE DUP1 DUP1 PUSH2 0x40C9 JUMP JUMPDEST DUP5 SWAP6 DUP2 SWAP3 SWAP6 DUP6 ADD SLOAD DUP2 SSTORE PUSH1 0x1 DUP1 SWAP2 ADD SWAP7 ADD SWAP5 ADD SWAP1 PUSH2 0x40B2 JUMP JUMPDEST POP POP JUMP JUMPDEST PUSH1 0x40 MLOAD SWAP1 DUP2 PUSH1 0x0 DUP3 SLOAD PUSH2 0x411B DUP2 PUSH2 0x3E18 JUMP JUMPDEST SWAP4 PUSH1 0x1 SWAP2 DUP1 DUP4 AND SWAP1 DUP2 ISZERO PUSH2 0x4180 JUMPI POP PUSH1 0x1 EQ PUSH2 0x4143 JUMPI JUMPDEST POP POP PUSH1 0x20 SWAP3 POP PUSH1 0x5 DUP2 MSTORE SUB ADD SWAP1 KECCAK256 SWAP1 JUMP JUMPDEST SWAP1 SWAP2 POP PUSH1 0x0 MSTORE PUSH1 0x20 SWAP1 DUP2 PUSH1 0x0 KECCAK256 SWAP1 PUSH1 0x0 SWAP2 JUMPDEST DUP6 DUP4 LT PUSH2 0x416C JUMPI POP POP POP POP PUSH1 0x20 SWAP2 DUP2 ADD CODESIZE DUP1 PUSH2 0x4132 JUMP JUMPDEST DUP1 SLOAD DUP8 DUP5 ADD MSTORE DUP7 SWAP5 POP SWAP2 DUP4 ADD SWAP2 DUP2 ADD PUSH2 0x4155 JUMP JUMPDEST SWAP3 POP POP POP PUSH1 0x20 SWAP4 SWAP2 POP PUSH1 0xFF NOT AND DUP3 MSTORE DUP1 ISZERO ISZERO MUL DUP2 ADD CODESIZE DUP1 PUSH2 0x4132 JUMP JUMPDEST PUSH1 0x40 MLOAD SWAP1 DUP2 PUSH1 0x0 DUP3 SLOAD PUSH2 0x41AE DUP2 PUSH2 0x3E18 JUMP JUMPDEST SWAP4 PUSH1 0x1 SWAP2 DUP1 DUP4 AND SWAP1 DUP2 ISZERO PUSH2 0x4213 JUMPI POP PUSH1 0x1 EQ PUSH2 0x41D6 JUMPI JUMPDEST POP POP PUSH1 0x20 SWAP3 POP PUSH1 0x6 DUP2 MSTORE SUB ADD SWAP1 KECCAK256 SWAP1 JUMP JUMPDEST SWAP1 SWAP2 POP PUSH1 0x0 MSTORE PUSH1 0x20 SWAP1 DUP2 PUSH1 0x0 KECCAK256 SWAP1 PUSH1 0x0 SWAP2 JUMPDEST DUP6 DUP4 LT PUSH2 0x41FF JUMPI POP POP POP POP PUSH1 0x20 SWAP2 DUP2 ADD CODESIZE DUP1 PUSH2 0x41C5 JUMP JUMPDEST DUP1 SLOAD DUP8 DUP5 ADD MSTORE DUP7 SWAP5 POP SWAP2 DUP4 ADD SWAP2 DUP2 ADD PUSH2 0x41E8 JUMP JUMPDEST SWAP3 POP POP POP PUSH1 0x20 SWAP4 SWAP2 POP PUSH1 0xFF NOT AND DUP3 MSTORE DUP1 ISZERO ISZERO MUL DUP2 ADD CODESIZE DUP1 PUSH2 0x41C5 JUMP JUMPDEST SWAP11 SWAP10 SWAP9 SWAP5 SWAP3 PUSH2 0x428F SWAP5 PUSH2 0x4269 DUP14 PUSH2 0x4277 SWAP4 PUSH2 0x425B PUSH1 0xE0 SWAP14 SWAP12 SWAP7 PUSH2 0x429D SWAP14 SWAP9 PUSH2 0x100 DUP1 DUP7 MSTORE DUP6 ADD SWAP2 PUSH2 0x3F1C JUMP JUMPDEST SWAP2 PUSH1 0x20 DUP2 DUP5 SUB SWAP2 ADD MSTORE PUSH2 0x3F3D JUMP JUMPDEST DUP14 DUP2 SUB PUSH1 0x40 DUP16 ADD MSTORE SWAP1 PUSH2 0x3F3D JUMP JUMPDEST SWAP3 PUSH1 0x60 DUP13 ADD MSTORE PUSH1 0x80 DUP12 ADD MSTORE DUP10 DUP3 SUB PUSH1 0xA0 DUP12 ADD MSTORE PUSH2 0x3F3D JUMP JUMPDEST SWAP2 DUP8 DUP4 SUB PUSH1 0xC0 DUP10 ADD MSTORE PUSH2 0x3F1C JUMP JUMPDEST SWAP4 ADD MSTORE JUMP JUMPDEST PUSH1 0x40 MLOAD SWAP1 PUSH2 0x42AF DUP3 PUSH2 0x3FD3 JUMP JUMPDEST DUP2 PUSH2 0x400 PUSH1 0x0 SWAP2 DUP3 DUP2 MSTORE PUSH1 0x60 DUP1 PUSH1 0x20 DUP4 ADD MSTORE DUP1 PUSH1 0x40 DUP4 ADD MSTORE DUP4 DUP2 DUP4 ADD MSTORE DUP4 PUSH1 0x80 DUP4 ADD MSTORE DUP1 PUSH1 0xA0 DUP4 ADD MSTORE DUP1 PUSH1 0xC0 DUP4 ADD MSTORE DUP1 PUSH1 0xE0 DUP4 ADD MSTORE DUP1 PUSH2 0x100 DUP4 ADD MSTORE DUP4 PUSH2 0x120 DUP4 ADD MSTORE DUP4 PUSH2 0x140 DUP4 ADD MSTORE DUP1 PUSH2 0x160 DUP4 ADD MSTORE DUP1 PUSH2 0x180 DUP4 ADD MSTORE DUP1 PUSH2 0x1A0 DUP4 ADD MSTORE DUP1 PUSH2 0x1C0 DUP4 ADD MSTORE DUP1 PUSH2 0x1E0 DUP4 ADD MSTORE DUP1 PUSH2 0x200 DUP4 ADD MSTORE DUP1 PUSH2 0x220 DUP4 ADD MSTORE DUP1 PUSH2 0x240 DUP4 ADD MSTORE DUP1 PUSH2 0x260 DUP4 ADD MSTORE DUP1 PUSH2 0x280 DUP4 ADD MSTORE DUP1 PUSH2 0x2A0 DUP4 ADD MSTORE DUP1 PUSH2 0x2C0 DUP4 ADD MSTORE DUP1 PUSH2 0x2E0 DUP4 ADD MSTORE DUP1 PUSH2 0x300 DUP4 ADD MSTORE PUSH2 0x320 DUP3 ADD MSTORE DUP3 PUSH2 0x340 DUP3 ADD MSTORE DUP3 PUSH2 0x360 DUP3 ADD MSTORE DUP3 PUSH2 0x380 DUP3 ADD MSTORE DUP3 PUSH2 0x3A0 DUP3 ADD MSTORE DUP3 PUSH2 0x3C0 DUP3 ADD MSTORE DUP3 PUSH2 0x3E0 DUP3 ADD MSTORE ADD MSTORE JUMP JUMPDEST PUSH1 0x1 PUSH1 0x1 PUSH1 0x40 SHL SUB DUP2 GT PUSH2 0x63C JUMPI PUSH1 0x5 SHL PUSH1 0x20 ADD SWAP1 JUMP JUMPDEST DUP1 MLOAD DUP3 LT ISZERO PUSH2 0x3F06 JUMPI PUSH1 0x20 SWAP2 PUSH1 0x5 SHL ADD ADD SWAP1 JUMP INVALID 0xE7 PUSH29 0x2630304C8D9F0DDE30BCBD7F5F47449A9B20540195E95682659297800A 0xD0 LOG2 PUSH5 0x6970667358 0x22 SLT KECCAK256 SHL 0xCD GASPRICE 0xCC XOR SWAP2 MSIZE DIV DUP10 DUP2 SWAP6 SWAP3 REVERT 0xD1 GASLIMIT 0xDB DELEGATECALL SUB PUSH27 0x58A92D4AB27E123C8E9E5757E464736F6C63430008140033000000 "
        },
        "methodIdentifiers": {
          "MAX_DESCRIPTION_LENGTH()": "9201ea0a",
          "MAX_STRING_LENGTH()": "34ccc5ea",
          "acceptTransaction(string,string,string,string)": "aa6ed518",
          "cancelTransaction(string,string,string)": "d867d92f",
          "completeTransaction(string,string)": "7831d75d",
          "createTransaction((string,string,address,address,string,string,string,string,uint256,uint256,string,string,string,string,string,string,string,string,string,string,string,string))": "8d91156f",
          "getBlockchainId(string)": "f1bb29ff",
          "getOrderFullHistory(string)": "41a8bc32",
          "getOrderTransactionHistory(string)": "1a0e0166",
          "getTransaction(uint256)": "33ea3dc8",
          "getTransactionByOrderId(string)": "ecb497d2",
          "getTransactionBySupabaseId(string)": "fa7b9cc4",
          "getTransactionCount()": "2e7700f0",
          "getTransactionStatus(string)": "7725e119",
          "owner()": "8da5cb5b",
          "rejectTransaction(string,string,string)": "fdee1a67",
          "transactionExists(string)": "193bbd88"
        }
      }
    }
  }
}