{
  "_format": "hh-sol-artifact-1",
  "contractName": "CSUMarketplace",
  "sourceName": "contracts/CSUMarketplace.sol",
  "abi": [
    {
      "inputs": [],
      "stateMutability": "nonpayable",
      "type": "constructor"
    },
    {
      "inputs": [],
      "name": "DuplicateTransaction",
      "type": "error"
    },
    {
      "inputs": [],
      "name": "InvalidAddress",
      "type": "error"
    },
    {
      "inputs": [],
      "name": "InvalidPrice",
      "type": "error"
    },
    {
      "inputs": [],
      "name": "InvalidQuantity",
      "type": "error"
    },
    {
      "inputs": [],
      "name": "InvalidStatusTransition",
      "type": "error"
    },
    {
      "inputs": [],
      "name": "OnlyBuyerCanCancel",
      "type": "error"
    },
    {
      "inputs": [],
      "name": "OnlySellerCanAcceptReject",
      "type": "error"
    },
    {
      "inputs": [],
      "name": "OnlySellerOrBuyerCanComplete",
      "type": "error"
    },
    {
      "inputs": [],
      "name": "StringTooLong",
      "type": "error"
    },
    {
      "inputs": [],
      "name": "TransactionNotFound",
      "type": "error"
    },
    {
      "inputs": [],
      "name": "Unauthorized",
      "type": "error"
    },
    {
      "anonymous": false,
      "inputs": [
        {
          "indexed": true,
          "internalType": "uint256",
          "name": "blockchainId",
          "type": "uint256"
        },
        {
          "indexed": false,
          "internalType": "string",
          "name": "supabaseId",
          "type": "string"
        },
        {
          "indexed": false,
          "internalType": "string",
          "name": "orderId",
          "type": "string"
        },
        {
          "indexed": true,
          "internalType": "address",
          "name": "buyerWallet",
          "type": "address"
        },
        {
          "indexed": true,
          "internalType": "address",
          "name": "sellerWallet",
          "type": "address"
        },
        {
          "indexed": false,
          "internalType": "string",
          "name": "sellerName",
          "type": "string"
        },
        {
          "indexed": false,
          "internalType": "string",
          "name": "itemName",
          "type": "string"
        },
        {
          "indexed": false,
          "internalType": "uint256",
          "name": "itemPrice",
          "type": "uint256"
        },
        {
          "indexed": false,
          "internalType": "uint256",
          "name": "quantity",
          "type": "uint256"
        },
        {
          "indexed": false,
          "internalType": "string",
          "name": "listingType",
          "type": "string"
        },
        {
          "indexed": false,
          "internalType": "string",
          "name": "finalPickupLocation",
          "type": "string"
        },
        {
          "indexed": false,
          "internalType": "string",
          "name": "finalMeetupLocation",
          "type": "string"
        },
        {
          "indexed": false,
          "internalType": "uint256",
          "name": "acceptedAt",
          "type": "uint256"
        }
      ],
      "name": "TransactionAccepted",
      "type": "event"
    },
    {
      "anonymous": false,
      "inputs": [
        {
          "indexed": true,
          "internalType": "uint256",
          "name": "blockchainId",
          "type": "uint256"
        },
        {
          "indexed": false,
          "internalType": "string",
          "name": "supabaseId",
          "type": "string"
        },
        {
          "indexed": false,
          "internalType": "string",
          "name": "orderId",
          "type": "string"
        },
        {
          "indexed": true,
          "internalType": "address",
          "name": "buyerWallet",
          "type": "address"
        },
        {
          "indexed": true,
          "internalType": "address",
          "name": "sellerWallet",
          "type": "address"
        },
        {
          "indexed": false,
          "internalType": "string",
          "name": "buyerName",
          "type": "string"
        },
        {
          "indexed": false,
          "internalType": "string",
          "name": "itemName",
          "type": "string"
        },
        {
          "indexed": false,
          "internalType": "uint256",
          "name": "itemPrice",
          "type": "uint256"
        },
        {
          "indexed": false,
          "internalType": "uint256",
          "name": "quantity",
          "type": "uint256"
        },
        {
          "indexed": false,
          "internalType": "string",
          "name": "listingType",
          "type": "string"
        },
        {
          "indexed": false,
          "internalType": "string",
          "name": "cancellationReason",
          "type": "string"
        },
        {
          "indexed": false,
          "internalType": "uint256",
          "name": "cancelledAt",
          "type": "uint256"
        }
      ],
      "name": "TransactionCancelled",
      "type": "event"
    },
    {
      "anonymous": false,
      "inputs": [
        {
          "indexed": true,
          "internalType": "uint256",
          "name": "blockchainId",
          "type": "uint256"
        },
        {
          "indexed": false,
          "internalType": "string",
          "name": "supabaseId",
          "type": "string"
        },
        {
          "indexed": false,
          "internalType": "string",
          "name": "orderId",
          "type": "string"
        },
        {
          "indexed": true,
          "internalType": "address",
          "name": "buyerWallet",
          "type": "address"
        },
        {
          "indexed": true,
          "internalType": "address",
          "name": "sellerWallet",
          "type": "address"
        },
        {
          "indexed": false,
          "internalType": "address",
          "name": "completedBy",
          "type": "address"
        },
        {
          "indexed": false,
          "internalType": "string",
          "name": "itemName",
          "type": "string"
        },
        {
          "indexed": false,
          "internalType": "uint256",
          "name": "itemPrice",
          "type": "uint256"
        },
        {
          "indexed": false,
          "internalType": "uint256",
          "name": "quantity",
          "type": "uint256"
        },
        {
          "indexed": false,
          "internalType": "string",
          "name": "listingType",
          "type": "string"
        },
        {
          "indexed": false,
          "internalType": "string",
          "name": "finalPickupLocation",
          "type": "string"
        },
        {
          "indexed": false,
          "internalType": "string",
          "name": "finalMeetupLocation",
          "type": "string"
        },
        {
          "indexed": false,
          "internalType": "uint256",
          "name": "completedAt",
          "type": "uint256"
        }
      ],
      "name": "TransactionCompleted",
      "type": "event"
    },
    {
      "anonymous": false,
      "inputs": [
        {
          "indexed": true,
          "internalType": "uint256",
          "name": "blockchainId",
          "type": "uint256"
        },
        {
          "indexed": false,
          "internalType": "string",
          "name": "supabaseId",
          "type": "string"
        },
        {
          "indexed": false,
          "internalType": "string",
          "name": "orderId",
          "type": "string"
        },
        {
          "indexed": true,
          "internalType": "address",
          "name": "buyerWallet",
          "type": "address"
        },
        {
          "indexed": true,
          "internalType": "address",
          "name": "sellerWallet",
          "type": "address"
        },
        {
          "indexed": false,
          "internalType": "string",
          "name": "buyerName",
          "type": "string"
        },
        {
          "indexed": false,
          "internalType": "string",
          "name": "sellerName",
          "type": "string"
        },
        {
          "indexed": false,
          "internalType": "string",
          "name": "category",
          "type": "string"
        },
        {
          "indexed": false,
          "internalType": "string",
          "name": "listingType",
          "type": "string"
        },
        {
          "indexed": false,
          "internalType": "string",
          "name": "itemName",
          "type": "string"
        },
        {
          "indexed": false,
          "internalType": "string",
          "name": "itemDescription",
          "type": "string"
        },
        {
          "indexed": false,
          "internalType": "uint256",
          "name": "itemPrice",
          "type": "uint256"
        },
        {
          "indexed": false,
          "internalType": "uint256",
          "name": "quantity",
          "type": "uint256"
        },
        {
          "indexed": false,
          "internalType": "string",
          "name": "pickupLocation",
          "type": "string"
        },
        {
          "indexed": false,
          "internalType": "string",
          "name": "meetupLocation",
          "type": "string"
        },
        {
          "indexed": false,
          "internalType": "string",
          "name": "messageToSeller",
          "type": "string"
        },
        {
          "indexed": false,
          "internalType": "uint256",
          "name": "createdAt",
          "type": "uint256"
        }
      ],
      "name": "TransactionCreated",
      "type": "event"
    },
    {
      "anonymous": false,
      "inputs": [
        {
          "indexed": true,
          "internalType": "uint256",
          "name": "blockchainId",
          "type": "uint256"
        },
        {
          "indexed": false,
          "internalType": "string",
          "name": "supabaseId",
          "type": "string"
        },
        {
          "indexed": false,
          "internalType": "string",
          "name": "orderId",
          "type": "string"
        },
        {
          "indexed": true,
          "internalType": "address",
          "name": "buyerWallet",
          "type": "address"
        },
        {
          "indexed": true,
          "internalType": "address",
          "name": "sellerWallet",
          "type": "address"
        },
        {
          "indexed": false,
          "internalType": "string",
          "name": "sellerName",
          "type": "string"
        },
        {
          "indexed": false,
          "internalType": "string",
          "name": "itemName",
          "type": "string"
        },
        {
          "indexed": false,
          "internalType": "uint256",
          "name": "itemPrice",
          "type": "uint256"
        },
        {
          "indexed": false,
          "internalType": "uint256",
          "name": "quantity",
          "type": "uint256"
        },
        {
          "indexed": false,
          "internalType": "string",
          "name": "listingType",
          "type": "string"
        },
        {
          "indexed": false,
          "internalType": "string",
          "name": "rejectionReason",
          "type": "string"
        },
        {
          "indexed": false,
          "internalType": "uint256",
          "name": "rejectedAt",
          "type": "uint256"
        }
      ],
      "name": "TransactionRejected",
      "type": "event"
    },
    {
      "anonymous": false,
      "inputs": [
        {
          "indexed": true,
          "internalType": "uint256",
          "name": "blockchainId",
          "type": "uint256"
        },
        {
          "indexed": false,
          "internalType": "string",
          "name": "supabaseId",
          "type": "string"
        },
        {
          "indexed": false,
          "internalType": "string",
          "name": "orderId",
          "type": "string"
        },
        {
          "indexed": true,
          "internalType": "address",
          "name": "updatedBy",
          "type": "address"
        },
        {
          "indexed": false,
          "internalType": "string",
          "name": "oldStatus",
          "type": "string"
        },
        {
          "indexed": false,
          "internalType": "string",
          "name": "newStatus",
          "type": "string"
        },
        {
          "indexed": false,
          "internalType": "uint256",
          "name": "updatedAt",
          "type": "uint256"
        }
      ],
      "name": "TransactionStatusUpdated",
      "type": "event"
    },
    {
      "inputs": [],
      "name": "MAX_DESCRIPTION_LENGTH",
      "outputs": [
        {
          "internalType": "uint256",
          "name": "",
          "type": "uint256"
        }
      ],
      "stateMutability": "view",
      "type": "function"
    },
    {
      "inputs": [],
      "name": "MAX_STRING_LENGTH",
      "outputs": [
        {
          "internalType": "uint256",
          "name": "",
          "type": "uint256"
        }
      ],
      "stateMutability": "view",
      "type": "function"
    },
    {
      "inputs": [
        {
          "internalType": "string",
          "name": "supabaseId",
          "type": "string"
        },
        {
          "internalType": "string",
          "name": "newSupabaseId",
          "type": "string"
        },
        {
          "internalType": "string",
          "name": "finalPickupLocation",
          "type": "string"
        },
        {
          "internalType": "string",
          "name": "finalMeetupLocation",
          "type": "string"
        }
      ],
      "name": "acceptTransaction",
      "outputs": [],
      "stateMutability": "nonpayable",
      "type": "function"
    },
    {
      "inputs": [
        {
          "internalType": "string",
          "name": "supabaseId",
          "type": "string"
        },
        {
          "internalType": "string",
          "name": "newSupabaseId",
          "type": "string"
        },
        {
          "internalType": "string",
          "name": "cancellationReason",
          "type": "string"
        }
      ],
      "name": "cancelTransaction",
      "outputs": [],
      "stateMutability": "nonpayable",
      "type": "function"
    },
    {
      "inputs": [
        {
          "internalType": "string",
          "name": "supabaseId",
          "type": "string"
        },
        {
          "internalType": "string",
          "name": "newSupabaseId",
          "type": "string"
        }
      ],
      "name": "completeTransaction",
      "outputs": [],
      "stateMutability": "nonpayable",
      "type": "function"
    },
    {
      "inputs": [
        {
          "components": [
            {
              "internalType": "string",
              "name": "supabaseId",
              "type": "string"
            },
            {
              "internalType": "string",
              "name": "orderId",
              "type": "string"
            },
            {
              "internalType": "address",
              "name": "buyerWallet",
              "type": "address"
            },
            {
              "internalType": "address",
              "name": "sellerWallet",
              "type": "address"
            },
            {
              "internalType": "string",
              "name": "buyerName",
              "type": "string"
            },
            {
              "internalType": "string",
              "name": "sellerName",
              "type": "string"
            },
            {
              "internalType": "string",
              "name": "sellerPhone",
              "type": "string"
            },
            {
              "internalType": "string",
              "name": "category",
              "type": "string"
            },
            {
              "internalType": "string",
              "name": "listingType",
              "type": "string"
            },
            {
              "internalType": "string",
              "name": "itemName",
              "type": "string"
            },
            {
              "internalType": "string",
              "name": "itemDescription",
              "type": "string"
            },
            {
              "internalType": "uint256",
              "name": "itemPrice",
              "type": "uint256"
            },
            {
              "internalType": "uint256",
              "name": "quantity",
              "type": "uint256"
            },
            {
              "internalType": "string",
              "name": "pickupLocation",
              "type": "string"
            },
            {
              "internalType": "string",
              "name": "meetupLocation",
              "type": "string"
            },
            {
              "internalType": "string",
              "name": "requirements",
              "type": "string"
            },
            {
              "internalType": "string",
              "name": "contactInfo",
              "type": "string"
            },
            {
              "internalType": "string",
              "name": "returnCondition",
              "type": "string"
            },
            {
              "internalType": "string",
              "name": "rentalDuration",
              "type": "string"
            },
            {
              "internalType": "string",
              "name": "startDate",
              "type": "string"
            },
            {
              "internalType": "string",
              "name": "endDate",
              "type": "string"
            },
            {
              "internalType": "string",
              "name": "serviceSchedule",
              "type": "string"
            },
            {
              "internalType": "string",
              "name": "serviceDuration",
              "type": "string"
            },
            {
              "internalType": "string",
              "name": "messageToSeller",
              "type": "string"
            },
            {
              "internalType": "string",
              "name": "transactionStatus",
              "type": "string"
            }
          ],
          "internalType": "struct CSUMarketplace.CreateTransactionParams",
          "name": "params",
          "type": "tuple"
        }
      ],
      "name": "createTransaction",
      "outputs": [
        {
          "internalType": "uint256",
          "name": "",
          "type": "uint256"
        }
      ],
      "stateMutability": "nonpayable",
      "type": "function"
    },
    {
      "inputs": [
        {
          "internalType": "string",
          "name": "supabaseId",
          "type": "string"
        }
      ],
      "name": "getBlockchainId",
      "outputs": [
        {
          "internalType": "uint256",
          "name": "",
          "type": "uint256"
        }
      ],
      "stateMutability": "view",
      "type": "function"
    },
    {
      "inputs": [
        {
          "internalType": "string",
          "name": "orderId",
          "type": "string"
        }
      ],
      "name": "getOrderFullHistory",
      "outputs": [
        {
          "components": [
            {
              "internalType": "uint256",
              "name": "blockchainId",
              "type": "uint256"
            },
            {
              "internalType": "string",
              "name": "supabaseId",
              "type": "string"
            },
            {
              "internalType": "string",
              "name": "orderId",
              "type": "string"
            },
            {
              "internalType": "address",
              "name": "buyerWallet",
              "type": "address"
            },
            {
              "internalType": "address",
              "name": "sellerWallet",
              "type": "address"
            },
            {
              "internalType": "string",
              "name": "buyerName",
              "type": "string"
            },
            {
              "internalType": "string",
              "name": "sellerName",
              "type": "string"
            },
            {
              "internalType": "string",
              "name": "sellerPhone",
              "type": "string"
            },
            {
              "internalType": "string",
              "name": "category",
              "type": "string"
            },
            {
              "internalType": "string",
              "name": "listingType",
              "type": "string"
            },
            {
              "internalType": "string",
              "name": "itemName",
              "type": "string"
            },
            {
              "internalType": "string",
              "name": "itemDescription",
              "type": "string"
            },
            {
              "internalType": "uint256",
              "name": "itemPrice",
              "type": "uint256"
            },
            {
              "internalType": "uint256",
              "name": "quantity",
              "type": "uint256"
            },
            {
              "internalType": "string",
              "name": "pickupLocation",
              "type": "string"
            },
            {
              "internalType": "string",
              "name": "meetupLocation",
              "type": "string"
            },
            {
              "internalType": "string",
              "name": "finalPickupLocation",
              "type": "string"
            },
            {
              "internalType": "string",
              "name": "finalMeetupLocation",
              "type": "string"
            },
            {
              "internalType": "string",
              "name": "requirements",
              "type": "string"
            },
            {
              "internalType": "string",
              "name": "contactInfo",
              "type": "string"
            },
            {
              "internalType": "string",
              "name": "returnCondition",
              "type": "string"
            },
            {
              "internalType": "string",
              "name": "rentalDuration",
              "type": "string"
            },
            {
              "internalType": "string",
              "name": "startDate",
              "type": "string"
            },
            {
              "internalType": "string",
              "name": "endDate",
              "type": "string"
            },
            {
              "internalType": "string",
              "name": "serviceSchedule",
              "type": "string"
            },
            {
              "internalType": "string",
              "name": "serviceDuration",
              "type": "string"
            },
            {
              "internalType": "string",
              "name": "messageToSeller",
              "type": "string"
            },
            {
              "internalType": "string",
              "name": "rejectionReason",
              "type": "string"
            },
            {
              "internalType": "string",
              "name": "transactionStatus",
              "type": "string"
            },
            {
              "internalType": "uint256",
              "name": "createdAt",
              "type": "uint256"
            },
            {
              "internalType": "uint256",
              "name": "updatedAt",
              "type": "uint256"
            },
            {
              "internalType": "uint256",
              "name": "acceptedAt",
              "type": "uint256"
            },
            {
              "internalType": "uint256",
              "name": "rejectedAt",
              "type": "uint256"
            },
            {
              "internalType": "uint256",
              "name": "completedAt",
              "type": "uint256"
            },
            {
              "internalType": "uint256",
              "name": "cancelledAt",
              "type": "uint256"
            },
            {
              "internalType": "address",
              "name": "lastUpdatedBy",
              "type": "address"
            }
          ],
          "internalType": "struct CSUMarketplace.Transaction[]",
          "name": "",
          "type": "tuple[]"
        }
      ],
      "stateMutability": "view",
      "type": "function"
    },
    {
      "inputs": [
        {
          "internalType": "string",
          "name": "orderId",
          "type": "string"
        }
      ],
      "name": "getOrderTransactionHistory",
      "outputs": [
        {
          "internalType": "uint256[]",
          "name": "",
          "type": "uint256[]"
        }
      ],
      "stateMutability": "view",
      "type": "function"
    },
    {
      "inputs": [
        {
          "internalType": "uint256",
          "name": "blockchainId",
          "type": "uint256"
        }
      ],
      "name": "getTransaction",
      "outputs": [
        {
          "components": [
            {
              "internalType": "uint256",
              "name": "blockchainId",
              "type": "uint256"
            },
            {
              "internalType": "string",
              "name": "supabaseId",
              "type": "string"
            },
            {
              "internalType": "string",
              "name": "orderId",
              "type": "string"
            },
            {
              "internalType": "address",
              "name": "buyerWallet",
              "type": "address"
            },
            {
              "internalType": "address",
              "name": "sellerWallet",
              "type": "address"
            },
            {
              "internalType": "string",
              "name": "buyerName",
              "type": "string"
            },
            {
              "internalType": "string",
              "name": "sellerName",
              "type": "string"
            },
            {
              "internalType": "string",
              "name": "sellerPhone",
              "type": "string"
            },
            {
              "internalType": "string",
              "name": "category",
              "type": "string"
            },
            {
              "internalType": "string",
              "name": "listingType",
              "type": "string"
            },
            {
              "internalType": "string",
              "name": "itemName",
              "type": "string"
            },
            {
              "internalType": "string",
              "name": "itemDescription",
              "type": "string"
            },
            {
              "internalType": "uint256",
              "name": "itemPrice",
              "type": "uint256"
            },
            {
              "internalType": "uint256",
              "name": "quantity",
              "type": "uint256"
            },
            {
              "internalType": "string",
              "name": "pickupLocation",
              "type": "string"
            },
            {
              "internalType": "string",
              "name": "meetupLocation",
              "type": "string"
            },
            {
              "internalType": "string",
              "name": "finalPickupLocation",
              "type": "string"
            },
            {
              "internalType": "string",
              "name": "finalMeetupLocation",
              "type": "string"
            },
            {
              "internalType": "string",
              "name": "requirements",
              "type": "string"
            },
            {
              "internalType": "string",
              "name": "contactInfo",
              "type": "string"
            },
            {
              "internalType": "string",
              "name": "returnCondition",
              "type": "string"
            },
            {
              "internalType": "string",
              "name": "rentalDuration",
              "type": "string"
            },
            {
              "internalType": "string",
              "name": "startDate",
              "type": "string"
            },
            {
              "internalType": "string",
              "name": "endDate",
              "type": "string"
            },
            {
              "internalType": "string",
              "name": "serviceSchedule",
              "type": "string"
            },
            {
              "internalType": "string",
              "name": "serviceDuration",
              "type": "string"
            },
            {
              "internalType": "string",
              "name": "messageToSeller",
              "type": "string"
            },
            {
              "internalType": "string",
              "name": "rejectionReason",
              "type": "string"
            },
            {
              "internalType": "string",
              "name": "transactionStatus",
              "type": "string"
            },
            {
              "internalType": "uint256",
              "name": "createdAt",
              "type": "uint256"
            },
            {
              "internalType": "uint256",
              "name": "updatedAt",
              "type": "uint256"
            },
            {
              "internalType": "uint256",
              "name": "acceptedAt",
              "type": "uint256"
            },
            {
              "internalType": "uint256",
              "name": "rejectedAt",
              "type": "uint256"
            },
            {
              "internalType": "uint256",
              "name": "completedAt",
              "type": "uint256"
            },
            {
              "internalType": "uint256",
              "name": "cancelledAt",
              "type": "uint256"
            },
            {
              "internalType": "address",
              "name": "lastUpdatedBy",
              "type": "address"
            }
          ],
          "internalType": "struct CSUMarketplace.Transaction",
          "name": "",
          "type": "tuple"
        }
      ],
      "stateMutability": "view",
      "type": "function"
    },
    {
      "inputs": [
        {
          "internalType": "string",
          "name": "orderId",
          "type": "string"
        }
      ],
      "name": "getTransactionByOrderId",
      "outputs": [
        {
          "components": [
            {
              "internalType": "uint256",
              "name": "blockchainId",
              "type": "uint256"
            },
            {
              "internalType": "string",
              "name": "supabaseId",
              "type": "string"
            },
            {
              "internalType": "string",
              "name": "orderId",
              "type": "string"
            },
            {
              "internalType": "address",
              "name": "buyerWallet",
              "type": "address"
            },
            {
              "internalType": "address",
              "name": "sellerWallet",
              "type": "address"
            },
            {
              "internalType": "string",
              "name": "buyerName",
              "type": "string"
            },
            {
              "internalType": "string",
              "name": "sellerName",
              "type": "string"
            },
            {
              "internalType": "string",
              "name": "sellerPhone",
              "type": "string"
            },
            {
              "internalType": "string",
              "name": "category",
              "type": "string"
            },
            {
              "internalType": "string",
              "name": "listingType",
              "type": "string"
            },
            {
              "internalType": "string",
              "name": "itemName",
              "type": "string"
            },
            {
              "internalType": "string",
              "name": "itemDescription",
              "type": "string"
            },
            {
              "internalType": "uint256",
              "name": "itemPrice",
              "type": "uint256"
            },
            {
              "internalType": "uint256",
              "name": "quantity",
              "type": "uint256"
            },
            {
              "internalType": "string",
              "name": "pickupLocation",
              "type": "string"
            },
            {
              "internalType": "string",
              "name": "meetupLocation",
              "type": "string"
            },
            {
              "internalType": "string",
              "name": "finalPickupLocation",
              "type": "string"
            },
            {
              "internalType": "string",
              "name": "finalMeetupLocation",
              "type": "string"
            },
            {
              "internalType": "string",
              "name": "requirements",
              "type": "string"
            },
            {
              "internalType": "string",
              "name": "contactInfo",
              "type": "string"
            },
            {
              "internalType": "string",
              "name": "returnCondition",
              "type": "string"
            },
            {
              "internalType": "string",
              "name": "rentalDuration",
              "type": "string"
            },
            {
              "internalType": "string",
              "name": "startDate",
              "type": "string"
            },
            {
              "internalType": "string",
              "name": "endDate",
              "type": "string"
            },
            {
              "internalType": "string",
              "name": "serviceSchedule",
              "type": "string"
            },
            {
              "internalType": "string",
              "name": "serviceDuration",
              "type": "string"
            },
            {
              "internalType": "string",
              "name": "messageToSeller",
              "type": "string"
            },
            {
              "internalType": "string",
              "name": "rejectionReason",
              "type": "string"
            },
            {
              "internalType": "string",
              "name": "transactionStatus",
              "type": "string"
            },
            {
              "internalType": "uint256",
              "name": "createdAt",
              "type": "uint256"
            },
            {
              "internalType": "uint256",
              "name": "updatedAt",
              "type": "uint256"
            },
            {
              "internalType": "uint256",
              "name": "acceptedAt",
              "type": "uint256"
            },
            {
              "internalType": "uint256",
              "name": "rejectedAt",
              "type": "uint256"
            },
            {
              "internalType": "uint256",
              "name": "completedAt",
              "type": "uint256"
            },
            {
              "internalType": "uint256",
              "name": "cancelledAt",
              "type": "uint256"
            },
            {
              "internalType": "address",
              "name": "lastUpdatedBy",
              "type": "address"
            }
          ],
          "internalType": "struct CSUMarketplace.Transaction",
          "name": "",
          "type": "tuple"
        }
      ],
      "stateMutability": "view",
      "type": "function"
    },
    {
      "inputs": [
        {
          "internalType": "string",
          "name": "supabaseId",
          "type": "string"
        }
      ],
      "name": "getTransactionBySupabaseId",
      "outputs": [
        {
          "components": [
            {
              "internalType": "uint256",
              "name": "blockchainId",
              "type": "uint256"
            },
            {
              "internalType": "string",
              "name": "supabaseId",
              "type": "string"
            },
            {
              "internalType": "string",
              "name": "orderId",
              "type": "string"
            },
            {
              "internalType": "address",
              "name": "buyerWallet",
              "type": "address"
            },
            {
              "internalType": "address",
              "name": "sellerWallet",
              "type": "address"
            },
            {
              "internalType": "string",
              "name": "buyerName",
              "type": "string"
            },
            {
              "internalType": "string",
              "name": "sellerName",
              "type": "string"
            },
            {
              "internalType": "string",
              "name": "sellerPhone",
              "type": "string"
            },
            {
              "internalType": "string",
              "name": "category",
              "type": "string"
            },
            {
              "internalType": "string",
              "name": "listingType",
              "type": "string"
            },
            {
              "internalType": "string",
              "name": "itemName",
              "type": "string"
            },
            {
              "internalType": "string",
              "name": "itemDescription",
              "type": "string"
            },
            {
              "internalType": "uint256",
              "name": "itemPrice",
              "type": "uint256"
            },
            {
              "internalType": "uint256",
              "name": "quantity",
              "type": "uint256"
            },
            {
              "internalType": "string",
              "name": "pickupLocation",
              "type": "string"
            },
            {
              "internalType": "string",
              "name": "meetupLocation",
              "type": "string"
            },
            {
              "internalType": "string",
              "name": "finalPickupLocation",
              "type": "string"
            },
            {
              "internalType": "string",
              "name": "finalMeetupLocation",
              "type": "string"
            },
            {
              "internalType": "string",
              "name": "requirements",
              "type": "string"
            },
            {
              "internalType": "string",
              "name": "contactInfo",
              "type": "string"
            },
            {
              "internalType": "string",
              "name": "returnCondition",
              "type": "string"
            },
            {
              "internalType": "string",
              "name": "rentalDuration",
              "type": "string"
            },
            {
              "internalType": "string",
              "name": "startDate",
              "type": "string"
            },
            {
              "internalType": "string",
              "name": "endDate",
              "type": "string"
            },
            {
              "internalType": "string",
              "name": "serviceSchedule",
              "type": "string"
            },
            {
              "internalType": "string",
              "name": "serviceDuration",
              "type": "string"
            },
            {
              "internalType": "string",
              "name": "messageToSeller",
              "type": "string"
            },
            {
              "internalType": "string",
              "name": "rejectionReason",
              "type": "string"
            },
            {
              "internalType": "string",
              "name": "transactionStatus",
              "type": "string"
            },
            {
              "internalType": "uint256",
              "name": "createdAt",
              "type": "uint256"
            },
            {
              "internalType": "uint256",
              "name": "updatedAt",
              "type": "uint256"
            },
            {
              "internalType": "uint256",
              "name": "acceptedAt",
              "type": "uint256"
            },
            {
              "internalType": "uint256",
              "name": "rejectedAt",
              "type": "uint256"
            },
            {
              "internalType": "uint256",
              "name": "completedAt",
              "type": "uint256"
            },
            {
              "internalType": "uint256",
              "name": "cancelledAt",
              "type": "uint256"
            },
            {
              "internalType": "address",
              "name": "lastUpdatedBy",
              "type": "address"
            }
          ],
          "internalType": "struct CSUMarketplace.Transaction",
          "name": "",
          "type": "tuple"
        }
      ],
      "stateMutability": "view",
      "type": "function"
    },
    {
      "inputs": [],
      "name": "getTransactionCount",
      "outputs": [
        {
          "internalType": "uint256",
          "name": "",
          "type": "uint256"
        }
      ],
      "stateMutability": "view",
      "type": "function"
    },
    {
      "inputs": [
        {
          "internalType": "string",
          "name": "supabaseId",
          "type": "string"
        }
      ],
      "name": "getTransactionStatus",
      "outputs": [
        {
          "internalType": "string",
          "name": "",
          "type": "string"
        }
      ],
      "stateMutability": "view",
      "type": "function"
    },
    {
      "inputs": [],
      "name": "owner",
      "outputs": [
        {
          "internalType": "address",
          "name": "",
          "type": "address"
        }
      ],
      "stateMutability": "view",
      "type": "function"
    },
    {
      "inputs": [
        {
          "internalType": "string",
          "name": "supabaseId",
          "type": "string"
        },
        {
          "internalType": "string",
          "name": "newSupabaseId",
          "type": "string"
        },
        {
          "internalType": "string",
          "name": "rejectionReason",
          "type": "string"
        }
      ],
      "name": "rejectTransaction",
      "outputs": [],
      "stateMutability": "nonpayable",
      "type": "function"
    },
    {
      "inputs": [
        {
          "internalType": "string",
          "name": "supabaseId",
          "type": "string"
        }
      ],
      "name": "transactionExists",
      "outputs": [
        {
          "internalType": "bool",
          "name": "",
          "type": "bool"
        }
      ],
      "stateMutability": "view",
      "type": "function"
    }
  ],
  "bytecode": "0x6080806040523461002c57600180546001600160a01b031916331790556000805561493f90816100328239f35b600080fdfe6101e080604052600436101561001457600080fd5b60003560e01c908163193bbd8814613eb1575080631a0e016614613de55780632e7700f014613dc757806333ea3dc814613d8f57806334ccc5ea14613d7257806341a8bc32146138f35780637725e119146138505780637831d75d1461325f5780638da5cb5b146132365780639201ea0a14613219578063aa6ed51814612a92578063aeddd8cc146111bf578063d867d92f14610b7d578063ecb497d214610b0c578063f1bb29ff14610abb578063fa7b9cc41461072b5763fdee1a67146100db57600080fd5b34610726576100e93661424e565b939092919460ff60405183838237602081858101600481520301902054161561071457602090826040519384928337810160038152030190205460005260026020526040600020917f4be840e351422c3b302abb79aa7db05560ead7e387e413320822a342fca3f54e60405161016d8161016681601c8901614443565b0382614510565b602081519101206650656e64696e6760c81b602060405161018d816144f5565b600781520152036107025760ff60405186848237602081888101600481520301902054166106f0576101c06000546142f9565b938460005584600052600260205260406000208581556001600160401b03871161066a57600181016101fc886101f6835461431e565b83614399565b876000601f821160011461068b57600091610680575b508860011b906000198a60031b1c19161790555b6102366002860160028301614531565b60038581015490820180546001600160a01b039283166001600160a01b03199182161790915560048088015490840180549190931691161790556102806005808701908301614531565b6102906006860160068301614531565b6102a06007860160078301614531565b6102b06008860160088301614531565b6102c06009860160098301614531565b6102d0600a8601600a8301614531565b6102e0600b8601600b8301614531565b600c850154600c820155600d850154600d820155610304600e8601600e8301614531565b610314600f8601600f8301614531565b6103246012860160128301614531565b6103346013860160138301614531565b6103446014860160148301614531565b6103546015860160158301614531565b6103646016860160168301614531565b6103746017860160178301614531565b6103846018860160188301614531565b6103946019860160198301614531565b6103a4601a8601601a8301614531565b6103bd6103b4601c83015461431e565b601c830161436f565b60106714995a9958dd195960c21b01601c8201556001600160401b03821161066a578692816103fd846103f4601b8b96015461431e565b601b8401614399565b6000601f85116001146105b25794846002947f969ea5fc807308a4f63891bd07c02ec25adfb0f71f721c0ae5fab88debf7f5486105479560236105799b966000805160206148ea8339815191529d9a6105569c6000916105a7575b508660011b906000198860031b1c191617601b8201555b601d8b0154601d82015542602082015542601e82015501336001600160601b0360a01b8254161790558260405186888237602081888101600381520301902055604051858782376020818781016004815203019020600160ff19825416179055826104db898b0161460f565b556104f0836104eb8a8c016146a2565b6143de565b60018060a01b0360038a015416936105328a600c81015492600d820154948a604051968796339c42966009810194600a8201926002600684019301918c614735565b0390a46040519860a08a5260a08a0191614422565b91878303602089015201614443565b8481036040860152604090600781526650656e64696e6760c81b60208201520190565b926714995a9958dd195960c21b602082860395866060850152600881520152426080820152604033940190a3005b905083013538610458565b601b820160005260206000209060005b601f198716811061064c5750946002947f969ea5fc807308a4f63891bd07c02ec25adfb0f71f721c0ae5fab88debf7f5486105479560236105799b966105569b966000805160206148ea8339815191529e9b87601f19811610610632575b5050600186811b01601b82015561046f565b840135600019600389901b60f8161c191690553880610620565b8185013583558b97508a9550600190920191602091820191016105c2565b634e487b7160e01b600052604160045260246000fd5b905085013538610212565b60008381526020812092505b601f198b1681106106d8575089601f198116106106be575b5050600188811b019055610226565b86013560001960038b901b60f8161c1916905538806106af565b9091602060018192858b013581550193019101610697565b604051632928418b60e01b8152600490fd5b60405163088bd32360e11b8152600490fd5b6040516331fb878f60e01b8152600490fd5b600080fd5b3461072657602080600319360112610726576004356001600160401b0381116107265761075c903690600401613f02565b906107656147bc565b5060ff6040518383823784818581016004815203019020541615610714578290826040519384928337810160038152030190205460005260028152604060002090604051916107b3836144d9565b805483526040516107cb816101668160018601614443565b828401526040516107e3816101668160028601614443565b6040840152602360018060a01b039182600382015416606086015282600482015416608086015260405161081e816101668160058601614443565b60a0860152604051610837816101668160068601614443565b60c0860152604051610850816101668160078601614443565b60e0860152604051610869816101668160088601614443565b610100860152604051610883816101668160098601614443565b61012086015260405161089d8161016681600a8601614443565b6101408601526040516108b78161016681600b8601614443565b610160860152600c810154610180860152600d8101546101a08601526040516108e78161016681600e8601614443565b6101c08601526040516109018161016681600f8601614443565b6101e086015260405161091b816101668160108601614443565b610200860152604051610935816101668160118601614443565b61022086015260405161094f816101668160128601614443565b610240860152604051610969816101668160138601614443565b610260860152604051610983816101668160148601614443565b61028086015260405161099d816101668160158601614443565b6102a08601526040516109b7816101668160168601614443565b6102c08601526040516109d1816101668160178601614443565b6102e08601526040516109eb816101668160188601614443565b610300860152604051610a05816101668160198601614443565b610320860152604051610a1f8161016681601a8601614443565b610340860152604051610a398161016681601b8601614443565b610360860152604051610a538161016681601c8601614443565b610380860152601d8101546103a0860152601e8101546103c0860152601f8101546103e08601528381015461040086015260218101546104208601526022810154610440860152015416610460830152610ab7604051928284938452830190613f6f565b0390f35b34610726576020366003190112610726576004356001600160401b038111610726576020610aee81923690600401613f02565b91908260405193849283378101600381520301902054604051908152f35b3461072657602080600319360112610726576004356001600160401b03811161072657610b3e82913690600401613f02565b9190610b486147bc565b50826040519384928337810160058152030190205480156107145760005260028152604060002090604051916107b3836144d9565b3461072657610b8b3661424e565b92919460ff6040959295518383823760208185810160048152030190205416156107145760209082604051938492833781016003815203019020546000526002602052604060002091604051610be88161016681601c8801614443565b602081519101206650656e64696e6760c81b6020604051610c08816144f5565b6007815201527f4be840e351422c3b302abb79aa7db05560ead7e387e413320822a342fca3f54e8114159081611174575b506107025760ff60405186848237602081888101600481520301902054166106f057610c666000546142f9565b938460005584600052600260205260406000208581556001600160401b03871161066a57610ca487610c9b600184015461431e565b60018401614399565b866000601f8211600114611106576000916110fb575b508760011b906000198960031b1c19161760018201555b610ce16002860160028301614531565b60038581015490820180546001600160a01b039283166001600160a01b0319918216179091556004808801549084018054919093169116179055610d2b6005808701908301614531565b610d3b6006860160068301614531565b610d4b6007860160078301614531565b610d5b6008860160088301614531565b610d6b6009860160098301614531565b610d7b600a8601600a8301614531565b610d8b600b8601600b8301614531565b600c850154600c820155600d850154600d820155610daf600e8601600e8301614531565b610dbf600f8601600f8301614531565b610dcf6010860160108301614531565b610ddf6011860160118301614531565b610def6012860160128301614531565b610dff6013860160138301614531565b610e0f6014860160148301614531565b610e1f6015860160158301614531565b610e2f6016860160168301614531565b610e3f6017860160178301614531565b610e4f6018860160188301614531565b610e5f6019860160198301614531565b610e6f601a8601601a8301614531565b610e7f6103b4601c83015461431e565b60126810d85b98d95b1b195960ba1b01601c8201556001600160401b03831161066a57869181610eb7856103f4601b8b96015461431e565b6000601f86116001146110435794601c94610ffa947fd16082890981e130ba7d013182f9e32f7b379f8ee11963f9eedb2610d0d5de67610fe99560236110099b96866000805160206148ea8339815191529e9c600091611038575b508760011b906000198960031b1c191617601b8201555b601d8c0154601d82015542602282015542601e82015501336001600160601b0360a01b8254161790558260405185888237602081878101600381520301902055604051848782376020818681016004815203019020600160ff1982541617905582610f9660028c0161460f565b55610fa7836104eb60028d016146a2565b60018060a01b0360048b015416946105328b600c81015492600d820154948a604051968796339b42966009810194600a8201926002600584019301918c614735565b878103602089015260028401614443565b91868303604088015201614443565b926810d85b98d95b1b195960ba1b602082860395866060850152600981520152426080820152604033940190a3005b905083013538610f12565b601b820160005260206000209060005b601f19881681106110dd575094610ffa947fd16082890981e130ba7d013182f9e32f7b379f8ee11963f9eedb2610d0d5de67610fe99560236110099b968b96601c9b6000805160206148ea8339815191529f9d601f198116106110c3575b5050600187811b01601b820155610f29565b84013560001960038a901b60f8161c1916905538806110b1565b8185013583558b96508a955060019092019160209182019101611053565b905084013588610cba565b90506001820160005260206000209060005b601f198a16811061115c575088601f19811610611142575b5050600187811b016001820155610cd1565b85013560001960038a901b60f8161c191690558780611130565b9091602060018192858a013581550193019101611118565b7f71fb55c0cb0fd74783d23c772b2f895cb0c286e8e0fab4f642555d8b1ffce2529150671058d8d95c1d195960c21b60206040516111b1816144f5565b600881520152141586610c39565b3461072657600319602036820112610726576001600160401b0360043511610726576103209060043536030112610726576001600160a01b036112066004356044016142b3565b16158015612a74575b612a62576112216044600435016142b3565b6001600160a01b036112376004356064016142b3565b6001600160a01b03909216911614612a625760ff602061125b6004803501806142c7565b91908260405193849283378101600481520301902054166106f057610164600435013515612a5157610184600435013515612a3f576101f46112a8610124600435016004356004016142c7565b905011612a2d576107d06112c7610144600435016004356004016142c7565b905011612a2d576112d96000546142f9565b60008181558181526002602052604090208181556112fb6004803501806142c7565b906001600160401b03821161066a5781906113268261131d600187015461431e565b60018701614399565b600090601f83116001146129bc576000926129b1575b50508160011b916000199060031b1c19161760018201555b6113686024600435016004356004016142c7565b906001600160401b03821161066a5781906113938261138a600287015461431e565b60028701614399565b600090601f831160011461294057600092612935575b50508160011b916000199060031b1c19161760028201555b6113cf6044600435016142b3565b6003820180546001600160a01b0319166001600160a01b039092169190911790556113fe6004356064016142b3565b600482019060018060a01b03166001600160601b0360a01b8254161790556114306084600435016004356004016142c7565b906001600160401b03821161066a57819061145b82611452600587015461431e565b60058701614399565b600090601f83116001146128c4576000926128b9575b50508160011b916000199060031b1c19161760058201555b61149d60a4600435016004356004016142c7565b906001600160401b03821161066a5781906114c8826114bf600687015461431e565b60068701614399565b600090601f83116001146128485760009261283d575b50508160011b916000199060031b1c19161760068201555b61150a60c4600435016004356004016142c7565b906001600160401b03821161066a5781906115358261152c600787015461431e565b60078701614399565b600090601f83116001146127cc576000926127c1575b50508160011b916000199060031b1c19161760078201555b61157760e4600435016004356004016142c7565b906001600160401b03821161066a5781906115a282611599600887015461431e565b60088701614399565b600090601f831160011461275057600092612745575b50508160011b916000199060031b1c19161760088201555b6115e5610104600435016004356004016142c7565b906001600160401b03821161066a57819061161082611607600987015461431e565b60098701614399565b600090601f83116001146126d4576000926126c9575b50508160011b916000199060031b1c19161760098201555b611653610124600435016004356004016142c7565b906001600160401b03821161066a57819061167e82611675600a87015461431e565b600a8701614399565b600090601f83116001146126585760009261264d575b50508160011b916000199060031b1c191617600a8201555b6116c1610144600435016004356004016142c7565b906001600160401b03821161066a5781906116ec826116e3600b87015461431e565b600b8701614399565b600090601f83116001146125dc576000926125d1575b50508160011b916000199060031b1c191617600b8201555b60048035610164810135600c840155610184810135600d840155611744916101a4820191016142c7565b906001600160401b03821161066a57819061176f82611766600e87015461431e565b600e8701614399565b600090601f831160011461256057600092612555575b50508160011b916000199060031b1c191617600e8201555b6117b26101c4600435016004356004016142c7565b906001600160401b03821161066a5781906117dd826117d4600f87015461431e565b600f8701614399565b600090601f83116001146124e4576000926124d9575b50508160011b916000199060031b1c191617600f8201555b6118206101e4600435016004356004016142c7565b906001600160401b03821161066a57819061184b82611842601287015461431e565b60128701614399565b600090601f83116001146124685760009261245d575b50508160011b916000199060031b1c19161760128201555b61188e610204600435016004356004016142c7565b906001600160401b03821161066a5781906118b9826118b0601387015461431e565b60138701614399565b600090601f83116001146123ec576000926123e1575b50508160011b916000199060031b1c19161760138201555b6118fc610224600435016004356004016142c7565b906001600160401b03821161066a5781906119278261191e601487015461431e565b60148701614399565b600090601f831160011461237057600092612365575b50508160011b916000199060031b1c19161760148201555b61196a610244600435016004356004016142c7565b906001600160401b03821161066a5781906119958261198c601587015461431e565b60158701614399565b600090601f83116001146122f4576000926122e9575b50508160011b916000199060031b1c19161760158201555b6119d8610264600435016004356004016142c7565b906001600160401b03821161066a578190611a03826119fa601687015461431e565b60168701614399565b600090601f83116001146122785760009261226d575b50508160011b916000199060031b1c19161760168201555b611a46610284600435016004356004016142c7565b906001600160401b03821161066a578190611a7182611a68601787015461431e565b60178701614399565b600090601f83116001146121fc576000926121f1575b50508160011b916000199060031b1c19161760178201555b611ab46102a4600435016004356004016142c7565b906001600160401b03821161066a578190611adf82611ad6601887015461431e565b60188701614399565b600090601f831160011461218057600092612175575b50508160011b916000199060031b1c19161760188201555b611b226102c4600435016004356004016142c7565b906001600160401b03821161066a578190611b4d82611b44601987015461431e565b60198701614399565b600090601f8311600114612104576000926120f9575b50508160011b916000199060031b1c19161760198201555b611b906102e4600435016004356004016142c7565b906001600160401b03821161066a578190611bbb82611bb2601a87015461431e565b601a8701614399565b600090601f83116001146120885760009261207d575b50508160011b916000199060031b1c191617601a8201555b611bfe610304600435016004356004016142c7565b906001600160401b03821161066a578190611c2982611c20601c87015461431e565b601c8701614399565b600090601f831160011461200c57600092612001575b50508160011b916000199060031b1c191617601c8201555b42601d82015542601e820155600435604401611c72906142b3565b602390910180546001600160a01b0319166001600160a01b0390921691909117905580611ca36004803501806142c7565b90816040519283928337600390820190815203602001902055611cca6004803501806142c7565b9081604051928392833781016004815203602001902060ff1981541660011790558060043560240160043560040190611d02916142c7565b90816040519283928337810160058152036020019020558060043560240160043560040190611d30916142c7565b9081604051928392833781016006815203602001902090611d50916143de565b611d5e6004803501806142c7565b906101005260043560240160043560040190611d79916142c7565b6101c05261012052611d8f6044600435016142b3565b9082611d9f6064600435016142b3565b91611db2600480356084810191016142c7565b61016052611dc86004803560a4810191016142c7565b90611ddb6004803560e4810191016142c7565b90611def60048035610104810191016142c7565b9190926004356101240160043560040190611e09916142c7565b9590966004356101440160043560040190611e23916142c7565b99909a6004356101a40160043560040190611e3d916142c7565b6101a05261018052611e58600480356101c4810191016142c7565b60a05261014052611e72600480356102e4810191016142c7565b60c05260e052604051806080526101c090526080516101c0016101005191611e9992614422565b60805180820390602001526101c051906101205191611eb792614422565b608051808203906040015261016051611ecf92614422565b906080518083039060600152611ee492614422565b906080518083039060800152611ef992614422565b906080518083039060a00152611f0e92614422565b906080518083039060c00152611f2392614422565b906080518083039060e00152611f3892614422565b60043561016401356080516101000152600435610184013560805161012001526080518082039061014001526101a051906101805191611f7792614422565b60805180820390610160015260a051906101405191611f9592614422565b60805180820390610180015260c0519060e05191611fb292614422565b60808051426101a090910152516001600160a01b0393841694909316927f47c45480a144ee00e48b3f2fb883dbf12a937e843e600907e57cd76b3a782b879181900390a4604051908152602090f35b013590508480611c3f565b909250601c84016000526020600020906000935b601f1984168510612065576001945083601f1981161061204b575b505050811b01601c820155611c57565b0135600019600384901b60f8161c1916905584808061203b565b81810135835560209485019460019093019201612020565b013590508480611bd1565b909250601a84016000526020600020906000935b601f19841685106120e1576001945083601f198116106120c7575b505050811b01601a820155611be9565b0135600019600384901b60f8161c191690558480806120b7565b8181013583556020948501946001909301920161209c565b013590508480611b63565b909250601984016000526020600020906000935b601f198416851061215d576001945083601f19811610612143575b505050811b016019820155611b7b565b0135600019600384901b60f8161c19169055848080612133565b81810135835560209485019460019093019201612118565b013590508480611af5565b909250601884016000526020600020906000935b601f19841685106121d9576001945083601f198116106121bf575b505050811b016018820155611b0d565b0135600019600384901b60f8161c191690558480806121af565b81810135835560209485019460019093019201612194565b013590508480611a87565b909250601784016000526020600020906000935b601f1984168510612255576001945083601f1981161061223b575b505050811b016017820155611a9f565b0135600019600384901b60f8161c1916905584808061222b565b81810135835560209485019460019093019201612210565b013590508480611a19565b909250601684016000526020600020906000935b601f19841685106122d1576001945083601f198116106122b7575b505050811b016016820155611a31565b0135600019600384901b60f8161c191690558480806122a7565b8181013583556020948501946001909301920161228c565b0135905084806119ab565b909250601584016000526020600020906000935b601f198416851061234d576001945083601f19811610612333575b505050811b0160158201556119c3565b0135600019600384901b60f8161c19169055848080612323565b81810135835560209485019460019093019201612308565b01359050848061193d565b909250601484016000526020600020906000935b601f19841685106123c9576001945083601f198116106123af575b505050811b016014820155611955565b0135600019600384901b60f8161c1916905584808061239f565b81810135835560209485019460019093019201612384565b0135905084806118cf565b909250601384016000526020600020906000935b601f1984168510612445576001945083601f1981161061242b575b505050811b0160138201556118e7565b0135600019600384901b60f8161c1916905584808061241b565b81810135835560209485019460019093019201612400565b013590508480611861565b909250601284016000526020600020906000935b601f19841685106124c1576001945083601f198116106124a7575b505050811b016012820155611879565b0135600019600384901b60f8161c19169055848080612497565b8181013583556020948501946001909301920161247c565b0135905084806117f3565b909250600f84016000526020600020906000935b601f198416851061253d576001945083601f19811610612523575b505050811b01600f82015561180b565b0135600019600384901b60f8161c19169055848080612513565b818101358355602094850194600190930192016124f8565b013590508480611785565b909250600e84016000526020600020906000935b601f19841685106125b9576001945083601f1981161061259f575b505050811b01600e82015561179d565b0135600019600384901b60f8161c1916905584808061258f565b81810135835560209485019460019093019201612574565b013590508480611702565b909250600b84016000526020600020906000935b601f1984168510612635576001945083601f1981161061261b575b505050811b01600b82015561171a565b0135600019600384901b60f8161c1916905584808061260b565b818101358355602094850194600190930192016125f0565b013590508480611694565b909250600a84016000526020600020906000935b601f19841685106126b1576001945083601f19811610612697575b505050811b01600a8201556116ac565b0135600019600384901b60f8161c19169055848080612687565b8181013583556020948501946001909301920161266c565b013590508480611626565b909250600984016000526020600020906000935b601f198416851061272d576001945083601f19811610612713575b505050811b01600982015561163e565b0135600019600384901b60f8161c19169055848080612703565b818101358355602094850194600190930192016126e8565b0135905084806115b8565b909250600884016000526020600020906000935b601f19841685106127a9576001945083601f1981161061278f575b505050811b0160088201556115d0565b0135600019600384901b60f8161c1916905584808061277f565b81810135835560209485019460019093019201612764565b01359050848061154b565b909250600784016000526020600020906000935b601f1984168510612825576001945083601f1981161061280b575b505050811b016007820155611563565b0135600019600384901b60f8161c191690558480806127fb565b818101358355602094850194600190930192016127e0565b0135905084806114de565b909250600684016000526020600020906000935b601f19841685106128a1576001945083601f19811610612887575b505050811b0160068201556114f6565b0135600019600384901b60f8161c19169055848080612877565b8181013583556020948501946001909301920161285c565b013590508480611471565b909250600584016000526020600020906000935b601f198416851061291d576001945083601f19811610612903575b505050811b016005820155611489565b0135600019600384901b60f8161c191690558480806128f3565b818101358355602094850194600190930192016128d8565b0135905084806113a9565b909250600284016000526020600020906000935b601f1984168510612999576001945083601f1981161061297f575b505050811b0160028201556113c1565b0135600019600384901b60f8161c1916905584808061296f565b81810135835560209485019460019093019201612954565b01359050848061133c565b909250600184016000526020600020906000935b601f1984168510612a15576001945083601f198116106129fb575b505050811b016001820155611354565b0135600019600384901b60f8161c191690558480806129eb565b818101358355602094850194600190930192016129d0565b604051631623655b60e31b8152600490fd5b60405163524f409b60e01b8152600490fd5b60405162bfc92160e01b8152600490fd5b60405163e6c4247b60e01b8152600490fd5b506001600160a01b03612a8b6004356064016142b3565b161561120f565b34610726576080366003190112610726576004356001600160401b03811161072657612ac2903690600401613f02565b906024356001600160401b03811161072657612ae2903690600401613f02565b92906044356001600160401b03811161072657612b03903690600401613f02565b906064356001600160401b03811161072657612b23903690600401613f02565b94909560ff60405183838237602081858101600481520301902054161561071457602090826040519384928337810160038152030190205460005260026020526040600020937f4be840e351422c3b302abb79aa7db05560ead7e387e413320822a342fca3f54e604051612b9e8161016681601c8b01614443565b602081519101206650656e64696e6760c81b6020604051612bbe816144f5565b600781520152036107025760ff604051888682376020818a8101600481520301902054166106f057612bf16000546142f9565b95866000558660005260026020526040600020918783556001600160401b03891161066a57612c3089612c27600186015461431e565b60018601614399565b886000601f82116001146131ab576000916131a0575b508960011b906000198b60031b1c19161760018401555b612c6d6002880160028501614531565b60038781015490840180546001600160a01b039283166001600160a01b0319918216179091556004808a01549086018054919093169116179055612cb76005808901908501614531565b612cc76006880160068501614531565b612cd76007880160078501614531565b612ce76008880160088501614531565b612cf76009880160098501614531565b612d07600a8801600a8501614531565b612d17600b8801600b8501614531565b600c870154600c840155600d870154600d840155612d3b600e8801600e8501614531565b612d4b600f8801600f8501614531565b612d5b6012880160128501614531565b612d6b6013880160138501614531565b612d7b6014880160148501614531565b612d8b6015880160158501614531565b612d9b6016880160168501614531565b612dab6017880160178501614531565b612dbb6018880160188501614531565b612dcb6019880160198501614531565b612ddb601a8801601a8501614531565b601c8301612df2612dec825461431e565b8261436f565b6010671058d8d95c1d195960c21b0190556001600160401b03851161066a57612e2b85612e22601086015461431e565b60108601614399565b846000601f821160011461313257600091613127575b508560011b906000198760031b1c19161760108401555b6001600160401b03811161066a5782612e8282612e7960118c97015461431e565b60118401614399565b6000601f83116001146130b857600090836130ad575b508260011b906000198460031b1c19161760118201555b601d880154601d82015542601f82015542601e820155602301336001600160601b0360a01b825416179055826040518a888237808b8101600381520360200190205560405189878237808a81016004815203602001902060ff1981541660011790558260028801612f1f9061460f565b5582612f2d600289016146a2565b90612f37916143de565b600160a01b6001900360038801541693600c88015495600d89015496604051978c610140808b528a01612f6a918c614422565b89810360208b0152612f7f9060028d01614443565b89810360408b0152612f949060068d01614443565b89810360608b0152612fa990600a8d01614443565b9160808a015260a089015287810360c089015260098a0190612fca91614443565b9087820360e0890152612fdc92614422565b90858203610100870152612fef92614422565b9242610120820152803394037f9f05ce70672573fc1d86730ee0a71865ada0a93208389d4e76b5698b5108b43491a46040519360a0855260a085019061303492614422565b838103602085015261304891600201614443565b828103604084015261306f90604090600781526650656e64696e6760c81b60208201520190565b828103606084015260088152671058d8d95c1d195960c21b602082015260400191426080820152803393036000805160206148ea83398151915291a3005b90508301358b612e98565b6011820160005260206000209060005b601f198516811061310c575083601f198116106130f2575b5050600182811b016011820155612eaf565b840135600019600385901b60f8161c191690558a806130e0565b8186013583558b9650600190920191602091820191016130c8565b90508401358a612e41565b90506010840160005260206000209060005b601f1988168110613188575086601f1981161061316e575b5050600185811b016010840155612e58565b850135600019600388901b60f8161c19169055898061315c565b9091602060018192858a013581550193019101613144565b90508601358a612c46565b90506001840160005260206000209060005b601f198c16811061320157508a601f198116106131e7575b5050600189811b016001840155612c5d565b87013560001960038c901b60f8161c1916905589806131d5565b9091602060018192858c0135815501930191016131bd565b346107265760003660031901126107265760206040516107d08152f35b34610726576000366003190112610726576001546040516001600160a01b039091168152602090f35b34610726576040366003190112610726576001600160401b0360043581811161072657613290903690600401613f02565b9190602435828111610726576132aa903690600401613f02565b93909160ff604051838382376020818581016004815203019020541615610714576020908260405193849283378101600381520301902054918260005260026020527f71fb55c0cb0fd74783d23c772b2f895cb0c286e8e0fab4f642555d8b1ffce252610166613327601c60406000200160405192838092614443565b60208151910120671058d8d95c1d195960c21b6020604051613348816144f5565b600881520152036107025760ff60405185848237602081878101600481520301902054166106f05761337b6000546142f9565b92836000556000526002602052604060002083600052604060002091848355851161066a576133ba856133b1600185015461431e565b60018501614399565b846000601f82116001146137c65792601f80613768946000805160206148ea833981519152979461378c976000916137bb575b508a60011b906000198c60031b1c19161760018501555b6134146002820160028601614531565b60038181015490850180546001600160a01b039283166001600160a01b031991821617909155600480840154908701805491909316911617905561345e6005808301908601614531565b61346e6006820160068601614531565b61347e6007820160078601614531565b61348e6008820160088601614531565b61349e6009820160098601614531565b6134ae600a8201600a8601614531565b6134be600b8201600b8601614531565b600c810154600c850155600d810154600d8501556134e2600e8201600e8601614531565b6134f2600f8201600f8601614531565b6135026010820160108601614531565b6135126011820160118601614531565b6135226012820160128601614531565b6135326013820160138601614531565b6135426014820160148601614531565b6135526015820160158601614531565b6135626016820160168601614531565b6135726017820160178601614531565b6135826018820160188601614531565b6135926019820160198601614531565b6135a2601a8201601a8601614531565b601d810154601d850155015491015584600052600260205261375a6040600020916135dc6135d3601c85015461431e565b601c850161436f565b60126810dbdb5c1b195d195960ba1b01601c8401554260218401819055601e8401556023830180546001600160a01b031916331790556040518790898382376020818b8101600381520301902055604051888282376020818a81016004815203019020600160ff198254161790556002830192876136598561460f565b55613667886104eb866146a2565b60018060a01b03600382015416887f7eb090b0d076732e0e2c62254d3e200f4cebcb162b68ab76d295f9dc10b543d7848c61373e60018060a01b0360048801541696601161372e61371d8d600c850154906137016136ea600d880154926136dc6040519c8d9c8d610140908181520191614422565b908b820360208d0152614443565b3360408b015289810360608b0152600a8801614443565b91608089015260a088015286810360c088015260098501614443565b85810360e087015260108401614443565b9184830361010086015201614443565b426101208301520390a46040519760a0895260a0890191614422565b908682036020880152614443565b848103604086015260409060088152671058d8d95c1d195960c21b60208201520190565b926810dbdb5c1b195d195960ba1b602082860395866060850152600981520152426080820152604033940190a3005b90508501358b6133ed565b90506001830160005260206000209060005b601f1988168110613838575092601f80613768946000805160206148ea833981519152979461378c978b841981161061381e575b505060018a811b016001850155613404565b86013560001960038d901b60f8161c191690558a8061380c565b909160206001819285890135815501930191016137d8565b3461072657602080600319360112610726576004356001600160401b03811161072657613881903690600401613f02565b60ff604093929351828582378381848101600481520301902054161561071457816138d8938260405193849283378101600381520301902054600052600281526138df601c60406000200160405193848092614443565b0383614510565b610ab7604051928284938452830190613f2f565b3461072657602080600319360112610726576004356001600160401b03811161072657613924903690600401613f02565b8060405192833781019082816006938481520301902090604051808385829554938481520190600052856000209260005b87828210613d5c5750505061396c92500383614510565b815190613978826148be565b916139866040519384614510565b808352613995601f19916148be565b018460005b828110613d465750505060005b8351811015613ce857806139be613ce392866148d5565b5160005260028087526040600020610166613a09604051936139df856144d9565b835485526040516139f7816101668160018901614443565b8b860152604051928380928601614443565b6040830152602360018060a01b0391826003820154166060850152826004820154166080850152604051613a44816101668160058601614443565b60a0850152604051613a5c81610166818b8601614443565b60c0850152604051613a75816101668160078601614443565b60e0850152604051613a8e816101668160088601614443565b610100850152604051613aa8816101668160098601614443565b610120850152604051613ac28161016681600a8601614443565b610140850152604051613adc8161016681600b8601614443565b610160850152600c810154610180850152600d8101546101a0850152604051613b0c8161016681600e8601614443565b6101c0850152604051613b268161016681600f8601614443565b6101e0850152604051613b40816101668160108601614443565b610200850152604051613b5a816101668160118601614443565b610220850152604051613b74816101668160128601614443565b610240850152604051613b8e816101668160138601614443565b610260850152604051613ba8816101668160148601614443565b610280850152604051613bc2816101668160158601614443565b6102a0850152604051613bdc816101668160168601614443565b6102c0850152604051613bf6816101668160178601614443565b6102e0850152604051613c10816101668160188601614443565b610300850152604051613c2a816101668160198601614443565b610320850152604051613c448161016681601a8601614443565b610340850152604051613c5e8161016681601b8601614443565b610360850152604051613c788161016681601c8601614443565b610380850152601d8101546103a0850152601e8101546103c0850152601f8101546103e08501528981015461040085015260218101546104208501526022810154610440850152015416610460820152613cd282866148d5565b52613cdd81856148d5565b506142f9565b6139a7565b604080518681528451818801819052600092600582901b8301810191878a01918a9085015b828710613d1a5785850386f35b909192938280613d36600193603f198a82030186528851613f6f565b9601920196019592919092613d0d565b613d4e6147bc565b82828701015201859061399a565b8554845260019586019588955093019201613955565b346107265760003660031901126107265760206040516101f48152f35b346107265760208060031936011261072657613da96147bc565b5060043560005260028152604060002090604051916107b3836144d9565b34610726576000366003190112610726576020600054604051908152f35b3461072657602080600319360112610726576004356001600160401b03811161072657613e1782913690600401613f02565b91908260405193849283378101600681520301902060405190818382549182815201908192600052846000209060005b86828210613e9d578686613e5d82880383614510565b604051928392818401908285525180915260408401929160005b828110613e8657505050500390f35b835185528695509381019392810192600101613e77565b835485529093019260019283019201613e47565b34610726576020366003190112610726576004356001600160401b038111610726578160208093613ee860ff943690600401613f02565b809183378101600481520301902054166040519015158152f35b9181601f84011215610726578235916001600160401b038311610726576020838186019501011161072657565b919082519283825260005b848110613f5b575050826000602080949584010152601f8019910116010190565b602081830181015184830182015201613f3a565b908151815260208201516104808060208401528201613f8d91613f2f565b6040830151908281036040840152613fa491613f2f565b91600160a01b600190039283606083015116606084015283608083015116608084015260a08201519083810360a0850152613fde91613f2f565b60c08201519083810360c0850152613ff591613f2f565b60e08201519083810360e085015261400c91613f2f565b6101009081830151918482039085015261402591613f2f565b6101209081830151918482039085015261403e91613f2f565b6101409081830151918482039085015261405791613f2f565b6101609081830151918482039085015261407091613f2f565b61018080830151908401526101a080830151908401526101c09081830151918482039085015261409f91613f2f565b6101e0908183015191848203908501526140b891613f2f565b610200908183015191848203908501526140d191613f2f565b610220908183015191848203908501526140ea91613f2f565b6102409081830151918482039085015261410391613f2f565b6102609081830151918482039085015261411c91613f2f565b6102809081830151918482039085015261413591613f2f565b6102a09081830151918482039085015261414e91613f2f565b6102c09081830151918482039085015261416791613f2f565b6102e09081830151918482039085015261418091613f2f565b6103009081830151918482039085015261419991613f2f565b610320908183015191848203908501526141b291613f2f565b610340908183015191848203908501526141cb91613f2f565b610360908183015191848203908501526141e491613f2f565b610380908183015191848203908501526141fd91613f2f565b926103a080830151908401526103c080830151908401526103e08083015190840152610400808301519084015261042080830151908401526104408083015190840152610460809201511691015290565b906060600319830112610726576001600160401b03600435818111610726578361427a91600401613f02565b93909392602435838111610726578261429591600401613f02565b93909392604435918211610726576142af91600401613f02565b9091565b356001600160a01b03811681036107265790565b903590601e198136030182121561072657018035906001600160401b0382116107265760200191813603831361072657565b60001981146143085760010190565b634e487b7160e01b600052601160045260246000fd5b90600182811c9216801561434e575b602083101461433857565b634e487b7160e01b600052602260045260246000fd5b91607f169161432d565b818110614363575050565b60008155600101614358565b90601f811161437c575050565b61439791600052601f6020600020910160051c810190614358565b565b9190601f81116143a857505050565b614397926000526020600020906020601f840160051c830193106143d4575b601f0160051c0190614358565b90915081906143c7565b8054906801000000000000000082101561066a576001820180825582101561440c5760005260206000200155565b634e487b7160e01b600052603260045260246000fd5b908060209392818452848401376000828201840152601f01601f1916010190565b90600092918054916144548361431e565b9182825260019384811690816000146144b65750600114614476575b50505050565b90919394506000526020928360002092846000945b8386106144a2575050505001019038808080614470565b80548587018301529401938590820161448b565b9294505050602093945060ff191683830152151560051b01019038808080614470565b61048081019081106001600160401b0382111761066a57604052565b604081019081106001600160401b0382111761066a57604052565b90601f801991011681019081106001600160401b0382111761066a57604052565b9080821461460b57614543815461431e565b906001600160401b03821161066a57819061456882614562865461431e565b86614399565b600090601f831160011461459f57600092614594575b50508160011b916000199060031b1c1916179055565b01549050388061457e565b81526020808220858352818320935090601f1985169083905b8282106145f25750509084600195949392106145d9575b505050811b019055565b015460001960f88460031b161c191690553880806145cf565b84958192958501548155600180910196019401906145b8565b5050565b6040519081600082546146218161431e565b936001918083169081156146865750600114614649575b505060209250600581520301902090565b90915060005260209081600020906000915b858310614672575050505060209181013880614638565b80548784015286945091830191810161465b565b92505050602093915060ff191682528015150281013880614638565b6040519081600082546146b48161431e565b9360019180831690811561471957506001146146dc575b505060209250600681520301902090565b90915060005260209081600020906000915b8583106147055750505050602091810138806146cb565b8054878401528694509183019181016146ee565b92505050602093915060ff1916825280151502810138806146cb565b9b9a999593946147838d6147a9976147756147b79c976147676101009f9d989761479198610120808852870191614422565b908482036020860152614443565b916040818403910152614443565b8d810360608f015290614443565b9260808c015260a08b015289820360c08b0152614443565b9187830360e0890152614422565b930152565b604051906147c9826144d9565b81610460600091828152606080602083015280604083015283818301528360808301528060a08301528060c08301528060e08301528061010083015280610120830152806101408301528061016083015283610180830152836101a0830152806101c0830152806101e08301528061020083015280610220830152806102408301528061026083015280610280830152806102a0830152806102c0830152806102e083015280610300830152806103208301528061034083015280610360830152610380820152826103a0820152826103c0820152826103e08201528261040082015282610420820152826104408201520152565b6001600160401b03811161066a5760051b60200190565b805182101561440c5760209160051b01019056fee77c2630304c8d9f0dde30bcbd7f5f47449a9b20540195e95682659297800ad0a264697066735822122058b197d39ce3dce39a1b6fcb5a8e46df410c6b9f0d8382140dbb49a619ff232c64736f6c63430008140033",
  "linkReferences": {},
  "deployedLinkReferences": {}
}